:020000040800F2
:10000000E84D0020E90200086D380008A13300081F
:100010006938000875070008E13E0008000000008C
:10002000000000000000000000000000290200089D
:10003000650F000800000000850200089D380008D8
:100040000303000803030008030300080303000878
:100050000303000803030008030300080303000868
:100060000303000803030008030300080303000858
:100070006909000803030008790900080303000860
:1000800003030008030300080303000889070008AE
:1000900079070008030300080303000803030008AE
:1000A000030300089939000803030008030300084C
:1000B0000303000803030008030300080303000808
:1000C00003030008030300080303000803030008F8
:1000D00003030008B13E000803030008C13E000806
:1000E00003030008030300080303000803030008D8
:1000F00003030008030300080303000803030008C8
:1001000003030008030300080303000803030008B7
:1001100003030008030300080303000803030008A7
:10012000030300088909000899090008030300086F
:10013000030300080303000803030008A9070008DD
:1001400099070008030300080303000803030008DD
:1001500003030008A9090008B9090008D13E0008F6
:100160000303000803030008030300080303000857
:100170000303000803030008030300080000000055
:10018000030300080303000800F002F800F03CF845
:100190000AA090E8000C82448344AAF10107DA45E2
:1001A00001D100F031F8AFF2090EBAE80F0013F0F8
:1001B000010F18BFFB1A43F00103184770570000E6
:1001C00090570000103A24BF78C878C1FAD8520777
:1001D00024BF30C830C144BF04680C6070470000C1
:1001E0000023002400250026103A28BF78C1FBD840
:1001F000520728BF30C148BF0B6070471FB505F0DC
:1002000011FB1FBD10B510BD00F0A6F91146FFF798
:10021000F5FF03F09CFE00F0C4F903B4FFF7F2FF12
:1002200003BC00F0CBF900002C4B19680868B0E85B
:10023000F04F80F30988BFF36F8F4FF0000080F319
:10024000118870470000000008480068006880F3CB
:1002500008884FF0000080F3148862B661B6BFF3DF
:100260004F8FBFF36F8F00DF00BF00BF08ED00E0CE
:10027000DFF80C00016841F470010160704700BFB5
:1002800088ED00E0EFF30980BFF36F8F134B1A681E
:100290001EF0100F08BF20ED108A20E9F04F10600B
:1002A00009B44FF0500080F31188BFF34F8FBFF3B4
:1002B0006F8F04F081FC4FF0000080F3118809BCBF
:1002C00019680868B0E8F04F1EF0100F08BFB0ECD6
:1002D000108A80F30988BFF36F8F704734000020C5
:1002E000EFF3058070470000094880470948004740
:1002F000FEE7FEE7FEE7FEE7FEE7FEE7FEE7FEE7D6
:10030000FEE7FEE704480549054A064B7047000032
:100310008539000889010008E8470020E84D0020E1
:10032000E8490020E849002053EA020C00F0698007
:100330002DE9F04B4FF00006002B1FBFB3FA83F5F9
:1003400003FA05F424FA05F65E4012BF1643B2FA2A
:1003500082F502FA05F4C5F120051EBF22FA05FC5C
:1003600044EA0C04203556EA044C4FEA144418BF02
:10037000641C4FF000084FF00009904271EB030C31
:1003800039D3002919BFB1FA81F701FA07F6B0FA9B
:1003900080F700FA07F6C7F120071EBF20FA07FC16
:1003A00046EA0C062037B6FBF4FCA7EB0507103F26
:1003B00007F01F0BCBF120060CFA0BFB2CFA06F60C
:1003C00044BFB3460026202FA4BF5E464FF0000B6B
:1003D0005BEA060C08BF4FF0010B19EB0B09ABFBF6
:1003E000027C48EB0608C01B06FB02CC0BFB03CCCF
:1003F00071EB0C01C1E70B46024641464846BDE899
:10040000F08B13B54FF000004FF00001AFF3008008
:10041000BDE81C407047032A40F2308010F0030C06
:1004200000F0158011F8013BBCF1020F624498BF47
:1004300011F801CB00F8013B38BF11F8013BA2F1E4
:10044000040298BF00F801CB38BF00F8013B11F05F
:10045000030300F02580083AC0F0088051F8043BFF
:10046000083A51F804CBA0E80810F5E7121D5CBF6C
:1004700051F8043B40F8043BAFF30080D20724BF9F
:1004800011F8013B11F801CB48BF11F8012B24BF33
:1004900000F8013B00F801CB48BF00F8012B704782
:1004A00010B5203AC0F00B80B1E81850203AA0E80F
:1004B0001850B1E81850A0E81850BFF4F5AF5FEA43
:1004C000027C24BFB1E81850A0E8185044BF18C9F6
:1004D00018C0BDE810405FEA827C24BF51F8043B9D
:1004E00040F8043B08BF7047D20728BF31F8023BF1
:1004F00048BF11F8012B28BF20F8023B48BF00F885
:10050000012B70474FF0000200B513469446964603
:10051000203922BFA0E80C50A0E80C50B1F1200116
:10052000BFF4F7AF090728BFA0E80C5048BF0CC0C4
:100530005DF804EB890028BF40F8042B08BF704722
:1005400048BF20F8022B11F0804F18BF00F8012B94
:100550007047704770477047754600F02BF8AE46FD
:1005600005006946534620F00700854618B020B5BF
:10057000FFF7C8FEBDE820404FF000064FF000072F
:100580004FF000084FF0000B21F00701AC46ACE83B
:10059000C009ACE8C009ACE8C009ACE8C0098D46A8
:1005A000704710B50446AFF300802046BDE8104008
:1005B000FFF733BE004870478447002001491820E8
:1005C000ABBEFEE726000200704700BF012003F02B
:1005D000DDFCFBE78AB000BF4FF0FF3269460548FB
:1005E000006804F0AFFD09AB07AA01A9009800F06C
:1005F000D2FCF1E70800002010B586B0002004907E
:100600000590029003903A480088000A8DF8100087
:10061000374800788DF8110035484088000A8DF879
:100620001200334880788DF8130031488088000A22
:100630008DF814002E4800798DF815002C4800899B
:10064000000A8DF816002A48007A8DF8170004A8D1
:100650000090284840F20F13002227494468274899
:100660000068A04722484089000A8DF80800204809
:10067000807A8DF809001E48C07D8DF80A009DF82B
:100680000B001B49497E01F0010108438DF80B0066
:100690009DF80B001649097B01F0010140EA410079
:1006A0008DF80B009DF80B001149097E01F0010146
:1006B00040EA81008DF80B009DF80B000C49897E03
:1006C00001F0010140EAC1008DF80B000848807D6F
:1006D0008DF80C0002A80090064840F21F1300227B
:1006E0000549446805480068A04706B010BD0000F1
:1006F0006C460020CC00002084030020080000206D
:100700000FB49DF81D009DF81C1040EA012000B2B6
:100710001649C8819DF81F109DF81E0041EA00206F
:10072000124948849DF821109DF8200041EA0020DC
:1007300000B200EE100AB8EEC00A0C4880ED040AC0
:1007400090ED040ADFED0A0A80EE201A80ED041A0B
:100750009DF8220000F001000449C8769DF82200AF
:10076000C0F34000888404B0704700006C4600204D
:1007700000007A4400BFFEE710B5024800F00BFE0F
:1007800010BD00005C03002010B5024800F003FE1D
:1007900010BD00005C03002010B5024800F0FBFD16
:1007A00010BD00008403002010B5024800F0F3FDE6
:1007B00010BD00008403002070B504460D460020E3
:1007C000206160616062A0610120E0612062002020
:1007D00020606060A060E0602146284600F080FC58
:1007E00008B100F0C0FB70BD70B504460D46681E30
:1007F000C6B206EB460101EB0611074A02EB810087
:100800002146FFF7D9FF204601F0F3F802212046E8
:1008100000F0ACFB70BD0000A44600202DE9F041C3
:100820008AB007460E4614461D46DDF84080019604
:100830000CB9029500E0039504940021059108216C
:10084000069100218DF81C10D8F800000890D8F807
:100850000400099000231A4601A9384604F020FB41
:100860000AB0BDE8F08100008EB000BF4FF0FF324B
:1008700005A90B48006804F065FC059CB4F5017FF0
:10088000F4D940F206208442F0D8142209A968461F
:10089000FFF706FE0348056805A80FC8A847E5E767
:1008A00000000020B80000208EB000BF4FF0FF32E3
:1008B00005A91448006804F045FC059C9DF830002B
:1008C00000F00F001049088040F20F1084420AD156
:1008D000142209A96846FFF7E3FD0C48456805A8FE
:1008E0000FC8A847E2E7084800880128DED1142293
:1008F00009A96846FFF7D4FD0548C56805A80FC8D3
:10090000A847D3E704000020C0000020C400002056
:100910009C000020002022E000EBC001114A02EB05
:10092000C101B1F84410012908DA012100EBC0022D
:100930000C4B03EBC20282F8461007E0002100EBEB
:10094000C002084B03EBC20282F84610002100EB04
:10095000C002044B03EBC202A2F84410401C012861
:10096000DADB7047FC43002010B5024801F0E2F8E2
:1009700010BD0000A405002010B5024801F0DAF80F
:1009800010BD00004405002010B5024801F0D2F867
:1009900010BD00000406002010B5024801F0CAF89E
:1009A00010BD0000E404002010B5024801F0C2F8B8
:1009B00010BD00006406002010B5024801F0BAF82E
:1009C00010BD000084040020014608781038182368
:1009D000B0FBF3F20848805CC865032A05D90868B3
:1009E0006FF30900001D886503E008686FF30900D4
:1009F0008865886D70470000BC58000801460020DB
:100A00008A6A8B69CBB932B1012A0DD0022A03D090
:100A1000032A10D10EE000BFCB6A03F08073B3F15C
:100A2000807F00D1012007E0CB6AB3F1C07F00D105
:100A3000012001E000E000BF34E08B69B3F5005F06
:100A40001AD132B1012A07D0022A03D0032A11D1C8
:100A50000AE000BF01200EE0CB6A03F08073B3F11F
:100A6000807F00D1012006E0CB6AB3F1C07F00D1C6
:100A7000012000E000BF15E032B1012A05D0022AB2
:100A800004D0032A0CD103E000BF00BF012008E01E
:100A9000CB6A03F08073B3F1807F00D1012000E0C6
:100AA00000BF00BF7047000010B58AB0012002905F
:100AB0000021049105910821069100218DF81C1058
:100AC000FF208DF82000FF2101A841778177C177B1
:100AD0008DF824108DF825108DF82610FC218DF846
:100AE000271008A800900548012300220449446803
:100AF00004480068A0470AB010BD0000CC000020E8
:100B0000840300200800002090ED010ABCEEC00A1A
:100B100010EE101A018490ED010A80ED0F0A0021F9
:100B20000187704710B58AB001200290002104911E
:100B300005910821069100218DF81C10FF208DF8E9
:100B40002000FF2101A841778177C1778DF824101B
:100B50008DF825108DF82610FE218DF8271008A895
:100B600000900548012300220449446804480068B5
:100B7000A0470AB010BD0000CC0000208403002074
:100B8000080000200FB410B52DED048B9DF8340043
:100B900000F00F040698441EB2EE090AB0EE408A37
:100BA0009FEDA80AF0EE408AB1EE0C0AB0EE409A32
:100BB00004EBC400A44901EBC00090ED010ABCEEB7
:100BC000C00A10EE100A04EBC4019F4A02EBC101F7
:100BD00008849DF83400001104EBC40122F83100B0
:100BE00006A8817F407F41EA002000EE100AB8EE9F
:100BF000400A04EBC400114601EBC00080ED060A78
:100C000006A8C07F01019DF8380041EA201000EEDF
:100C1000100AB8EE400A04EBC400114601EBC00014
:100C200080ED070A9DF838009DF8391000EE101A83
:100C3000B8EE400A04EBC400114601EBC00080EDA1
:100C4000040A04EBC40102EBC10191ED060ABDEEFA
:100C5000C00A10EE100A1021F0EE480AB1EE480A60
:100C600003F094FD04EBC400774901EBC00080ED74
:100C7000010A04EBC40001EBC000D0ED010AB0EEA4
:100C8000001A80EE810ADFED710A20EE200ADFED06
:100C9000700A20EE200A04EBC40001EBC00080EDD6
:100CA000010A04EBC401684A02EBC10191ED070A95
:100CB000BDEEC00A10EE100A0C21F0EE680AB1EE8B
:100CC000680A03F063FD04EBC4005F4901EBC00058
:100CD00080ED020A04EBC4015B4A02EBC10191ED15
:100CE000040ABDEEC00A10EE100A0C21F0EE490A0B
:100CF000B1EE490A03F04AFD04EBC400524901EB8E
:100D0000C00080ED050A9DF83A0000EE100AB8EE2A
:100D1000400ABCEEC00A10EE100A04EBC4014A4AB5
:100D200002EBC10108739DF83B0000EE100AB8EE1B
:100D3000400ABCEEC00A10EE100A04EBC40102EB3C
:100D4000C101487304EBC400114601EBC000D0EDB3
:100D5000010A04EBC40001EBC000008C00EE100A95
:100D6000B8EE400A30EEC00ADFED3A0AB4EEE00A0F
:100D7000F1EE10FA0BD204EBC40001EBC000008FBF
:100D8000401C00B204EBC40102EBC101088704EB74
:100D9000C4002D4901EBC000008C00EE100AB8EE33
:100DA000400A04EBC40001EBC000D0ED010A30EEB4
:100DB000600ADFED280AB4EEE00AF1EE10FA0CD278
:100DC00004EBC40001EBC000008F401E00B204EB36
:100DD000C4011D4A02EBC101088704EBC4001A4993
:100DE00001EBC000D0ED010A04EBC40001EBC00030
:100DF000B0F93800400300EE100AB8EEC00A30EE39
:100E0000800A04EBC40001EBC00080ED0F0A04EB84
:100E1000C40001EBC000B0F84400401C04EBC40166
:100E2000094A02EBC101A1F84400012004EBC4010E
:100E300002EBC10181F84200BDEC048B10BC5DF8EF
:100E400014FB000000004843FC430020DB0F494036
:100E5000000010420020CBC52DE9F0472DED0A8B94
:100E6000B0EE408AF0EE608AB0EE419AF0EE619A00
:100E7000B0EE42AA0446DFED340A88EE200AF0EE16
:100E8000000A20EE200ADFED310A20EE200AB0EE43
:100E900040CA9FED2F0AF0EE40AA9FED2E0AB0EE59
:100EA00040BAB1EE0C0AF0EE40BA1020B0EE6A1A69
:100EB000F1EE6A0AB0EE4C0A03F030F885B20C206D
:100EC000B0EE4B1AF1EE4B0AB0EE680A03F026F8CA
:100ED00086B20C20B0EE6B1AF1EE6B0AB0EE4A0A45
:100EE00003F01CF887B20C209FED1B1ADFED1B0AE4
:100EF000B0EE490A03F012F81FFA80F80C20B1EEA8
:100F0000041ADFED160AB0EE690A03F007F81FFABB
:100F100080F9281220706570C6F30710A0703007A2
:100F2000000E40EA2820E07084F80480C9F307101E
:100F300060714FEA0970000E40EA2720A071E77146
:100F4000BDEC0A8BBDE8F08700000046DB0F49408E
:100F5000DC0F4940000048430000FA430000000055
:100F600081627047704772B600BFFEE710B5024657
:100F700092F82030012B01D0022B06D11068406975
:100F8000084314686061002010BD506A40F480205E
:100F900050620120F8E7F0B504460D461E4694F86D
:100FA000207020688368A86800B900E000BF012FA6
:100FB00001D0022F7DD103F0806030B903F00060D2
:100FC00018B903F0805000287ED0C3F301610120DE
:100FD00088403060A86860B9B5F800C0E86840EAA9
:100FE0004C5C206800F5C07000EB0110C0F800C038
:100FF0000FE0D5E901C040EACC00D5F80CC040EACA
:101000000C00D4F800C00CF5C07C0CEB011CCCF833
:101010000000D5F810C0206800F5C07000EB01108A
:10102000C0F804C0287D01280ED1206800F5C070EA
:1010300000EB0110406840F4807C206800F5C0702F
:1010400000EB0110C0F804C0D079000692F806C089
:1010500040EA0C4092F805C040EA0C2092F804C027
:1010600040EA0C00D4F800C00CF5C07C0CEB011C6D
:10107000CCF80C00D078000692F802C040EA0C4090
:1010800092F801C040EA0C2092F800C040EA0C003F
:10109000D4F800C00CF5C07C0CEB011CCCF80800A7
:1010A000206800F5C07000EB0110006840F0010CF2
:1010B00001E00FE008E0206800F5C07000EB0110CF
:1010C000C0F800C00020F0BD606A40F4001060620B
:1010D0000120F8E7606A40F4802060620120F2E7B6
:1010E000F0B504460A4694F82050012D01D0022D97
:1010F0007ED1424901F50071086840F001000860A6
:10110000086820F47C5008600868566A40EA0620A7
:101110000860107D00F01F06012000FA06F3C86980
:101120009843C861A1F50071D069C8B9D1F80C0223
:101130009843C1F80C02908880B2968940EA06462E
:1011400001F51070576940F83760108880B2168931
:1011500040EA064601F51070576900EBC70046608B
:10116000D069012819D1D1F80C021843C1F80C023A
:10117000908880B2168840EA064601F510705769DB
:1011800040F83760908980B2168940EA064601F53A
:101190001070576900EBC7004660906928B9D1F814
:1011A00004029843C1F8040204E0D1F80402184391
:1011B000C1F80402106928B9D1F814029843C1F8A3
:1011C000140204E0D1F814021843C1F81402106AA2
:1011D000012804D1D1F81C021843C1F81C02D1F82F
:1011E000000220F00100C1F800020020F0BDFFE77E
:1011F000606A40F4802060620120F7E700640040EC
:10120000704770B5044694F82050012D01D0022D8E
:101210007DD151B92068C06800F0030080B9606AD0
:1012200040F400106062012070BD2068006900F089
:10123000030028B9606A40F4001060620120F3E7FF
:10124000206800F5D87000EB0110006800F0040081
:101250009060906840B9206800F5D87000EB0110EC
:101260000068400D106007E0206800F5D87000EBC2
:1012700001100068C0085060206800F5D87000EBCD
:101280000110006800F00200D060206800F5D870FE
:1012900000EB0110406800F00F00082802D308207E
:1012A000106108E0206800F5D87000EB011040687C
:1012B00000F00F001061206800F5D87000EB0110FD
:1012C000406800F47F40000A9061206800F5D87003
:1012D00000EB01104068000C5061206800F5D870E8
:1012E00000EB011080681870206800F5D87000EBE2
:1012F0000110806800F47F40000A5870206800F5F3
:10130000D87000EB0110806800F47F0000E03CE042
:10131000000C9870206800F5D87000EB0110806810
:10132000000ED870206800F5D87000EB0110C0687E
:101330001871206800F5D87000EB0110C06800F447
:101340007F40000A5871206800F5D87000EB01104A
:10135000C06800F47F00000C9871206800F5D87018
:1013600000EB0110C068000ED87131B92068C06868
:1013700040F020002668F06005E02068006940F039
:1013800020002668306100204EE7606A40F480202B
:101390006062012048E72DE9F05F044600252068DF
:1013A00046692068D0F80490206887682068D0F8E3
:1013B0000CA02068D0F810B02068D0F8188006F093
:1013C0000100002855D007F00100C0B101202168BC
:1013D000886007F0020018B1204600F03AFB0EE0EA
:1013E00007F0040010B145F4006508E007F00800BC
:1013F00010B145F4805502E0204600F029FB07F4C7
:101400008070C8B14FF480702168886007F4007064
:1014100018B1204600F01FFB0EE007F4806010B109
:1014200045F4005508E007F4006010B145F480452C
:1014300002E0204600F00EFB07F48030C8B14FF404
:1014400080302168886007F4003018B1204600F031
:1014500004FB0EE007F4802010B145F4004508E0DD
:1014600007F4002010B145F4803502E0204600F07A
:10147000F3FA06F0080038B10AF0100020B145F484
:10148000007510202168C86006F0040040B10AF021
:10149000080028B108202168C860204600F01CFA26
:1014A00006F0020038B12068C06800F0030010B1F7
:1014B000204600F013FA06F0400038B10BF010009F
:1014C00020B145F4806510202168086106F02000F5
:1014D00040B10BF0080028B10820216808612046BF
:1014E00000F084FA06F0100038B12068006900F0BE
:1014F000030010B1204600F07AFA06F4003040B143
:1015000009F0100028B1102021684860204600F042
:101510006FFA06F4803040B109F0080028B10820C5
:1015200021684860204600F099FA06F4004088B32C
:1015300009F0040078B306F4807020B108F00100CF
:1015400008B145F0010506F4007020B108F0020072
:1015500008B145F0020506F4806020B108F00400EF
:1015600008B145F0040506F40060A0B108F0700071
:1015700088B108F07000402817D006DC10280BD086
:1015800020280CD0302819D10CE0502810D0602829
:1015900014D110E01DE019E045F008050FE045F01A
:1015A00010050CE045F0200509E045F0400506E097
:1015B00045F0800503E045F4807500E000BF00BF02
:1015C0002068806920F0700021688861042021680B
:1015D00048602DB1606A284360622046FFF710FE24
:1015E000BDE8F09F70B504460CB9012070BD94F8B9
:1015F000200010B9204600F0AFF82068006840F0E5
:1016000001002168086000F02BFD05460DE000F0A8
:1016100027FD401B0A2808D9606A40F40030606248
:10162000052084F820000120E0E72068406800F0F1
:1016300001000028EBD02068006820F0020021683B
:10164000086000F00DFD05460DE000F009FD401BAF
:101650000A2808D9606A40F400306062052084F8E6
:1016600020000120C2E72068406800F00200002846
:10167000EBD1207E012806D12068006840F0800070
:101680002168086005E02068006820F0800021687B
:101690000860607E012806D12068006840F04000A4
:1016A0002168086005E02068006820F0400021689B
:1016B0000860A07E012806D12068006840F0200064
:1016C0002168086005E02068006820F0200021689B
:1016D0000860E07E012806D12068006820F0100034
:1016E0002168086005E02068006840F0100021686B
:1016F0000860207F012806D12068006840F00800BB
:101700002168086005E02068006820F00800216872
:101710000860607F012806D12068006840F004005E
:101720002168086005E02068006820F00400216856
:101730000860D4E90201084321690843616908434C
:101740006168491E08432168C86100206062012069
:1017500084F82000002049E710B586B00446142123
:1017600001A8FEF7CFFE56492068884249D1554866
:101770000068401C534908600846006801280FD1E2
:1017800000BF002000905048006840F000704E49B3
:1017900008600846006800F00070009000BF00BFBD
:1017A00000BF0020009048481038006840F0080052
:1017B0004549103908600846006800F008000090AC
:1017C00000BF00BF03200190022002900020039080
:1017D000032004900920059001A93C4800F040FB3B
:1017E00000220521132000F0F9FC132000F0E2FC98
:1017F00000220521142000F0F1FC142000F0DAFC96
:101800005CE033492068884258D100BF0020009036
:101810002D48006840F080602B4908600846006849
:1018200000F08060009000BF00BF26480068401CA8
:10183000244908600846006801280FD100BF002035
:1018400000902148006840F000701F490860084679
:10185000006800F00070009000BF00BF00BF0020D3
:10186000009019481038006840F0020016491039FD
:1018700008600846006800F00200009000BF00BF4A
:101880006020019002200290002003900320049029
:101890000920059001A90F4800F0E2FA0022052175
:1018A0003F2000F09BFC3F2000F084FC002205213B
:1018B000402000F093FC402000F07CFC06B010BDFE
:1018C000006400402000002040380240000C02402C
:1018D00000680040000402407047000038B504462C
:1018E0003B492068884203D100203A49087002E051
:1018F0000120384908703748007800EB400101EBBF
:101900000010354901EB800000F1440331480078B4
:1019100000EB400101EB00102F4901EB800000F1CA
:10192000280200212046FFF76CFC2A4A127802EBBD
:10193000420303EB0212284B03EB820202F128015F
:10194000244A127802EBC202244B03EB82001C22D1
:10195000FEF7A6FD1F48007800EBC0001F4901EB11
:1019600080011C48007800EB400202EB00101A4A8C
:1019700002EB8000826C406CC1E9070215480078D8
:1019800068B91448007800EBC000144A02EB8001EB
:1019900000236A461248006803F056FB0CE00D482D
:1019A000007800EBC0000D4A02EB800100236A467C
:1019B0000C48006803F048FB009838B14FF08050A5
:1019C00009490860BFF34F8FBFF36F8F38BD000028
:1019D0000064004004010020A44600203C47002091
:1019E000000000200400002004ED00E07047704774
:1019F000704770B5044694F82000012822D10220D7
:101A000084F820002068006820F001002168086048
:101A100000F026FB05460DE000F022FB401B0A28E3
:101A200008D9606A40F400306062052084F8200024
:101A3000012070BD2068406800F001000028EBD153
:101A40006062F6E7606A40F4002060620120F0E71F
:101A5000704770477047704770477047704770B560
:101A60000446A56D00F0FCFA064694F835000228FD
:101A700008D08020606500BF002084F8340000BFDB
:101A8000012070BD2068006820F016002168086001
:101A90002068406920F0800021684861206C08B906
:101AA000A06C28B12068006820F008002168086058
:101AB0002068006820F001002168086010E000F054
:101AC000CFFA801B05280BD920206065032084F8FD
:101AD000350000BF002084F8340000BF0320D0E7A9
:101AE0002068006800F001000028E8D194F85C103C
:101AF0003F208840A860012084F8350000BF002006
:101B000084F8340000BF00BFBBE7014691F8350000
:101B1000022803D08020486501207047052081F805
:101B200035000868006820F001000A681060002095
:101B3000F3E70000F8B50446002000908C480068E8
:101B40004FF41651B0FBF1F7A56D2E6894F85C10B8
:101B500008208840304098B12068006800F00400F8
:101B600070B12068006820F004002168086094F8D3
:101B70005C1008208840A860606D40F0010060653E
:101B800094F85C1001208840304068B120684069BA
:101B900000F0800040B194F85C1001208840A860FB
:101BA000606D40F00200606594F85C10042088408D
:101BB000304068B12068006800F0020040B194F83D
:101BC0005C1004208840A860606D40F004006065EF
:101BD00094F85C1010208840304078B3206800688A
:101BE00000F0080050B394F85C1010208840A86002
:101BF0002068006800F4802080B12068006800F44C
:101C0000002028B9206CC8B12046216C884715E017
:101C1000A06C98B12046A16C88470FE0206800684E
:101C200000F4807028B92068006820F0080021685E
:101C30000860206C10B12046216C884794F85C1035
:101C4000202088403040002865D02068006800F0DF
:101C5000100000285FD094F85C1020208840A86015
:101C600094F83500052828D12068006820F0160077
:101C7000216808602068406920F080002168486180
:101C8000206C08B9A06C28B12068006820F008001A
:101C90002168086094F85C103F208840A86001200B
:101CA00084F8350000BF002084F8340000BF206DA8
:101CB00010B12046216D8847F8BD2068006800F407
:101CC000802080B12068006800F4002028B9606C92
:101CD00010B12046616C88471DE0E06BD8B120460A
:101CE000E16B884717E02068006800F4807068B9ED
:101CF0002068006820F0100021680860012084F846
:101D0000350000BF002084F8340000BFE06B10B144
:101D10002046E16B8847606D38B3606D00F00100CC
:101D2000F0B1052084F835002068006820F001003B
:101D30002168086000BF0098401C0090B84200D99C
:101D400005E02068006800F001000028F3D100BF22
:101D5000012084F8350000BF002084F8340000BF63
:101D6000E06C10B12046E16C884700BFA4E700009A
:101D7000300000202DE9F0410446002500F070F904
:101D8000074614B90120BDE8F081606A00B100BFC8
:101D9000022084F8350000BF002084F8340000BF22
:101DA0002068006820F00100216808600AE000F067
:101DB00057F9C01B052805D920206065032084F849
:101DC0003500E0E72068006800F001000028EED14F
:101DD0002068056821480540D4E901010843E1680D
:101DE00008432169084361690843A1690843E1691F
:101DF0000843216A08430543606A042803D1D4E9F3
:101E00000B0108430543206805602068456925F0FB
:101E10000705606A0543606A04280DD1A06A05437E
:101E2000E06A48B12046FEF7E9FD28B14020606530
:101E3000012084F83500A6E7206845612046FEF7BA
:101E4000C3FD064694F85C103F208840B060002037
:101E50006065012084F83500002094E73F8010F091
:101E6000F8B502460B460025002400200021D6E0EC
:101E7000012606FA01F51E6806EA0504AC4274D193
:101E80001E7906F00306012E04D01E7906F0030623
:101E9000022E13D190684F000326BE40B0434F007E
:101EA000DE68BE4030439060506801268E40B043EB
:101EB0001E79C6F300168E40304350601E7906F03E
:101EC0000306032E09D0D0684F000326BE40B0435E
:101ED0004F009E68BE403043D0601E7906F0030676
:101EE000022E13D1CF0802F1200656F827004E0724
:101EF000F70E0F26BE40B0434F07FF0E1E69BE40CF
:101F00003043CF0802F1200646F8270010684F0042
:101F10000326BE40B0431E7906F003064F00BE40C4
:101F2000304310605E6806F44036002E76D000BF65
:101F3000002600963C4E366846F480463A4F3E6096
:101F40003E46366806F48046009600BF00BF374E16
:101F50008F0856F827008E07370F0F26BE40B04374
:101F6000334EB24202D1002624E057E0314EB24255
:101F700001D101261EE0304EB24201D1022619E005
:101F80002E4EB24201D1032614E02D4EB24201D1B1
:101F900004260FE02B4EB24201D105260AE02A4E5C
:101FA000B24201D1062605E0284EB24201D10726F1
:101FB00000E008268F073F0FBE4030431B4E8F08BE
:101FC00046F82700224E3068A0435E6806F480166B
:101FD00006B120431E4E3060361D3068A0435E6857
:101FE00006F4001606B12043194E361D3060184E17
:101FF000361F3068A0435E6806F4003606B1204301
:10200000134E361F3060361F3068A0435E6806F4FA
:10201000803606B120430E4E083E3060491C102920
:10202000FFF426AFF8BD00004438024008380140F4
:10203000000002400004024000080240000C024080
:10204000001002400014024000180240001C024030
:10205000083C01400AB1816101E00B0483617047D3
:102060000148006870470000240000200348006811
:10207000034909780844014908607047240000209A
:102080002C00002010B50D48006840F400700B498A
:1020900008600846006840F48060086008460068F0
:1020A00040F480700860032000F0D6F80F2000F0A4
:1020B00007F800F055F8002010BD0000003C024079
:1020C000F0B587B004460026002700BF002000902E
:1020D0001E48006840F001001C490860084600687E
:1020E00000F00100009000BF00BF01A902A800F0AD
:1020F00089F900F0BFF946001548B6FBF0F0471E1D
:1021000014481549086040F2E7311348C160476040
:10211000002101618160816100F064FC054695B990
:102120000D4800F093FC05466DB9192000F042F807
:10213000102C07D200222146192000F04FF8074842
:10214000046000E00125284607B0F0BD4438024095
:1021500040420F0000000140C4060020280000207B
:1021600008B500BF002000901148006840F480408E
:102170000F4908600846006800F48040009000BFE6
:1021800000BF00BF00200090081F006840F0805092
:10219000091F08600846006800F08050009000BFEA
:1021A00000BF00220F21901E00F018F808BD0000AB
:1021B000443802400146084600280DDB00BF00BF3E
:1021C00000F01F0301229A4043099B0003F1E02322
:1021D000C3F8002100BF00BF00BF70472DE9F05FCA
:1021E00080460D461646002701F07CFE074639461C
:1021F0002A46334601F00700C0F1070ABAF1040F7E
:1022000002D94FF0040A01E0C0F1070AD14600F1FB
:10221000040ABAF1070F02D24FF0000A01E0A0F160
:10222000030AD4464FF0010A0AFA09FAAAF1010A90
:102230000AEA020A0AFA0CFA4FF0010B0BFA0CFB3D
:10224000ABF1010B0BEA030B4AEA0B0421464046B3
:1022500001F050FEBDE8F09F00BF00F00702064B02
:1022600019684FF6FF031940044B0B4343EA022160
:10227000014B196000BF70470CED00E00000FA054B
:1022800070B504460D460CB9012070BD5848006871
:1022900000F00700A84209D255490D7008460068B1
:1022A00000F00700A84201D00120EEE7207800F0FE
:1022B000020002281DD1207800F00400042805D176
:1022C0004C48006840F4E0504A490860207800F02B
:1022D0000800082805D14748006840F46040454997
:1022E00008604448006820F0F000A16808434149B4
:1022F0000860207800F00100A8B36068012807D1C9
:102300003C4808380068C0F34040B8B90120BCE739
:102310006068022802D06068032807D13548083871
:102320000068C0F3406048B90120AEE73148083882
:102330000068C0F3400008B90120A6E72D480068F6
:1023400020F00300616808432A490860FFF788FE0F
:10235000064609E0FFF784FE801B41F2883188427F
:1023600002D9032091E707E02248006800F00C0042
:102370006168B0EB810FEDD11D48006800F00700E7
:10238000A84209D91A490D700846006800F00700F4
:10239000A84201D0012078E7207800F0040004284A
:1023A00007D11448006820F4E050E168084311495F
:1023B0000860207800F00800082808D10D4800685F
:1023C00020F46040216940EAC1000A49086000F039
:1023D00061F808490968C1F30311074A515CC84014
:1023E0000649086006480068FFF76AFE00204CE7CF
:1023F000003C024008380240C45800083000002069
:10240000280000200F2202600D4A126802F0030229
:1024100042600B4A126802F0F0028260084A1268B9
:1024200002F4E052C260064A126802F46042D20826
:102430000261044A126802F007020A607047000055
:1024400008380240003C0240014800687047000024
:102450003000002000B5FFF7F7FF04490968C1F319
:102460008221034A515CC84000BD00000838024088
:10247000D458000800B5FFF7E7FF04490968C1F325
:102480004231034A515CC84000BD00000838024098
:10249000D45800082DE9F047002400250026A14665
:1024A0002548006800F00C0020B1042805D0082859
:1024B0003AD105E0DFF8849039E0DFF8849036E027
:1024C0001D48001F006800F03F041B48001F006803
:1024D00000F4800078B11A481749091F0968C1F350
:1024E0008811A0FB01700146224600233846FDF703
:1024F0001BFF05460EE011480F49091F0968C1F38B
:102500008811A0FB01700146224600233846FDF7E2
:102510000BFF05460848001F0068C0F30140401C3F
:102520004600B5FBF6F902E0DFF8109000BF00BFEF
:102530004846BDE8F0870000083802400024F40057
:10254000001BB700F8B504460CB90120F8BD20788F
:1025500000F00100002874D0F948006800F00C0079
:1025600004280DD0F648006800F00C00082813D1AC
:10257000F348001F006800F48000B0F5800F0BD115
:10258000EF4808380068C0F34040002859D0606820
:10259000002856D10120D9E700BF6068B0F5803F20
:1025A00008D1E7480838006840F48030E449083929
:1025B00008601EE06068B0F5A02F0DD1E048083833
:1025C000006840F48020DE49083908600846006849
:1025D00040F4803008600CE0D9480838006820F4E6
:1025E0008030D749083908600846006820F4802008
:1025F000086000BF606890B1FFF732FD054606E055
:10260000FFF72EFD401B642801D903209EE7CC482C
:1026100008380068C0F340400028F1D011E0FFF70F
:102620001FFD054606E0FFF71BFD401B642801D98E
:1026300003208BE7C24808380068C0F340400028F8
:10264000F1D1207800F0020002285FD1BC48006878
:1026500000F00C0058B1BA48006800F00C000828DF
:102660001CD1B748001F006800F48000B0B9B4481E
:1026700008380068C0F3400020B1E068012801D0AC
:10268000012063E7AE480838006820F0F8002169AF
:1026900040EAC100AA490839086037E0E06800B3A1
:1026A0000120A8490860FFF7DBFC054606E0FFF7BC
:1026B000D7FC401B022801D9032047E7A04808386F
:1026C0000068C0F340000028F1D09D480838006839
:1026D00020F0F800216940EAC100994908390860F2
:1026E00014E0002097490860FFF7BAFC054606E0B1
:1026F000FFF7B6FC401B022801D9032026E79048CB
:1027000008380068C0F340000028F1D1207800F0BC
:10271000080008282CD16069A8B101208A49086006
:10272000FFF79EFC054606E0FFF79AFC401B0228D7
:1027300001D903200AE782486C300068C0F34000EA
:102740000028F1D014E000207F490860FFF788FCE2
:10275000054606E0FFF784FC401B022801D9032050
:10276000F4E677486C300068C0F340000028F1D1EF
:10277000207800F00400042870D100277048383019
:10278000006800F0805090B900BF002000906C48B5
:102790003830006840F08050694938310860084698
:1027A000006800F08050009000BF00BF012767481C
:1027B000006800F48070B0B96448006840F480702C
:1027C00062490860FFF74CFC054606E0FFF748FC4D
:1027D000401B022801D90320B8E65C48006800F4D9
:1027E00080700028F2D000BFA068012808D15448AA
:1027F0006830006840F001005149683108601DE010
:10280000A06805280DD14E486830006840F00400EB
:102810004B49683108600846006840F001000860D4
:102820000CE047486830006820F0010044496831F6
:1028300008600846006820F00400086000BFA06837
:10284000A8B1FFF70DFC054609E0FFF709FC401BA6
:1028500041F28831884202D9032077E626E03848E1
:1028600068300068C0F340000028EED013E0FFF7A6
:10287000F7FB054608E0FFF7F3FB401B41F2883108
:10288000884201D9032061E62D4868300068C0F312
:1028900040000028EFD1012F07D1294838300068C7
:1028A00020F0805026493831086000BFA069002818
:1028B00045D02348006800F00C0008285DD0A069CE
:1028C000022845D100201F490866FFF7C9FB0546CD
:1028D00006E0FFF7C5FB401B022801D9032035E6BF
:1028E000174808380068C0F340600028F1D1D4E9E7
:1028F00007010843616A40EA81110122A06AC2EB24
:10290000500041EA00412C20005D41EA00600C4982
:10291000091F086001200B490866FFF7A1FB054667
:1029200006E0FFF79DFB401B022801D903200DE6BE
:10293000034808380068C0F340600028F1D049E03F
:102940000838024000004742800E474200700040B5
:10295000002021490866FFF783FB054606E0FFF7E4
:102960007FFB401B022801D90320EFE51B480068CC
:10297000C0F340600028F2D12CE0A069012800D10A
:10298000E4E51648001D0668A069012820D006F479
:102990008001E06981421BD106F03F01206A81423B
:1029A00016D147F6C0703040616AB0EB811F0FD17D
:1029B00006F440310122A06AC2EB5000B1EB004F97
:1029C00006D106F070612C20005DB1EB006F01D0E4
:1029D0000120BBE50020B9E5000047420038024075
:1029E0007047704710B504460CB9012010BD94F82B
:1029F0003D0028B9002084F83C00204600F025F86E
:102A0000022084F83D00211D206800F0CDFF012048
:102A100084F8460000BF84F83E0001213F200155A4
:102A2000402001554120015500BF00BF012084F81E
:102A3000420043200155442001554520015500BF67
:102A4000012084F83D000020D0E77047014691F84E
:102A50003D00012801D001207047022081F83D008F
:102A60000868C06840F001000B68D8601A4B08681D
:102A700098421BD00868B0F1804F17D0174B0868F8
:102A8000984213D0164B086898420FD0154B08682F
:102A900098420BD0144B0868984207D0134B086833
:102AA000984203D0124B086898420CD1086880689D
:102AB00000F00702062A0CD00868006840F0010008
:102AC0000B68186005E00868006840F001000B68BA
:102AD00018600020C0E70000000001400004004032
:102AE00000080040000C004000040140004001408C
:102AF00000180040704770B504462068C56820681B
:102B0000066906F00200022819D105F00200022829
:102B100015D1401F21680861012020772068806955
:102B200000F0030018B12046FFF7E4FF05E020465F
:102B300000F097F8204600F095F80020207706F086
:102B40000400042819D105F00400042815D1C0435D
:102B500021680861022020772068806900F44070B5
:102B600018B12046FFF7C6FF05E0204600F079F8CF
:102B7000204600F077F80020207706F008000828AB
:102B800019D105F00800082815D1C0432168086153
:102B9000042020772068C06900F0030018B12046A7
:102BA000FFF7A8FF05E0204600F05BF8204600F0A4
:102BB00059F80020207706F01000102819D105F0F0
:102BC0001000102815D1C043216808610820207723
:102BD0002068C06900F4407018B12046FFF78AFFF2
:102BE00005E0204600F03DF8204600F03BF80020CC
:102BF000207706F0010048B105F0010030B16FF018
:102C0000010021680861204600F02EF806F08000DF
:102C1000802809D105F08000802805D1C0432168B3
:102C200008612046FFF7DCFE06F04000402809D18D
:102C300005F04000402805D1C043216808612046C6
:102C400000F01EF806F02000202809D105F0200031
:102C5000202805D1C043216808612046FFF7C1FE46
:102C600070BD70477047000010B5044603492068E6
:102C7000884201D1FFF7FAF910BD000000000140C1
:102C800070477047704700002DE9F84F04462068F0
:102C900005682068C668206847694FF00009CA4681
:102CA00005F00F09B9F1000F0AD105F0200038B185
:102CB00006F0200020B1204600F035FFBDE8F88F77
:102CC000B9F1000F7CD007F0010018B906F490703C
:102CD000002875D005F0010030B106F4807018B1FD
:102CE000606C40F00100606405F0040030B107F052
:102CF000010018B1606C40F00200606405F0020051
:102D000030B107F0010018B1606C40F0040060645D
:102D100005F0080048B106F0200010B907F00100E6
:102D200018B1606C40F008006064606C002846D008
:102D300005F0200028B106F0200010B1204600F078
:102D4000F2FE20684069C0F3801A606C00F0080051
:102D500010B9BAF1000F2DD0204600F09EFE206879
:102D6000406900F04000402820D100BF00BF21682A
:102D7000143151E8001F21F040002168143141E86E
:102D80000002002AF3D100BFE06B50B17F48E16B35
:102D90000865E06BFEF7B9FE88B1E06B016D88470E
:102DA0000DE02046FFF76EFF09E009E02046FFF73F
:102DB00069FF04E02046FFF765FF002060647DE7BF
:102DC000206B012878D105F01000002874D006F09F
:102DD00010000028FAD000BF002000902068006892
:102DE000009020684068009000BF00BF20684069E4
:102DF00000F04000402870D1E06B006840681FFA86
:102E000080F8B8F1000F58D0A08D404555DDA4F8EA
:102E10002E80E06BC069B0F5807F43D000BF00BF5B
:102E200021680C3151E8001F21F4807021680C31B9
:102E300041E80002002AF3D100BF00BF00BF2168B3
:102E4000143151E8001F21F001002168143141E8DC
:102E50000002002AF3D100BF00BF00BF2168143177
:102E600051E8001F21F040002168143141E80002C0
:102E7000002AF3D100BF202084F842000020206304
:102E800000BF00BF21680C3151E8001F21F0100085
:102E900021680C3141E80002002AF3D100BFE06B49
:102EA000FEF7DDFD02206063A08DE28D801A81B205
:102EB0002046FFF7E6FE0EE052E0A08D40450AD125
:102EC000E06BC069B0F5807F05D102206063A18D01
:102ED0002046FFF7D6FEF1E6FFE7A08DE18D401A10
:102EE0001FFA80F8E08DD0B3B8F1000F37D000BFE3
:102EF00000BF21680C3151E8001F21F49070216857
:102F00000C3141E80002002AF3D100BF00BF00BF2E
:102F10002168143151E8001F21F0010021681431AB
:102F200041E80002002AF3D100BF202084F84200CB
:102F30000020206300BF00BF21680C3151E8001F52
:102F400021F0100021680C3141E80002002AF3D181
:102F500000BF0220606341462046FFF792FEADE6C7
:102F600005F0800030B106F0800018B1204600F076
:102F70006FFFA3E605F0400030B106F0400018B145
:102F8000204600F0C0FD99E600BF97E6893A0008A8
:102F900010B504460CB9012010BDA06900B100E0D5
:102FA00000BF94F8410028B9002084F84000204672
:102FB00000F02AF8242084F841002068C06820F43A
:102FC00000502168C860204600F02CFE206800698F
:102FD00020F49040216808612068406920F02A00B0
:102FE000216848612068C06840F400502168C860CA
:102FF00000206064202084F8410084F84200002012
:10300000606300BFC8E7000010B586B00446142115
:1030100001A8FDF777FAD149206888427ED100BF28
:1030200000200090CE48006840F01000CC490860B5
:103030000846006800F01000009000BF00BF00BF0D
:1030400000200090C6481438006840F00200C449CF
:10305000143908600846006800F00200009000BFC4
:1030600000BF00BF002000900846006840F001004B
:1030700008600846006800F00100009000BF00BF33
:1030800080200190022002900020039003200490F1
:103090000720059001A9B348FEF7E2FE4FF4007047
:1030A000019002200290002003900320049007204A
:1030B000059001A9AC48FEF7D3FEAC48AC490860C6
:1030C0004FF0006048604021A94881600021C16044
:1030D0004FF4806101610021416181614FF4807191
:1030E000C161002101624162FEF744FE08B1FDF7B3
:1030F0003AFF00BF9E48A063846300BF9B487838B6
:103100009C4908604FF00060486000219948816048
:10311000C1604FF480610161002100E01AE041616B
:1031200081614FF48071C161002101624162FEF74B
:1031300021FE08B1FDF717FF00BF8E48E0638463EE
:1031400000BF002205212520FFF748F82520FFF7C2
:1031500031F801E18849206888427ED100BF002013
:1031600000907F48001F006840F480207C49091FC0
:1031700008600846006800F48020009000BF00BF8F
:1031800000BF0020009076481438006840F004002A
:103190007349143908600846006800F00400009084
:1031A00000BF00BF4FF44060019002200290002059
:1031B0000390032004900720059001A96F48FEF7B3
:1031C0004FFE6F486F4908604FF000604860402133
:1031D0006C4881600021C1604FF480610161002171
:1031E000416181614FF48071C161002101624162DE
:1031F000FEF7C0FD08B1FDF7B6FE00BF6148A06351
:10320000846300BF5E4830385F4908604FF000605B
:10321000486000215C488160C1604FF480610161B9
:103220000021416181614FF48071C161002101621F
:103230004162FEF79FFD08B1FDF795FE00BF5248C1
:10324000E063846300BF002205212720FEF7C6FF4C
:103250002720FEF7AFFF7FE0FFE74C492068884258
:103260007AD100BF002000903D48006840F0200067
:103270003B4908600846006800F02000009000BF4D
:1032800000BF00BF0020009035481438006840F0AF
:1032900040003349143908600846006800F04000D7
:1032A000009000BF00BF4FF48440019002200290C4
:1032B00000200390032004900820059001A93448C1
:1032C000FEF7CEFD294890383249086080054860F5
:1032D000002130488160C1604FF4806101610021AC
:1032E000416181614FF48071C161002101624162DD
:1032F000FEF740FD08B1FDF736FE00BF2548E0634C
:10330000846300BF19481838234908604FF02060D3
:1033100048604021204881600021C1604FF48061F5
:1033200001610021416181614FF48071C16100211F
:1033300001624162FEF71EFD08B1FDF714FE00BFF9
:103340001548A063846300BF002205214720FEF7D3
:1033500045FF4720FEF72EFF06B010BD00100140CC
:10336000443802400004024000000240B8640240B9
:1033700084040020E40400200048004000080240CB
:103380005860024044050020A405002000140140BC
:1033900000180240040600206406002070477047B1
:1033A00000BFFEE70FB40099A1F201209DF81D10A7
:1033B0009DF81C2041EA02213A4A02EB401211809A
:1033C0009DF81F209DF81E1042EA012109B2354ADE
:1033D00002EB401251809DF821209DF8201042EA16
:1033E000012109B22F4A02EB401291809DF8221070
:1033F0002C4A02EB401291712A4901EB40110988D5
:10340000284A02EB40129289891A274A91420ADA25
:10341000244901EB4011898A491C09B2214A02EB77
:103420004012918215E01F4901EB401189891D4A24
:1034300002EB40121288891A1B4A914209DA194993
:1034400001EB4011898A491E09B2164A02EB40126B
:103450009182144901EB40110988124A02EB401293
:10346000928A4FF4005313FB02110E4A02EB4012F2
:1034700011610C4901EB401109880A4A02EB401224
:103480009181084901EB4011498B491C054A02EB27
:10349000401251830121034A02EB4012117604B01D
:1034A00070470000AC45002090E8FFFF30B5039C5A
:1034B000050A257060700D0AA570E170150A257166
:1034C00062711D0AA571E37130BD000010B50F488F
:1034D0000F4908600320486000210D488160C160E9
:1034E0004FF4102101614FF4001141610021017678
:1034F000417681760121C176002101770121417752
:10350000FEF770F808B1FDF72EFD10BD0064004015
:103510005C03002010B50F480F4908600320486085
:1035200000210D488160C1604FF4102101614FF40A
:103530000011416100210176417681760121C17639
:103540000021017701214177FEF74CF808B1FDF722
:103550000AFD10BD006800408403002008B500BFCC
:10356000002000902648006840F48000244908604C
:103570000846006800F48000009000BF00BF00BF54
:10358000002000900846006840F4001008600846DB
:10359000006800F40010009000BF00BF0022052169
:1035A0000C20FEF71BFE0C20FEF704FE0022052176
:1035B0000E20FEF713FE0E20FEF7FCFD0022052173
:1035C0003920FEF70BFE3920FEF7F4FD002205211D
:1035D0003A20FEF703FE3A20FEF7ECFD002205211B
:1035E0004520FEF7FBFD4520FEF7E4FD0022052106
:1035F0004620FEF7F3FD4620FEF7DCFD08BD000087
:103600003038024000B5A3B000222421202001F070
:10361000CDFB2649086000222421202001F0C6FBB2
:103620002349086000222421102001F0BFFB21491A
:1036300008601C2220491CA8FCF732FF00211CA8AE
:1036400000F0B5FC1D4908601C221B491C3115A85F
:10365000FCF726FF002115A800F0A9FC1849086016
:103660001C22154938310EA8FCF71AFF00210EA8BC
:1036700000F09DFC134908601C220F49543107A833
:10368000FCF70EFF002107A800F091FC0E4908602E
:103690001C22094970316846FCF702FF0021684688
:1036A00000F085FC0949086023B000BD000000203F
:1036B00004000020080000203058000818000020F6
:1036C0001C0000200C00002010000020140000202E
:1036D00000B587B0142102A8FCF714FF00BF00203A
:1036E00001903548006840F0020033490860084600
:1036F000006800F00200019000BF00BF00BF002082
:1037000001900846006840F04000086008460068E4
:1037100000F04000019000BF00BF00BF00200190FA
:103720000846006840F0010008600846006800F0A4
:103730000100019000BF00BF00BF002001900846BB
:10374000006840F0080008600846006800F00800C3
:10375000019000BF00BF00BF002001900846006834
:1037600040F0040008600846006800F00400019082
:1037700000BF00BF00BF002001900846006840F075
:10378000800008600846006800F08000019000BFDB
:1037900000BF002209150948FEF75CFC4FF4806069
:1037A00002900120039000200490059002A9034894
:1037B000FEF756FB07B000BD30380240001C024047
:1037C00010B50B480B4908604FF4E1304860002108
:1037D00008488160C16001610C2141610021816163
:1037E000C161FFF7D5FB08B1FDF7BDFB10BD0000BF
:1037F00000100140AC03002010B50B480B490860D5
:103800004FF4E1304860002108488160C1600161E7
:103810000C21416100218161C161FFF7B9FB08B151
:10382000FDF7A1FB10BD000000480040F40300209C
:1038300010B50B480B4908604FF4E1304860002197
:1038400008488160C16001610C21416100218161F2
:10385000C161FFF79DFB08B1FDF785FB10BD0000BE
:10386000001401403C04002000BFFEE700BFFEE75B
:1038700000BF012291020848FEF7ECFB642000F033
:1038800085FB00224FF480610348FEF7E3FB6420D0
:1038900000F07CFBEDE70000001C024010B500BF0B
:1038A000502080F31188BFF34F8FBFF36F8F00BF9D
:1038B00001F0E2FD18B14FF080500449086000BFEC
:1038C000002080F3118800BF10BD000004ED00E06F
:1038D00000B593B0302107A8FCF714FE142102A80C
:1038E000FCF710FE00BF002001902448006840F063
:1038F0008050224908600846006800F0805001901E
:1039000000BF00BF00BF002001901D48006840F4C8
:1039100080401B4908600846006800F48040019020
:1039200000BF00BF012007900004089002200D9006
:1039300041050E9106210F91A821109102211191AC
:103940000421129107A8FEF7FDFD08B1FDF70BFB5E
:103950000F20029002200390002004904FF4A0500A
:1039600005904FF480500690052102A8FEF788FCD0
:1039700008B1FDF7F8FA13B000BD0000403802406E
:10398000007000400348006840F47000014908607E
:103990007047000088ED00E010B50248FFF7ABF873
:1039A00010BD0000C406002010B502682B4B9842E1
:1039B0000ED0B0F1804F0BD0294B984208D0294B44
:1039C000984205D0284B984202D0284B984203D108
:1039D00022F070024B681A43204B984220D0B0F17D
:1039E000804F1DD01E4B98421AD01E4B984217D0C4
:1039F0001D4B984214D01D4B984211D01C4B98423D
:103A00000ED01C4B98420BD01B4B984208D01B4B3E
:103A1000984205D01A4B984202D01A4B984203D1D3
:103A200022F44072CB681A4322F080034C6943EAC7
:103A300004028B68C3620B688362084B984202D011
:103A40000A4B984201D10B690363036843F00403F6
:103A5000036001234361026010BD000000000140CB
:103A60000004004000080040000C00400004014039
:103A7000004001400044014000480140001800405F
:103A8000001C00400020004070B50446A56B0020DB
:103A9000E8852846FFF7F6F870BD00BF00BF026852
:103AA0000C3252E8002F22F4907102680C3242E886
:103AB0000013002BF3D100BF00BF00BF0268143217
:103AC00052E8002F22F001010268143242E800138C
:103AD000002BF3D100BF016B01290ED100BF00BF45
:103AE00002680C3252E8002F22F0100102680C32FA
:103AF00042E80013002BF3D100BF202180F84210D0
:103B000000210163704710B504462068C06820F0AA
:103B100040002168C860202084F841002046FFF75B
:103B20003EFC002010BDF8B504460025002694F8A0
:103B30004200222873D1A068B0F5805F0BD12069C4
:103B400048B9A66A20684068C0F308003080A06ABF
:103B5000801CA06214E0A56AA068B0F5805F03D065
:103B6000A06828B9206918B920684068287004E066
:103B70002068406800F07F002870A06A401CA062A6
:103B8000E08D401E80B2E085002846D12068C068E4
:103B900020F020002168C8602068C06820F4807090
:103BA0002168C8602068406920F0010021684861F0
:103BB000202084F8420000206063206B012826D179
:103BC0000020206300BF00BF21680C3151E8001FB6
:103BD00021F0100021680C3141E80002002AF3D1E5
:103BE00000BF2068006800F0100010280AD100BF54
:103BF00000200090206800680090206840680090D5
:103C000000BF00BFA18D2046FFF73BF802E0204631
:103C1000FFF7C4FB0020F8BD01E00020FBE7022015
:103C2000F9E700002DE9F84F04462068006920F408
:103C30004050E1680843216808612169A068084391
:103C400061690843E169084300902068C06849F24F
:103C50000C618843009908432168C8602068406966
:103C600020F44070A16908432168486176492068C2
:103C7000884203D075492068884203D1FEF7FAFBD9
:103C8000814602E0FEF7E6FB8146E069B0F5004FB1
:103C90006CD102206168A0FB015003461920A9FBEA
:103CA000007001462A463846FCF73EFB6421B0FB13
:103CB000F1F04FEA001A02206168A0FB01510B46A7
:103CC0001920A9FB00712A463846FCF72DFB8346D4
:103CD00002206168A0FB015003461920A9FB007176
:103CE0002A463846FCF720FB6421B0FBF1F000EBDC
:103CF000C00101EB0010ABEB8000322101EBC000F2
:103D00006421B0FBF1F000F0F8000AEB400A022059
:103D10006168A0FB015003461920A9FB0070014611
:103D20002A463846FCF700FB834602206168A0FB68
:103D3000015003461920A9FB00712A463846FCF7BA
:103D4000F3FA6421B0FBF1F000EBC00101EB0010CD
:103D5000ABEB8000322101EBC0006421B0FBF1F03D
:103D600000F007005044216888606AE00420616820
:103D7000A0FB015003461920A9FB007001462A460A
:103D80003846FCF7D1FA824604206168A0FB015056
:103D900003461920A9FB007001462A463846FCF765
:103DA000C3FA6421B0FBF1F000EBC00101EB00109D
:103DB000AAEB8000322101EB00106421B0FBF1F08E
:103DC00000F0F00A04206168A0FB0170034619208E
:103DD000A9FB00513A462846FCF7A6FA6421B0FB3D
:103DE000F1F00AEB001A04206168A0FB01510B46B8
:103DF0001920A9FB00712A463846FCF795FA83463C
:103E000004206168A0FB015003461920A9FB007043
:103E100001462A463846FCF787FA6421B0FBF1F0E8
:103E200000EBC00101EB0010ABEB8000322101EB95
:103E300000106421B0FBF1F000F00F005044216845
:103E40008860BDE8F88F00000010014000140140B8
:103E5000014691F84100212828D18868B0F5805F9B
:103E60000BD1086948B90A6A1088C0F308000B68CA
:103E70005860086A801C086205E00B6A581C0862DA
:103E800018780B685860C88C401E80B2C88458B936
:103E90000868C06820F080000B68D8600868C068B7
:103EA00040F040000B68D860002070470220FCE71B
:103EB00010B50248FEF7E8FE10BD0000AC0300207C
:103EC00010B50248FEF7E0FE10BD0000F40300202C
:103ED00010B50248FEF7D8FE10BD00003C040020DB
:103EE00000BFFEE702480068C0F3022070470000F0
:103EF0000CED00E010B5002804DB0A07130E054A9C
:103F0000135406E00A07140E034A00F00F031B1FA8
:103F1000D45410BD00E400E018ED00E0014671EE5D
:103F2000602AF0EE621AB0EE602A30EE423A0120CA
:103F30008840401E02EE900AF8EEE22A63EE222A42
:103F400082EEA13AFDEEC32A12EE900A7047FEF708
:103F500099F8FFF7BDFCFFF7BBFBFFF7FFFAFFF790
:103F6000B5FAFFF7D7FAFFF72BFCFFF745FCFFF791
:103F70005FFCFFF747FB00F015F800BFFEE70146C6
:103F80000020842901D0CA1C1044704770B5044633
:103F900025460DB1294600E00121084600F050FDFC
:103FA000002070BD10B500F0A7FD002010BD7FB54A
:103FB00004460D46606998B1A06988B1B4F908005B
:103FC000FFF7DDFF0646D4E90510CDE90061029058
:103FD0002B462269D4E9001001F0E0F9039013E0C8
:103FE000B4F90800FFF7CBFF064603A8CDE900604F
:103FF000238A9AB22B46D4E9001001F09DF90128DA
:1040000002D0002004B070BD0398FBE72DE9F04119
:1040100005460E461C4807681C480068001D00F055
:10402000CFFB50B91948006890F82C100120884047
:1040300017490968814316480160681C38B936B1D0
:1040400012480168091D134800F004FC1AE07C19AD
:104050000E4800684460BC4207D20C480168091D44
:104060000D48006800F0DCFB0CE008480168091D01
:104070000A48006800F0D4FB09480068844201D275
:1040800007480460BDE8F0814800002034000020AB
:104090004C000020E80700203C00002038000020F1
:1040A0006400002010B5044600F0E0FB23480068DF
:1040B000401C224908602248006840B9204804603A
:1040C0000846006801280DD100F0A6F90AE01D4855
:1040D000006838B91A480068C06AE16A884201D8A5
:1040E0001748046018480068401C1749086094F895
:1040F0002C100120884015490968084313490860BD
:10410000E16A01EB8101124A02EB8100211D00F0FE
:10411000A1FB00F0D5FB0B48006868B108480068B7
:10412000C06AE16A884207D24FF0805009490860AE
:10413000BFF34F8FBFF36F8F10BD0000440000200E
:104140003400002050000020600000204C000020BF
:104150000C07002004ED00E010B516E000F086FB2F
:104160000C48C068C468201D00F02AFB0A4800689B
:10417000401E0949086009480068401E0749086058
:1041800000F09EFB204600F05FF80448006800281D
:10419000E4D110BDD40700204400002040000020DE
:1041A00070B504460D46206C70B1216CE068014486
:1041B000E160D4E90210884201D32168E160284619
:1041C000226CE168FCF727F970BD2DE9F041044647
:1041D0000F4615464FF00008A66B206C48B92068C2
:1041E00000282CD1A06801F0EBF980460020A060E7
:1041F00025E07DB93946226C6068FCF70CF9216C2A
:10420000606808446060D4E90101884217D32068DF
:10421000606014E03946226CE068FCF7FCF8216C21
:10422000E068411AE1602168E068884203D2216CAD
:10423000A068411AE160022D01D106B1761E701C02
:10424000A0634046BDE8F08110B5044694F85100E3
:1042500030B9206B00F052FB204600F04FFB1AE013
:1042600094F85100012803D1204600F047FB12E0EA
:1042700094F85100022801D1012000E0002050B93B
:1042800000BF502080F31188BFF34F8FBFF36F8FB3
:1042900000BF00BFFEE710BD30B54FF470531748A4
:1042A00000F007042CB1C01D20F00700134C041BC4
:1042B0001B1B0246124C22600024114D6C60D0186A
:1042C000083820F007000F4C206000240D4D2D68A9
:1042D0006C600C4D2D682C601146441A4C60094CE2
:1042E00024680C60084D4C682C60084D4C682C60AC
:1042F0004FF00044064D2C6030BD0000FC0700204C
:104300007000002078000020800000207C00002049
:104310008C00002000BFFFF71FFF0648006801283F
:10432000F9D94FF0805004490860BFF34F8FBFF3B5
:104330006F8FF0E70C07002004ED00E02DE9F0415D
:1043400006460D4617469846069C0DB9246000E0C7
:104350002760E66325640121204600F055FDBDE895
:10436000F0812DE9FF5F81460E469246DDE90E7B26
:10437000109CAAF10100216B01EB800828F00708CE
:1043800008F0070008B9012000E0002050B900BF84
:10439000502080F31188BFF34F8FBFF36F8F00BFA2
:1043A00000BFFEE786B1002507E0715D04F134002F
:1043B0004155705D00B902E06D1C102DF5D300BFB2
:1043C00000214320015502E0002084F83400072F2B
:1043D00000D30627E76267640020A064201D00F078
:1043E0001CFA04F1180000F018FA2461C7F1070064
:1043F000A06164620020E06484F8500049464046B1
:10440000039A00F0ADF92060BBF1000F01D0CBF8AA
:104410000040BDE8FF9F000010B5002407E004EB5A
:1044200084010F4A02EB810000F0EAF9641C072CBA
:10443000F5D30C4800F0E4F90B4800F0E1F90B4823
:1044400000F0DEF90A4800F0DBF90A4800F0D8F97C
:1044500004480949086004480849086010BD000084
:104460000C07002098070020AC070020C0070020A0
:10447000D4070020E8070020380000203C0000207E
:1044800010B50146164800E0006803688B42FBD374
:104490000246436813448B4204D143684C6823446A
:1044A000436001460A464B6813440468A34211D195
:1044B0000C4C03682468A34208D04B680468646805
:1044C00023444B6003681B680B6005E0054B1B68C9
:1044D0000B6001E003680B60884200D0016010BDF2
:1044E000700000207800002070B5054600F0BEF98D
:1044F000A86B08B9012400E0002400F0E1F920468F
:1045000070BD70B5054600F0B1F9A86BE96B884243
:1045100001D1012400E0002400F0D2F9204670BD52
:104520000A490968096809B9012100E0002121B19F
:104530004FF0FF31064A116006E004490968C96876
:10454000C868034A416811607047000038000020C5
:10455000640000200E480068401C08B9012000E0FB
:10456000002050B900BF502080F31188BFF34F8F57
:10457000BFF36F8F00BF00BFFEE700BF502080F386
:104580001188BFF34F8FBFF36F8F00BF00BFFEE7EF
:104590009000002070B5044600F068F994F9455089
:1045A00010E0606A08B9012000E0002038B904F189
:1045B000240001F069F818B100F07CFA00E003E093
:1045C000681E45B2002DECDC00BFFF2084F84500DA
:1045D00000F076F900F04AF994F9445010E02069AF
:1045E00008B9012000E0002048B904F1100001F0F2
:1045F0004BF808B100F05EFA681E45B200E001E039
:10460000002DECDC00BFFF2084F8440000F058F9D6
:1046100070BD00002DE9F04104464FF0000800F0A5
:10462000C3FA4948006808B9FFF736FE47480068F2
:104630002040002870D1D4B1083404F00700B0B194
:1046400004F00700C0F10800044404F0070008B9B2
:10465000012000E0002050B900BF502080F31188F5
:10466000BFF34F8FBFF36F8F00BF00BFFEE7002C7B
:1046700052D03748006884424ED8364E30460568DE
:1046800001E02E462D686868A04202D22868002802
:10469000F7D12D48006885423ED0306800F1080807
:1046A000286830606868001B102819D92F1907F096
:1046B000070008B9012000E0002050B900BF5020D9
:1046C00080F31188BFF34F8FBFF36F8F00BF00BF20
:1046D000FEE76868001B78606C603846FFF7D0FE24
:1046E0001B4968680968081A194908600846006883
:1046F00019490968884203D21548006816490860BC
:1047000012496868096808436860002028601348F7
:104710000068401C1149086001F002F808F0070029
:1047200008B9012000E0002050B900BF502080F3FC
:104730001188BFF34F8FBFF36F8F00BF00BFFEE73D
:104740004046BDE8F0810000780000208C00002089
:104750007C000020700000208000002084000020E9
:10476000001F4FF080730360001F21F001030360FE
:10477000001F054B036014380260001F6FF0020336
:10478000036020387047000055450008B0EE401A1D
:1047900030EEC10AF0EE401AB0EE412A00EE100AE7
:1047A000B8EEC00A60EE212A01228A40521E00EEB5
:1047B000102AB8EEC03A82EE830A30EE020A704741
:1047C00001460A69D1E901309860D1E901035860D6
:1047D0005068884201D188685060002008611068E4
:1047E000401E106010687047034B0360034B0B6062
:1047F0008023136070470000080100205C01002046
:1048000000F1080141604FF0FF31816000F10801C3
:10481000C1600161002101607047002101617047A2
:1048200010B502460B685C1C0CB9106907E002F178
:10483000080000E04068446824689C42FAD9446853
:104840004C604C68A160886041600A611468641C17
:10485000146010BD42684A6093688B609368596029
:104860009160086103685B1C0360704700BF5020C3
:1048700080F31188BFF34F8FBFF36F8F00BF0E48D7
:104880000068401C0C49086008460068012812D1E5
:104890000A480068C0B208B9012000E0002050B901
:1048A00000BF502080F31188BFF34F8FBFF36F8F8D
:1048B00000BF00BFFEE770479000002004ED00E05D
:1048C0000D48006850B900BF502080F31188BFF335
:1048D0004F8FBFF36F8F00BF00BFFEE70648006831
:1048E000401E054908600846006820B9002080F392
:1048F000118800BF00BF70479000002070B50646C9
:104900003546002E44D0083D2C462249606809688F
:10491000084008B1012000E0002050B900BF50203D
:1049200080F31188BFF34F8FBFF36F8F00BF00BFBD
:10493000FEE7206808B9012000E0002050B900BF60
:10494000502080F31188BFF34F8FBFF36F8F00BFEC
:1049500000BFFEE70F49606809680840C0B12068E1
:10496000B0B90C49606809688843606000F01CF9C0
:104970000949606809680844074908602046FFF74C
:104980007FFD06480068401C0449086000F0C8FE2E
:1049900070BD00008C0000207C00002088000020FA
:1049A00000204FF0E02108618861064800684FF45C
:1049B0007A71B0FBF1F0401E4FF0E0214861072012
:1049C000086170473000002070B5FBF789FC044691
:1049D000102C16D304F1E02090F8F053154800781D
:1049E000854201DB012000E0002050B900BF5020CB
:1049F00080F31188BFF34F8FBFF36F8F00BF00BFED
:104A0000FEE70D48006800F4E0600C490968884240
:104A100001D8012000E0002050B900BF502080F3F1
:104A20001188BFF34F8FBFF36F8F00BF00BFFEE74A
:104A300070BD0000940000200CED00E09800002004
:104A400070B504460025D4B11248006808B90120A9
:104A500000E0002050B900BF502080F31188BFF360
:104A60004F8FBFF36F8F00BF00BFFEE700F09CF8D1
:104A700000212046FFF7CAFA00F052FE05463DB974
:104A80004FF0805004490860BFF34F8FBFF36F8F22
:104A900070BD00006C00002004ED00E003490968CF
:104AA0000160034909684160704700005C00002014
:104AB000480000200120014908607047580000208C
:104AC00070B504460D4654B900BF502080F31188DC
:104AD000BFF34F8FBFF36F8F00BF00BFFEE70548E6
:104AE000016818312046FFF79BFE01212846FFF799
:104AF0008DFA70BD3400002010B586B000200590FE
:104B0000049003AA04A905A8FFF76EFE0022DDE9C0
:104B100004101346CDE9002102901CA11D48039A00
:104B200000F03CFC1C4908600846006808B10124FC
:104B300000E00024012C15D100BF502080F3118823
:104B4000BFF34F8FBFF36F8F00BF4FF0FF3013499C
:104B5000086001201249086000201249086000F036
:104B600071F810E0601C08B1012000E0002050B98D
:104B700000BF502080F31188BFF34F8FBFF36F8FBA
:104B800000BF00BFFEE706B010BD000049444C4521
:104B900000000000154300086800002064000020A9
:104BA000500000204800002002480068401C0149D5
:104BB000086070476C0000201D48006818B1012093
:104BC0001C49086032E000201A4908601A48006851
:104BD000B0FA80F0C0F11F0101EB8100174A52F8D2
:104BE000200008B1012000E0002050B900BF502093
:104BF00080F31188BFF34F8FBFF36F8F00BF00BFEB
:104C0000FEE701EB81020D4B03EB82004268526824
:104C1000426000F108024368934202D14268526840
:104C200042604268D268064B1A6000BF70470000BD
:104C30006C000020580000204C0000200C070020D1
:104C4000340000201CB5524800685249884201D007
:104C5000012000E0002050B900BF502080F31188EF
:104C6000BFF34F8FBFF36F8F00BF00BFFEE7484811
:104C700000684849491E884201D0012000E0002018
:104C800050B900BF502080F31188BFF34F8FBFF39E
:104C90006F8F00BF00BFFEE73F49084600780190D4
:104CA000FF200A4610700846007800909DF800002A
:104CB00000F0F0009DF80020904201D1012000E0BA
:104CC000002050B900BF502080F31188BFF34F8FF0
:104CD000BFF36F8F00BF00BFFEE79DF8000000F03C
:104CE00050002E4A107007202D4A106009E02C4811
:104CF0000068401E2A4A10609DF800004006000E21
:104D000000909DF8000000F080008028EFD024483B
:104D10000068C0F10700042801D1012000E0002054
:104D200050B900BF502080F31188BFF34F8FBFF3FD
:104D30006F8F00BF00BFFEE7194800680002184AE5
:104D400010601046008800F4E0601060124A01987C
:104D500010700F482030006840F470000C4920317A
:104D600008600846006840F070400860FFF718FED1
:104D700000200C490860FBF77BFA0B48006840F004
:104D8000404009490860FBF75FFA00201CBD0000A5
:104D900000ED00E071C20F4100E400E0940000204B
:104DA000980000209000002034EF00E02DE9F84347
:104DB00005460E4617460DB1012000E0002050B90F
:104DC00000BF502080F31188BFF34F8FBFF36F8F68
:104DD00000BF00BFFEE705FB06F808F14800FFF73B
:104DE00019FC044664B1A14609F14809002084F881
:104DF00046003B464A46314628460094FFF79EFA55
:104E00002046BDE8F883000070B505460E462C46E6
:104E100054B900BF502080F31188BFF34F8FBFF308
:104E20006F8F00BF00BFFEE7FFF720FDD4E90F1230
:104E3000206801FB0200A0600020A0632068606081
:104E4000E06B401E226C216800FB0211E160FF2034
:104E500084F8440084F845009EB9206908B901200F
:104E600000E00020A8B904F1100000F00DFC80B1B2
:104E70004FF0805009490860BFF34F8FBFF36F8F29
:104E800007E004F11000FFF7BBFC04F12400FFF77A
:104E9000B7FCFFF715FD012070BD000004ED00E038
:104EA0002DE9FF4383B0064688461D464FF00009B2
:104EB000344654B900BF502080F31188BFF34F8FA0
:104EC000BFF36F8F00BF00BFFEE7B8F1000F01D145
:104ED000206C08B9012000E0002050B900BF50202C
:104EE00080F31188BFF34F8FBFF36F8F00BF00BFF8
:104EF000FEE7022D02D1E06B012801D1012000E084
:104F0000002050B900BF502080F31188BFF34F8FAD
:104F1000BFF36F8F00BF00BFFEE700F09DFA08B936
:104F2000059808B9012000E0002050B900BF5020CA
:104F300080F31188BFF34F8FBFF36F8F00BF00BFA7
:104F4000FEE700BFFFF792FCA06BE16B884201D344
:104F5000022D28D12A4641462046FFF736F907465A
:104F6000606A08B9012000E0002068B904F124005B
:104F700000F08AFB88B14FF0805032490860BFF3DF
:104F80004F8FBFF36F8F08E03FB14FF080502D4936
:104F90000860BFF34F8FBFF36F8FFFF791FC0120C5
:104FA00007B0BDE8F083059818B9FFF789FC002029
:104FB000F6E7B9F1000F04D101A8FFF76FFD4FF03C
:104FC0000109FFF77DFCFFF7EFFDFFF74FFC94F9B8
:104FD0004400401C10B9002084F8440094F94500B6
:104FE000401C10B9002084F84500FFF769FC05A9B2
:104FF00001A800F05BF9F0B92046FFF782FAA0B1F2
:1050000004F110000599FFF75BFD2046FFF7C2FA97
:1050100000F086FB002895D14FF0805009490860C8
:10502000BFF34F8FBFF36F8F8CE72046FFF7B2FAC5
:1050300000F076FB86E72046FFF7ACFA00F070FB45
:105040000020ADE704ED00E02DE9F84F07468A4661
:1050500090461E463C4654B900BF502080F311884C
:10506000BFF34F8FBFF36F8F00BF00BFFEE7BAF1F2
:10507000000F01D1206C08B9012000E0002050B9D8
:1050800000BF502080F31188BFF34F8FBFF36F8FA5
:1050900000BF00BFFEE7022E02D1E06B012801D164
:1050A000012000E0002050B900BF502080F311889B
:1050B000BFF34F8FBFF36F8F00BF00BFFEE7FFF757
:1050C00083FC00BF5021EFF3118081F31188BFF3FF
:1050D0004F8FBFF36F8F00BF0546A06BE16B884217
:1050E00001D3022E25D194F945B0A06B0090324631
:1050F00051462046FFF769F80BF1010088B9606A54
:1051000008B9012000E0002050B904F1240000F0AB
:10511000BBFA28B1B8F1000F02D00120C8F8000096
:1051200004E00BF1010040B284F845004FF00109A2
:1051300001E04FF0000900BF85F3118800BF484629
:10514000BDE8F88F2DE9F74183B005460E464FF0D4
:1051500000082C4654B900BF502080F31188BFF3DB
:105160004F8FBFF36F8F00BF00BFFEE70EB9206CFB
:1051700008B9012000E0002050B900BF502080F3A2
:105180001188BFF34F8FBFF36F8F00BF00BFFEE7E3
:1051900000F062F908B9059808B9012000E0002084
:1051A00050B900BF502080F31188BFF34F8FBFF379
:1051B0006F8F00BF00BFFEE700BFFFF757FBA76B75
:1051C000F7B131462046FEF7EBFF781EA063206959
:1051D00008B9012000E0002060B904F1100000F0DF
:1051E00053FA38B14FF080502F490860BFF34F8F0A
:1051F000BFF36F8FFFF764FB012006B0BDE8F081BD
:10520000059818B9FFF75CFB0020F6E7B8F1000F2E
:1052100004D101A8FFF742FC4FF00108FFF750FB53
:10522000FFF7C2FCFFF722FB94F94400401C10B9C1
:10523000002084F8440094F94500401C10B9002077
:1052400084F84500FFF73CFB05A901A800F02EF803
:10525000F0B92046FFF748F9A0B104F12400059900
:10526000FFF72EFC2046FFF795F900F059FA0028C9
:10527000A3D14FF080500C490860BFF34F8FBFF3AC
:105280006F8F9AE72046FFF785F900F049FA94E717
:105290002046FFF77FF900F043FA2046FFF724F994
:1052A00000288AD00020A8E704ED00E070B505468C
:1052B0000C4655B900BF502080F31188BFF34F8FC3
:1052C000BFF36F8F00BF00BFFEE754B900BF50208F
:1052D00080F31188BFF34F8FBFF36F8F00BF00BF04
:1052E000FEE7FFF7C3FA124802686868131A2068DD
:1052F000401C08B9002617E00E4928680968884252
:1053000004D06868904201D801260DE020689842D8
:1053100007D92068C01A20602846FFF7BFFB002687
:1053200002E0002020600126FFF7CAFA304670BD77
:10533000480000205C0000202DE9FF4F85B080462A
:1053400089461746DDE912ABB800FFF763F9064658
:1053500056B15420FFF75EF904460CB1266304E011
:105360003046FFF7CBFA00E000248CB1002084F82F
:105370005100CDE900ABCDE902403A4649464046EE
:10538000089BFEF7EEFF2046FEF78CFE012501E0AC
:105390004FF0FF35284609B0BDE8F08F2DE9F04FFA
:1053A00085B00746884691469A46DDE90EB6109CC0
:1053B0000EB1012000E0002050B900BF502080F362
:1053C0001188BFF34F8FBFF36F8F00BF00BFFEE7A1
:1053D0000CB1012000E0002050B900BF502080F344
:1053E0001188BFF34F8FBFF36F8F00BF00BFFEE781
:1053F000542003900398542801D1012000E000209C
:1054000050B900BF502080F31188BFF34F8FBFF316
:105410006F8F00BF00BFFEE700BFB4B1AEB125463D
:105420002C462E63022085F85100002004A9534623
:105430004A46CDE900B1CDE9025041463846FEF773
:1054400090FF2846FEF72EFE01E00020049004980D
:1054500005B0BDE8F08F00000549096809B90120D1
:1054600005E00449096809B9022000E000207047FE
:10547000500000206C0000202DE9F0414FF00008A2
:105480004448006800287CD143480068451C4248D5
:10549000056015BB41480068006808B9012000E0BC
:1054A000002050B900BF502080F31188BFF34F8F08
:1054B000BFF36F8F00BF00BFFEE73848076838486A
:1054C0000068364908603648076036480068401C66
:1054D00034490860FFF724F800BF3348006885426C
:1054E0003CD300BF2D480068006808B9012000E0E7
:1054F000002020B14FF0FF302B4908602DE02748F5
:105500000068C068C4686668B54202D22648066072
:1055100023E0201DFFF754F9A06A18B104F1180028
:10552000FFF74EF994F82C10012088401F490968B4
:1055300008431E490860E16A01EB81011C4A02EB45
:105540008100211DFFF786F91A49E06A0968C96AD6
:105550008842C7D34FF00108C4E700BF1548006870
:10556000C06A00EB8000124951F82000012801D9DF
:105570004FF001081048006808B14FF0010805E03D
:10558000FFE70E480068401C0C4908604046BDE833
:10559000F08100006C00002048000020380000204E
:1055A0003C0000205C000020640000204C00002033
:1055B0000C07002034000020580000205400002078
:1055C00070B505462C460026002D55D02B480068A6
:1055D000844201D1012000E0002050B900BF5020DA
:1055E00080F31188BFF34F8FBFF36F8F00BF00BFF1
:1055F000FEE7A06C50B900BF502080F31188BFF3C4
:105600004F8FBFF36F8F00BF00BFFEE7A06C401E3F
:10561000A064616CE06A88422ED0A06C60BB201D43
:10562000FFF7CEF878B9E06A00EB8000144951F832
:10563000200040B994F82C100120884011490968D5
:10564000814310480160606CE062E06AC0F10700CD
:10565000A06194F82C10012088400A490968084389
:1056600008490860E16A01EB8101054A02EB81000B
:10567000211DFFF7EFF80126304670BD34000020F1
:105680000C0700204C00002070B50646F068C46886
:1056900054B900BF502080F31188BFF34F8FBFF380
:1056A0006F8F00BF00BFFEE704F11800FFF788F816
:1056B00015480068A8B9201DFFF782F894F82C104F
:1056C0000120884011490968084310490860E16ACF
:1056D00001EB81010E4A02EB8100211DFFF7BAF8B0
:1056E00004E004F118010B48FFF7B4F80A49E06A36
:1056F0000968C96A884204D9012501200749086060
:1057000000E00025284670BD6C0000204C00002001
:105710000C070020C00700203400002058000020A3
:1057200070B5002400263648006850B900BF5020EC
:1057300080F31188BFF34F8FBFF36F8F00BF00BF9F
:10574000FEE7FFF793F82E480068401E2C490860DA
:105750000846006800284FD12A48006800284BD02E
:1057600024E02948C068C46804F11800FFF728F84D
:10577000201DFFF725F894F82C10012088402349BC
:105780000968084321490860E16A01EB8101204A68
:1057900002EB8100211DFFF75DF81E49E06A0968F0
:1057A000C96A884202D301201B4908601648006874
:1057B00008B9012000E000200028D2D00CB1FEF78B
:1057C000AFFE1648056865B100BFFFF755FE10B182
:1057D0000120114908606D1E002DF6D100200F49EF
:1057E00008600D48006838B1012630070C49086090
:1057F000BFF34F8FBFF36F8FFFF762F8304670BD76
:105800006C00002044000020C00700204C00002055
:105810000C07002034000020580000205400002015
:1058200004ED00E04FF04070E1EE100A7047000018
:105830001459000871380008FEFF00000000000045
:105840008000000000000000000000002059000857
:10585000CB050008030000000000000080000000ED
:105860000000000000000000EC5800086908000873
:1058700001000000000000008000000000000000A7
:105880000000000000590008A908000801000000FD
:105890000000000080000000000000000000000088
:1058A000DC580008D50500080200000000000000D8
:1058B00000010000000000000000000000061016BB
:1058C00000061016000000000000000001020304A2
:1058D00006070809000000000102030443616E5F2F
:1058E00053656E645461736B0000000043616E3158
:1058F0005F526563656976655461736B00000000F3
:1059000043616E325F526563656976655461736B9E
:105910000000000064656661756C745461736B000F
:1059200053746172745461736B0000004C59000829
:105930000000002008010000C4010008545A0008BB
:1059400008010020E04C0000E00100080000000019
:105950000000000000000000000000000000000047
:105960000000000000000000000000000000000037
:105970000000000010000000010000000024F400FE
:105980000000000000000000000000000000000017
:105990000000000000000000000000000000000007
:1059A00000000000000000000000000000000000F7
:1059B00000000000000000000000000000000000E7
:1059C00000000000000000000000000000000000D7
:1059D000000000000000000000000000AAAAAAAA1F
:1059E0000000000000000000590E0008A90A00088D
:1059F000250B0008850B0008610F0008090B000843
:105A000015090008A5330008AD34000800000000A7
:105A1000F905000801070008E90700081D0800084B
:105A20000000000000000000000000000000000076
:105A30000000000000000000000000000000000066
:105A40000000000000000000000000000000000056
:045A50000000000052
:040000050800018965
:00000001FF
