:020000040800F2
:10000000806D0020290300089D6300086F500008E0
:1000100025620008550A0008459F000800000000FE
:10002000000000000000000000000000690200085D
:100030000515000800000000C5020008796C0008E2
:100040004303000843030008430300084303000878
:100050004303000843030008430300084303000868
:100060004303000843030008430300084303000858
:10007000A1130008430300084303000843030008DA
:10008000430300084303000843030008690A00080B
:10009000590A00084303000843030008430300080B
:1000A00043030008796D0008430300084303000878
:1000B0004303000843030008430300084303000808
:1000C00043030008430300084303000843030008F8
:1000D000430300084303000843030008B574000805
:1000E00043030008430300084303000843030008D8
:1000F00043030008430300084303000843030008C8
:1001000043030008430300084303000843030008B7
:1001100043030008430300084303000843030008A7
:1001200043030008B1130008C1130008430300088B
:10013000430300084303000843030008890A00083A
:10014000790A0008430300084303000825640008F7
:100150004303000843030008D1130008C5740008D6
:100160004303000843030008430300084303000857
:100170004303000843030008430300080000000095
:10018000430300084303000800F002F800F05CF8A5
:100190000AA090E8000C82448344AAF10107DA45E2
:1001A00001D100F051F8AFF2090EBAE80F0013F0D8
:1001B000010F18BFFB1A43F00103184778C800006D
:1001C00098C800000A444FF0000C10F8013B13F0EF
:1001D000070408BF10F8014B1D1108BF10F8015BA0
:1001E000641E05D010F8016B641E01F8016BF9D193
:1001F00013F0080F1EBF10F8014BAD1C0C1B09D1EA
:100200006D1E58BF01F801CBFAD505E014F8016B5B
:1002100001F8016B6D1EF9D59142D6D370470000ED
:100220000023002400250026103A28BF78C1FBD8FF
:10023000520728BF30C148BF0B6070471FB50BF095
:10024000CCFE1FBD10B510BD00F0A6F91146FFF79A
:10025000F5FF09F01DFF00F0C4F903B4FFF7F2FF4A
:1002600003BC00F0CBF900002C4B19680868B0E81B
:10027000F04F80F30988BFF36F8F4FF0000080F3D9
:10028000118870470000000008480068006880F38B
:1002900008884FF0000080F3148862B661B6BFF39F
:1002A0004F8FBFF36F8F00DF00BF00BF08ED00E08E
:1002B000DFF80C00016841F470010160704700BF75
:1002C00088ED00E0EFF30980BFF36F8F134B1A68DE
:1002D0001EF0100F08BF20ED108A20E9F04F1060CB
:1002E00009B44FF0500080F31188BFF34F8FBFF374
:1002F0006F8F0AF039FE4FF0000080F3118809BCBF
:1003000019680868B0E8F04F1EF0100F08BFB0EC95
:10031000108A80F30988BFF36F8F7047B000002008
:10032000EFF30580704700000948804709480047FF
:10033000FEE7FEE7FEE7FEE7FEE7FEE7FEE7FEE795
:10034000FEE7FEE704480549054A064B70470000F2
:10035000656D00088901000880670020806D00201D
:10036000806900208069002053EA020C00F0698057
:100370002DE9F04B4FF00006002B1FBFB3FA83F5B9
:1003800003FA05F424FA05F65E4012BF1643B2FAEA
:1003900082F502FA05F4C5F120051EBF22FA05FC1C
:1003A00044EA0C04203556EA044C4FEA144418BFC2
:1003B000641C4FF000084FF00009904271EB030CF1
:1003C00039D3002919BFB1FA81F701FA07F6B0FA5B
:1003D00080F700FA07F6C7F120071EBF20FA07FCD6
:1003E00046EA0C062037B6FBF4FCA7EB0507103FE6
:1003F00007F01F0BCBF120060CFA0BFB2CFA06F6CC
:1004000044BFB3460026202FA4BF5E464FF0000B2A
:100410005BEA060C08BF4FF0010B19EB0B09ABFBB5
:10042000027C48EB0608C01B06FB02CC0BFB03CC8E
:1004300071EB0C01C1E70B46024641464846BDE858
:10044000F08B13B54FF000004FF00001AFF30080C8
:10045000BDE81C407047032A40F2308010F0030CC6
:1004600000F0158011F8013BBCF1020F624498BF07
:1004700011F801CB00F8013B38BF11F8013BA2F1A4
:10048000040298BF00F801CB38BF00F8013B11F01F
:10049000030300F02580083AC0F0088051F8043BBF
:1004A000083A51F804CBA0E80810F5E7121D5CBF2C
:1004B00051F8043B40F8043BAFF30080D20724BF5F
:1004C00011F8013B11F801CB48BF11F8012B24BFF3
:1004D00000F8013B00F801CB48BF00F8012B704742
:1004E00010B5203AC0F00B80B1E81850203AA0E8CF
:1004F0001850B1E81850A0E81850BFF4F5AF5FEA03
:10050000027C24BFB1E81850A0E8185044BF18C9B5
:1005100018C0BDE810405FEA827C24BF51F8043B5C
:1005200040F8043B08BF7047D20728BF31F8023BB0
:1005300048BF11F8012B28BF20F8023B48BF00F844
:10054000012B70474FF0000200B5134694469646C3
:10055000203922BFA0E80C50A0E80C50B1F12001D6
:10056000BFF4F7AF090728BFA0E80C5048BF0CC084
:100570005DF804EB890028BF40F8042B08BF7047E2
:1005800048BF20F8022B11F0804F18BF00F8012B54
:100590007047704770477047754600F02BF8AE46BD
:1005A00005006946534620F00700854618B020B57F
:1005B000FFF7C8FEBDE820404FF000064FF00007EF
:1005C0004FF000084FF0000B21F00701AC46ACE8FB
:1005D000C009ACE8C009ACE8C009ACE8C0098D4668
:1005E000704710B50446AFF300802046BDE81040C8
:1005F000FFF733BE004870471C67002001491820F0
:10060000ABBEFEE7260002007047000000BF0AF004
:1006100021FA01229102414802F082FA0121404868
:1006200000F052FA02213F4800F04EFAB2EE042ADE
:10063000DFED3D1AB3EE091ADFED3C0A9FED3C0AEF
:100640003C4809F0EFFCB2EE042ADFED371AB3EEB6
:10065000091ADFED360A9FED360A374809F0E2FC49
:10066000B0EE082ADFED351AB1EE041AFBEE0E0AE1
:10067000B3EE0E0A324809F0D5FCB7EE002ADFEDE2
:100680002F1A9FED291AFAEE040AB2EE040A2D4839
:1006900009F0C8FC41F288329100B3EE0E1ADFED8A
:1006A0002A0A9FED2A0A2A4804F0E4FC41F2883223
:1006B0009100B3EE0E1ADFED240A9FED240A2548BF
:1006C00004F0D8FC9FED243ADFED242A9FED242A84
:1006D000F6EE001AB6EE001ADFED180A9FED210AB9
:1006E000214806F0D9F84FF47A7244F62061B0EE52
:1006F000081AF6EE000A9FED150A1C4804F0BAFC31
:1007000000F0FAFA00F040FE194800680AF024FBF5
:100710000AF0CAF9012009F0DCFC78E7001C02406D
:100720002C05002054050020CDCCCC3D0000C8C2D3
:100730000000C8420C6100204C6100200AD7233C15
:100740008C610020CC6100200000000000002042ED
:10075000D86500202866002000002F440000FA45DC
:1007600000409C460000484278660020CC6600208D
:10077000340000208AB000BF4FF0FF3269460548C0
:1007800000680AF0B7FE09AB07AA01A9009801F0BA
:100790000AF9F1E70800002070B505460C4600266E
:1007A0000DB1022C00D870BD611EFF22284601F059
:1007B000B9F80646601E2E5400BFF4E700B585B0B8
:1007C0000020039004900190029039480088000AAC
:1007D0008DF80C00364800788DF80D0034484088BC
:1007E000000A8DF80E00324880788DF80F003048EE
:1007F0008088000A8DF810002D4800798DF81100CE
:100800002B480089000A8DF812002948007A8DF8DB
:10081000130003A840F20F13002226490090264837
:10082000006800F06BF922484089000A8DF8040046
:100830001F48807A8DF805001D48C07D8DF80600A0
:100840009DF807001A49497E01F0010108438DF81F
:1008500007009DF807001649097B01F0010140EAF5
:1008600041008DF807009DF807001149097E01F04D
:10087000010140EA81008DF807009DF807000C494E
:10088000897E01F0010140EAC1008DF807000848A7
:10089000807D8DF8080001A840F21F130022054951
:1008A00000900548006800F029F905B000BD00007F
:1008B0006C63002054050020080000200FB49DF850
:1008C0001D009DF81C1040EA012000B21649C881A5
:1008D0009DF81F109DF81E0041EA0020124948842F
:1008E0009DF821109DF8200041EA002000B200EEA2
:1008F000100AB8EEC00A0C4880ED040A90ED040A14
:10090000DFED0A0A80EE201A80ED041A9DF822001D
:1009100000F001000449C8769DF82200C0F34000B1
:10092000888404B0704700006C63002000007A44A3
:1009300010B54048006940490968401AB0F5C87FC1
:1009400040D33E4909693E4A1268881A002801DBF3
:10095000014600E041420C46322C2ADA3948007840
:1009600038BB0120374908703248006936490860B1
:100970004FF47A703149C8800846B0F9020001EEA0
:10098000100AB8EEC11AF0EE410A0846B0F90600A6
:1009900001EE100AB8EEC11AB0EE410A2B492C48FC
:1009A00005F0DBFEBDEEC00A10EE100A00B22349CE
:1009B000C882204800692049086020480069204911
:1009C000086000BF1F48007880B31A4800691E49BC
:1009D0000968401AC82807D300201A490870174828
:1009E00000691449486122E04FF47A701349C880C5
:1009F0000846B0F9020001EE100AB8EEC11AF0EE96
:100A0000410A0846B0F9060001EE100AB8EEC11A14
:100A1000B0EE410A0D490E4805F09FFEBDEEC00A3A
:100A200010EE100A00B20549C88210BDFFE700BFF2
:100A3000FBE7000014020020E4010020EC6300202A
:100A4000E8010020EC010020F00100208C61002072
:100A5000CC66002000BFFEE710B5024801F0A3F904
:100A600010BD00002C05002010B5024801F09BF9D4
:100A700010BD00002C05002010B5024801F093F9CC
:100A800010BD00005405002010B5024801F08BF99C
:100A900010BD00005405002070B504460D4600202E
:100AA000206160616062A0610120E061206200203D
:100AB00020606060A060E0602146284601F018F8E0
:100AC00008B100F035FD70BD70B504460D46681ED6
:100AD000C6B206EB460101EB0611074A02EB8100A4
:100AE0002146FFF7D9FF204601F08BFC022120466A
:100AF00000F044FF70BD00008C6200202DE9F04141
:100B00008AB007460E4614461D46DDF84080019621
:100B10000CB9029500E00395049400210591082189
:100B2000069100218DF81C10D8F800000890D8F824
:100B30000400099000231A4601A938460AF088FBF0
:100B40000AB0BDE8F0810346042B15D007DC7BB169
:100B5000012B0ED0022B0DD0032B12D10BE0202B3A
:100B60000BD0212B0AD0222B09D0232B09D107E04F
:100B700008E007E006E005E004E003E002E001E051
:100B800000E000BF00BF0020704700207047000059
:100B900010B500220449054806F04DFF04490348FA
:100BA00006F03AFF002010BD181500203C08002078
:100BB000180D002038B504460D4621460C4806F0B5
:100BC0002BFF0B4806F0F4FE00236A462146094835
:100BD00000680AF011FC009838B14FF080500649C7
:100BE0000860BFF34F8FBFF36F8F002038BD000048
:100BF0003C0800200C00002004ED00E010B5034686
:100C00000C460021084610BD2DE9F04104460D4672
:100C100000260A48D0F8BC72D7F8140210B101209F
:100C2000BDE8F0812A462146044806F004FF034847
:100C300006F0B4FF06463046F2E700003C0800200C
:100C40008EB000BF4FF0FF3205A9154800680AF0CA
:100C500051FC059C9DF8300000F00F001149088000
:100C6000B4F5007F0DD940F20220844209D8142245
:100C700009A96846FFF734FC05A80FC804F0C6FFB1
:100C8000E0E7084800880128DCD1142209A9684659
:100C9000FFF726FC05A80FC804F068FAD2E70000A9
:100CA00000000020460200208EB000BF4FF0FF324F
:100CB00005A9104800680AF01DFC059C40F20F10C1
:100CC000844208D1142209A96846FFF709FC05A847
:100CD0000FC8FFF7F3FD40F201208442E6D1142251
:100CE00009A96846FFF7FCFB05A80FC804F0F8FE49
:100CF000DCE700000400002010B5134890ED0B0A5B
:100D0000124880ED030A104890ED0B0A0F4880ED61
:100D1000010AB2EE040A0E4880ED000A9FED0D0AAA
:100D20000A4880ED040AF2EE040AB1EE080A0A4805
:100D300005F080FB0020094908760220C8750020D4
:100D40004876087710BD0000A46300209465002059
:100D5000B801002000000000A86500206C6300209E
:100D600010B56C48007B01283FD16A48B0F90600F5
:100D700000EE100AF8EEC00A674890ED001A6748C6
:100D800090ED000A00EEC10A80ED000A90ED000A25
:100D9000F3EE000AB4EEE00AF1EE10FA04DDB3EE71
:100DA000000A80ED000A0DE05C4890ED000AFAEEC2
:100DB000040AB4EEE00AF1EE10FA03D2BAEE040A25
:100DC00080ED000A564890ED040AF2EE040A30EE77
:100DD000200A5248D0ED000A30EE200A504880ED3B
:100DE000030A01204F49086048E04A48B0F906006C
:100DF00000EE100AF8EEC00A474890ED001A474886
:100E000090ED000A00EEC10A80ED000A90ED000AA4
:100E1000F3EE000AB4EEE00AF1EE10FA04DDB3EEF0
:100E2000000A80ED000A0DE03C4890ED000AFAEE61
:100E3000040AB4EEE00AF1EE10FA03D2BAEE040AA4
:100E400080ED000A3748006850B9344890ED000A38
:100E5000F2EE040A30EE200A314880ED030A0DE07C
:100E600030480068012809D12C4890ED000AF2EEC4
:100E7000040A30EE200A2A4880ED030A284890ED43
:100E8000030AF3EE000AB4EEE00AF1EE10FA04DD14
:100E9000B3EE000A80ED030A0BE0214890ED030A4F
:100EA000B5EEC00AF1EE10FA03D29FED1F0A80EDF5
:100EB000030A1E4890ED000ABDEEC00A10EE100AAB
:100EC00040B21B4981F840001A4890ED000ABDEE7F
:100ED000C00A10EE100A40B281F84100164890EDA9
:100EE000000A084680ED0C0A144890ED000A0846F6
:100EF00080ED0D0A0A48D0ED030AB0EE600A1048F2
:100F000005F0B8FA064890ED030A094880ED0B0A8F
:100F100010BD00006C630020CC010020D80100202F
:100F200094650020D401002000000000C4010020CE
:100F3000A4630020C8010020C0010020BC010020E3
:100F4000A865002010B5FFF70BFF10BD10B52DED03
:100F5000068B044694ED010A10EE101A08460AF0BA
:100F6000CBFF41EC1A0BB0EE4A0AF0EE6A0A09F028
:100F70001FF8B0EE408AF0EE608A94ED000A10EEA1
:100F8000101A08460AF0B8FF41EC1A0BB0EE4A0AF4
:100F9000F0EE6A0A09F00CF8B0EE409AF0EE609AB2
:100FA00053EC182B51EC190B0AF06CFE04D29FED98
:100FB000090A84ED000A09E094ED000AD4ED000A64
:100FC0009FED051A00EEC10A84ED000ABDEC068B08
:100FD00010BD000000000000CDCC4C3E10B52DED42
:100FE000048BDA48007801287ED10020D7490870A8
:100FF000D7480078A92805D1D5484078532801D191
:10100000012000E00020D34988770846807F10B98E
:10101000BDEC048B10BD10240B222146CC4809F0F6
:101020001BF8A0F5806000B2CA4908800B2204F1C9
:101030000B01C74809F010F8A0F5806000B2C5495F
:1010400048800B2204F11601C14809F005F8A0F50B
:10105000806000B2BF4988800B2204F12101BC48A6
:1010600008F0FAFFA0F5806000B2BA49C8800222F9
:101070003C21B74808F0F0FFB649087201223E2132
:10108000B34808F0E9FFB349487201223F21B04854
:1010900008F0E2FFAF49887201224021AC4808F015
:1010A000DBFFAC49C8720B224121A94808F0D4FFEC
:1010B000A0F5806000B2A749888101224C21A44894
:1010C00008F0CAFFA349887310225021A04808F0F5
:1010D000C3FF00B29F490882102260219C4808F09B
:1010E000BBFF00B29B4900E02BE148821022702137
:1010F000974808F0B1FF00B2964988820222802109
:10110000934808F0A9FF93498875022282219048EC
:1011100008F0A2FF8F49C875022284218C4808F08C
:101120009BFF8C49087610228821894808F094FF9B
:1011300088494883488B1C3109F0E6FB8548007AD2
:10114000012868D183488088834908808148C08805
:10115000404200B24880002008737E484088C88022
:101160007C48008808817B488089404200B28880A2
:101170007A4890ED000ABDEEC00A10EE100A00B2E7
:1011800048817448C17A764804F0D0F97148817A70
:10119000744804F0CBF96F48417A734804F0C6F9FB
:1011A0006F48007A38B16C48407E08B9012000E0F1
:1011B0000020694948766848407E01280FD165487B
:1011C000807B012804D1694908736949087109E0E5
:1011D00001206649087300206549087102E000207B
:1011E000634908716048007A50B15B48807D401CBB
:1011F000594988750846807D022801DD00208875E0
:101200005848007A18B101205349887698E00020A8
:101210005149887694E04F48007A02287BD14D48A6
:1012200080884D4908804B48C088404200B24880C1
:10123000012008734749B1F902000AF00CFD41ECA6
:10124000190B9FED4C0B53EC102B0AF057FD41ECA2
:10125000180B0AF0D1FC00B23F49C8803D48008815
:1012600008813C488089404200B288803B4890ED2C
:10127000000ABDEEC00A10EE100A00B248813F48D5
:1012800090ED000A3E4880ED040A3248C17A3448A5
:1012900004F04CF92F48817A324804F047F92D4880
:1012A000417A314804F042F92D48007A38B12A4891
:1012B000407E08B9012000E00020274948762648F2
:1012C000407E01280FD12348807B012804D1274983
:1012D00008732749087109E0012024490873002098
:1012E0002349087102E00020214908711E48007A54
:1012F00050B11948807D401C174988750846807D8B
:10130000022801DD002088751648007A20B10120EE
:101310001149887614E003E000200F4988760FE039
:101320000C48007A20B90B49164804F033F907E05D
:101330000020094908730880488088800881C88097
:1013400000BFFFF73BFA00BF62E60000A4010020E7
:10135000586500204C6400206C63002018010020B8
:10136000706500207C650020886500200402002054
:10137000400200209A9999999999C93F1C0100202F
:10138000946500206C64002010B5152202490348C2
:1013900003F0E9FA10BD0000586500202C0600207B
:1013A00010B5024801F0CEF810BD0000340700204F
:1013B00010B5024801F0C6F810BD000094070020E7
:1013C00010B5024801F0BEF810BD00007406002000
:1013D00010B5024801F0B6F810BD0000D406002098
:1013E0000146087810381823B0FBF3F20848805CF7
:1013F000C865032A05D908686FF30900001D8865D0
:1014000003E008686FF309008865886D7047000085
:10141000FCC30008014600208A6A8B69CBB932B14F
:10142000012A0DD0022A03D0032A10D10EE000BFFA
:10143000CB6A03F08073B3F1807F00D1012007E015
:10144000CB6AB3F1C07F00D1012001E000E000BF12
:1014500034E08B69B3F5005F1AD132B1012A07D0AD
:10146000022A03D0032A11D10AE000BF01200EE0B6
:10147000CB6A03F08073B3F1807F00D1012006E0D6
:10148000CB6AB3F1C07F00D1012000E000BF15E0BE
:1014900032B1012A05D0022A04D0032A0CD103E07C
:1014A00000BF00BF012008E0CB6A03F08073B3F1F6
:1014B000807F00D1012000E000BF00BF704730B541
:1014C0000468246824F4802405682C600468636040
:1014D0008468402C04D10468A2600468E16003E0E1
:1014E0000468A1600468E26030BD08B50AF09CF9A8
:1014F000009000BF00BFFFF771FD0521684609F0AD
:10150000C1FBF8E77047000010B50848007B0128D0
:1015100008D10648407B012804D104F041FFFFF7C1
:1015200007FA01E005F080FB10BD00000402002076
:1015300072B600BFFEE7000010B500F05DF8284865
:1015400090ED000ABDEEC00A10EE100A00B2254967
:101550000881234890ED000AB1EE400ABDEEC00AB2
:1015600010EE100A01B21F480185B0F9020001EE29
:10157000100AB8EEC11AF0EE410A1A48B0F9080094
:1015800001EE100AB8EEC11AB0EE410A164917482A
:1015900005F0E3F8BDEEC00A10EE100A00B21149E2
:1015A000C8820846B0F9220001EE100AB8EEC11A4E
:1015B000F0EE410A0846B0F9280001EE100AB8EE34
:1015C000C11AB0EE410A0A490A4805F0C6F8BDEE54
:1015D000C00A10EE100A01B20248C18610BD000018
:1015E000380200200C6400200C610020D865002027
:1015F0004C610020286600200C48407E10B10C4849
:10160000C06828B19FED0B0A0B4880ED000A7047B7
:101610000648407E012807D10548C06820B99FEDE3
:10162000070A054880ED000A00BFF0E76C63002060
:1016300014020020000000003802002000C0C14554
:101640000EB50346B0EE403AF0EE603A002000904E
:101650000190029003F12001F0EE630AB0EE430A1C
:10166000184604F0E3F9D3ED080AB0EE600A03F17E
:10167000300103F1280004F0D7FDD3ED090AB0EEE4
:10168000600A03F13C0103F1340004F0CDFD93ED59
:101690000A0AD3ED0D0A60EE200A93F93000C0EB80
:1016A000C0009D4901EB800093F93C1000EB8100E4
:1016B00090ED001A9DED000A00EE810A8DED000A02
:1016C00093ED0A0AD3ED0E0A60EE200A93F930007A
:1016D000C0EBC000904901EB800193F93D0001EBA4
:1016E000800090ED001A9DED000A00EE810A8DED5C
:1016F000000A93ED0B0AD3ED0D0A60EE200A93F970
:101700003100C0EBC000844901EB800093F93C102C
:1017100000EB810090ED001A9DED000A00EE810AB9
:101720008DED000A93ED0B0AD3ED0E0A60EE200A50
:1017300093F93100C0EBC000774901EB800193F9C8
:101740003D0001EB800090ED001A9DED000A00EED7
:10175000810A8DED000A93ED0A0AD3ED0D0A60EEC1
:10176000200A93F93000C0EBC0006C4901EB800007
:1017700093F93C1000EB810090ED001A9DED010AF9
:1017800000EE810A8DED010A93ED0A0AD3ED0E0AEF
:1017900060EE200A93F93000C0EBC0005F4901EB16
:1017A000800193F93D0001EB800090ED001A9DED62
:1017B000010A00EE810A8DED010A93ED0B0AD3EDCB
:1017C0000D0A60EE200A93F93100C0EBC0005349C6
:1017D00001EB800093F93C1000EB810090ED001AC2
:1017E0009DED010A00EE810A8DED010A93ED0B0AD1
:1017F000D3ED0E0A60EE200A93F93100C0EBC00071
:10180000464901EB800193F93D0001EB800090ED2A
:10181000001A9DED010A00EE810A8DED010A93ED9B
:101820000A0AD3ED0D0A60EE200A93F93000C0EBEE
:10183000C0003B4901EB800093F93C1000EB8100B4
:1018400090ED001A9DED020A00EE810A8DED020A6C
:1018500093ED0A0AD3ED0E0A60EE200A93F93000E8
:10186000C0EBC0002E4901EB800193F93D0001EB74
:10187000800090ED001A9DED020A00EE810A8DEDC8
:10188000020A93ED0B0AD3ED0D0A60EE200A93F9DC
:101890003100C0EBC000224901EB800093F93C10FD
:1018A00000EB810090ED001A9DED020A00EE810A26
:1018B0008DED020A93ED0B0AD3ED0E0A60EE200ABD
:1018C00093F93100C0EBC000154901EB800193F999
:1018D0003D0001EB800090ED001A9DED020A00EE44
:1018E000810A8DED020A9DED000AF0EE080A80EEF5
:1018F000201A83ED001A9DED010AF0EE080A80EE31
:10190000201A83ED011A9DED020AF0EE080A80EE1E
:10191000201A83ED021A0EBD1CC40008E0C40008A2
:10192000A4C5000830B5034605E013F8010B80EAB2
:1019300002040448025D081EA1F10101F5D1104620
:1019400030BD000068C6000870B50A480468001D74
:101950000568001D0668344454B108220649204633
:1019600003F0B8FB042204491031284603F0B2FB0F
:1019700070BD0000107AFF1F7200002010B50246F3
:1019800092F82030012B01D0022B06D1106840695B
:10199000084314686061002010BD506A40F4802044
:1019A00050620120F8E7F0B504460D461E4694F853
:1019B000207020688368A86800B900E000BF012F8C
:1019C00001D0022F7DD103F0806030B903F00060B8
:1019D00018B903F0805000287ED0C3F301610120C4
:1019E00088403060A86860B9B5F800C0E86840EA8F
:1019F0004C5C206800F5C07000EB0110C0F800C01E
:101A00000FE0D5E901C040EACC00D5F80CC040EAAF
:101A10000C00D4F800C00CF5C07C0CEB011CCCF819
:101A20000000D5F810C0206800F5C07000EB011070
:101A3000C0F804C0287D01280ED1206800F5C070D0
:101A400000EB0110406840F4807C206800F5C07015
:101A500000EB0110C0F804C0D079000692F806C06F
:101A600040EA0C4092F805C040EA0C2092F804C00D
:101A700040EA0C00D4F800C00CF5C07C0CEB011C53
:101A8000CCF80C00D078000692F802C040EA0C4076
:101A900092F801C040EA0C2092F800C040EA0C0025
:101AA000D4F800C00CF5C07C0CEB011CCCF808008D
:101AB000206800F5C07000EB0110006840F0010CD8
:101AC00001E00FE008E0206800F5C07000EB0110B5
:101AD000C0F800C00020F0BD606A40F400106062F1
:101AE0000120F8E7606A40F4802060620120F2E79C
:101AF000F0B504460A4694F82050012D01D0022D7D
:101B00007ED1424901F50071086840F0010008608B
:101B1000086820F47C5008600868566A40EA06208D
:101B20000860107D00F01F06012000FA06F3C86966
:101B30009843C861A1F50071D069C8B9D1F80C0209
:101B40009843C1F80C02908880B2968940EA064614
:101B500001F51070576940F83760108880B2168917
:101B600040EA064601F51070576900EBC700466071
:101B7000D069012819D1D1F80C021843C1F80C0220
:101B8000908880B2168840EA064601F510705769C1
:101B900040F83760908980B2168940EA064601F520
:101BA0001070576900EBC7004660906928B9D1F8FA
:101BB00004029843C1F8040204E0D1F80402184377
:101BC000C1F80402106928B9D1F814029843C1F889
:101BD000140204E0D1F814021843C1F81402106A88
:101BE000012804D1D1F81C021843C1F81C02D1F815
:101BF000000220F00100C1F800020020F0BDFFE764
:101C0000606A40F4802060620120F7E700640040D1
:101C1000704770B5044694F82050012D01D0022D74
:101C20007DD151B92068C06800F0030080B9606AB6
:101C300040F400106062012070BD2068006900F06F
:101C4000030028B9606A40F4001060620120F3E7E5
:101C5000206800F5D87000EB0110006800F0040067
:101C60009060906840B9206800F5D87000EB0110D2
:101C70000068400D106007E0206800F5D87000EBA8
:101C800001100068C0085060206800F5D87000EBB3
:101C90000110006800F00200D060206800F5D870E4
:101CA00000EB0110406800F00F00082802D3082064
:101CB000106108E0206800F5D87000EB0110406862
:101CC00000F00F001061206800F5D87000EB0110E3
:101CD000406800F47F40000A9061206800F5D870E9
:101CE00000EB01104068000C5061206800F5D870CE
:101CF00000EB011080681870206800F5D87000EBC8
:101D00000110806800F47F40000A5870206800F5D8
:101D1000D87000EB0110806800F47F0000E03CE028
:101D2000000C9870206800F5D87000EB01108068F6
:101D3000000ED870206800F5D87000EB0110C06864
:101D40001871206800F5D87000EB0110C06800F42D
:101D50007F40000A5871206800F5D87000EB011030
:101D6000C06800F47F00000C9871206800F5D870FE
:101D700000EB0110C068000ED87131B92068C0684E
:101D800040F020002668F06005E02068006940F01F
:101D900020002668306100204EE7606A40F4802011
:101DA0006062012048E72DE9F05F044600252068C5
:101DB00046692068D0F80490206887682068D0F8C9
:101DC0000CA02068D0F810B02068D0F8188006F079
:101DD0000100002855D007F00100C0B101202168A2
:101DE000886007F0020018B1204600F03AFB0EE0D0
:101DF00007F0040010B145F4006508E007F00800A2
:101E000010B145F4805502E0204600F029FB07F4AC
:101E10008070C8B14FF480702168886007F400704A
:101E200018B1204600F01FFB0EE007F4806010B1EF
:101E300045F4005508E007F4006010B145F4804512
:101E400002E0204600F00EFB07F48030C8B14FF4EA
:101E500080302168886007F4003018B1204600F017
:101E600004FB0EE007F4802010B145F4004508E0C3
:101E700007F4002010B145F4803502E0204600F060
:101E8000F3FA06F0080038B10AF0100020B145F46A
:101E9000007510202168C86006F0040040B10AF007
:101EA000080028B108202168C860204600F01CFA0C
:101EB00006F0020038B12068C06800F0030010B1DD
:101EC000204600F013FA06F0400038B10BF0100085
:101ED00020B145F4806510202168086106F02000DB
:101EE00040B10BF0080028B10820216808612046A5
:101EF00000F084FA06F0100038B12068006900F0A4
:101F0000030010B1204600F07AFA06F4003040B128
:101F100009F0100028B1102021684860204600F028
:101F20006FFA06F4803040B109F0080028B10820AB
:101F300021684860204600F099FA06F4004088B312
:101F400009F0040078B306F4807020B108F00100B5
:101F500008B145F0010506F4007020B108F0020058
:101F600008B145F0020506F4806020B108F00400D5
:101F700008B145F0040506F40060A0B108F0700057
:101F800088B108F07000402817D006DC10280BD06C
:101F900020280CD0302819D10CE0502810D060280F
:101FA00014D110E01DE019E045F008050FE045F000
:101FB00010050CE045F0200509E045F0400506E07D
:101FC00045F0800503E045F4807500E000BF00BFE8
:101FD0002068806920F070002168886104202168F1
:101FE00048602DB1606A284360622046FFF710FE0A
:101FF000BDE8F09F70B504460CB9012070BD94F89F
:10200000200010B9204600F0AFF82068006840F0CA
:1020100001002168086000F089FD05460DE000F030
:1020200085FD401B0A2808D9606A40F400306062D0
:10203000052084F820000120E0E72068406800F0D7
:1020400001000028EBD02068006820F00200216821
:10205000086000F06BFD05460DE000F067FD401BD9
:102060000A2808D9606A40F400306062052084F8CC
:1020700020000120C2E72068406800F0020000282C
:10208000EBD1207E012806D12068006840F0800056
:102090002168086005E02068006820F08000216861
:1020A0000860607E012806D12068006840F040008A
:1020B0002168086005E02068006820F04000216881
:1020C0000860A07E012806D12068006840F020004A
:1020D0002168086005E02068006820F02000216881
:1020E0000860E07E012806D12068006820F010001A
:1020F0002168086005E02068006840F01000216851
:102100000860207F012806D12068006840F00800A0
:102110002168086005E02068006820F00800216858
:102120000860607F012806D12068006840F0040044
:102130002168086005E02068006820F0040021683C
:102140000860D4E902010843216908436169084332
:102150006168491E08432168C8610020606201204F
:1021600084F82000002049E710B586B00446142109
:1021700001A8FEF7E7F956492068884249D1554839
:102180000068401C534908600846006801280FD1C8
:1021900000BF002000905048006840F000704E4999
:1021A00008600846006800F00070009000BF00BFA3
:1021B00000BF0020009048481038006840F0080038
:1021C0004549103908600846006800F00800009092
:1021D00000BF00BF03200190022002900020039066
:1021E000032004900920059001A93C4800F09EFBC3
:1021F00000220521132000F057FD132000F040FDC0
:1022000000220521142000F04FFD142000F038FDBD
:102210005CE033492068884258D100BF002000901C
:102220002D48006840F080602B490860084600682F
:1022300000F08060009000BF00BF26480068401C8E
:10224000244908600846006801280FD100BF00201B
:1022500000902148006840F000701F49086008465F
:10226000006800F00070009000BF00BF00BF0020B9
:10227000009019481038006840F0020016491039E3
:1022800008600846006800F00200009000BF00BF30
:10229000602001900220029000200390032004900F
:1022A0000920059001A90F4800F040FB00220521FC
:1022B0003F2000F0F9FC3F2000F0E2FC0022052165
:1022C000402000F0F1FC402000F0DAFC06B010BD28
:1022D000006400403800002040380240000C0240FA
:1022E00000680040000402407047000038B5044612
:1022F0003B492068884203D100203A49087002E037
:102300000120384908703748007800EB400101EBA4
:102310000010354901EB800000F14403314800789A
:1023200000EB400101EB00102F4901EB800000F1B0
:10233000280200212046FFF76CFC2A4A127802EBA3
:10234000420303EB0212284B03EB820202F1280145
:10235000244A127802EBC202244B03EB82001C22B7
:10236000FEF7BEF81F48007800EBC0001F4901EBE4
:1023700080011C48007800EB400202EB00101A4A72
:1023800002EB8000826C406CC1E9070215480078BE
:1023900068B91448007800EBC000144A02EB8001D1
:1023A00000236A461248006809F026F80CE00D4840
:1023B000007800EBC0000D4A02EB800100236A4662
:1023C0000C48006809F018F8009838B14FF08050B8
:1023D00009490860BFF34F8FBFF36F8F38BD00000E
:1023E00000640040540100208C620020246300201F
:1023F000000000200400002004ED00E0704770475A
:10240000704770B5044694F82000012822D10220BC
:1024100084F820002068006820F00100216808602E
:1024200000F084FB05460DE000F080FB401B0A280D
:1024300008D9606A40F400306062052084F820000A
:10244000012070BD2068406800F001000028EBD139
:102450006062F6E7606A40F4002060620120F0E705
:10246000704770477047704770477047704770B546
:102470000446A56D00F05AFB064694F83500022884
:1024800008D08020606500BF002084F8340000BFC1
:10249000012070BD2068006820F0160021680860E7
:1024A0002068406920F0800021684861206C08B9EC
:1024B000A06C28B12068006820F00800216808603E
:1024C0002068006820F001002168086010E000F03A
:1024D0002DFB801B05280BD920206065032084F884
:1024E000350000BF002084F8340000BF0320D0E78F
:1024F0002068006800F001000028E8D194F85C1022
:102500003F208840A860012084F8350000BF0020EB
:1025100084F8340000BF00BFBBE7014691F83500E6
:10252000022803D08020486501207047052081F8EB
:1025300035000868006820F001000A68106000207B
:10254000F3E70000F8B50446002000908C480068CE
:102550004FF41651B0FBF1F7A56D2E6894F85C109E
:1025600008208840304098B12068006800F00400DE
:1025700070B12068006820F004002168086094F8B9
:102580005C1008208840A860606D40F00100606524
:1025900094F85C1001208840304068B120684069A0
:1025A00000F0800040B194F85C1001208840A860E1
:1025B000606D40F00200606594F85C100420884073
:1025C000304068B12068006800F0020040B194F823
:1025D0005C1004208840A860606D40F004006065D5
:1025E00094F85C1010208840304078B32068006870
:1025F00000F0080050B394F85C1010208840A860E8
:102600002068006800F4802080B12068006800F431
:10261000002028B9206CC8B12046216C884715E0FD
:10262000A06C98B12046A16C88470FE02068006834
:1026300000F4807028B92068006820F00800216844
:102640000860206C10B12046216C884794F85C101B
:10265000202088403040002865D02068006800F0C5
:10266000100000285FD094F85C1020208840A860FB
:1026700094F83500052828D12068006820F016005D
:10268000216808602068406920F080002168486166
:10269000206C08B9A06C28B12068006820F0080000
:1026A0002168086094F85C103F208840A8600120F1
:1026B00084F8350000BF002084F8340000BF206D8E
:1026C00010B12046216D8847F8BD2068006800F4ED
:1026D000802080B12068006800F4002028B9606C78
:1026E00010B12046616C88471DE0E06BD8B12046F0
:1026F000E16B884717E02068006800F4807068B9D3
:102700002068006820F0100021680860012084F82B
:10271000350000BF002084F8340000BFE06B10B12A
:102720002046E16B8847606D38B3606D00F00100B2
:10273000F0B1052084F835002068006820F0010021
:102740002168086000BF0098401C0090B84200D982
:1027500005E02068006800F001000028F3D100BF08
:10276000012084F8350000BF002084F8340000BF49
:10277000E06C10B12046E16C884700BFA4E7000080
:10278000AC0000202DE9F0410446002500F0CEF910
:10279000074614B90120BDE8F081606A00B100BFAE
:1027A000022084F8350000BF002084F8340000BF08
:1027B0002068006820F00100216808600AE000F04D
:1027C000B5F9C01B052805D920206065032084F8D1
:1027D0003500E0E72068006800F001000028EED135
:1027E0002068056821480540D4E901010843E168F3
:1027F00008432169084361690843A1690843E16905
:102800000843216A08430543606A042803D1D4E9D8
:102810000B0108430543206805602068456925F0E1
:102820000705606A0543606A04280DD1A06A054364
:10283000E06A48B12046FEF7EDFD28B14020606512
:10284000012084F83500A6E7206845612046FEF7A0
:10285000C7FD064694F85C103F208840B060002019
:102860006065012084F83500002094E73F8010F077
:102870002DE9F04704460D4616461F464FF0000866
:10288000D4F8589000BF94F83400012802D10220F7
:10289000BDE8F087012084F8340000BF94F83500CB
:1028A000012825D1022084F83500002060653B46D0
:1028B000324629462046FEF702FE94F85C103F207F
:1028C0008840C9F808002068006840F016002168B8
:1028D0000860206C28B12068006840F0080021687A
:1028E00008602068006840F001002168086006E088
:1028F00000BF002084F8340000BF4FF002084046BB
:10290000C6E7000070B5044600F010F906462546FB
:10291000681C10B104480078054400BF00F006F9B7
:10292000801BA842FAD370BDA8000020F8B502466B
:102930000B460025002400200021D6E0012606FADF
:1029400001F51E6806EA0504AC4274D11E7906F052
:102950000306012E04D01E7906F00306022E13D1C1
:1029600090684F000326BE40B0434F00DE68BE4073
:1029700030439060506801268E40B0431E79C6F304
:1029800000168E40304350601E7906F00306032E79
:1029900009D0D0684F000326BE40B0434F009E6868
:1029A000BE403043D0601E7906F00306022E13D1DC
:1029B000CF0802F1200656F827004E07F70E0F2623
:1029C000BE40B0434F07FF0E1E69BE403043CF08E4
:1029D00002F1200646F8270010684F000326BE408B
:1029E000B0431E7906F003064F00BE40304310602E
:1029F0005E6806F44036002E76D000BF00260096B2
:102A00003C4E366846F480463A4F3E603E46366855
:102A100006F48046009600BF00BF374E8F0856F878
:102A200027008E07370F0F26BE40B043334EB24209
:102A300002D1002624E057E0314EB24201D10126F6
:102A40001EE0304EB24201D1022619E02E4EB242B3
:102A500001D1032614E02D4EB24201D104260FE02D
:102A60002B4EB24201D105260AE02A4EB24201D1D4
:102A7000062605E0284EB24201D1072600E00826CE
:102A80008F073F0FBE4030431B4E8F0846F827008C
:102A9000224E3068A0435E6806F4801606B12043DB
:102AA0001E4E3060361D3068A0435E6806F4001686
:102AB00006B12043194E361D3060184E361F30685F
:102AC000A0435E6806F4003606B12043134E361F5D
:102AD0003060361F3068A0435E6806F4803606B169
:102AE00020430E4E083E3060491C1029FFF426AFEB
:102AF000F8BD0000443802400838014000000240A0
:102B00000004024000080240000C02400010024095
:102B10000014024000180240001C0240083C014022
:102B20000AB1816101E00B048361704701480068CC
:102B300070470000A000002003480068034909789E
:102B40000844014908607047A0000020A800002048
:102B500010B50D48006840F400700B490860084645
:102B6000006840F4806008600846006840F48070A7
:102B70000860032000F0D6F80F2000F007F800F0FE
:102B800055F8002010BD0000003C0240F0B587B0B1
:102B900004460026002700BF002000901E48006861
:102BA00040F001001C4908600846006800F0010080
:102BB000009000BF00BF01A902A801F02BF901F0AD
:102BC00061F946001548B6FBF0F0471E1448154958
:102BD000086040F2E7311348C1604760002101619D
:102BE0008160816101F070FD054695B90D4801F0E5
:102BF0009FFD05466DB9192000F042F8102C07D250
:102C000000222146192000F04FF80748046000E038
:102C10000125284607B0F0BD4438024040420F006D
:102C200000000140F4070020A400002008B500BF08
:102C3000002000901148006840F480400F4908606F
:102C40000846006800F48040009000BF00BF00BF4D
:102C500000200090081F006840F08050091F0860A5
:102C60000846006800F08050009000BF00BF0022BE
:102C70000F21901E00F018F808BD000044380240F3
:102C80000146084600280DDB00BF00BF00F01F030F
:102C900001229A4043099B0003F1E023C3F800217D
:102CA00000BF00BF00BF70472DE9F05F80460D46B2
:102CB0001646002707F060F9074639462A4633468C
:102CC00001F00700C0F1070ABAF1040F02D94FF072
:102CD000040A01E0C0F1070AD14600F1040ABAF182
:102CE000070F02D24FF0000A01E0A0F1030AD44618
:102CF0004FF0010A0AFA09FAAAF1010A0AEA020ADD
:102D00000AFA0CFA4FF0010B0BFA0CFBABF1010BBA
:102D10000BEA030B4AEA0B042146404607F034F95C
:102D2000BDE8F09F00BF00F00702064B19684FF6A0
:102D3000FF031940044B0B4343EA0221014B196086
:102D400000BF70470CED00E00000FA057047024636
:102D50001068416200207047F0B5034615461868B8
:102D6000446A21B944EA05401E68B06219E0186857
:102D7000806A04EB1044002208E0186800F58270B5
:102D800050F8220004EB1044501CC2B2481E90427E
:102D9000F3D844EA0547186800F582704E1E40F8E3
:102DA00026700020F0BD10B50446D4F8E00405F00C
:102DB00070FB10BD70B504460D4605EBC50304F16C
:102DC000140101EB8301CA682946D4F8E00405F038
:102DD00053FA70BD70B504460D4605EBC50304F506
:102DE000157101EB8301CA682946D4F8E00405F0A7
:102DF000CBFA70BD10B50446D4F8E00405F04CFBE6
:102E000010BD2DE9F04104460D4605F080008028F4
:102E100008D105F00F0000EBC00104F1140000EB35
:102E2000810607E005F00F0000EBC00104F5157006
:102E300000EB81063146206806F084FD07463846DF
:102E4000BDE8F08170B504460E4606F0800080288B
:102E50000AD106F00F0000EBC00104F1140000EBF2
:102E600081050120687009E006F00F0000EBC00149
:102E700004F5157000EB81050020687006F00F0066
:102E8000287000BF94F89404012801D1022070BD7D
:102E9000012084F8940400BF2946206806F0E0F879
:102EA00000BF002084F8940400BF00BFEFE770B5B6
:102EB00004460E4606F00F002179884201D9012010
:102EC00070BD06F0800080280AD106F00F0000EBEC
:102ED000C00104F1140000EB81050120687009E0D5
:102EE00006F00F0000EBC00104F5157000EB810542
:102EF000002068700020A87006F00F00287000BF46
:102F000094F89404012801D10220D9E7012084F823
:102F1000940400BF2946206806F0A0FA00BF0020F4
:102F200084F8940400BF00BFCAE7024601F00F0016
:102F300000EBC00302F5157000EB83004069704799
:102F40002DE9F04705460E4690461F464FF0000912
:102F500006F0800080280AD106F00F0000EBC001C7
:102F600005F1140000EB81040120607009E006F017
:102F70000F0000EBC00105F5157000EB8104002087
:102F8000607006F00F002070C8F30A00A06027717F
:102F9000607808B120786083022F01D10020607131
:102FA00000BF95F89404012802D10220BDE8F08703
:102FB000012085F8940400BF2146286805F05CFFD5
:102FC00000BF002085F8940400BF4846EEE72DE9D5
:102FD000F04105460E461746984606F00F0000EBF6
:102FE000C00105F5157000EB8104E760C4F810809E
:102FF00000206061607006F00F002070A879012841
:1030000000D1E761AA792146286806F0BBFA0020C2
:10301000BDE8F08170B504460D4605F00F0021793A
:10302000884201D9012070BD05F0800080280AD1B6
:1030300005F00F0000EBC00104F1140000EB810665
:103040000120707007E005EBC50104F5157000EB79
:103050008106002070700120B07005F00F00307004
:1030600000BF94F89404012801D10220DBE701207D
:1030700084F8940400BF3146206806F036FA05F063
:103080000F0028B9A17904F29C42206806F0AEF93D
:1030900000BF002084F8940400BF00BFC3E72DE9FF
:1030A000F04105460E461746984606F00F0000EB25
:1030B000C00105F1140000EB8104E760C4F8108042
:1030C000002060610120607006F00F002070A87978
:1030D000012800D1E761AA792146286806F052FA52
:1030E0000020BDE8F0812DE9FE4F0446D4F800B081
:1030F0005E46206806F008FD002874D1206806F0BE
:1031000042FD08B9BDE8FE8F40F608008059C0F3C3
:103110000D20C4F8D404206806F035FD00F002004C
:10312000022805D12068406900F00200216848614A
:10313000206806F028FD00F01000102845D1206816
:10314000806920F0100021688861DBF8209009F088
:103150000F0000EBC00104F5157000EB810AC9F304
:10316000434002281AD147F6F07009EA000030B354
:10317000C9F30A125846DAF80C1006F009FDC9F333
:103180000A11DAF80C000844CAF80C00C9F30A1155
:10319000DAF814000844CAF8140010E0C9F34340F8
:1031A00006280CD1082204F29C41584606F0F0FC97
:1031B000C9F30A11DAF814000844CAF814002068A8
:1031C000806940F0100021688861206806F0DBFC0F
:1031D00000F40020B0F5002F7BD10025206806F018
:1031E000A2FC029072E0E1E2029800F001000028E7
:1031F00068D0E9B2206806F0B9FC804608F001000A
:1032000048B1012106F5306000EB45108160294688
:10321000204603F0A5F908F00800082809D1082184
:1032200006F5306000EB451081602946204603F02A
:1032300065F908F01000102805D1102106F530605E
:1032400000EB4510816008F00200022824D1DBF871
:10325000140000F08000802807D140F60400805957
:1032600040F4806140F60400815105EBC50104F58E
:10327000157000EB810A9AF80300012806D100209E
:103280008AF80300E9B2204600F09BFA022106F515
:10329000306000EB4510816008F02000202805D147
:1032A000202106F5306000EB4510816008F40050E5
:1032B000B0F5005F06D14FF4005106F5306000EB29
:1032C000451081606D1C0298400802900298002809
:1032D0008AD1206806F057FC00F48020B0F5802FDA
:1032E0007DD1206806F015FC029000259AE0029836
:1032F00000F00100002873D0E9B2206806F01DFC40
:10330000804608F00100F0B305F00F01012088406D
:10331000019040F634008159019821EA000040F6FE
:1033200034018851012106F5106000EB45108160E1
:10333000A079012824D105EBC50104F1140000EBAC
:10334000810005EBC502C16804F1140000EB8200A6
:103350008068014405EBC50204F1140000EB820013
:10336000C1606DB905EBC50104F1140000EB8100EB
:10337000006928B904F29C420121206806F036F861
:10338000E9B2204600E001E0FFF714FD08F0080074
:10339000082805D1082106F5106000EB4510816072
:1033A00008F01000102805D1102106F5106000EB80
:1033B0004510816008F04000402805D1402106F505
:1033C000106000EB4510816008F0020002281DD15A
:1033D0002946584606F05BFB05EBC50101E025E0F8
:1033E0001CE004F1140000EB810A9AF803000128A4
:1033F00006D100208AF80300E9B2204600F0D8F98F
:10340000022106F5106000EB4510816008F0800095
:10341000802803D12946204603F044F96D1C029808
:1034200040080290029800287FF461AF206806F0FF
:10343000AAFB00F00040B0F1004F1CD140F60400A0
:10344000805920F0010140F60400815194F8CC0429
:10345000012807D1002084F8CC0400212046FFF782
:1034600075FC02E0204600F0D1FA2068406900F0C7
:10347000004021684861206806F085FB00F4006088
:10348000B0F5006F0ED140F60800805900F0010041
:1034900010B1204600F012FB2068406900F4006083
:1034A00021684861206806F06EFB00F48050B0F59A
:1034B000805F7ED140F60400805920F0010140F683
:1034C000040081511021206806F0E1FA002732E063
:1034D0004FF67F3106F5106000EB4710816006F56E
:1034E000106000EB4710006820F4001106F5106032
:1034F00000EB471001604FF67F3106F5306000EBBE
:103500004710816006F5306000EB4710006820F43A
:10351000001106F5306000EB4710016006F53060E1
:1035200000EB4710006840F0006106F5306000EBEA
:10353000471001607F1C2079B842C9D840F61C00B2
:10354000805940F0011140F61C008151E07B70B1C0
:10355000D6F8840840F00B01C6F8841840F6440001
:10356000805940F00B0140F6440081510FE040F6D5
:103570001400805942F22B01084340F6140188518F
:10358000081F805940F00B014FF401608151D6F8BB
:10359000000820F4FE60C6F80008A17904F29C42FD
:1035A000206805F023FF2068406900F480502168FE
:1035B00000E000E04861206806F0E5FA00F4005001
:1035C000B0F5005F17D1206805F0BEFC206806F05A
:1035D00088FAE07100F040FC0090E27920680099E0
:1035E00006F058FB204600F0F9F92068406900F425
:1035F000005021684861206806F0C5FA00F0080014
:10360000082808D1204600F008FA2068406900F038
:10361000080021684861206806F0B5FA00F08000D3
:10362000802818D1DBF8180020F08000CBF81800B3
:1036300001250DE005EBC50104F5157000EB8100D7
:10364000C078012803D1E9B22046FFF7DAFB6D1CF0
:103650002079A842EED8206806F095FA00F4801090
:10366000B0F5801F2DD1012522E006F5106000EB9A
:103670004510D0F8009005EBC50104F1140000EBF3
:1036800081000079012812D109F00040B0F1004F0B
:103690000DD1012105EBC50204F1140000EB8200FD
:1036A000C170E8B240F080012046FFF7AAFB6D1C14
:1036B0002079A842D9D82068406900F48010216898
:1036C0004861206806F05FFA00F40010B0F5001FB2
:1036D00044D1012538E006F5306000EB4510D0F804
:1036E000009005EBC50104F5157000EB8100007931
:1036F000012828D109F00040B0F1004F23D194F8FF
:10370000D40400F00100C9F3004188421BD101211B
:1037100005EBC50204F5157000EB8200C170DBF803
:10372000180040F08000CBF81800DBF8140000F01F
:10373000800040B940F60400805940F4007140F622
:103740000400815103E06D1C2079A842C3D800BF5A
:103750002068406900F4001021684861206806F084
:1037600012FA00F08040B0F1804F08D12046FFF7F8
:103770001AFB2068406900F0804021684861206899
:1037800006F001FA00F0040004280FD12068D0F8F8
:10379000049009F00400042802D12046FFF72AFB18
:1037A0002068406840EA09002168486000BFA9E439
:1037B00070B504460D462946D4F8E00404F0D8FE5E
:1037C00070BD70B504460D462946D4F8E00404F0F7
:1037D000F3FE70BDF8B504460CB90120F8BD2668AB
:1037E00094F8950428B9002084F89404204600F049
:1037F000A1F8032084F89504B6F1A04F01D100216F
:10380000A171206805F0EAFD207C8DF8000094E8A5
:103810000F0005F0ADFB20B1022084F895040120D3
:10382000DCE70021206806F0E3F920B1022084F8EB
:1038300095040120D2E7002531E0012105EBC50206
:1038400004F1140000EB8200417005EBC50104F1A6
:10385000140000F8215005EBC50100EB8100458301
:10386000002105EBC50204F1140000EB8200017198
:1038700005EBC50204F1140000EB8200816005EB4A
:10388000C50204F1140000EB8200C16005EBC50223
:1038900004F1140000EB82000161681CC5B22079BC
:1038A000A842CADC00252AE0002105EBC50204F588
:1038B000157000EB8200417005EBC50104F5157031
:1038C00000F82150002105EBC50200EB82000171D8
:1038D00005EBC50204F5157000EB8200816005EB75
:1038E000C50204F5157000EB8200C16005EBC5024E
:1038F00004F5157000EB82000161681CC5B22079E7
:10390000A842D1DC207C8DF8000094E80F0005F07F
:1039100071FC20B1022084F8950401205EE70020AC
:103920006074012084F89504206805F051FC0020A3
:1039300054E7000010B586B00446142101A8FCF736
:1039400001FE2068B0F1A04F42D100BF00200090DE
:103950002048006840F001001E49086008460068E1
:1039600000F00100009000BF00BF4FF4C050019074
:103970000220029000200390032004900A2005906A
:1039800001A91548FEF7D2FF00BF1248001D0068CC
:1039900040F080000F49091D086000BF0020009022
:1039A0000C481430006840F480400A491431086023
:1039B0000846006800F48040009000BF00BF00BFD0
:1039C000002205214320FFF76FF94320FFF758F944
:1039D00006B010BD303802400000024070B5044609
:1039E0000125E07908B9002506E0E079022801D137
:1039F000012501E0FDF79CFD2946D4F8E00404F020
:103A000085FED4F8E00404F02BFE70BD10B504462A
:103A1000D4F8E00404F05BFE10BD10B50446D4F801
:103A2000E00404F05FFE10BD70B504460D4600BF13
:103A300094F89404012801D1022070BD012084F87B
:103A4000940400BF65742946206806F005F900BF9C
:103A5000002084F8940400BF00BFEEE710B50446D0
:103A600004F29C41D4F8E00404F067FE10BD70B588
:103A70000446256800BF94F89404012801D102206F
:103A800070BD012084F8940400BFE86800F0400095
:103A900030B1607B012803D1A86B40F48030A8636B
:103AA000206805F0C5FF206805F080FB00BF0020FE
:103AB00084F8940400BF00BFE2E7000010B504469C
:103AC000D4F8E00404F096FE2068D0F8000E40F030
:103AD00001002168C1F8000EE07A28B103480068AF
:103AE00040F006000149086010BD000010ED00E044
:103AF000F8B5044600250026207800F0010020B922
:103B0000207800F0040004282FD100205B4988664B
:103B1000FFF70CF8054606E0FFF708F8401B0228FF
:103B200001D90320F8BD56480068C0F3C0600028E2
:103B3000F2D160688101207A41EA007050498431F5
:103B4000086001204D498866FEF7F0FF054606E053
:103B5000FEF7ECFF401B022801D90320E2E74848AA
:103B60000068C0F3C0600028F2D0207800F00200A6
:103B700002287DD100BF00200090414840300068FD
:103B800040F080503E49403108600846006800F02F
:103B90008050009000BF00BF3A48006840F4807039
:103BA00038490860FEF7C2FF054606E0FEF7BEFF93
:103BB000401B022801D90320B4E73248006800F412
:103BC00080700028F2D02E487030006800F44076F3
:103BD0004EB3A08900F44070B04224D02848703021
:103BE000006820F440760120274908600020086022
:103BF000234870300660006800F0010098B1FEF7BD
:103C000095FF054608E0FEF791FF401B41F2883121
:103C1000884201D9032085E7194870300068C0F355
:103C200040000028EFD000BFA08900F44070B0F53C
:103C3000407F0CD112480830006820F4F810134A75
:103C4000E168114008430E490831086007E00C485C
:103C50000830006820F4F810094908310860084865
:103C600070300068A189C1F30B010843044900E0EA
:103C700002E07031086000BF002053E700004742B7
:103C80000038024000700040400E4742FFFCFF0F2A
:103C900070B504460D460CB9012070BD5848006847
:103CA00000F00700A84209D255490D700846006887
:103CB00000F00700A84201D00120EEE7207800F0D4
:103CC000020002281DD1207800F00400042805D14C
:103CD0004C48006840F4E0504A490860207800F001
:103CE0000800082805D14748006840F4604045496D
:103CF00008604448006820F0F000A168084341498A
:103D00000860207800F00100A8B36068012807D19E
:103D10003C4808380068C0F34040B8B90120BCE70F
:103D20006068022802D06068032807D13548083847
:103D30000068C0F3406048B90120AEE73148083858
:103D40000068C0F3400008B90120A6E72D480068CC
:103D500020F00300616808432A490860FEF7E6FE88
:103D6000064609E0FEF7E2FE801B41F288318842F8
:103D700002D9032091E707E02248006800F00C0018
:103D80006168B0EB810FEDD11D48006800F00700BD
:103D9000A84209D91A490D700846006800F00700CA
:103DA000A84201D0012078E7207800F00400042820
:103DB00007D11448006820F4E050E1680843114935
:103DC0000860207800F00800082808D10D48006835
:103DD00020F46040216940EAC1000A49086000F00F
:103DE00061F808490968C1F30311074A515CC840EA
:103DF0000649086006480068FEF7C8FE00204CE748
:103E0000003C02400838024004C40008AC00002016
:103E1000A40000200F2202600D4A126802F0030283
:103E200042600B4A126802F0F0028260084A12688F
:103E300002F4E052C260064A126802F46042D208FC
:103E40000261044A126802F007020A60704700002B
:103E500008380240003C02400148006870470000FA
:103E6000AC00002000B5FFF7F7FF04490968C1F373
:103E70008221034A515CC84000BD0000083802405E
:103E800014C4000800B5FFF7E7FF04490968C1F34F
:103E90004231034A515CC84000BD0000083802406E
:103EA00014C400082DE9F047002400250026A1468F
:103EB0002548006800F00C0020B1042805D008282F
:103EC0003AD105E0DFF8849039E0DFF8849036E0FD
:103ED0001D48001F006800F03F041B48001F0068D9
:103EE00000F4800078B11A481749091F0968C1F326
:103EF0008811A0FB01700146224600233846FCF7DA
:103F000033FA05460EE011480F49091F0968C1F34D
:103F10008811A0FB01700146224600233846FCF7B9
:103F200023FA05460848001F0068C0F30140401C02
:103F30004600B5FBF6F902E0DFF8109000BF00BFC5
:103F40004846BDE8F0870000083802400024F4002D
:103F5000001BB700F8B504460CB90120F8BD207865
:103F600000F00100002874D0F948006800F00C004F
:103F700004280DD0F648006800F00C00082813D182
:103F8000F348001F006800F48000B0F5800F0BD1EB
:103F9000EF4808380068C0F34040002859D06068F6
:103FA000002856D10120D9E700BF6068B0F5803FF6
:103FB00008D1E7480838006840F48030E4490839FF
:103FC00008601EE06068B0F5A02F0DD1E048083809
:103FD000006840F48020DE4908390860084600681F
:103FE00040F4803008600CE0D9480838006820F4BC
:103FF0008030D749083908600846006820F48020DE
:10400000086000BF606890B1FEF790FD054606E0CD
:10401000FEF78CFD401B642801D903209EE7CC48A5
:1040200008380068C0F340400028F1D011E0FEF7E6
:104030007DFD054606E0FEF779FD401B642801D9A9
:1040400003208BE7C24808380068C0F340400028CE
:10405000F1D1207800F0020002285FD1BC4800684E
:1040600000F00C0058B1BA48006800F00C000828B5
:104070001CD1B748001F006800F48000B0B9B448F4
:1040800008380068C0F3400020B1E068012801D082
:10409000012063E7AE480838006820F0F800216985
:1040A00040EAC100AA490839086037E0E06800B377
:1040B0000120A8490860FEF739FD054606E0FEF735
:1040C00035FD401B022801D9032047E7A0480838E6
:1040D0000068C0F340000028F1D09D48083800680F
:1040E00020F0F800216940EAC100994908390860C8
:1040F00014E0002097490860FEF718FD054606E029
:10410000FEF714FD401B022801D9032026E7904842
:1041100008380068C0F340000028F1D1207800F092
:10412000080008282CD16069A8B101208A490860DC
:10413000FEF7FCFC054606E0FEF7F8FC401B0228F3
:1041400001D903200AE782486C300068C0F34000C0
:104150000028F1D014E000207F490860FEF7E6FC5B
:10416000054606E0FEF7E2FC401B022801D90320C9
:10417000F4E677486C300068C0F340000028F1D1C5
:10418000207800F00400042870D1002770483830EF
:10419000006800F0805090B900BF002000906C488B
:1041A0003830006840F0805069493831086008466E
:1041B000006800F08050009000BF00BF01276748F2
:1041C000006800F48070B0B96448006840F4807002
:1041D00062490860FEF7AAFC054606E0FEF7A6FC69
:1041E000401B022801D90320B8E65C48006800F4AF
:1041F00080700028F2D000BFA068012808D1544880
:104200006830006840F001005149683108601DE0E5
:10421000A06805280DD14E486830006840F00400C1
:104220004B49683108600846006840F001000860AA
:104230000CE047486830006820F0010044496831CC
:1042400008600846006820F00400086000BFA0680D
:10425000A8B1FEF76BFC054609E0FEF767FC401BC2
:1042600041F28831884202D9032077E626E03848B7
:1042700068300068C0F340000028EED013E0FEF77D
:1042800055FC054608E0FEF751FC401B41F2883121
:10429000884201D9032061E62D4868300068C0F3E8
:1042A00040000028EFD1012F07D12948383000689D
:1042B00020F0805026493831086000BFA0690028EE
:1042C00045D02348006800F00C0008285DD0A069A4
:1042D000022845D100201F490866FEF727FC054645
:1042E00006E0FEF723FC401B022801D9032035E637
:1042F000174808380068C0F340600028F1D1D4E9BD
:1043000007010843616A40EA81110122A06AC2EBF9
:10431000500041EA00412C20005D41EA00600C4958
:10432000091F086001200B490866FEF7FFFB0546E0
:1043300006E0FEF7FBFB401B022801D903200DE637
:10434000034808380068C0F340600028F1D049E015
:104350000838024000004742800E4742007000408B
:10436000002021490866FEF7E1FB054606E0FEF75E
:10437000DDFB401B022801D90320EFE51B48006844
:10438000C0F340600028F2D12CE0A069012800D1E0
:10439000E4E51648001D0668A069012820D006F44F
:1043A0008001E06981421BD106F03F01206A814211
:1043B00016D147F6C0703040616AB0EB811F0FD153
:1043C00006F440310122A06AC2EB5000B1EB004F6D
:1043D00006D106F070612C20005DB1EB006F01D0BA
:1043E0000120BBE50020B9E500004742003802404B
:1043F00070B504460CB9012070BD607F20B9002063
:104400002077204600F04EF8022060772068C068D0
:10441000C0F3001000283CD100BFCA2021684862C8
:1044200053202168486200BF204602F088FA054602
:10443000EDB9206880681A490840216888602169C0
:1044400060680843616908432168896808432168F6
:1044500088602168E068086120680169208941EA74
:10446000004021680861204602F08EFA05465DB9D9
:104470002068006C20F48020216808642068006CAB
:10448000A16908432168086400BFFF2021684862D1
:1044900000E000250DB9012060772846ACE7000058
:1044A000BFFF8FFF1FB504460020009001900290CF
:1044B00003900949206888420CD102200090000234
:1044C00003906846FFF714FB08B1FDF731F80120AF
:1044D000024908601FBD0000002800403C0E474212
:1044E0002DE9F04105460C4617464FF0000800BF85
:1044F000287F012802D10220BDE8F0810120287721
:1045000000BF022068774FB9607800F010001028D3
:1045100004D1607800F0EF000A30607087B9E0786D
:1045200002F000FA0304607802F0FCF943EA002389
:10453000A07802F0F7F90343207843EA403809E015
:10454000E0780004617840EA0120A17808432178EE
:1045500040EA413800BFCA202968486253202968D0
:10456000486200BF284602F0EAF9064646B90B4801
:1045700008EA000029684860284602F005FA064665
:104580000EB90120687700BFFF202968486200BF8C
:1045900000BF0020287700BF3046ADE73FFFFF0097
:1045A0002DE9F04104460D4617464FF0000800BFC4
:1045B000207F012802D10220BDE8F0810120207770
:1045C00000BF02206077CFB92068806800F040000B
:1045D00000B102E00020E87000BF287802F0A2F9E4
:1045E0000304687802F09EF943EA0023A87802F0F9
:1045F00099F90343E87843EA805812E0206880681C
:1046000000F0400000B102E00020E87000BF287810
:104610000004697840EA0120A9780843E97840EA73
:10462000815800BFCA20216848625320216848622F
:1046300000BF204602F083F90646B6B9124808EAE0
:104640000000216808602068806820F480202168CC
:104650008860D5E903010843216889680843216817
:104660008860204602F090F906460EB90120607776
:1046700000BFFF202168486200BF00BF00202077F4
:1046800000BF304698E700007F7F7F0070B504468A
:1046900000250B482168C860FEF748FA054607E088
:1046A000FEF744FA401BB0F57A7F01D9032070BDB4
:1046B0002068C06800F020000028F1D00020F6E754
:1046C0005F7F01007047704710B504460CB90120A8
:1046D00010BD94F83D0028B9002084F83C00204625
:1046E00000F025F8022084F83D00211D206802F02A
:1046F0004BFB012084F8460000BF84F83E000121F6
:104700003F200155402001554120015500BF00BF09
:10471000012084F8420043200155442001554520E2
:10472000015500BF012084F83D000020D0E770470C
:10473000014691F83D00012801D001207047022078
:1047400081F83D000868C06840F001000B68D8603F
:104750001A4B086898421BD00868B0F1804F17D0F8
:10476000174B0868984213D0164B086898420FD030
:10477000154B086898420BD0144B0868984207D034
:10478000134B0868984203D0124B086898420CD12A
:104790000868806800F00702062A0CD008680068E4
:1047A00040F001000B68186005E00868006840F000
:1047B00001000B6818600020C0E700000000014005
:1047C0000004004000080040000C004000040140CC
:1047D0000040014000180040704770B50446206852
:1047E000C5682068066906F00200022819D105F0A4
:1047F0000200022815D1401F21680861012020779E
:104800002068806900F0030018B12046FFF7E4FF3C
:1048100005E0204600F097F8204600F095F80020CB
:10482000207706F00400042819D105F004000428BC
:1048300015D1C04321680861022020772068806973
:1048400000F4407018B12046FFF7C6FF05E020468F
:1048500000F079F8204600F077F80020207706F085
:104860000800082819D105F00800082815D1C04310
:1048700021680861042020772068C06900F00300E7
:1048800018B12046FFF7A8FF05E0204600F05BF8CE
:10489000204600F059F80020207706F0100010287C
:1048A00019D105F01000102815D1C0432168086106
:1048B000082020772068C06900F4407018B12046B5
:1048C000FFF78AFF05E0204600F03DF8204600F0A3
:1048D0003BF80020207706F0010048B105F0010008
:1048E00030B16FF0010021680861204600F02EF819
:1048F00006F08000802809D105F08000802805D1CD
:10490000C043216808612046FFF7DCFE06F0400046
:10491000402809D105F04000402805D1C043216856
:104920000861204600F01EF806F02000202809D17A
:1049300005F02000202805D1C043216808612046E9
:10494000FFF7C1FE70BD70477047000010B5044608
:1049500003492068884201D1FEF7EEF810BD00003F
:10496000000001407047F8B504460D46164694F81D
:10497000420020282DD105B10EB90120F8BD01203B
:1049800020630020606332462946204602F0F6FC90
:104990000746206B012819D100BF00200090206835
:1049A0000068009020684068009000BF00BF00BF12
:1049B00000BF21680C3151E8001F41F01000216850
:1049C0000C3141E80002002AF3D100E0012738460B
:1049D000D4E70220D2E70000034B02689A4202D1DA
:1049E0000122024B1A70704700140140A4010020FC
:1049F000704700002DE9F84F0446206805682068DC
:104A0000C668206847694FF00009CA4605F00F09DB
:104A1000B9F1000F0AD105F0200038B106F02000EE
:104A200020B1204602F016FBBDE8F88FB9F1000F67
:104A30007CD007F0010018B906F49070002875D0FA
:104A400005F0010030B106F4807018B1606C40F0E0
:104A50000100606405F0040030B107F0010018B1F6
:104A6000606C40F00200606405F0020030B107F0B5
:104A7000010018B1606C40F00400606405F00800AB
:104A800048B106F0200010B907F0010018B1606CC1
:104A900040F008006064606C002846D005F02000FB
:104AA00028B106F0200010B1204602F0D3FA2068A9
:104AB0004069C0F3801A606C00F0080010B9BAF1C8
:104AC000000F2DD0204602F06CFA2068406900F0FB
:104AD0004000402820D100BF00BF2168143151E8B8
:104AE000001F21F040002168143141E80002002A33
:104AF000F3D100BFE06B50B17F48E16B0865E06B1C
:104B0000FDF70BFD88B1E06B016D88470DE0204695
:104B1000FFF76EFF09E009E02046FFF769FF04E0B8
:104B20002046FFF765FF002060647DE7206B0128C9
:104B300078D105F01000002874D006F0100000288D
:104B4000FAD000BF00200090206800680090206824
:104B50004068009000BF00BF2068406900F040003E
:104B6000402870D1E06B006840681FFA80F8B8F107
:104B7000000F58D0A08D404555DDA4F82E80E06B85
:104B8000C069B0F5807F43D000BF00BF21680C3101
:104B900051E8001F21F4807021680C3141E80002C7
:104BA000002AF3D100BF00BF00BF2168143151E8D3
:104BB000001F21F001002168143141E80002002AA1
:104BC000F3D100BF00BF00BF2168143151E8001FBE
:104BD00021F040002168143141E80002002AF3D19D
:104BE00000BF202084F842000020206300BF00BFE7
:104BF00021680C3151E8001F21F0100021680C31B0
:104C000041E80002002AF3D100BFE06BFDF72FFC62
:104C100002206063A08DE28D801A81B22046FFF7EA
:104C2000DBFE0EE052E0A08D40450AD1E06BC0698A
:104C3000B0F5807F05D102206063A18D2046FFF78B
:104C4000CBFEF1E6FFE7A08DE18D401A1FFA80F858
:104C5000E08DD0B3B8F1000F37D000BF00BF21689E
:104C60000C3151E8001F21F4907021680C3141E8AB
:104C70000002002AF3D100BF00BF00BF2168143139
:104C800051E8001F21F001002168143141E80002C1
:104C9000002AF3D100BF202084F8420000202063C6
:104CA00000BF00BF21680C3151E8001F21F0100047
:104CB00021680C3141E80002002AF3D100BF022034
:104CC000606341462046FFF787FEADE605F08000B1
:104CD00030B106F0800018B1204602F0BBFBA3E61D
:104CE00005F0400030B106F0400018B1204602F057
:104CF0008EF999E600BF97E6696E000810B5044684
:104D00000CB9012010BDA06900B100E000BF94F80B
:104D1000410028B9002084F84000204600F02AF81D
:104D2000242084F841002068C06820F400502168E5
:104D3000C860204602F00CFA2068006920F4904018
:104D4000216808612068406920F02A0021684861D4
:104D50002068C06840F400502168C860002060648A
:104D6000202084F8410084F842000020606300BFE6
:104D7000C8E7000010B586B00446142101A8FBF76F
:104D8000E1FBAB49206888427ED100BF0020009043
:104D9000A848006840F01000A6490860084600686E
:104DA00000F01000009000BF00BF00BF0020009086
:104DB000A0481438006840F002009E491439086089
:104DC0000846006800F00200009000BF00BF00BF6E
:104DD000002000900846006840F001000860084686
:104DE000006800F00100009000BF00BF802001902B
:104DF00002200290002003900320049007200590D9
:104E000001A98D48FDF792FD4FF40070019002203A
:104E1000029000200390032004900720059001A930
:104E20008648FDF783FD8648864908604FF000609C
:104E30004860002183488160C1604FF48061016156
:104E40000021416181614FF48071C16100210162E3
:104E50004162FDF797FC08B1FCF76AFB00BF794897
:104E6000E063846300BF76487830774908604FF08C
:104E7000006048604021744881600021C1604FF4A7
:104E800080610161002100E011E0416181614FF426
:104E90008071C161002101624162FDF773FC08B1BC
:104EA000FCF746FB00BF6848A0638463BEE0674927
:104EB000206888425DD100BF002000905D48001F3F
:104EC000006840F480205B49091F086008460068BC
:104ED00000F48020009000BF00BF00BF00200090C1
:104EE00054481438006840F00400524914390860EE
:104EF0000846006800F00400009000BF00BF4FF4B7
:104F00004060019002200290002003900320049052
:104F10000720059001A94E48FDF708FD4D484E4970
:104F200008604FF00060486000214B488160C1601C
:104F30004FF4806101610021416181614FF4807112
:104F4000C1614FF44031016200214162FDF71AFC5A
:104F500008B1FCF7EDFA00BF3F48E063846300BF8F
:104F6000002205212720FDF79FFE2720FDF788FE60
:104F70005CE03A492068884258D100BF0020009088
:104F80002C48006840F020002A4908600846006864
:104F900000F02000009000BF00BF00BF0020009084
:104FA00024481438006840F0400022491439086051
:104FB0000846006800F04000009000BF00BF4FF4BA
:104FC000844001900220029000200390032004906E
:104FD0000820059001A92248FDF7A8FC18481838B8
:104FE000204908608005486000211E488160C1603A
:104FF0004FF4806101610021416181614FF4807152
:10500000C161002101624162FDF7BCFB08B1FCF700
:105010008FFA00BF1348E063846300BF00220521BC
:105020004720FDF741FE4720FDF72AFE06B010BDE0
:1050300000100140443802400004024000000240D9
:105040004064024074060020D4060020004800405E
:10505000000802402860024034070020001401408C
:10506000001802409407002070477047704700BF47
:10507000FEE7000080ED080AC0ED090A80ED0A1A7B
:1050800041648264DFED121AC0ED0C1ADFED101AD4
:10509000C0ED0E1ADFED0E1AC0ED0D1ADFED0C1A81
:1050A000C0ED021ADFED0A1AC0ED031ADFED081A8F
:1050B000C0ED041ADFED061AC0ED101ADFED041A78
:1050C000C0ED011ADFED021AC0ED001A70470000B2
:1050D0000000000030B50B46002100BF16E00A2496
:1050E000B4EB107F05D9302404EB107403F81140A1
:1050F00005E0412404EB10740A3C03F81140000160
:1051000000254C00641C1D554C1CE1B29142E6DBAD
:1051100030BD000000B58BB0012003900021059147
:10512000069108210791002102A80176FF208DF841
:105130002400FF2102A841778177C1778DF82810DC
:105140008DF829108DF82A10FC218DF82B1009A854
:10515000012300220349009003480068FBF7CEFCBE
:105160000BB000BD2C050020080000200FB410B5C6
:105170002DED048B9DF8340000F00F040698441EBA
:105180009FED930AB0EE408A9FED920AF0EE408ABE
:10519000B2EE040AB0EE409A8F4850F8240090ED29
:1051A000010ABCEEC00A10EE100A8B4951F8241017
:1051B00008849DF834000011874951F824100880B4
:1051C00006A8817F407F41EA002000EE100AB8EE79
:1051D000400A814850F8240080ED060A06A8C07FE6
:1051E00001019DF8380041EA201000EE100AB8EEE7
:1051F000400A794850F8240080ED070A9DF83800ED
:105200009DF8391000EE101AB8EE400A724850F8B6
:10521000240080ED040A704951F8241091ED060A2B
:10522000BDEEC00A10EE100A1021F0EE480AB1EEF1
:10523000480A05F04FFB684850F8240080ED010A49
:10524000654850F82400D0ED010AB0EE001A80EE57
:10525000810ADFED620A20EE200ADFED610A20EE0E
:10526000200A5D4850F8240080ED010A5A4951F89F
:10527000241091ED070ABDEEC00A10EE100A0C21B1
:10528000F0EE680AB1EE680A05F024FB524850F8C7
:10529000240080ED020A504951F8241091ED040ACF
:1052A000BDEEC00A10EE100A0C21F0EE490AB1EE74
:1052B000490A05F00FFB484850F8240080ED050A24
:1052C0009DF83A0000EE100AB8EE400ABCEEC00AA3
:1052D00010EE100A404951F8241008739DF83B0065
:1052E00000EE100AB8EE400ABCEEC00A10EE100A3A
:1052F000394951F824104873374850F82400D0ED4C
:10530000010A354850F82400008C00EE100AB8EE6F
:10531000400A30EEC00ADFED330AB4EEE00AF1EEE7
:1053200010FA09D22C4850F82400008F401C00B21B
:10533000294951F824100887274850F82400008C88
:1053400000EE100AB8EE400A234850F82400D0EDD1
:10535000010A30EE600ADFED230AB4EEE00AF1EE56
:1053600010FA09D21C4850F82400008F401E00B2E9
:10537000194951F824100887174850F82400D0ED37
:10538000010A154850F82400B0F93800400300EE37
:10539000100AB8EEC00A30EE800A0F4850F8240018
:1053A00080ED0F0A0C4850F82400B0F84400401C6F
:1053B000094951F82410A1F844000120064951F888
:1053C000241081F84200BDEC048B10BC5DF814FB86
:1053D000DC0F49400000484358010020DB0F4940E2
:1053E000000010420020CBC508B506F01DFA009061
:1053F00000BF00BF0948B0F8440009490988884245
:1054000001D1FFF787FE0548B0F844000449088041
:105410000121684605F036FCECE70000A46300209B
:10542000480200202DE9F0472DED0A8BB0EE408AAE
:10543000F0EE608AB0EE419AF0EE619AB0EE42AAC8
:105440000446DFED340A88EE200AF0EE000A20EE72
:10545000200ADFED310A20EE200AB0EE40CA9FEDAF
:105460002F0AF0EE40AA9FED2E0AB0EE40BAB2EE3F
:10547000040AF0EE40BA1020B0EE6A1AF1EE6A0AA1
:10548000B0EE4C0A04F0B5FD85B20C20B0EE4B1A1C
:10549000F1EE4B0AB0EE680A04F0ABFD86B20C20C8
:1054A000B0EE6B1AF1EE6B0AB0EE4A0A04F0A1FD01
:1054B00087B20C209FED1B1ADFED1B0AB0EE490AE4
:1054C00004F097FD1FFA80F80C20B1EE041ADFED0E
:1054D000160AB0EE690A04F08CFD1FFA80F9281252
:1054E00020706570C6F30710A0703007000E40EA08
:1054F0002820E07084F80480C9F3071060714FEA37
:105500000970000E40EA2720A071E771BDEC0A8BFC
:10551000BDE8F08700000046DB0F4940DC0F494042
:10552000000048430000FA430000000070B5044644
:105530000D46FDF7FBFA0646002020726072E0720D
:10554000012D04D1607810B966600020A072012D91
:1055500011D1607801280ED16168701A0A2801D330
:105560000121E172B0F5487F04D3A17A11B901217C
:105570006172A17200BF55B96078012807D16168D6
:10558000701AB0F5967F01D20121217200BF6570BB
:10559000257070BD2DE9F0412DED068B04460D46BA
:1055A000288A2080688A6080A88AA080A97D04F16A
:1055B0000800FFF7BBFFE97D04F11400FFF7B6FF19
:1055C000297E04F12000FFF7B1FF287F00F00101E0
:1055D00004F12C00FFF7AAFF287FC0F3400104F17B
:1055E0003800FFF7A3FF287FC0F3800104F14400D7
:1055F000FFF79CFF287FC0F3C00104F15000FFF7C4
:1056000095FF287FC0F3801104F15C00FFF78EFF47
:10561000287FC10904F16800FFF788FF687F00F068
:10562000010104F17400FFF781FF687FC0F34001BE
:1056300004F18000FFF77AFF687FC0F3800104F176
:105640008C00FFF773FF687FC0F3C00104F198007E
:10565000FFF76CFF687FC0F3001104F1A400FFF7AF
:1056600065FF687FC0F3401104F1B000FFF75EFFF3
:10567000687FC0F3801104F1BC00FFF757FF687F1B
:10568000C10904F1C800FFF751FF287FC0F30011E2
:1056900004F1D400FFF74AFF287FC0F3401104F162
:1056A000E000FFF743FF208800EB800000B2CF4905
:1056B00008816088C00000B2C8807F20005D48B1CA
:1056C00000208880CA490870CA490870CA49087011
:1056D000C6490876E07C40B1C448407E012804D128
:1056E000C6490873C649087105E00220C34908731A
:1056F0000020C3490871207F68B1BC48007B18B9FD
:105700000120BA49087306E0B848007B012802D19D
:105710000020B6490873B548007B01280FD1B9486D
:1057200090ED000ABDEEC00A10EE100A00B2AF49BB
:105730004881B54890ED000AB44880ED040A28205D
:10574000005D18B10120A949887602E00020A74930
:1057500088763720005D40B1AD4890ED000AB8EE84
:10576000C00AAC4880ED010A15E04320005D50B14D
:10577000A7480068404200EE100AB8EEC00AA548EB
:1057800080ED010A07E0A348FBF7E0FB9FEDA20ACA
:10579000A04880ED010A9F4801F004FA934908806F
:1057A0004F20005D40B19D4890ED000AB8EEC00A60
:1057B0009B4880ED010A15E05B20005D50B19748E1
:1057C0000068404200EE100AB8EEC00A944880ED2E
:1057D000010A07E09248FBF7B9FB9FED8F0A90485A
:1057E00080ED010A8E4801F0DDF9804948808D483E
:1057F000B0F90A0000EE100AB8EEC09A8948B0F974
:10580000080000EE100AF8EEC09AF0EE498AB1EEF8
:10581000690AB4EEE80AF1EE10FA03D2B1EE690AB1
:10582000F0EE408AB0EE080A88EE80AADF20005D24
:1058300020B16720005D08B1012000E0002006468D
:105840008EB16B48007870B96B4890F9000003285E
:1058500005DA69480078401C40B2674908700120A9
:105860006349087003E016B9002061490870DF2021
:10587000005D20B17320005D08B1012000E0002030
:10588000074697B15B48007878B95B4890F900000B
:1058900010F1030F05DD58480078401E40B256490C
:1058A000087001205349087003E017B900205149DE
:1058B0000870514890F9000000EE100AB8EEC00AD6
:1058C00020EE0A8AF3EE0EAA4848B0F9040000EE72
:1058D000100AB8EEC00AB4EEC80AF1EE10FA24D2EB
:1058E0004248B0F9040000EE100AB8EEC00AF3EE28
:1058F0000E0A30EE200ABDEEC00A10EE100A00B209
:105900003A4988800846B0F9040000EE100AB8EE63
:10591000C00AB4EEC80AF1EE10FA36DDBDEEC80AD0
:1059200010EE100A00B288802FE03048B0F9040071
:1059300000EE100AB8EEC00AB4EEC80AF1EE10FA92
:1059400023DD2A48B0F9040000EE100AB8EEC00AC0
:10595000F3EE0E0A30EE600ABDEEC00A10EE100A39
:1059600000B2224988800846B0F9040000EE100A0F
:10597000B8EEC00AB4EEC80AF1EE10FA05D2BDEED8
:10598000C80A10EE100A00B288808B20005DA0B11A
:1059900025480068A0B91548407E18B90120134970
:1059A000487606E01148407E012802D100200F49C8
:1059B000487601201C49086002E000201A4908606E
:1059C000E820005D68B10948807D022803D10020ED
:1059D0000649887505E00548807D10B90220034915
:1059E0008875BDEC068BBDE8F08100006C6300207B
:1059F000B5010020B6010020B401002004020020FF
:105A000040020020180100201C01002094650020A5
:105A1000A80100205C01002000000000AC01002073
:105A20006801002074010020B001002070EE601AAF
:105A3000B0EE611AD0ED031A90ED042A71EEC21A8D
:105A4000B0EE082A20EE022AF0EE002A22EE222AE8
:105A5000C2EE212AC1ED002AD0ED031A90ED042AEE
:105A600071EEC21AB0EE082A21EE022AC2EE212AF5
:105A7000C1ED012AD1ED001AB1EE042AF4EEC21AEA
:105A8000F1EE10FA03DBF1EE041AC1ED001AD1EDCC
:105A9000001AB9EE042AF4EEC21AF1EE10FA03D895
:105AA000F9EE041AC1ED001AD1ED011AB1EE042A83
:105AB000F4EEC21AF1EE10FA03DBF1EE041AC1EDB6
:105AC000011AD1ED011AB9EE042AF4EEC21AF1EE70
:105AD00010FA03D8F9EE041AC1ED011A704700005C
