:020000040800F2
:10000000184E0020E9020008F13E00089739000868
:10001000ED3E000825070008014C00080000000024
:10002000000000000000000000000000290200089D
:100030005D110008000000008502000895430008DB
:100040000303000803030008030300080303000878
:100050000303000803030008030300080303000868
:100060000303000803030008030300080303000858
:10007000490D000803030008590D00080303000898
:1000800003030008030300080303000839070008FE
:1000900029070008030300080303000803030008FE
:1000A0000303000895440008030300080303000845
:1000B0000303000803030008030300080303000808
:1000C00003030008030300080303000803030008F8
:1000D00003030008D14B000803030008E14B0008AC
:1000E00003030008030300080303000803030008D8
:1000F00003030008030300080303000803030008C8
:1001000003030008030300080303000803030008B7
:1001100003030008030300080303000803030008A7
:1001200003030008690D0008790D000803030008A7
:10013000030300080303000803030008590700082D
:10014000490700080303000803030008030300082D
:1001500003030008890D0008990D0008F14B000801
:100160000303000803030008030300080303000857
:100170000303000803030008030300080000000055
:10018000030300080303000800F002F800F03CF845
:100190000AA090E8000C82448344AAF10107DA45E2
:1001A00001D100F031F8AFF2090EBAE80F0013F0F8
:1001B000010F18BFFB1A43F0010318477C6A0000C7
:1001C0009C6A0000103A24BF78C878C1FAD8520758
:1001D00024BF30C830C144BF04680C6070470000C1
:1001E0000023002400250026103A28BF78C1FBD840
:1001F000520728BF30C148BF0B6070471FB506F0DB
:100200004BFC1FBD10B510BD00F0A6F91146FFF75D
:10021000F5FF04F02AFD00F0C4F903B4FFF7F2FF84
:1002200003BC00F0CBF900002C4B19680868B0E85B
:10023000F04F80F30988BFF36F8F4FF0000080F319
:10024000118870470000000008480068006880F3CB
:1002500008884FF0000080F3148862B661B6BFF3DF
:100260004F8FBFF36F8F00DF00BF00BF08ED00E0CE
:10027000DFF80C00016841F470010160704700BFB5
:1002800088ED00E0EFF30980BFF36F8F134B1A681E
:100290001EF0100F08BF20ED108A20E9F04F10600B
:1002A00009B44FF0500080F31188BFF34F8FBFF3B4
:1002B0006F8F05F06FFC4FF0000080F3118809BCD0
:1002C00019680868B0E8F04F1EF0100F08BFB0ECD6
:1002D000108A80F30988BFF36F8F704740000020B9
:1002E000EFF3058070470000094880470948004740
:1002F000FEE7FEE7FEE7FEE7FEE7FEE7FEE7FEE7D6
:10030000FEE7FEE704480549054A064B7047000032
:10031000814400088901000818480020184E002078
:10032000184A0020184A002053EA020C00F06980A5
:100330002DE9F04B4FF00006002B1FBFB3FA83F5F9
:1003400003FA05F424FA05F65E4012BF1643B2FA2A
:1003500082F502FA05F4C5F120051EBF22FA05FC5C
:1003600044EA0C04203556EA044C4FEA144418BF02
:10037000641C4FF000084FF00009904271EB030C31
:1003800039D3002919BFB1FA81F701FA07F6B0FA9B
:1003900080F700FA07F6C7F120071EBF20FA07FC16
:1003A00046EA0C062037B6FBF4FCA7EB0507103F26
:1003B00007F01F0BCBF120060CFA0BFB2CFA06F60C
:1003C00044BFB3460026202FA4BF5E464FF0000B6B
:1003D0005BEA060C08BF4FF0010B19EB0B09ABFBF6
:1003E000027C48EB0608C01B06FB02CC0BFB03CCCF
:1003F00071EB0C01C1E70B46024641464846BDE899
:10040000F08B13B54FF000004FF00001AFF3008008
:10041000BDE81C407047032A40F2308010F0030C06
:1004200000F0158011F8013BBCF1020F624498BF47
:1004300011F801CB00F8013B38BF11F8013BA2F1E4
:10044000040298BF00F801CB38BF00F8013B11F05F
:10045000030300F02580083AC0F0088051F8043BFF
:10046000083A51F804CBA0E80810F5E7121D5CBF6C
:1004700051F8043B40F8043BAFF30080D20724BF9F
:1004800011F8013B11F801CB48BF11F8012B24BF33
:1004900000F8013B00F801CB48BF00F8012B704782
:1004A00010B5203AC0F00B80B1E81850203AA0E80F
:1004B0001850B1E81850A0E81850BFF4F5AF5FEA43
:1004C000027C24BFB1E81850A0E8185044BF18C9F6
:1004D00018C0BDE810405FEA827C24BF51F8043B9D
:1004E00040F8043B08BF7047D20728BF31F8023BF1
:1004F00048BF11F8012B28BF20F8023B48BF00F885
:10050000012B70474FF0000200B513469446964603
:10051000203922BFA0E80C50A0E80C50B1F1200116
:10052000BFF4F7AF090728BFA0E80C5048BF0CC0C4
:100530005DF804EB890028BF40F8042B08BF704722
:1005400048BF20F8022B11F0804F18BF00F8012B94
:100550007047704770477047754600F02BF8AE46FD
:1005600005006946534620F00700854618B020B5BF
:10057000FFF7C8FEBDE820404FF000064FF000072F
:100580004FF000084FF0000B21F00701AC46ACE83B
:10059000C009ACE8C009ACE8C009ACE8C0098D46A8
:1005A000704710B50446AFF300802046BDE8104008
:1005B000FFF733BE00487047B847002001491820B4
:1005C000ABBEFEE7260002007047000000BF05F04A
:1005D00057F8012291020C4801F082FE01210B48DC
:1005E00000F0DAF802210A4800F0D6F803F0C0FE65
:1005F00000F05EF90748006805F0C4F905F06AF8F4
:10060000012004F0CDFBE2E7001C02405003002073
:1006100078030020280000208AB000BF4FF0FF328E
:1006200069460548006805F07BFD09AB07AA01A9EA
:10063000009800F0ACFDF1E7080000200FB49DF831
:100640001D009DF81C1040EA012000B21649C88127
:100650009DF81F109DF81E0041EA002012494884B1
:100660009DF821109DF8200041EA002000B200EE24
:10067000100AB8EEC00A0C4880ED040A90ED040A96
:10068000DFED0A0A80EE201A80ED041A9DF82200A0
:1006900000F001000449C8769DF82200C0F3400034
:1006A000888404B0704700004445002000007A446C
:1006B0000EB500200190029017480088000A8DF8BE
:1006C0000400154800788DF8050013484088000A9A
:1006D0008DF80600104880788DF807000E48808855
:1006E000000A8DF808000C4800798DF809000A48C6
:1006F000C088000A8DF80A00074880798DF80B0041
:1007000001A84FF4147300220449009004480068C3
:1007100000F05CF80EBD0000AE0000207803002061
:100720000800002000BFFEE710B5024800F02FFFD0
:1007300010BD00005003002010B5024800F027FF54
:1007400010BD00005003002010B5024800F01FFF4C
:1007500010BD00007803002010B5024800F017FF1C
:1007600010BD00007803002070B504460D4600203F
:10077000206160616062A0610120E0612062002070
:1007800020606060A060E0602146284600F0A4FD83
:1007900008B100F0E4FC70BD70B504460D46681E5B
:1007A000C6B206EB460101EB0611074A02EB8100D7
:1007B0002146FFF7D9FF204601F017FA0221204613
:1007C00000F0D0FC70BD00006C4500202DE9F04128
:1007D0008AB007460E4614461D46DDF84080019655
:1007E0000CB9029500E003950494002105910821BD
:1007F000069100218DF81C10D8F800000890D8F858
:100800000400099000231A4601A9384605F036FB7A
:100810000AB0BDE8F08100008EB000BF4FF0FF329B
:1008200005A90A48006805F07BFC059CB4F5007F2B
:10083000F4D9B4F5017FF1D8142209A96846FFF76D
:100840002FFE05A80FC803F0A9F8E7E70000002075
:100850008EB000BF4FF0FF3205A91348006805F0C5
:100860005FFC059C9DF8300000F00F000F490880E8
:1008700040F20F10844209D1142209A96846FFF7FB
:100880000FFE05A80FC8FFF7D9FEE3E70748008869
:100890000128DFD1142209A96846FFF701FE05A847
:1008A0000FC800F033FBD5E704000020AA000020A9
:1008B00010B59FED271ADFED270A9FED270A27487D
:1008C00004F066FA9FED263ADFED262A9FED262AF0
:1008D000DFED261A9FED251ADFED240AB3EE090A93
:1008E000234803F07FFB9FED1E3ADFED1E2A9FEDAC
:1008F0001E2ADFED1E1A9FED1D1ADFED1C0AB3EE56
:10090000090A1C4803F06EFB9FED153ADFED152A2E
:100910009FED152ADFED151A9FED141ADFED130A6E
:10092000B3EE090A144803F05DFB9FED0D3ADFEDCD
:100930000D2A9FED0D2ADFED0D1A9FED0C1ADFED4C
:100940000B0AB3EE090A0D4803F04CFB10BD000082
:10095000B81E453ECDCC4C3E2DB29D3D4C460020B0
:100960000080BB450060EA460000804600000000B1
:1009700068460020BC460020104700206447002045
:1009800010B52DED048BE048008901280ED1DE481A
:10099000B0F9120000EE100AB8EEC00ADFEDDB0A73
:1009A00020EE200ADA4880ED000A11E0D6480089DE
:1009B00003280DD1D448B0F9120000EE100AB8EEA9
:1009C000C00ADFEDD20A20EE200AD24880ED000AEC
:1009D000CF4890ED000AF2EE040AB4EEE00AF1EE20
:1009E00010FA04DDB2EE040A80ED000A0DE0C848FA
:1009F00090ED000AFAEE040AB4EEE00AF1EE10FA05
:100A000003D2BAEE040A80ED000AC24890ED000A53
:100A1000F2EE040AB4EEE00AF1EE10FA04DDB2EEF2
:100A2000040A80ED000A0DE0BA4890ED000AFAEEE3
:100A3000040AB4EEE00AF1EE10FA03D2BAEE040AA8
:100A400080ED000AB448B0F9000000EE100AB8EEDC
:100A5000C00AAF48D0ED000A30EE200ABDEEC00A51
:100A600010EE100A00B2AC4908800846B0F9020046
:100A700000EE100AB8EEC00AA648D0ED000A30EE2B
:100A8000200ABDEEC00A10EE100A00B248800846E7
:100A9000B0F9040000EE100AB8EEC00A9D48D0ED8F
:100AA000000A30EE200ABDEEC00A10EE100A00B2B5
:100AB00088800846B0F9060000EE100AB8EEC00AB9
:100AC0009348D0ED000A30EE200ABDEEC00A10EEC9
:100AD000100A00B2C8800846B0F90000412802DDC3
:100AE0004120088009E08C48B0F9000010F1410F66
:100AF00003DA6FF04000884908808748B0F90200A7
:100B0000412803DD41208449488009E08248B0F94A
:100B1000020010F1410F03DA6FF040007E49488077
:100B20007D48B0F90400412803DD41207A498880DE
:100B300009E07948B0F9040010F1410F03DA6FF0D1
:100B40004000754988807448B0F90600412803DDEB
:100B500041207149C88009E06F48B0F9060010F1E2
:100B6000410F03DA6FF040006B49C8806648B0F966
:100B700004000A2808DA6448B0F9040010F10A0FEA
:100B800002DD0020604988805F48B0F906000A282D
:100B900008DA5D48B0F9060010F10A0F02DD002006
:100BA0005949C8805849B1F9040005F060FE41EC8C
:100BB000190B9FED5A0B53EC102B05F06FFE41EC17
:100BC000180B05F023FE574908604F49B1F906108C
:100BD000484205F04CFE41EC190B9FED500B53ECD5
:100BE000102B05F05BFE41EC180B05F00FFE4D4994
:100BF000486045480089022814D14349B1F91210D0
:100C0000484205F034FE41EC190B9FED440B53ECC8
:100C1000102B05F043FE41EC180B05F0F7FD4149A0
:100C2000886004E09FED400A3E4880ED020A3F4A9A
:100C30003F493C4804F060F83E48B0F9020001EE3C
:100C4000100AB8EEC11AF0EE410A384890ED001AC9
:100C5000B0EE410A384803F04DF9BDEEC00A10EE7F
:100C6000100A00B23349C8820846B0F9220001EEEA
:100C7000100AB8EEC11AF0EE410A2C4890ED011AA4
:100C8000B0EE410A2D4803F035F9BDEEC00A10EE72
:100C9000100A01B22748C186B0F9420001EE100ADD
:100CA000B8EEC11AF0EE410A204890ED021AB1EEFA
:100CB000411AB0EE410A224803F01CF9BDEEC00A09
:100CC00010EE100A01B21B48A0F85610B0F96200ED
:100CD00001EE100AB8EEC11AF0EE410A134890ED89
:100CE000031AB1EE411AB0EE410A164803F002F9B8
:100CF000BDEEC00A10EE100A01B20E48A0F8761040
:100D0000BDEC048B10BD0000FC4400206F12033BBF
:100D1000F4000020F8000020AE0000209A99999974
:100D20009999E93FE80000200000000058460020A3
:100D30004C4600205844002068460020BC46002055
:100D4000104700206447002010B5024800F0EEFF75
:100D500010BD0000B805002010B5024800F0E6FF05
:100D600010BD00005805002010B5024800F0DEFF5D
:100D700010BD00001806002010B5024800F0D6FF94
:100D800010BD0000F804002010B5024800F0CEFFAE
:100D900010BD00007806002010B5024800F0C6FF24
:100DA00010BD000098040020014608781038182370
:100DB000B0FBF3F20848805CC865032A05D90868CF
:100DC0006FF30900001D886503E008686FF30900F0
:100DD0008865886D704700008C6B00080146002014
:100DE0008A6A8B69CBB932B1012A0DD0022A03D0AD
:100DF000032A10D10EE000BFCB6A03F08073B3F179
:100E0000807F00D1012007E0CB6AB3F1C07F00D121
:100E1000012001E000E000BF34E08B69B3F5005F22
:100E20001AD132B1012A07D0022A03D0032A11D1E4
:100E30000AE000BF01200EE0CB6A03F08073B3F13B
:100E4000807F00D1012006E0CB6AB3F1C07F00D1E2
:100E5000012000E000BF15E032B1012A05D0022ACE
:100E600004D0032A0CD103E000BF00BF012008E03A
:100E7000CB6A03F08073B3F1807F00D1012000E0E2
:100E800000BF00BF704730B50468246824F4802494
:100E900005682C60046863608468402C04D1046891
:100EA000A2600468E16003E00468A1600468E26095
:100EB00030BD000030B58BB005460C4603940021D0
:100EC0000591069108210791002102A80176FF20D3
:100ED0008DF82400FF2102A841778177C1778DF832
:100EE00028108DF829108DF82A10FC218DF82B1070
:100EF00009A8234600222946009003480068FFF70E
:100F000065FC0BB030BD0000080000200FB470B5C8
:100F10009DF82C0000F00F040498441E04EBC4005C
:100F2000774901EBC000806904EBC401744A02EB0D
:100F3000C10108629DF82C00001104EBC40122F8E5
:100F4000310004A8817F407F41EA002004EBC40106
:100F500002EBC101886104A8C07F01019DF8300047
:100F600041EA201000EE100AB8EEC00A04EBC400FB
:100F7000114601EBC00080ED070A9DF830009DF896
:100F8000311000EE101AB8EEC00A04EBC40011468E
:100F900001EBC00080ED040A04EBC40001EBC000CB
:100FA000806904EBC40102EBC101096A451A15F519
:100FB000004F0DDA04EBC400114601EBC000008FB6
:100FC000401C00B204EBC40102EBC101088710E031
:100FD000B5F5004F0DDD04EBC400494901EBC0003D
:100FE000008F401E00B204EBC401454A02EBC10170
:100FF000088704EBC401424A02EBC1018869102151
:10100000DFED400A9FED400A04F0CAFA04EBC40089
:101010003B4901EBC00080ED010A04EBC401384AF2
:1010200002EBC10191ED070ABDEEC00A10EE100AF5
:101030000C21DFED360A9FED360A04F0B1FA04EB1D
:10104000C4002F4901EBC00080ED020A04EBC4018B
:101050002B4A02EBC10191ED040ABDEEC00A10EE6D
:10106000100A0C21F2EE040ABAEE040A04F098FA0F
:1010700004EBC400224901EBC00080ED050A9DF895
:10108000320004EBC4011E4A02EBC10108739DF853
:10109000330004EBC40102EBC101487304EBC4004C
:1010A000114601EBC00090ED010A04EBC40001EB16
:1010B000C000B0F9380000EE900AF8EEE00A9FEDAB
:1010C000151A01EE200A04EBC40001EBC00080ED0C
:1010D0000F0A04EBC40001EBC000B0F84400401C50
:1010E00004EBC40102EBC101A1F84400012004EBB0
:1010F000C40102EBC10181F8420070BC5DF814FB31
:1011000010440020DB0F4940DB0F49C0000048437A
:10111000000048C3DB0FC94008B505F09BF90090FB
:1011200000BF00BF0A48B0F844000A490988884255
:1011300003D101210848FFF7BDFE0548B0F844007F
:10114000044908800121684604F0B2FBEAE7000088
:1011500010440020AC00002050030020704772B6FD
:1011600000BFFEE710B5024692F82030012B01D0F7
:10117000022B06D1106840690843146860610020A2
:1011800010BD506A40F4802050620120F8E7F0B5AD
:1011900004460D461E4694F8207020688368A868AF
:1011A00000B900E000BF012F01D0022F7DD103F074
:1011B000806030B903F0006018B903F08050002857
:1011C0007ED0C3F30161012088403060A86860B917
:1011D000B5F800C0E86840EA4C5C206800F5C070D3
:1011E00000EB0110C0F800C00FE0D5E901C040EAF3
:1011F000CC00D5F80CC040EA0C00D4F800C00CF5C7
:10120000C07C0CEB011CCCF80000D5F810C02068A5
:1012100000F5C07000EB0110C0F804C0287D012863
:101220000ED1206800F5C07000EB0110406840F45A
:10123000807C206800F5C07000EB0110C0F804C08D
:10124000D079000692F806C040EA0C4092F805C03A
:1012500040EA0C2092F804C040EA0C00D4F800C028
:101260000CF5C07C0CEB011CCCF80C00D07800060F
:1012700092F802C040EA0C4092F801C040EA0C200B
:1012800092F800C040EA0C00D4F800C00CF5C07C15
:101290000CEB011CCCF80800206800F5C07000EBD6
:1012A0000110006840F0010C01E00FE008E0206848
:1012B00000F5C07000EB0110C0F800C00020F0BDC8
:1012C000606A40F4001060620120F8E7606A40F450
:1012D000802060620120F2E7F0B504460A4694F8E7
:1012E0002050012D01D0022D7ED1424901F500711F
:1012F000086840F001000860086820F47C5008602D
:101300000868566A40EA06200860107D00F01F0653
:10131000012000FA06F3C8699843C861A1F500717D
:10132000D069C8B9D1F80C029843C1F80C02908872
:1013300080B2968940EA064601F51070576940F878
:101340003760108880B2168940EA064601F51070B1
:10135000576900EBC7004660D069012819D1D1F860
:101360000C021843C1F80C02908880B2168840EA3B
:10137000064601F51070576940F83760908980B2D1
:10138000168940EA064601F51070576900EBC70060
:101390004660906928B9D1F804029843C1F8040264
:1013A00004E0D1F804021843C1F80402106928B916
:1013B000D1F814029843C1F8140204E0D1F81402E1
:1013C0001843C1F81402106A012804D1D1F81C0294
:1013D0001843C1F81C02D1F8000220F00100C1F846
:1013E00000020020F0BDFFE7606A40F480206062E8
:1013F0000120F7E700640040704770B5044694F898
:101400002050012D01D0022D7DD151B92068C06836
:1014100000F0030080B9606A40F4001060620120AF
:1014200070BD2068006900F0030028B9606A40F4CC
:10143000001060620120F3E7206800F5D87000EB2F
:101440000110006800F004009060906840B92068C6
:1014500000F5D87000EB01100068400D106007E047
:10146000206800F5D87000EB01100068C0085060DB
:10147000206800F5D87000EB0110006800F0020051
:10148000D060206800F5D87000EB0110406800F0D3
:101490000F00082802D30820106108E0206800F53A
:1014A000D87000EB0110406800F00F001061206858
:1014B00000F5D87000EB0110406800F47F40000A8E
:1014C0009061206800F5D87000EB01104068000CB6
:1014D0005061206800F5D87000EB0110806818702A
:1014E000206800F5D87000EB0110806800F47F40A0
:1014F000000A5870206800F5D87000EB0110806871
:1015000000F47F0000E03CE0000C9870206800F5DB
:10151000D87000EB01108068000ED870206800F5CC
:10152000D87000EB0110C0681871206800F5D87001
:1015300000EB0110C06800F47F40000A5871206879
:1015400000F5D87000EB0110C06800F47F00000CBB
:101550009871206800F5D87000EB0110C068000E8B
:10156000D87131B92068C06840F020002668F0606A
:1015700005E02068006940F0200026683061002006
:101580004EE7606A40F480206062012048E72DE960
:10159000F05F04460025206846692068D0F8049072
:1015A000206887682068D0F80CA02068D0F810B0B8
:1015B0002068D0F8188006F00100002855D007F008
:1015C0000100C0B101202168886007F0020018B155
:1015D000204600F03AFB0EE007F0040010B145F49D
:1015E000006508E007F0080010B145F4805502E0FE
:1015F000204600F029FB07F48070C8B14FF48070DA
:101600002168886007F4007018B1204600F01FFBC5
:101610000EE007F4806010B145F4005508E007F4CF
:10162000006010B145F4804502E0204600F00EFB5A
:1016300007F48030C8B14FF480302168886007F427
:10164000003018B1204600F004FB0EE007F48020C3
:1016500010B145F4004508E007F4002010B145F44E
:10166000803502E0204600F0F3FA06F0080038B1B9
:101670000AF0100020B145F4007510202168C86000
:1016800006F0040040B10AF0080028B108202168E3
:10169000C860204600F01CFA06F0020038B120684D
:1016A000C06800F0030010B1204600F013FA06F005
:1016B000400038B10BF0100020B145F480651020D7
:1016C0002168086106F0200040B10BF0080028B145
:1016D000082021680861204600F084FA06F0100016
:1016E00038B12068006900F0030010B1204600F016
:1016F0007AFA06F4003040B109F0100028B1102049
:1017000021684860204600F06FFA06F4803040B14E
:1017100009F0080028B1082021684860204600F040
:1017200099FA06F4004088B309F0040078B306F48F
:10173000807020B108F0010008B145F0010506F401
:10174000007020B108F0020008B145F0020506F46F
:10175000806020B108F0040008B145F0040506F4EB
:101760000060A0B108F0700088B108F07000402857
:1017700017D006DC10280BD020280CD0302819D127
:101780000CE0502810D0602814D110E01DE019E0C2
:1017900045F008050FE045F010050CE045F0200588
:1017A00009E045F0400506E045F0800503E045F41A
:1017B000807500E000BF00BF2068806920F07000E5
:1017C000216888610420216848602DB1606A28433F
:1017D00060622046FFF710FEBDE8F09F70B504463A
:1017E0000CB9012070BD94F8200010B9204600F01B
:1017F000AFF82068006840F001002168086000F040
:1018000075FD05460DE000F071FD401B0A2808D962
:10181000606A40F400306062052084F820000120F6
:10182000E0E72068406800F001000028EBD0206865
:10183000006820F002002168086000F057FD0546AE
:101840000DE000F053FD401B0A2808D9606A40F4FF
:1018500000306062052084F820000120C2E7206883
:10186000406800F002000028EBD1207E012806D15C
:101870002068006840F080002168086005E020686A
:10188000006820F0800021680860607E012806D191
:101890002068006840F040002168086005E020688A
:1018A000006820F0400021680860A07E012806D171
:1018B0002068006840F020002168086005E020688A
:1018C000006820F0200021680860E07E012806D131
:1018D0002068006820F010002168086005E020689A
:1018E000006840F0100021680860207F012806D1C0
:1018F0002068006840F008002168086005E0206862
:10190000006820F0080021680860607F012806D187
:101910002068006840F004002168086005E0206845
:10192000006820F0040021680860D4E9020108433F
:1019300021690843616908436168491E08432168B9
:10194000C86100206062012084F82000002049E77F
:1019500010B586B00446142101A8FEF7D3FD564900
:101960002068884249D155480068401C53490860A6
:101970000846006801280FD100BF002000905048A1
:10198000006840F000704E4908600846006800F0AA
:101990000070009000BF00BF00BF002000904848CA
:1019A0001038006840F008004549103908600846C2
:1019B000006800F00800009000BF00BF0320019005
:1019C000022002900020039003200490092005903B
:1019D00001A93C4800F08AFB00220521132000F0F9
:1019E00043FD132000F02CFD00220521142000F0FF
:1019F0003BFD142000F024FD5CE033492068884260
:101A000058D100BF002000902D48006840F0806051
:101A10002B4908600846006800F08060009000BF15
:101A200000BF26480068401C24490860084600683A
:101A300001280FD100BF002000902148006840F02D
:101A400000701F4908600846006800F000700090B0
:101A500000BF00BF00BF0020009019481038006888
:101A600040F002001649103908600846006800F08E
:101A70000200009000BF00BF602001900220029091
:101A800000200390032004900920059001A90F482D
:101A900000F02CFB002205213F2000F0E5FC3F2058
:101AA00000F0CEFC00220521402000F0DDFC4020AB
:101AB00000F0C6FC06B010BD006400402C00002001
:101AC00040380240000C0240006800400004024020
:101AD0007047000038B504463B492068884203D16E
:101AE00000203A49087002E0012038490870374860
:101AF000007800EB400101EB0010354901EB80005C
:101B000000F144033148007800EB400101EB001084
:101B10002F4901EB800000F1280200212046FFF749
:101B20006CFC2A4A127802EB420303EB0212284BA8
:101B300003EB820202F12801244A127802EBC2026E
:101B4000244B03EB82001C22FEF7AAFC1F480078FE
:101B500000EBC0001F4901EB80011C48007800EB3E
:101B6000400202EB00101A4A02EB8000826C406CCB
:101B7000C1E907021548007868B91448007800EBFD
:101B8000C000144A02EB800100236A461248006834
:101B900004F048FA0CE00D48007800EBC0000D4A54
:101BA00002EB800100236A460C48006804F03AFA10
:101BB000009838B14FF0805009490860BFF34F8F4B
:101BC000BFF36F8F38BD000000640040E6000020C6
:101BD0006C45002004460020000000200400002086
:101BE00004ED00E070477047704770B5044694F804
:101BF0002000012822D1022084F8200020680068FB
:101C000020F001002168086000F070FB05460DE03F
:101C100000F06CFB401B0A2808D9606A40F40030D1
:101C20006062052084F82000012070BD20684068B3
:101C300000F001000028EBD16062F6E7606A40F432
:101C4000002060620120F0E77047704770477047DE
:101C500070477047704770B50446A56D00F046FBAD
:101C6000064694F83500022808D08020606500BF41
:101C7000002084F8340000BF012070BD2068006897
:101C800020F01600216808602068406920F080007C
:101C900021684861206C08B9A06C28B120680068F0
:101CA00020F00800216808602068006820F001002A
:101CB0002168086010E000F019FB801B05280BD993
:101CC00020206065032084F8350000BF002084F8E0
:101CD000340000BF0320D0E72068006800F0010056
:101CE0000028E8D194F85C103F208840A8600120CB
:101CF00084F8350000BF002084F8340000BF00BF26
:101D0000BBE7014691F83500022803D080204865E2
:101D100001207047052081F835000868006820F030
:101D200001000A6810600020F3E70000F8B50446DF
:101D3000002000908C4800684FF41651B0FBF1F77A
:101D4000A56D2E6894F85C1008208840304098B14A
:101D50002068006800F0040070B12068006820F07E
:101D600004002168086094F85C1008208840A8608E
:101D7000606D40F00100606594F85C1001208840BF
:101D8000304068B12068406900F0800040B194F8AC
:101D90005C1001208840A860606D40F00200606522
:101DA00094F85C1004208840304068B120680068D6
:101DB00000F0020040B194F85C1004208840A86054
:101DC000606D40F00400606594F85C10102088405D
:101DD000304078B32068006800F0080050B394F8F1
:101DE0005C1010208840A8602068006800F4802003
:101DF00080B12068006800F4002028B9206CC8B1C8
:101E00002046216C884715E0A06C98B12046A16C53
:101E100088470FE02068006800F4807028B92068C7
:101E2000006820F0080021680860206C10B120468E
:101E3000216C884794F85C102020884030400028AE
:101E400065D02068006800F0100000285FD094F88A
:101E50005C1020208840A86094F83500052828D11F
:101E60002068006820F0160021680860206840693A
:101E700020F0800021684861206C08B9A06C28B16E
:101E80002068006820F008002168086094F85C1061
:101E90003F208840A860012084F8350000BF002062
:101EA00084F8340000BF206D10B12046216D8847B2
:101EB000F8BD2068006800F4802080B120680068C8
:101EC00000F4002028B9606C10B12046616C88478E
:101ED0001DE0E06BD8B12046E16B884717E0206831
:101EE000006800F4807068B92068006820F0100075
:101EF00021680860012084F8350000BF002084F8C4
:101F0000340000BFE06B10B12046E16B8847606D84
:101F100038B3606D00F00100F0B1052084F83500A1
:101F20002068006820F001002168086000BF009868
:101F3000401C0090B84200D905E02068006800F01D
:101F400001000028F3D100BF012084F8350000BF54
:101F5000002084F8340000BFE06C10B12046E16C32
:101F6000884700BFA4E700003C0000202DE9F041B5
:101F70000446002500F0BAF9074614B90120BDE86F
:101F8000F081606A00B100BF022084F8350000BF14
:101F9000002084F8340000BF2068006820F00100B1
:101FA000216808600AE000F0A1F9C01B052805D9E6
:101FB00020206065032084F83500E0E72068006891
:101FC00000F001000028EED1206805682148054096
:101FD000D4E901010843E1680843216908436169C4
:101FE0000843A1690843E1690843216A084305439E
:101FF000606A042803D1D4E90B0108430543206833
:1020000005602068456925F00705606A0543606A38
:1020100004280DD1A06A0543E06A48B12046FEF7C6
:10202000DDFE28B140206065012084F83500A6E778
:10203000206845612046FEF7B7FE064694F85C101E
:102040003F208840B06000206065012084F83500A2
:10205000002094E73F8010F02DE9F04704460D463C
:1020600016461F464FF00008D4F8589000BF94F869
:102070003400012802D10220BDE8F087012084F855
:10208000340000BF94F83500012825D1022084F8DF
:102090003500002060653B46324629462046FEF763
:1020A000F2FE94F85C103F208840C9F808002068D0
:1020B000006840F0160021680860206C28B1206894
:1020C000006840F00800216808602068006840F05F
:1020D00001002168086006E000BF002084F8340099
:1020E00000BF4FF002084046C6E70000F8B50246C0
:1020F0000B460025002400200021D6E0012606FA28
:1021000001F51E6806EA0504AC4274D11E7906F09A
:102110000306012E04D01E7906F00306022E13D109
:1021200090684F000326BE40B0434F00DE68BE40BB
:1021300030439060506801268E40B0431E79C6F34C
:1021400000168E40304350601E7906F00306032EC1
:1021500009D0D0684F000326BE40B0434F009E68B0
:10216000BE403043D0601E7906F00306022E13D124
:10217000CF0802F1200656F827004E07F70E0F266B
:10218000BE40B0434F07FF0E1E69BE403043CF082C
:1021900002F1200646F8270010684F000326BE40D3
:1021A000B0431E7906F003064F00BE403043106076
:1021B0005E6806F44036002E76D000BF00260096FA
:1021C0003C4E366846F480463A4F3E603E4636689E
:1021D00006F48046009600BF00BF374E8F0856F8C1
:1021E00027008E07370F0F26BE40B043334EB24252
:1021F00002D1002624E057E0314EB24201D101263F
:102200001EE0304EB24201D1022619E02E4EB242FB
:1022100001D1032614E02D4EB24201D104260FE075
:102220002B4EB24201D105260AE02A4EB24201D11C
:10223000062605E0284EB24201D1072600E0082616
:102240008F073F0FBE4030431B4E8F0846F82700D4
:10225000224E3068A0435E6806F4801606B1204323
:102260001E4E3060361D3068A0435E6806F40016CE
:1022700006B12043194E361D3060184E361F3068A7
:10228000A0435E6806F4003606B12043134E361FA5
:102290003060361F3068A0435E6806F4803606B1B1
:1022A00020430E4E083E3060491C1029FFF426AF33
:1022B000F8BD0000443802400838014000000240E8
:1022C0000004024000080240000C024000100240DE
:1022D0000014024000180240001C0240083C01406B
:1022E0000AB1816101E00B04836170470148006815
:1022F0007047000030000020034800680349097857
:102300000844014908607047300000203800002070
:1023100010B50D48006840F400700B49086008468D
:10232000006840F4806008600846006840F48070EF
:102330000860032000F0D6F80F2000F007F800F046
:1023400055F8002010BD0000003C0240F0B587B0F9
:1023500004460026002700BF002000901E480068A9
:1023600040F001001C4908600846006800F00100C8
:10237000009000BF00BF01A902A800F059FA00F0C8
:102380008FFA46001548B6FBF0F0471E1448154971
:10239000086040F2E7311348C160476000210161E5
:1023A0008160816100F0C8FD054695B90D4800F0D7
:1023B000F7FD05466DB9192000F042F8102C07D240
:1023C00000222146192000F04FF80748046000E081
:1023D0000125284607B0F0BD4438024040420F00B6
:1023E00000000140D80600203400002008B500BFDE
:1023F000002000901148006840F480400F490860B8
:102400000846006800F48040009000BF00BF00BF95
:1024100000200090081F006840F08050091F0860ED
:102420000846006800F08050009000BF00BF002206
:102430000F21901E00F018F808BD0000443802403B
:102440000146084600280DDB00BF00BF00F01F0357
:1024500001229A4043099B0003F1E023C3F80021C5
:1024600000BF00BF00BF70472DE9F05F80460D46FA
:102470001646002702F0C6FB074639462A46334671
:1024800001F00700C0F1070ABAF1040F02D94FF0BA
:10249000040A01E0C0F1070AD14600F1040ABAF1CA
:1024A000070F02D24FF0000A01E0A0F1030AD44660
:1024B0004FF0010A0AFA09FAAAF1010A0AEA020A25
:1024C0000AFA0CFA4FF0010B0BFA0CFBABF1010B03
:1024D0000BEA030B4AEA0B042146404602F09AFB42
:1024E000BDE8F09F00BF00F00702064B19684FF6E9
:1024F000FF031940044B0B4343EA0221014B1960CF
:1025000000BF70470CED00E00000FA05F8B5044686
:1025100000250026207800F0010020B9207800F086
:10252000040004282FD100205B498866FFF7DEFEF7
:10253000054606E0FFF7DAFE401B022801D903201A
:10254000F8BD56480068C0F3C0600028F2D160684A
:102550008101207A41EA00705049843108600120ED
:102560004D498866FFF7C2FE054606E0FFF7BEFE4E
:10257000401B022801D90320E2E748480068C0F365
:10258000C0600028F2D0207800F0020002287DD13F
:1025900000BF0020009041484030006840F080506B
:1025A0003E49403108600846006800F080500090C5
:1025B00000BF00BF3A48006840F4807038490860A6
:1025C000FFF794FE054606E0FFF790FE401B022849
:1025D00001D90320B4E73248006800F48070002875
:1025E000F2D02E487030006800F440764EB3A089D7
:1025F00000F44070B04224D028487030006820F4C5
:102600004076012027490860002008602348703088
:102610000660006800F0010098B1FFF767FE05460C
:1026200008E0FFF763FE401B41F28831884201D980
:10263000032085E7194870300068C0F34000002887
:10264000EFD000BFA08900F44070B0F5407F0CD1FE
:1026500012480830006820F4F810134AE16811406D
:1026600008430E490831086007E00C48083000684C
:1026700020F4F810094908310860084870300068F3
:10268000A189C1F30B010843044900E002E0703165
:10269000086000BF002053E70000474200380240B6
:1026A00000700040400E4742FFFCFF0F70B504462B
:1026B0000D460CB9012070BD5848006800F00700B5
:1026C000A84209D255490D700846006800F007007D
:1026D000A84201D00120EEE7207800F00200022895
:1026E0001DD1207800F00400042805D14C48006872
:1026F00040F4E0504A490860207800F008000828BB
:1027000005D14748006840F46040454908604448A6
:10271000006820F0F000A168084341490860207873
:1027200000F00100A8B36068012807D13C480838D0
:102730000068C0F34040B8B90120BCE760680228D7
:1027400002D06068032807D1354808380068C0F314
:10275000406048B90120AEE7314808380068C0F34E
:10276000400008B90120A6E72D48006820F00300CA
:10277000616808432A490860FFF7B8FD064609E08A
:10278000FFF7B4FD801B41F28831884202D9032053
:1027900091E707E02248006800F00C006168B0EBA8
:1027A000810FEDD11D48006800F00700A84209D94B
:1027B0001A490D700846006800F00700A84201D0D1
:1027C000012078E7207800F00400042807D114489D
:1027D000006820F4E050E16808431149086020785F
:1027E00000F00800082808D10D48006820F4604077
:1027F000216940EAC1000A49086000F061F808490F
:102800000968C1F30311074A515CC84006490860D2
:1028100006480068FFF79AFD00204CE7003C0240A4
:1028200008380240946B00083C000020340000206F
:102830000F2202600D4A126802F0030242600B4A46
:10284000126802F0F0028260084A126802F4E05254
:10285000C260064A126802F46042D2080261044A69
:10286000126802F007020A60704700000838024050
:10287000003C024001480068704700003C00002016
:1028800000B5FFF7F7FF04490968C1F38221034A45
:10289000515CC84000BD000008380240A46B00082D
:1028A00000B5FFF7E7FF04490968C1F34231034A65
:1028B000515CC84000BD000008380240A46B00080D
:1028C0002DE9F047002400250026A1462548006890
:1028D00000F00C0020B1042805D008283AD105E00A
:1028E000DFF8849039E0DFF8849036E01D48001F5F
:1028F000006800F03F041B48001F006800F48000DF
:1029000078B11A481749091F0968C1F38811A0FB5B
:1029100001700146224600233846FDF705FD0546B5
:102920000EE011480F49091F0968C1F38811A0FB87
:1029300001700146224600233846FDF7F5FC0546A6
:102940000848001F0068C0F30140401C4600B5FB6A
:10295000F6F902E0DFF8109000BF00BF4846BDE87E
:10296000F0870000083802400024F400001BB70084
:10297000F8B504460CB90120F8BD207800F001003C
:10298000002874D0F948006800F00C0004280DD02D
:10299000F648006800F00C00082813D1F348001F27
:1029A000006800F48000B0F5800F0BD1EF480838C4
:1029B0000068C0F34040002859D06068002856D114
:1029C0000120D9E700BF6068B0F5803F08D1E74833
:1029D0000838006840F48030E449083908601EE097
:1029E0006068B0F5A02F0DD1E0480838006840F4C9
:1029F0008020DE49083908600846006840F48030CD
:102A000008600CE0D9480838006820F48030D749C5
:102A1000083908600846006820F48020086000BF7C
:102A2000606890B1FFF762FC054606E0FFF75EFCC8
:102A3000401B642801D903209EE7CC480838006871
:102A4000C0F340400028F1D011E0FFF74FFC0546ED
:102A500006E0FFF74BFC401B642801D903208BE7FD
:102A6000C24808380068C0F340400028F1D12078FF
:102A700000F0020002285FD1BC48006800F00C00A2
:102A800058B1BA48006800F00C0008281CD1B748BB
:102A9000001F006800F48000B0B9B448083800682E
:102AA000C0F3400020B1E068012801D0012063E7B5
:102AB000AE480838006820F0F800216940EAC100FB
:102AC000AA490839086037E0E06800B30120A84946
:102AD0000860FFF70BFC054606E0FFF707FC401B0C
:102AE000022801D9032047E7A04808380068C0F34E
:102AF00040000028F1D09D480838006820F0F80018
:102B0000216940EAC10099490839086014E00020B1
:102B100097490860FFF7EAFB054606E0FFF7E6FB8A
:102B2000401B022801D9032026E790480838006896
:102B3000C0F340000028F1D1207800F008000828F8
:102B40002CD16069A8B101208A490860FFF7CEFB4B
:102B5000054606E0FFF7CAFB401B022801D9032007
:102B60000AE782486C300068C0F340000028F1D0CA
:102B700014E000207F490860FFF7B8FB054606E037
:102B8000FFF7B4FB401B022801D90320F4E6774885
:102B90006C300068C0F340000028F1D1207800F0CC
:102BA0000400042870D1002770483830006800F015
:102BB000805090B900BF002000906C483830006809
:102BC00040F080506949383108600846006800F0DC
:102BD0008050009000BF00BF01276748006800F4E4
:102BE0008070B0B96448006840F480706249086041
:102BF000FFF77CFB054606E0FFF778FB401B022849
:102C000001D90320B8E65C48006800F48070002811
:102C1000F2D000BFA068012808D15448683000688D
:102C200040F001005149683108601DE0A0680528A6
:102C30000DD14E486830006840F004004B496831BF
:102C400008600846006840F0010008600CE0474852
:102C50006830006820F00100444968310860084687
:102C6000006820F00400086000BFA068A8B1FFF76A
:102C70003DFB054609E0FFF739FB401B41F2883177
:102C8000884202D9032077E626E038486830006899
:102C9000C0F340000028EED013E0FFF727FB054605
:102CA00008E0FFF723FB401B41F28831884201D93D
:102CB000032061E62D4868300068C0F3400000281A
:102CC000EFD1012F07D129483830006820F080501B
:102CD00026493831086000BFA069002845D0234844
:102CE000006800F00C0008285DD0A069022845D1DA
:102CF00000201F490866FFF7F9FA054606E0FFF7CE
:102D0000F5FA401B022801D9032035E61748083898
:102D10000068C0F340600028F1D1D4E907010843FE
:102D2000616A40EA81110122A06AC2EB500041EAC7
:102D300000412C20005D41EA00600C49091F086039
:102D400001200B490866FFF7D1FA054606E0FFF7B8
:102D5000CDFA401B022801D903200DE603480838AC
:102D60000068C0F340600028F1D049E00838024014
:102D700000004742800E4742007000400020214979
:102D80000866FFF7B3FA054606E0FFF7AFFA401B07
:102D9000022801D90320EFE51B480068C0F340601A
:102DA0000028F2D12CE0A069012800D1E4E5164802
:102DB000001D0668A069012820D006F48001E069A2
:102DC00081421BD106F03F01206A814216D147F6AD
:102DD000C0703040616AB0EB811F0FD106F4403102
:102DE0000122A06AC2EB5000B1EB004F06D106F001
:102DF00070612C20005DB1EB006F01D00120BBE5BC
:102E00000020B9E5000047420038024070B5044692
:102E10000CB9012070BD607F20B9002020772046CA
:102E200000F04EF8022060772068C068C0F3001000
:102E300000283CD100BFCA20216848625320216885
:102E4000486200BF204601F003F90546EDB920684D
:102E500080681A49084021688860216960680843D1
:102E6000616908432168896808432168886021688E
:102E7000E068086120680169208941EA0040216812
:102E80000861204601F009F905465DB92068006C2B
:102E900020F48020216808642068006CA169084340
:102EA0002168086400BFFF202168486200E0002517
:102EB0000DB9012060772846ACE70000BFFF8FFF07
:102EC0001FB504460020009001900290039009492C
:102ED000206888420CD102200090000203906846CE
:102EE000FFF714FB08B1FEF73AF901200249086028
:102EF0001FBD0000002800403C0E474270B504464C
:102F000000250B482168C860FFF7F0F9054607E087
:102F1000FFF7ECF9401BB0F57A7F01D9032070BDB3
:102F20002068C06800F020000028F1D00020F6E7FB
:102F30005F7F01007047704710B504460CB901204F
:102F400010BD94F83D0028B9002084F83C002046CC
:102F500000F025F8022084F83D00211D206801F0D2
:102F6000A1FA012084F8460000BF84F83E00012148
:102F70003F200155402001554120015500BF00BFB1
:102F8000012084F84200432001554420015545208A
:102F9000015500BF012084F83D000020D0E77047B4
:102FA000014691F83D00012801D001207047022020
:102FB00081F83D000868C06840F001000B68D860E7
:102FC0001A4B086898421BD00868B0F1804F17D0A0
:102FD000174B0868984213D0164B086898420FD0D8
:102FE000154B086898420BD0144B0868984207D0DC
:102FF000134B0868984203D0124B086898420CD1D2
:103000000868806800F00702062A0CD0086800688B
:1030100040F001000B68186005E00868006840F0A7
:1030200001000B6818600020C0E7000000000140AC
:103030000004004000080040000C00400004014073
:103040000040014000180040704770B504462068F9
:10305000C5682068066906F00200022819D105F04B
:103060000200022815D1401F216808610120207745
:103070002068806900F0030018B12046FFF7E4FFE4
:1030800005E0204600F097F8204600F095F8002073
:10309000207706F00400042819D105F00400042864
:1030A00015D1C0432168086102202077206880691B
:1030B00000F4407018B12046FFF7C6FF05E0204637
:1030C00000F079F8204600F077F80020207706F02D
:1030D0000800082819D105F00800082815D1C043B8
:1030E00021680861042020772068C06900F003008F
:1030F00018B12046FFF7A8FF05E0204600F05BF876
:10310000204600F059F80020207706F01000102823
:1031100019D105F01000102815D1C04321680861AD
:10312000082020772068C06900F4407018B120465C
:10313000FFF78AFF05E0204600F03DF8204600F04A
:103140003BF80020207706F0010048B105F00100AF
:1031500030B16FF0010021680861204600F02EF8C0
:1031600006F08000802809D105F08000802805D174
:10317000C043216808612046FFF7DCFE06F04000EE
:10318000402809D105F04000402805D1C0432168FE
:103190000861204600F01EF806F02000202809D122
:1031A00005F02000202805D1C04321680861204691
:1031B000FFF7C1FE70BD70477047000010B50446B0
:1031C00003492068884201D1FFF796F810BD00003E
:1031D000000001407047F8B504460D46164694F8C5
:1031E000420020282DD105B10EB90120F8BD0120E3
:1031F00020630020606332462946204601F04CFCE3
:103200000746206B012819D100BF002000902068DC
:103210000068009020684068009000BF00BF00BFB9
:1032200000BF21680C3151E8001F41F010002168F7
:103230000C3141E80002002AF3D100E001273846B2
:10324000D4E70220D2E7000070B504460D460649D7
:103250002068884207D1192204490548FDF7DBF8A8
:1032600001200449087070BD004800402945002035
:1032700010450020A8000020704700002DE9F84FFD
:103280000446206805682068C668206847694FF0D2
:103290000009CA4605F00F09B9F1000F0AD105F07F
:1032A000200038B106F0200020B1204601F060FA7D
:1032B000BDE8F88FB9F1000F7CD007F0010018B914
:1032C00006F49070002875D005F0010030B106F4C6
:1032D000807018B1606C40F00100606405F004007B
:1032E00030B107F0010018B1606C40F0020060647A
:1032F00005F0020030B107F0010018B1606C40F039
:103300000400606405F0080048B106F0200010B920
:1033100007F0010018B1606C40F008006064606C58
:10332000002846D005F0200028B106F0200010B19A
:10333000204601F01DFA20684069C0F3801A606CD5
:1033400000F0080010B9BAF1000F2DD0204601F0AE
:10335000B6F92068406900F04000402820D100BF45
:1033600000BF2168143151E8001F21F0400021689E
:10337000143141E80002002AF3D100BFE06B50B1E4
:103380007F48E16B0865E06BFEF7BBFC88B1E06B42
:10339000016D88470DE02046FFF76EFF09E009E068
:1033A0002046FFF769FF04E02046FFF765FF002095
:1033B00060647DE7206B012878D105F010000028BB
:1033C00074D006F010000028FAD000BF0020009052
:1033D00020680068009020684068009000BF00BF2F
:1033E0002068406900F04000402870D1E06B006820
:1033F00040681FFA80F8B8F1000F58D0A08D404502
:1034000055DDA4F82E80E06BC069B0F5807F43D015
:1034100000BF00BF21680C3151E8001F21F480700B
:1034200021680C3141E80002002AF3D100BF00BF3F
:1034300000BF2168143151E8001F21F0010021680C
:10344000143141E80002002AF3D100BF00BF00BFE1
:103450002168143151E8001F21F040002168143127
:1034600041E80002002AF3D100BF202084F8420086
:103470000020206300BF00BF21680C3151E8001F0D
:1034800021F0100021680C3141E80002002AF3D13C
:1034900000BFE06BFEF7DFFB02206063A08DE28DD2
:1034A000801A81B22046FFF7CFFE0EE052E0A08DD9
:1034B00040450AD1E06BC069B0F5807F05D102209C
:1034C0006063A18D2046FFF7BFFEF1E6FFE7A08D08
:1034D000E18D401A1FFA80F8E08DD0B3B8F1000FEB
:1034E00037D000BF00BF21680C3151E8001F21F424
:1034F000907021680C3141E80002002AF3D100BF2E
:1035000000BF00BF2168143151E8001F21F0010005
:103510002168143141E80002002AF3D100BF2020C5
:1035200084F842000020206300BF00BF21680C31F6
:1035300051E8001F21F0100021680C3141E8000221
:10354000002AF3D100BF0220606341462046FFF706
:103550007BFEADE605F0800030B106F0800018B1CA
:10356000204601F005FBA3E605F0400030B106F06F
:10357000400018B1204601F0D8F899E600BF97E660
:103580008545000810B504460CB9012010BDA0699E
:1035900000B100E000BF94F8410028B9002084F891
:1035A0004000204600F02AF8242084F841002068DA
:1035B000C06820F400502168C860204601F056F928
:1035C0002068006920F49040216808612068406903
:1035D00020F02A00216848612068C06840F400504B
:1035E0002168C86000206064202084F8410084F8CD
:1035F00042000020606300BFC8E7000010B586B03D
:103600000446142101A8FCF77DFFD14920688842B7
:103610007ED100BF00200090CE48006840F010002E
:10362000CC4908600846006800F01000009000BF18
:1036300000BF00BF00200090C6481438006840F06A
:103640000200C449143908600846006800F002000E
:10365000009000BF00BF00BF002000900846006837
:1036600040F0010008600846006800F0010000908A
:1036700000BF00BF80200190022002900020039034
:10368000032004900720059001A9B348FEF72EFD02
:103690004FF400700190022002900020039003205C
:1036A00004900720059001A9AC48FEF71FFDAC4827
:1036B000AC4908604FF0006048604021A948816033
:1036C0000021C1604FF4806101610021416181618D
:1036D0004FF48071C161002101624162FEF746FC36
:1036E00008B1FDF73CFD00BF9E48A063846300BFA6
:1036F0009B4878389C4908604FF000604860002182
:1037000099488160C1604FF480610161002100E04F
:103710001AE0416181614FF48071C1610021016251
:103720004162FEF723FC08B1FDF719FD00BF8E488A
:10373000E063846300BF002205212520FEF794FE8C
:103740002520FEF77DFE01E18849206888427ED170
:1037500000BF002000907F48001F006840F48020D8
:103760007C49091F08600846006800F4802000902A
:1037700000BF00BF00BF00200090764814380068EA
:1037800040F004007349143908600846006800F0EE
:103790000400009000BF00BF4FF440600190022081
:1037A000029000200390032004900720059001A9B7
:1037B0006F48FEF79BFC6F486F4908604FF0006050
:1037C000486040216C4881600021C1604FF48061F5
:1037D00001610021416181614FF48071C16100216B
:1037E00001624162FEF7C2FB08B1FDF7B8FC00BF01
:1037F0006148A063846300BF5E4830385F49086059
:103800004FF00060486000215C488160C1604FF467
:10381000806101610021416181614FF48071C1616A
:10382000002101624162FEF7A1FB08B1FDF797FCA0
:1038300000BF5248E063846300BF002205212720B7
:10384000FEF712FE2720FEF7FBFD7FE0FFE74C4965
:10385000206888427AD100BF002000903D4800686F
:1038600040F020003B4908600846006800F0200056
:10387000009000BF00BF00BF002000903548143802
:10388000006840F040003349143908600846006879
:1038900000F04000009000BF00BF4FF48440019052
:1038A000022002900020039003200490082005903D
:1038B00001A93448FEF71AFC2948903832490860BB
:1038C00080054860002130488160C1604FF480610C
:1038D00001610021416181614FF48071C16100216A
:1038E00001624162FEF742FB08B1FDF738FC00BF00
:1038F0002548E063846300BF1948183823490860ED
:103900004FF0206048604021204881600021C16064
:103910004FF4806101610021416181614FF4807148
:10392000C161002101624162FEF720FB08B1FDF791
:1039300016FC00BF1548A063846300BF0022052168
:103940004720FEF791FD4720FEF77AFD06B010BD37
:1039500000100140443802400004024000000240D0
:10396000B864024098040020F80400200048004099
:10397000000802405860024058050020B8050020A9
:1039800000140140001802401806002078060020AC
:1039900070477047704700BFFEE700000FB4009902
:1039A000A1F201209DF81D109DF81C2041EA022182
:1039B0003A4A02EB401211809DF81F209DF81E101C
:1039C00042EA012109B2354A02EB401251809DF8CA
:1039D00021209DF8201042EA012109B22F4A02EB72
:1039E000401291809DF822102C4A02EB40129171F6
:1039F0002A4901EB40110988284A02EB40129289BA
:103A0000891A274A91420ADA244901EB4011898A2E
:103A1000491C09B2214A02EB4012918215E01F496C
:103A200001EB401189891D4A02EB40121288891A64
:103A30001B4A914209DA194901EB4011898A491E52
:103A400009B2164A02EB40129182144901EB40116F
:103A50000988124A02EB4012928A4FF4005313FB7A
:103A600002110E4A02EB401211610C4901EB4011A8
:103A700009880A4A02EB40129181084901EB401182
:103A8000498B491C054A02EB401251830121034A2C
:103A900002EB4012117604B0704700005844002039
:103AA00090E8FFFF30B5039C050A257060700D0A91
:103AB000A570E170150A257162711D0AA571E37187
:103AC00030BD000010B50E480E4908600320486064
:103AD00000210C488160C1604FF4102101614FF456
:103AE000001141610021017641768176C17601772E
:103AF00001214177FDF772FE08B1FDF730FB10BDE3
:103B0000006400405003002010B50F480F490860C2
:103B10000320486000210D488160C1604FF41021EE
:103B200001614FF4001141610021017641768176F7
:103B30000121C1760021017701214177FDF74EFE79
:103B400008B1FDF70CFB10BD0068004078030020B1
:103B500008B500BF002000902648006840F48000AF
:103B6000244908600846006800F48000009000BF07
:103B700000BF00BF002000900846006840F400101D
:103B800008600846006800F40010009000BF00BF05
:103B9000002205210C20FEF767FC0C20FEF750FCEC
:103BA000002205210E20FEF75FFC0E20FEF748FCE8
:103BB000002205213920FEF757FC3920FEF740FC92
:103BC000002205213A20FEF74FFC3A20FEF738FC90
:103BD000002205214520FEF747FC4520FEF730FC7A
:103BE000002205214620FEF73FFC4620FEF728FC78
:103BF00008BD00003038024000B5B9B000222421D1
:103C0000102002F0C1F83849086000222421102059
:103C100002F0BAF83549086000222421202002F081
:103C2000B3F8334908601C22324932A8FCF738FC4B
:103C3000002132A801F0C5F82F4908601C222D4947
:103C40001C312BA8FCF72CFC00212BA801F0B9F8A3
:103C50002A4908601C222749383124A8FCF720FC97
:103C6000002124A801F0ADF8254908601C22214953
:103C700054311DA8FCF714FC00211DA801F0A1F887
:103C8000204908601C221B49703116A8FCF708FC6B
:103C9000002116A801F095F81B4908601C2215495F
:103CA0008C310FA8FCF7FCFB00210FA801F089F86C
:103CB000164908601C220F49A83108A8FCF7F0FB40
:103CC000002108A801F07DF8114908601C2209496B
:103CD000C43101A8FCF7E4FB002101A801F071F850
:103CE0000C49086039B000BD00000020040000202D
:103CF00008000020AC6A00082400002028000020F2
:103D00000C000020100000201400002018000020EB
:103D10001C0000202000002000B587B0142102A85C
:103D2000FCF7F0FB00BF002001903548006840F030
:103D30000200334908600846006800F00200019064
:103D400000BF00BF00BF002001900846006840F09F
:103D5000400008600846006800F04000019000BF85
:103D600000BF00BF002001900846006840F001003D
:103D700008600846006800F00100019000BF00BF25
:103D800000BF002001900846006840F0080008606D
:103D90000846006800F00800019000BF00BF00BFA7
:103DA000002001900846006840F0040008600846C2
:103DB000006800F00400019000BF00BF00BF0020B9
:103DC00001900846006840F08000086008460068DE
:103DD00000F08000019000BF00BF002209150948D3
:103DE000FEF77EFA4FF480600290012003900020DD
:103DF0000490059002A90348FEF778F907B000BDCA
:103E000030380240001C024010B50A480A490860D8
:103E1000002048607F2108488160FF21C1600021A7
:103E2000016141618161FEF7F1FF08B1FDF797F98A
:103E300010BD000000280040A003002010B50B4872
:103E40000B4908604FF4E130486000210848816068
:103E5000C16001610C21416100218161C161FFF7F5
:103E600091FB08B1FDF77BF910BD00000010014087
:103E7000C003002010B50C480C4908600C4848608D
:103E80004FF48051094881604900C160C910016147
:103E90000C21416100218161C161FFF773FB08B111
:103EA000FDF75DF910BD0000004800400804002047
:103EB000A086010010B50B480B4908604FF4E130B3
:103EC0004860002108488160C16001610C214161A6
:103ED00000218161C161FFF755FB08B1FDF73FF992
:103EE00010BD0000001401405004002000BFFEE798
:103EF00000BFFEE710B52DED028B0446B0EE408A00
:103F0000F0EE608A84ED008AC4ED018A94ED000A27
:103F1000D4ED010A30EE600A84ED020A94ED020A43
:103F2000D4ED030A30EE600A84ED040A94ED000A31
:103F3000D4ED050A30EE600A84ED060A94ED080A15
:103F4000D4ED020A20EE200A84ED0C0A94ED0D0A4D
:103F5000D4ED090A94ED021A00EE810A84ED0D0AEF
:103F600094ED020AD4ED030A30EE600AD4ED0A0A99
:103F700020EE200A84ED0E0A94ED0B0AD4ED060A19
:103F800020EE200A84ED0F0AD4ED130AB0EE600A89
:103F900004F1340000F052FE94ED0C0AD4ED0D0A49
:103FA00030EE200AD4ED0E0A30EE200AD4ED0F0ACE
:103FB00030EE200A84ED100AD4ED110AB0EE600A4A
:103FC00004F1400000F03AFE94ED020A84ED030A89
:103FD00094ED000A84ED050A94ED100ABDEC028B05
:103FE00010BD000080ED080AC0ED090A80ED0A1A34
:103FF000C0ED0B1A80ED112AC0ED122A80ED133AA4
:10400000DFED123AC0ED0C3ADFED103AC0ED0E3A9A
:10401000DFED0E3AC0ED0D3ADFED0C3AC0ED023A9D
:10402000DFED0A3AC0ED033ADFED083AC0ED043A9D
:10403000DFED063AC0ED103ADFED043AC0ED013A8B
:10404000DFED023AC0ED003A7047000000000000CA
:1040500070B50446002600252068C06800F04000C6
:10406000C8B92068C06840F080002168C860FEF7C9
:104070003DF9064608E0FEF739F9801BB0F57A7F76
:1040800002D90420607701252068C06800F0400054
:1040900008B9012DEFD1284670BD70B50446002542
:1040A0002068C06820F080002168C86020688068AF
:1040B00000F0200030B92046FEF720FF10B10420A8
:1040C00060770125284670BD08B502F0C3F900905D
:1040D00000BF00BF00F034F80521684601F0E8FB9E
:1040E000F8E700001FB502F0B5F9039000BF00BF6C
:1040F000002001900290FCF743FC01A80D4C0090B9
:10410000B4F97630B4F95620B4F93610B4F9160083
:10411000FFF7C8FC01A84FF4007300220649009085
:1041200006480068FCF752FB022103A801F0C0FB1F
:10413000DEE7000058440020500300200800002063
:1041400010B58748007801287ED100208449087086
:10415000844800780F28F7D18248007E0028F3D1E8
:10416000804840787F49897801F0070140EA0120C2
:104170007D4948807B488078C0087A49C97801F039
:104180003F0140EA4110784988807648C07880092C
:104190007449097940EA81007249497901F00101C5
:1041A00040EA81207049C8806E48407940086D49D6
:1041B000897901F00F0140EAC1106B490881694813
:1041C000807900096749C97901F07F0140EA01104F
:1041D000654948816348C079C0096249097A40EA63
:1041E00041006049497A01F0030140EA41205E49FB
:1041F00088815C48407A80085A49897A01F01F0119
:1042000040EA81105849C8815648807A400955498A
:10421000C97A40EAC100544908825248007B51499A
:10422000497B01F0070140EA01204F4948824D488F
:10423000407BC0084B49897B01F03F0140EA4110B7
:1042400049498882474800E087E0807B80094549EA
:10425000C97B40EA81004349097C01F0010140EA41
:1042600081204149C8823F48007C40083D49497C43
:1042700001F00F0140EAC1103B4908833948407CF6
:1042800000093849897C01F07F0140EA0110364974
:1042900048833448807CC0093249C97C40EA4100E7
:1042A0003049097D01F0030140EA41202E4988830D
:1042B0002C48007D80082B49497D01F01F0140EA10
:1042C00081102949C8832748407D40092549897DB7
:1042D00040EAC1002449088408464088A0F580606F
:1042E00000B22249088020488088A0F5806000B292
:1042F00048801D48C088A0F5806000B288801A48B8
:104300000089A0F5806000B2C8801749498908B2C9
:1043100000F0DAFC154908811349898908B200F0D8
:10432000D3FC124948811049C98908B200F0BEFC8B
:104330000E4988810C49098A08B200F0B7FC0B4984
:10434000C8810948408AA0F5806000B2088206480A
:10435000808AA0F5806000B24882FCF7A9F910BD00
:10436000A800002010450020D8440020FC44002074
:1043700010B5192202490348FEF72DFF10BD0000B9
:10438000294500200804002000BF012000F008FD9E
:10439000FBE7000010B500BF502080F31188BFF389
:1043A0004F8FBFF36F8F00BF02F05AF818B14FF074
:1043B00080500449086000BF002080F3118800BFCE
:1043C00010BD000004ED00E000B593B0302107A857
:1043D000FCF798F8142102A8FCF794F800BF00201D
:1043E00001902548006840F0805023490860084645
:1043F000006800F08050019000BF00BF00BF0020A7
:1044000001901E48006840F480401C49086008463E
:10441000006800F48040019000BF00BF09200790B1
:104420004FF48030089001200C9002200D9041053F
:104430000E9106210F91A8211091022111910421C2
:10444000129107A8FEF794FA08B1FCF788FE0F2036
:10445000029002200390002004904FF4A050059099
:104460004FF480500690052102A8FEF71FF908B10D
:10447000FCF775FE13B000BD4038024000700040EC
:104480000348006840F4700001490860704700006C
:1044900088ED00E010B50248FEF7D7FD10BD000022
:1044A000D806002010B502682B4B98420ED0B0F110
:1044B000804F0BD0294B984208D0294B984205D009
:1044C000284B984202D0284B984203D122F0700228
:1044D0004B681A43204B984220D0B0F1804F1DD03A
:1044E0001E4B98421AD01E4B984217D01D4B984233
:1044F00014D01D4B984211D01C4B98420ED01C4B2F
:1045000098420BD01B4B984208D01B4B984205D0C9
:104510001A4B984202D01A4B984203D122F44072AF
:10452000CB681A4322F080034C6943EA04028B688B
:10453000C3620B688362084B984202D00A4B9842D0
:1045400001D10B690363036843F004030360012393
:104550004361026010BD0000000001400004004003
:1045600000080040000C00400004014000400140F1
:10457000004401400048014000180040001C004079
:104580000020004070B50446A56B0020E885284651
:10459000FEF772FE70BD70B506460025B46B20684C
:1045A0004069C0F3C01594F84100212805D125B118
:1045B0000020E084204600F0C8F820684069C0F37D
:1045C000801594F84200222805D125B10020E0850D
:1045D000204600F074F8606C40F0100060642046E3
:1045E000FEF74AFE70BD70B50546AC6B28680068E2
:1045F00000F48070002842D1E08500BF00BF216830
:104600000C3151E8001F21F4807021680C3141E821
:104610000002002AF3D100BF00BF00BF216814319F
:1046200051E8001F21F001002168143141E8000227
:10463000002AF3D100BF00BF00BF2168143151E848
:10464000001F21F040002168143141E80002002AD7
:10465000F3D100BF202084F84200206B01280ED146
:1046600000BF00BF21680C3151E8001F21F010008D
:1046700021680C3141E80002002AF3D100BF00207C
:104680006063206B012804D1A18D2046FEF7DCFD7C
:1046900002E02046FFF77CF970BD70B50546AC6BB3
:1046A00001206063206B012805D1A08D41082046C0
:1046B000FEF7CAFD02E02046FFF76BF970BD00BFB0
:1046C00000BF02680C3252E8002F22F49071026899
:1046D0000C3242E80013002BF3D100BF00BF00BF33
:1046E0000268143252E8002F22F0010102681432ED
:1046F00042E80013002BF3D100BF016B01290ED15A
:1047000000BF00BF02680C3252E8002F22F01001F7
:1047100002680C3242E80013002BF3D100BF2021C5
:1047200080F8421000210163704710B504462068EC
:10473000C06820F040002168C860202084F8410053
:104740002046FFF727F9002010BD00BF00BF026818
:104750000C3252E8002F22F0C00102680C3242E80D
:104760000013002BF3D100BF202180F841107047C7
:10477000F8B504460025002694F84200222873D19B
:10478000A068B0F5805F0BD1206948B9A66A20689F
:104790004068C0F308003080A06A801CA06214E06A
:1047A000A56AA068B0F5805F03D0A06828B9206929
:1047B00018B920684068287004E02068406800F05C
:1047C0007F002870A06A401CA062E08D401E80B26D
:1047D000E085002846D12068C06820F020002168CC
:1047E000C8602068C06820F480702168C8602068B4
:1047F000406920F0010021684861202084F84200CF
:1048000000206063206B012826D10020206300BFB8
:1048100000BF21680C3151E8001F21F01000216811
:104820000C3141E80002002AF3D100BF2068006883
:1048300000F0100010280AD100BF0020009020686E
:104840000068009020684068009000BF00BFA18D04
:104850002046FEF7F9FC02E02046FFF799F8002019
:10486000F8BD01E00020FBE70220F9E72DE9F84F51
:1048700004462068006920F44050E168084321683C
:1048800008612169A068084361690843E169084338
:1048900000902068C06849F20C6188430099084381
:1048A0002168C8602068406920F44070A16908430D
:1048B0002168486176492068884203D0754920689C
:1048C000884203D1FDF7ECFF814602E0FDF7D8FFF7
:1048D0008146E069B0F5004F6CD102206168A0FB11
:1048E000015003461920A9FB007001462A463846AC
:1048F000FBF71AFD6421B0FBF1F04FEA001A022029
:104900006168A0FB01510B461920A9FB00712A46E2
:104910003846FBF709FD834602206168A0FB015081
:1049200003461920A9FB00712A463846FBF7FCFC18
:104930006421B0FBF1F000EBC00101EB0010ABEB28
:104940008000322101EBC0006421B0FBF1F000F0E7
:10495000F8000AEB400A02206168A0FB0150034600
:104960001920A9FB007001462A463846FBF7DCFCFB
:10497000834602206168A0FB015003461920A9FB71
:1049800000712A463846FBF7CFFC6421B0FBF1F0FA
:1049900000EBC00101EB0010ABEB8000322101EB1A
:1049A000C0006421B0FBF1F000F007005044216822
:1049B00088606AE004206168A0FB0150034619206A
:1049C000A9FB007001462A463846FBF7ADFC82463B
:1049D00004206168A0FB015003461920A9FB007068
:1049E00001462A463846FBF79FFC6421B0FBF1F0F4
:1049F00000EBC00101EB0010AAEB8000322101EBBB
:104A000000106421B0FBF1F000F0F00A04206168AE
:104A1000A0FB017003461920A9FB00513A46284625
:104A2000FBF782FC6421B0FBF1F00AEB001A0420D2
:104A30006168A0FB01510B461920A9FB00712A46B1
:104A40003846FBF771FC834604206168A0FB0150E7
:104A500003461920A9FB007001462A463846FBF799
:104A600063FC6421B0FBF1F000EBC00101EB00102E
:104A7000ABEB8000322101EB00106421B0FBF1F0C0
:104A800000F00F00504421688860BDE8F88F0000F6
:104A9000001001400014014077B581B0044615466E
:104AA0000298A062A58500206064222084F842005C
:104AB0002C48E16BC8632C48E16B08642B48E16B20
:104AC000C8640020E16B086502AE32682368191DD6
:104AD0002B46E06BFDF7C0FA38B11020606420204F
:104AE00084F84200012004B070BD00BF0020009097
:104AF00020680068009020684068009000BF00BFF8
:104B0000206970B100BF00BF21680C3151E8001F5F
:104B100041F4807021680C3141E80002002AF3D191
:104B200000BF00BF00BF2168143151E8001F41F0F1
:104B300001002168143141E80002002AF3D100BFCE
:104B400000BF00BF2168143151E8001F41F0400050
:104B50002168143141E80002002AF3D100BF00208F
:104B6000C1E70000E74500089B460008974500089C
:104B7000014691F84100212828D18868B0F5805F6E
:104B80000BD1086948B90A6A1088C0F308000B689D
:104B90005860086A801C086205E00B6A581C0862AD
:104BA00018780B685860C88C401E80B2C88458B909
:104BB0000868C06820F080000B68D8600868C0688A
:104BC00040F040000B68D860002070470220FCE7EE
:104BD00010B50248FEF752FB10BD0000C0030020D4
:104BE00010B50248FEF74AFB10BD00000804002083
:104BF00010B50248FEF742FB10BD00005004002033
:104C000000BFFEE702480068C0F3022070470000C2
:104C10000CED00E010B5002804DB0A07130E054A6E
:104C2000135406E00A07140E034A00F00F031B1F7B
:104C3000D45410BD00E400E018ED00E0D0ED000A0F
:104C4000F4EEC00AF1EE10FA01DD80ED000AD0EDBD
:104C5000000AB1EE401AF4EEC10AF1EE10FA03D2E6
:104C6000F1EE400AC0ED000A7047FDF751FBFFF777
:104C7000ABFBFFF751F8FEF76BFFFEF723FFFEF7E4
:104C800043FFFFF7DBF8FFF7F5F8FFF713F9FFF73E
:104C9000BBF8FEF7B1FF00F08FF800BFFEE701465A
:104CA0000020842901D0CA1C104470470146B1F588
:104CB000CA7F01DA0120704740F26D60814201DB5A
:104CC0000220F8E70020F6E70146B1F5CA7F01DAD5
:104CD0000120704740F26D60814201DB0320F8E75C
:104CE00040F2CE30814205DB40F23240814201DCAD
:104CF0000220EEE70020ECE708B101B102B97047ED
:104D000091ED001A91ED010AD1ED020AD0ED001AE1
:104D100090ED012A71EEC21A30EE202AD0ED022A5F
:104D200042EE621A81EE812A82ED002AD0ED001A4D
:104D300090ED012A71EE821A30EE202AD0ED022A7F
:104D400042EE621A81EE812A82ED012AD0ED001A2C
:104D500090ED012A71EEC21A30EE202AD0ED022A1F
:104D600042EE221A81EE812A82ED022AD0ED001A4B
:104D700090ED012A71EE821A30EE202AD0ED022A3F
:104D800042EE221A81EE812A82ED032A00BFB6E7A5
:104D900028B180ED000AC0ED010A80ED021A7047CB
:104DA00070B5044625460DB1294600E001210846AC
:104DB00000F050FD002070BD10B500F08BFE00200B
:104DC00010BD7FB504460D46606998B1A06988B1F1
:104DD000B4F90800FFF763FF0646D4E90510CDE9F2
:104DE000006102902B462269D4E9001001F0C4FA58
:104DF000039013E0B4F90800FFF751FF064603A83B
:104E0000CDE90060238A9AB22B46D4E9001001F064
:104E100081FA012802D0002004B070BD0398FBE79E
:104E20002DE9F04105460E461C4807681C480068FD
:104E3000001D00F0CFFB50B91948006890F82C1005
:104E40000120884017490968814316480160681CA1
:104E500038B936B112480168091D134800F004FC46
:104E60001AE07C190E4800684460BC4207D20C4826
:104E70000168091D0D48006800F0DCFB0CE00848E3
:104E80000168091D0A48006800F0D4FB0948006861
:104E9000844201D207480460BDE8F081540000203C
:104EA0004000002058000020FC070020480000209F
:104EB000440000207000002010B5044600F0E0FB24
:104EC00023480068401C224908602248006840B915
:104ED000204804600846006801280DD100F0A6F9BA
:104EE0000AE01D48006838B91A480068C06AE16ADB
:104EF000884201D81748046018480068401C1749C8
:104F0000086094F82C10012088401549096808436E
:104F100013490860E16A01EB8101124A02EB81004A
:104F2000211D00F0A1FB00F0D5FB0B48006868B123
:104F300008480068C06AE16A884207D24FF0805092
:104F400009490860BFF34F8FBFF36F8F10BD00009A
:104F500050000020400000205C0000206C00002079
:104F6000580000202007002004ED00E010B516E0F6
:104F700000F086FB0C48C068C468201D00F02AFBC6
:104F80000A480068401E0949086009480068401E38
:104F90000749086000F09EFB204600F05FF80448D7
:104FA00000680028E4D110BDE80700205000002070
:104FB0004C00002070B504460D46206C70B1216C89
:104FC000E0680144E160D4E90210884201D321681D
:104FD000E1602846226CE168FBF71DFA70BD2DE9FF
:104FE000F04104460F4615464FF00008A66B206CB2
:104FF00048B9206800282CD1A06801F0D5FA804675
:105000000020A06025E07DB93946226C6068FBF77E
:1050100002FA216C606808446060D4E901018842AA
:1050200017D32068606014E03946226CE068FBF713
:10503000F2F9216CE068411AE1602168E068884279
:1050400003D2216CA068411AE160022D01D106B1A2
:10505000761E701CA0634046BDE8F08110B5044682
:1050600094F8510030B9206B00F052FB204600F05C
:105070004FFB1AE094F85100012803D1204600F0BC
:1050800047FB12E094F85100022801D1012000E012
:10509000002050B900BF502080F31188BFF34F8F1C
:1050A000BFF36F8F00BF00BFFEE710BD30B54FF4F8
:1050B0007053174800F007042CB1C01D20F0070002
:1050C000134C041B1B1B0246124C22600024114D82
:1050D0006C60D018083820F007000F4C20600024C6
:1050E0000D4D2D686C600C4D2D682C601146441AD6
:1050F0004C60094C24680C60084D4C682C60084DCD
:105100004C682C604FF00044064D2C6030BD000010
:10511000100800207C000020840000208C0000206B
:10512000880000209800002000BFFFF71FFF0648FE
:1051300000680128F9D94FF0805004490860BFF396
:105140004F8FBFF36F8FF0E72007002004ED00E0E2
:105150002DE9F04106460D4617469846069C0DB9C6
:10516000246000E02760E66325640121204600F00A
:1051700039FEBDE8F0812DE9FF5F81460E4692467B
:10518000DDE90E7B109CAAF10100216B01EB800888
:1051900028F0070808F0070008B9012000E0002007
:1051A00050B900BF502080F31188BFF34F8FBFF379
:1051B0006F8F00BF00BFFEE786B1002507E0715D7D
:1051C00004F134004155705D00B902E06D1C102DF2
:1051D000F5D300BF00214320015502E0002084F8F0
:1051E0003400072F00D30627E76267640020A0641D
:1051F000201D00F01CFA04F1180000F018FA2461D8
:10520000C7F10700A06164620020E06484F85000E8
:1052100049464046039A00F0ADF92060BBF1000F0B
:1052200001D0CBF80040BDE8FF9F000010B500247E
:1052300007E004EB84010F4A02EB810000F0EAF979
:10524000641C072CF5D30C4800F0E4F90B4800F07F
:10525000E1F90B4800F0DEF90A4800F0DBF90A48F2
:1052600000F0D8F904480949086004480849086072
:1052700010BD000020070020AC070020C007002060
:10528000D4070020E8070020FC070020440000208D
:105290004800002010B50146164800E00068036889
:1052A0008B42FBD30246436813448B4204D14368CC
:1052B0004C682344436001460A464B681344046823
:1052C000A34211D10C4C03682468A34208D04B6858
:1052D0000468646823444B6003681B680B6005E046
:1052E000054B1B680B6001E003680B60884200D02F
:1052F000016010BD7C0000208400002070B50546D0
:1053000000F0BEF9A86B08B9012400E0002400F009
:10531000E1F9204670BD70B5054600F0B1F9A86B03
:10532000E96B884201D1012400E0002400F0D2F9A9
:10533000204670BD0A490968096809B9012100E0E1
:10534000002121B14FF0FF31064A116006E0044907
:105350000968C968C868034A41681160704700005D
:1053600044000020700000200E480068401C08B96E
:10537000012000E0002050B900BF502080F31188C8
:10538000BFF34F8FBFF36F8F00BF00BFFEE700BFBB
:10539000502080F31188BFF34F8FBFF36F8F00BF92
:1053A00000BFFEE79C00002070B5044600F068F9DD
:1053B00094F9455010E0606A08B9012000E000202F
:1053C00038B904F1240001F053F918B100F060FB82
:1053D00000E003E0681E45B2002DECDC00BFFF20BA
:1053E00084F8450000F076F900F04AF994F9445049
:1053F00010E0206908B9012000E0002048B904F15C
:10540000100001F035F908B100F042FB681E45B20A
:1054100000E001E0002DECDC00BFFF2084F8440038
:1054200000F058F970BD00002DE9F04104464FF03E
:10543000000800F0A7FB4948006808B9FFF736FEEE
:10544000474800682040002870D1D4B1083404F0E7
:105450000700B0B104F00700C0F10800044404F0F4
:10546000070008B9012000E0002050B900BF50201B
:1054700080F31188BFF34F8FBFF36F8F00BF00BF62
:10548000FEE7002C52D03748006884424ED8364E92
:105490003046056801E02E462D686868A04202D2B9
:1054A00028680028F7D12D48006885423ED0306832
:1054B00000F10808286830606868001B102819D9B6
:1054C0002F1907F0070008B9012000E0002050B9AB
:1054D00000BF502080F31188BFF34F8FBFF36F8F51
:1054E00000BF00BFFEE76868001B78606C6038464C
:1054F000FFF7D0FE1B4968680968081A1949086057
:105500000846006819490968884203D215480068AE
:1055100016490860124968680968084368600020F5
:10552000286013480068401C1149086001F0ECF83D
:1055300008F0070008B9012000E0002050B900BFC2
:10554000502080F31188BFF34F8FBFF36F8F00BFE0
:1055500000BFFEE74046BDE8F08100008400002067
:1055600098000020880000207C0000208C00002093
:1055700090000020001F4FF080730360001F21F097
:1055800001030360001F054B036014380260001F15
:105590006FF0020303602038704700006953000871
:1055A000B0EE401A30EEC10AF0EE401AB0EE412AD9
:1055B00000EE100AB8EEC00A60EE212A01228A40ED
:1055C000521E00EE102AB8EEC03A82EE830A30EE88
:1055D000020A704701460A69D1E901309860D1E9B1
:1055E000010358605068884201D1886850600020EB
:1055F00008611068401E106010687047034B03601C
:10560000034B0B608023136070470000FC000020F8
:105610005001002000F1080141604FF0FF3181602E
:1056200000F10801C16001610021016070470021A3
:105630000161704710B502460B685C1C0CB910691B
:1056400007E002F1080000E04068446824689C42DA
:10565000FAD944684C604C68A160886041600A6176
:105660001468641C146010BD42684A6093688B60C3
:10567000936859609160086103685B1C0360704720
:1056800000BF502080F31188BFF34F8FBFF36F8F9F
:1056900000BF0E480068401C0C49086008460068BE
:1056A000012812D10A480068C0B208B9012000E000
:1056B000002050B900BF502080F31188BFF34F8FF6
:1056C000BFF36F8F00BF00BFFEE770479C00002054
:1056D00004ED00E00D48006850B900BF502080F391
:1056E0001188BFF34F8FBFF36F8F00BF00BFFEE77E
:1056F00006480068401E054908600846006820B951
:10570000002080F3118800BF00BF70479C0000207C
:1057100070B506463546002E44D0083D2C46224939
:1057200060680968084008B1012000E0002050B915
:1057300000BF502080F31188BFF34F8FBFF36F8FEE
:1057400000BF00BFFEE7206808B9012000E000208C
:1057500050B900BF502080F31188BFF34F8FBFF3C3
:105760006F8F00BF00BFFEE70F49606809680840FF
:10577000C0B12068B0B90C496068096888436060AE
:1057800000F000FA094960680968084407490860A0
:105790002046FFF77FFD06480068401C044908606A
:1057A00000F0B2FF70BD00009800002088000020CB
:1057B0009400002000204FF0E02108618861064835
:1057C00000684FF47A71B0FBF1F0401E4FF0E02119
:1057D00048610720086170473C00002070B5FAF767
:1057E0007FFD0446102C16D304F1E02090F8F0530E
:1057F00015480078854201DB012000E0002050B907
:1058000000BF502080F31188BFF34F8FBFF36F8F1D
:1058100000BF00BFFEE70D48006800F4E0600C49DF
:105820000968884201D8012000E0002050B900BF7B
:10583000502080F31188BFF34F8FBFF36F8F00BFED
:1058400000BFFEE770BD0000A00000200CED00E0EE
:10585000A400002070B504460025D4B112480068A9
:1058600008B9012000E0002050B900BF502080F3AB
:105870001188BFF34F8FBFF36F8F00BF00BFFEE7EC
:1058800000F080F900212046FFF7CAFA00F03CFF43
:1058900005463DB94FF0805004490860BFF34F8F73
:1058A000BFF36F8F70BD00007800002004ED00E0B2
:1058B0002DE9F04704460F464FF0000954B900BFE8
:1058C000502080F31188BFF34F8FBFF36F8F00BF5D
:1058D00000BFFEE70FB1012000E0002050B900BF7B
:1058E000502080F31188BFF34F8FBFF36F8F00BF3D
:1058F00000BFFEE72048006808B9012000E0002052
:1059000050B900BF502080F31188BFF34F8FBFF311
:105910006F8F00BF00BFFEE700F034F9174806683C
:105920002068C5192068B04207D92068A8420BD961
:10593000B54209D94FF0010906E02068A84201D814
:10594000B54201D94FF001092560B9F1000F03D02C
:10595000A81B0021FFF764FA00F0D6FE8046B8F1DC
:10596000000F07D14FF0805005490860BFF34F8FFB
:10597000BFF36F8FBDE8F08778000020540000204F
:1059800004ED00E070B50546FFF77AFE15B9304822
:10599000006800E028460446201DFFF71BFE78B98A
:1059A000E06A00EB80002B4951F8200040B994F8E0
:1059B0002C1001208840284909688143264801604D
:1059C000A06A18B104F11800FFF704FE234800682C
:1059D000401C224908601E480068844209D1211DEC
:1059E0001F48FFF741FE1F480068401C1D49086022
:1059F00009E01D480068401E1B4908602046FFF76B
:105A00002DFBFFF797FCFFF765FE18480068E8B12B
:105A10000F480068844219D11548006808B9012070
:105A200000E0002050B900BF502080F31188BFF380
:105A30004F8FBFF36F8F00BF00BFFEE74FF0805066
:105A40000C490860BFF34F8FBFF36F8F70BD00002C
:105A50004000002020070020580000206C0000209B
:105A6000E80700204C000020500000205C000020CF
:105A70007800002004ED00E0034909680160034953
:105A80000968416070470000680000205400002051
:105A900001200149086070476400002070B5044689
:105AA0000D4654B900BF502080F31188BFF34F8FCB
:105AB000BFF36F8F00BF00BFFEE7054801681831D4
:105AC0002046FFF7B7FD01212846FFF7A9F970BD71
:105AD0004000002010B586B000200590049003AA75
