:020000040800F2
:10000000784F0020E9020008AD3F00088B38000857
:10001000A93F0008A1070008B94E00080000000031
:10002000000000000000000000000000290200089D
:10003000C50F000800000000850200084D460008BA
:100040000303000803030008030300080303000878
:100050000303000803030008030300080303000868
:100060000303000803030008030300080303000858
:10007000350B000803030008450B000803030008C4
:10008000030300080303000803030008B507000882
:10009000A507000803030008030300080303000882
:1000A000030300084D47000803030008030300088A
:1000B0000303000803030008030300080303000808
:1000C00003030008030300080303000803030008F8
:1000D00003030008894E000803030008994E000836
:1000E00003030008030300080303000803030008D8
:1000F00003030008030300080303000803030008C8
:1001000003030008030300080303000803030008B7
:1001100003030008030300080303000803030008A7
:1001200003030008550B0008650B000803030008D3
:10013000030300080303000803030008D5070008B1
:10014000C5070008030300080303000803030008B1
:1001500003030008750B0008850B0008A94E000872
:100160000303000803030008030300080303000857
:100170000303000803030008030300080000000055
:10018000030300080303000800F002F800F03CF845
:100190000AA090E8000C82448344AAF10107DA45E2
:1001A00001D100F031F8AFF2090EBAE80F0013F0F8
:1001B000010F18BFFB1A43F001031847B084000079
:1001C000D0840000103A24BF78C878C1FAD852070A
:1001D00024BF30C830C144BF04680C6070470000C1
:1001E0000023002400250026103A28BF78C1FBD840
:1001F000520728BF30C148BF0B6070471FB508F0D9
:10020000D2F81FBD10B510BD00F0BAF91146FFF7C6
:10021000F5FF05F0CEFC00F0D8F903B4FFF7F2FFCC
:1002200003BC00F0DBF900002C4B19680868B0E84B
:10023000F04F80F30988BFF36F8F4FF0000080F319
:10024000118870470000000008480068006880F3CB
:1002500008884FF0000080F3148862B661B6BFF3DF
:100260004F8FBFF36F8F00DF00BF00BF08ED00E0CE
:10027000DFF80C00016841F470010160704700BFB5
:1002800088ED00E0EFF30980BFF36F8F134B1A681E
:100290001EF0100F08BF20ED108A20E9F04F10600B
:1002A00009B44FF0500080F31188BFF34F8FBFF3B4
:1002B0006F8F06F013FC4FF0000080F3118809BC2B
:1002C00019680868B0E8F04F1EF0100F08BFB0ECD6
:1002D000108A80F30988BFF36F8F704740000020B9
:1002E000EFF3058070470000094880470948004740
:1002F000FEE7FEE7FEE7FEE7FEE7FEE7FEE7FEE7D6
:10030000FEE7FEE704480549054A064B7047000032
:10031000394700088901000878490020784F0020FB
:10032000784B0020784B002053EA020C00F06980E3
:100330002DE9F04B4FF00006002B1FBFB3FA83F5F9
:1003400003FA05F424FA05F65E4012BF1643B2FA2A
:1003500082F502FA05F4C5F120051EBF22FA05FC5C
:1003600044EA0C04203556EA044C4FEA144418BF02
:10037000641C4FF000084FF00009904271EB030C31
:1003800039D3002919BFB1FA81F701FA07F6B0FA9B
:1003900080F700FA07F6C7F120071EBF20FA07FC16
:1003A00046EA0C062037B6FBF4FCA7EB0507103F26
:1003B00007F01F0BCBF120060CFA0BFB2CFA06F60C
:1003C00044BFB3460026202FA4BF5E464FF0000B6B
:1003D0005BEA060C08BF4FF0010B19EB0B09ABFBF6
:1003E000027C48EB0608C01B06FB02CC0BFB03CCCF
:1003F00071EB0C01C1E70B46024641464846BDE899
:10040000F08B13B54FF000004FF00001AFF3008008
:10041000BDE81C407047032A40F2308010F0030C06
:1004200000F0158011F8013BBCF1020F624498BF47
:1004300011F801CB00F8013B38BF11F8013BA2F1E4
:10044000040298BF00F801CB38BF00F8013B11F05F
:10045000030300F02580083AC0F0088051F8043BFF
:10046000083A51F804CBA0E80810F5E7121D5CBF6C
:1004700051F8043B40F8043BAFF30080D20724BF9F
:1004800011F8013B11F801CB48BF11F8012B24BF33
:1004900000F8013B00F801CB48BF00F8012B704782
:1004A00010B5203AC0F00B80B1E81850203AA0E80F
:1004B0001850B1E81850A0E81850BFF4F5AF5FEA43
:1004C000027C24BFB1E81850A0E8185044BF18C9F6
:1004D00018C0BDE810405FEA827C24BF51F8043B9D
:1004E00040F8043B08BF7047D20728BF31F8023BF1
:1004F00048BF11F8012B28BF20F8023B48BF00F885
:10050000012B70474FF0000200B513469446964603
:10051000203922BFA0E80C50A0E80C50B1F1200116
:10052000BFF4F7AF090728BFA0E80C5048BF0CC0C4
:100530005DF804EB890028BF40F8042B08BF704722
:1005400048BF20F8022B11F0804F18BF00F8012B94
:10055000704770477047704710B500F009F80068A1
:1005600010BD10B5044600F003F8046010BD000093
:10057000004870471849002000487047184900207B
:100580007546FFF7F9FFAE4605006946534620F071
:100590000700854618B020B5FFF7B4FEBDE820403F
:1005A0004FF000064FF000074FF000084FF0000B2F
:1005B00021F00701AC46ACE8C009ACE8C009ACE8E2
:1005C000C009ACE8C0098D46704710B50446AFF3CA
:1005D00000802046BDE81040FFF71FBE01491820EB
:1005E000ABBEFEE7260002007047000000BF05F02A
:1005F000EBFF012291020E4801F0D8FD01210D48C8
:1006000000F008F902210C4800F004F903F040F969
:1006100004F00AF800F0DAFC00F088F907480068F6
:1006200006F054F905F0FAFF012005F05DFBDEE766
:10063000001C02404C03002074030020280000200E
:100640008AB000BF4FF0FF3269460548006806F0E7
:10065000B9FD09AB07AA01A9009800F0FEFCF1E77B
:10066000080000200EB50020019002901748008875
:10067000000A8DF80400154800788DF8050013482D
:100680004088000A8DF80600104880788DF8070031
:100690000E488088000A8DF808000C4800798DF813
:1006A00009000A48C088000A8DF80A0007488079C6
:1006B0008DF80B0001A84FF4147300220449009038
:1006C0000448006800F0C0F80EBD0000B000002033
:1006D00074030020080000200FB49DF81D009DF851
:1006E0001C1040EA012000B2404201EE900AF8EEF0
:1006F000E11AB0EE610A9DF81F109DF81E0041EA54
:10070000002000B201EE900AF8EEE11AF0EE610A64
:100710009DF821109DF8200041EA002000B201EE72
:10072000900AF8EEE11AB0EE611A9DF823109DF8D8
:10073000220041EA0020404200B2144908811448D6
:1007400080ED000AC0ED010AFFEE001A61EE211AE9
:100750009FED102AC1EE822AC0ED022A0846007BD6
:1007600088B90D48D0ED011A0846B0F9080040429A
:1007700002EE100AB8EEC22ADFED082A42EE221A73
:100780000548C0ED011A04B070470000B4450020D0
:100790003448002000004843744800208FC2753D53
:1007A00000BFFEE710B5024800F057FE10BD000084
:1007B0004C03002010B5024800F04FFE10BD0000B1
:1007C0004C03002010B5024800F047FE10BD0000A9
:1007D0007403002010B5024800F03FFE10BD000079
:1007E0007403002070B504460D460020206160614E
:1007F0006062A0610120E0612062002020606060F2
:10080000A060E0602146284600F0CCFC08B100F072
:10081000DAFB70BD70B504460D46681EC6B206EB25
:10082000460101EB0611074A02EB81002146FFF762
:10083000D9FF204601F03FF90221204600F0F8FBE5
:1008400070BD0000DC4500202DE9F0418AB007466C
:100850000E4614461D46DDF8408001960CB90295FF
:1008600000E00395049400210591082106910021E0
:100870008DF81C10D8F800000890D8F804000990F2
:1008800000231A4601A9384606F04AFB0AB0BDE823
:10089000F08100008EB000BF4FF0FF3205A9144870
:1008A000006806F08FFC059C9DF8300000F00F00FA
:1008B00010490880B4F5007F0CD9B4F5017F09D840
:1008C000142209A96846FFF7EBFD05A80FC803F03D
:1008D000C3F8E1E7074800880128DDD1142209A9FF
:1008E0006846FFF7DDFD05A80FC800F005FAD3E75D
:1008F00000000020AA0000208EB000BF4FF0FF32A1
:1009000005A90948006806F05DFC059C40F20F103F
:100910008442F3D1142209A96846FFF7C1FD05A856
:100920000FC8FFF7D9FEE9E70400002010B59FEDDE
:10093000271ADFED270A9FED270A274805F0CCF993
:100940009FED263ADFED262A9FED262ADFED261AB7
:100950009FED251ADFED240AB3EE090A234803F0C0
:100960007FFC9FED1E3ADFED1E2A9FED1E2ADFED74
:100970001E1A9FED1D1ADFED1C0AB3EE090A1C4872
:1009800003F06EFC9FED153ADFED152A9FED152A59
:10099000DFED151A9FED141ADFED130AB3EE090A05
:1009A000144803F05DFC9FED0D3ADFED0D2A9FED3D
:1009B0000D2ADFED0D1A9FED0C1ADFED0B0AB3EED9
:1009C000090A0D4803F04CFC10BD0000B81E453E5E
:1009D000CDCC4C3E2DB29D3DBC4600200080BB4599
:1009E0000060EA460000804600000000E446002067
:1009F000384700208C470020E047002010B505F064
:100A0000A7F8424890ED030A414880ED000A3F48AC
:100A100090ED040AB1EE400A3D4880ED010A3B48E2
:100A200090ED050AB1EE400A394880ED020A394AD4
:100A3000394905F005F93948B0F9020001EE100A0C
:100A4000B8EEC11AF0EE410A324890ED001AB0EE4D
:100A5000410A334803F08CFBBDEEC00A10EE100AC9
:100A600000B22E49C8820846B0F9220001EE100AF1
:100A7000B8EEC11AF0EE410A264890ED011AB0EE28
:100A8000410A284803F074FBBDEEC00A10EE100ABC
:100A900001B22248C186B0F9420001EE100AB8EE58
:100AA000C11AF0EE410A1B4890ED021AB1EE411A4C
:100AB000B0EE410A1C4803F05BFBBDEEC00A10EE2D
:100AC000100A01B21548A0F85610B0F9620001EE04
:100AD000100AB8EEC11AF0EE410A0E4890ED031A62
:100AE000B1EE411AB0EE410A104803F041FBBDEEF1
:100AF000C00A10EE100A01B20848A0F876103C2097
:100B00000B49088048808880C88010BD3448002088
:100B1000C8460020D4460020BC4600204C4400209B
:100B2000E4460020384700208C470020E0470020A2
:100B3000B000002010B5024801F05EF810BD0000C2
:100B4000B405002010B5024801F056F810BD0000B1
:100B50005405002010B5024801F04EF810BD000009
:100B60001406002010B5024801F046F810BD000040
:100B7000F404002010B5024801F03EF810BD00005A
:100B80007406002010B5024801F036F810BD0000D0
:100B9000940400200146087810381823B0FBF3F2C3
:100BA0000848805CC865032A05D908686FF3090006
:100BB000001D886503E008686FF309008865886D8B
:100BC000704700009C840008014600208A6A8B69F7
:100BD000CBB932B1012A0DD0022A03D0032A10D199
:100BE0000EE000BFCB6A03F08073B3F1807F00D1C9
:100BF000012007E0CB6AB3F1C07F00D1012001E002
:100C000000E000BF34E08B69B3F5005F1AD132B168
:100C1000012A07D0022A03D0032A11D10AE000BF1B
:100C200001200EE0CB6A03F08073B3F1807F00D126
:100C3000012006E0CB6AB3F1C07F00D1012000E0C3
:100C400000BF15E032B1012A05D0022A04D0032AE0
:100C50000CD103E000BF00BF012008E0CB6A03F025
:100C60008073B3F1807F00D1012000E000BF00BF9E
:100C7000704730B50468246824F4802405682C602B
:100C8000046863608468402C04D10468A26004682E
:100C9000E16003E00468A1600468E26030BD000028
:100CA00030B58BB005460C460394002105910691A2
:100CB00008210791002102A80176FF208DF8240069
:100CC000FF2102A841778177C1778DF828108DF830
:100CD00029108DF82A10FC218DF82B1009A8234625
:100CE00000222946009003480068FFF7ADFD0BB0D5
:100CF00030BD0000080000200FB470B59DF82C0036
:100D000000F00F040498441E634800EB84108069CF
:100D1000614901EB841108629DF82C0000115E49C5
:100D200001EB8411088004A8817F407F41EA002004
:100D3000594901EB8411886104A8C07F01019DF825
:100D4000300041EA201000EE100AB8EEC00A524806
:100D500000EB841080ED070A9DF830009DF83110FB
:100D600000EE101AB8EEC00A4B4800EB841080ED7C
:100D7000040A494800EB84108069474901EB84115B
:100D8000096A451A15F5004F0ADA434800EB84104A
:100D9000008E401C00B2404901EB841108860CE033
:100DA000B5F5004F09DD3C4800EB8410008E401E75
:100DB00000B2394901EB84110886374901EB8411EF
:100DC00088691021DFED350A9FED350A05F08CFBAF
:100DD000314800EB841080ED010A2F4901EB8411AA
:100DE00091ED070ABDEEC00A10EE100A0C21DFEDEE
:100DF0002D0A9FED2D0A05F077FB274800EB8410A4
:100E000080ED020A244901EB841191ED040ABDEE44
:100E1000C00A10EE100A0C21F2EE040ABAEE040A1F
:100E200005F062FB1C4800EB841080ED050A9DF87C
:100E30003200194901EB841108739DF833001649FB
:100E400001EB84114873144800EB841090ED010A03
:100E5000114800EB8410B0F9300000EE900AF8EE73
:100E6000E00A9FED121A01EE200A0B4800EB8410F5
:100E700080ED0D0A084800EB8410808F401C064965
:100E800001EB841188870120034901EB841181F86B
:100E90003A0070BC5DF814FB0C440020DB0F4940A5
:100EA000DB0F49C000004843000048C3DB0FC940C6
:100EB00008B506F021FB009000BF00BF0948808FF5
:100EC00009490988884203D101210848FFF7E8FE53
:100ED0000448808F044908800121684605F08CFC95
:100EE000ECE700000C440020AC0000204C03002084
:100EF0002DE9F0472DED068BB0EE40AAB0EE608AEA
:100F0000F0EE418AB0EE619AF0EE429A044610206B
:100F10009FED261ADFED260AB0EE4A0A04F030FEF5
:100F200085B20C209FED231ADFED230AB0EE480AAC
:100F300004F026FE86B20C20B2EE041AFAEE040A81
:100F4000B0EE690A04F01CFE1FFA80F90C209FED38
:100F50001B1ADFED1B0AB0EE680A04F011FE87B21F
:100F60000C20B1EE041ADFED160AB0EE490A04F0C7
:100F700007FE1FFA80F8281220706570C6F307106C
:100F8000A0703007000E40EA2720E0702771C8F3F8
:100F9000071060714FEA0870000E40EA2920A07126
:100FA00084F80790BDEC068BBDE8F087DB0F494065
:100FB000DB0F49C000004843000048C30000FA436B
:100FC00000000000704772B600BFFEE710B5F2EEF9
:100FD000042A9FED0E2ADFED0E1A9FED0E1ADFEDAB
:100FE0000E0A9FED0E0A0E4803F0AEF8F2EE042A48
:100FF0009FED062ADFED061A9FED061ADFED060AC1
:101000009FED060A074803F09FF810BD00409C477B
:101010009A99993EBD370636CDCCCC3ECDCC4C3FCF
:1010200080480020CC48002010B503F047FF10BDD9
:1010300010B5024692F82030012B01D0022B06D1C8
:1010400010684069084314686061002010BD506A50
:1010500040F4802050620120F8E7F0B504460D46C8
:101060001E4694F8207020688368A86800B900E0E4
:1010700000BF012F01D0022F7DD103F0806030B975
:1010800003F0006018B903F0805000287ED0C3F34D
:101090000161012088403060A86860B9B5F800C0DF
:1010A000E86840EA4C5C206800F5C07000EB011075
:1010B000C0F800C00FE0D5E901C040EACC00D5F887
:1010C0000CC040EA0C00D4F800C00CF5C07C0CEB5E
:1010D000011CCCF80000D5F810C0206800F5C070E5
:1010E00000EB0110C0F804C0287D01280ED1206853
:1010F00000F5C07000EB0110406840F4807C20686F
:1011000000F5C07000EB0110C0F804C0D0790006F3
:1011100092F806C040EA0C4092F805C040EA0C2064
:1011200092F804C040EA0C00D4F800C00CF5C07C72
:101130000CEB011CCCF80C00D078000692F802C031
:1011400040EA0C4092F801C040EA0C2092F800C03E
:1011500040EA0C00D4F800C00CF5C07C0CEB011C7C
:10116000CCF80800206800F5C07000EB01100068A2
:1011700040F0010C01E00FE008E0206800F5C070CD
:1011800000EB0110C0F800C00020F0BD606A40F420
:10119000001060620120F8E7606A40F4802060621D
:1011A0000120F2E7F0B504460A4694F82050012DDC
:1011B00001D0022D7ED1424901F50071086840F04E
:1011C00001000860086820F47C5008600868566ACE
:1011D00040EA06200860107D00F01F06012000FA9A
:1011E00006F3C8699843C861A1F50071D069C8B910
:1011F000D1F80C029843C1F80C02908880B296890D
:1012000040EA064601F51070576940F837601088CB
:1012100080B2168940EA064601F51070576900EB66
:10122000C7004660D069012819D1D1F80C021843D3
:10123000C1F80C02908880B2168840EA064601F593
:101240001070576940F83760908980B2168940EA7B
:10125000064601F51070576900EBC70046609069BB
:1012600028B9D1F804029843C1F8040204E0D1F887
:1012700004021843C1F80402106928B9D1F8140215
:101280009843C1F8140204E0D1F814021843C1F8DD
:101290001402106A012804D1D1F81C021843C1F8C5
:1012A0001C02D1F8000220F00100C1F80002002069
:1012B000F0BDFFE7606A40F4802060620120F7E73C
:1012C00000640040704770B5044694F82050012D2A
:1012D00001D0022D7DD151B92068C06800F0030013
:1012E00080B9606A40F400106062012070BD20681F
:1012F000006900F0030028B9606A40F400106062E1
:101300000120F3E7206800F5D87000EB01100068B9
:1013100000F004009060906840B9206800F5D87033
:1013200000EB01100068400D106007E0206800F538
:10133000D87000EB01100068C0085060206800F50C
:10134000D87000EB0110006800F00200D060206847
:1013500000F5D87000EB0110406800F00F0008287D
:1013600002D30820106108E0206800F5D87000EB77
:101370000110406800F00F001061206800F5D8707F
:1013800000EB0110406800F47F40000A9061206883
:1013900000F5D87000EB01104068000C5061206827
:1013A00000F5D87000EB011080681870206800F517
:1013B000D87000EB0110806800F47F40000A58707C
:1013C000206800F5D87000EB0110806800F47F0001
:1013D00000E03CE0000C9870206800F5D87000EB4D
:1013E00001108068000ED870206800F5D87000EBFE
:1013F0000110C0681871206800F5D87000EB01106A
:10140000C06800F47F40000A5871206800F5D87069
:1014100000EB0110C06800F47F00000C9871206898
:1014200000F5D87000EB0110C068000ED87131B91A
:101430002068C06840F020002668F06005E0206861
:10144000006940F020002668306100204EE7606AA5
:1014500040F480206062012048E72DE9F05F0446F7
:101460000025206846692068D0F8049020688768C5
:101470002068D0F80CA02068D0F810B02068D0F810
:10148000188006F00100002855D007F00100C0B117
:1014900001202168886007F0020018B1204600F0A2
:1014A0003AFB0EE007F0040010B145F4006508E0D7
:1014B00007F0080010B145F4805502E0204600F026
:1014C00029FB07F48070C8B14FF4807021688860F0
:1014D00007F4007018B1204600F01FFB0EE007F47F
:1014E000806010B145F4005508E007F4006010B1C9
:1014F00045F4804502E0204600F00EFB07F4803002
:10150000C8B14FF480302168886007F4003018B10A
:10151000204600F004FB0EE007F4802010B145F4F3
:10152000004508E007F4002010B145F4803502E0E2
:10153000204600F0F3FA06F0080038B10AF0100077
:1015400020B145F4007510202168C86006F0040041
:1015500040B10AF0080028B108202168C860204680
:1015600000F01CFA06F0020038B12068C06800F0F4
:10157000030010B1204600F013FA06F0400038B125
:101580000BF0100020B145F480651020216808613F
:1015900006F0200040B10BF0080028B108202168B7
:1015A0000861204600F084FA06F0100038B1206887
:1015B000006900F0030010B1204600F07AFA06F44A
:1015C000003040B109F0100028B1102021684860B7
:1015D000204600F06FFA06F4803040B109F00800B0
:1015E00028B1082021684860204600F099FA06F4E6
:1015F000004088B309F0040078B306F4807020B18D
:1016000008F0010008B145F0010506F4007020B1B2
:1016100008F0020008B145F0020506F4806020B130
:1016200008F0040008B145F0040506F40060A0B11C
:1016300008F0700088B108F07000402817D006DC70
:1016400010280BD020280CD0302819D10CE05028BD
:1016500010D0602814D110E01DE019E045F0080515
:101660000FE045F010050CE045F0200509E045F0DD
:10167000400506E045F0800503E045F4807500E094
:1016800000BF00BF2068806920F070002168886179
:101690000420216848602DB1606A284360622046BA
:1016A000FFF710FEBDE8F09F70B504460CB90120AD
:1016B00070BD94F8200010B9204600F0AFF8206803
:1016C000006840F001002168086000F075FD0546E3
:1016D0000DE000F071FD401B0A2808D9606A40F453
:1016E00000306062052084F820000120E0E72068D7
:1016F000406800F001000028EBD02068006820F06E
:1017000002002168086000F057FD05460DE000F07A
:1017100053FD401B0A2808D9606A40F4003060621B
:10172000052084F820000120C2E72068406800F00E
:1017300002000028EBD1207E012806D12068006835
:1017400040F080002168086005E02068006820F013
:10175000800021680860607E012806D1206800684A
:1017600040F040002168086005E02068006820F033
:10177000400021680860A07E012806D1206800682A
:1017800040F020002168086005E02068006820F033
:10179000200021680860E07E012806D120680068EA
:1017A00020F010002168086005E02068006840F023
:1017B000100021680860207F012806D12068006899
:1017C00040F008002168086005E02068006820F00B
:1017D000080021680860607F012806D12068006841
:1017E00040F004002168086005E02068006820F0EF
:1017F000040021680860D4E9020108432169084314
:10180000616908436168491E08432168C861002076
:101810006062012084F82000002049E710B586B0FE
:101820000446142101A8FEF76DFE5649206888423F
:1018300049D155480068401C534908600846006873
:1018400001280FD100BF002000905048006840F0F0
:1018500000704E4908600846006800F00070009073
:1018600000BF00BF00BF002000904848103800684B
:1018700040F008004549103908600846006800F04B
:101880000800009000BF00BF0320019002200290DA
:1018900000200390032004900920059001A93C48F2
:1018A00000F08AFB00220521132000F043FD1320E5
:1018B00000F02CFD00220521142000F03BFD142037
:1018C00000F024FD5CE033492068884258D100BF15
:1018D000002000902D48006840F080602B4908608F
:1018E0000846006800F08060009000BF00BF2648F6
:1018F0000068401C244908600846006801280FD190
:1019000000BF002000902148006840F000701F498F
:1019100008600846006800F00070009000BF00BF3B
:1019200000BF0020009019481038006840F0020005
:101930001649103908600846006800F0020000905F
:1019400000BF00BF602001900220029000200390A1
:10195000032004900920059001A90F4800F02CFBFA
:10196000002205213F2000F0E5FC3F2000F0CEFCE6
:1019700000220521402000F0DDFC402000F0C6FCE4
:1019800006B010BD006400402C000020403802402A
:10199000000C024000680040000402407047000054
:1019A00038B504463B492068884203D100203A49B3
:1019B000087002E00120384908703748007800EBD1
:1019C000400101EB0010354901EB800000F14403B8
:1019D0003148007800EB400101EB00102F4901EB8A
:1019E000800000F1280200212046FFF76CFC2A4A03
:1019F000127802EB420303EB0212284B03EB820244
:101A000002F12801244A127802EBC202244B03EBB4
:101A100082001C22FEF744FD1F48007800EBC00046
:101A20001F4901EB80011C48007800EB400202EBEB
:101A300000101A4A02EB8000826C406CC1E9070278
:101A40001548007868B91448007800EBC000144AC3
:101A500002EB800100236A461248006805F034FB5F
:101A60000CE00D48007800EBC0000D4A02EB80014D
:101A700000236A460C48006805F026FB009838B140
:101A80004FF0805009490860BFF34F8FBFF36F8F4D
:101A900038BD000000640040EC000020DC45002060
:101AA00074460020000000200400002004ED00E047
:101AB00070477047704770B5044694F820000128BD
:101AC00022D1022084F820002068006820F0010064
:101AD0002168086000F070FB05460DE000F06CFB2B
:101AE000401B0A2808D9606A40F400306062052073
:101AF00084F82000012070BD2068406800F00100DB
:101B00000028EBD16062F6E7606A40F40020606272
:101B10000120F0E770477047704770477047704783
:101B2000704770B50446A56D00F046FB064694F874
:101B30003500022808D08020606500BF002084F8AE
:101B4000340000BF012070BD2068006820F016003E
:101B5000216808602068406920F0800021684861A1
:101B6000206C08B9A06C28B12068006820F008003B
:101B7000216808602068006820F001002168086082
:101B800010E000F019FB801B05280BD920206065B0
:101B9000032084F8350000BF002084F8340000BF23
:101BA0000320D0E72068006800F001000028E8D199
:101BB00094F85C103F208840A860012084F835002C
:101BC00000BF002084F8340000BF00BFBBE701461F
:101BD00091F83500022803D0802048650120704725
:101BE000052081F835000868006820F001000A68C7
:101BF00010600020F3E70000F8B5044600200090D4
:101C00008C4800684FF41651B0FBF1F7A56D2E68B3
:101C100094F85C1008208840304098B12068006833
:101C200000F0040070B12068006820F00400216812
:101C3000086094F85C1008208840A860606D40F04F
:101C40000100606594F85C1001208840304068B164
:101C50002068406900F0800040B194F85C100120D9
:101C60008840A860606D40F00200606594F85C10E8
:101C700004208840304068B12068006800F002000D
:101C800040B194F85C1004208840A860606D40F07A
:101C90000400606594F85C1010208840304078B3F0
:101CA0002068006800F0080050B394F85C10102021
:101CB0008840A8602068006800F4802080B1206817
:101CC000006800F4002028B9206CC8B12046216CBF
:101CD000884715E0A06C98B12046A16C88470FE0BA
:101CE0002068006800F4807028B92068006820F03F
:101CF000080021680860206C10B12046216C8847DC
:101D000094F85C10202088403040002865D020687E
:101D1000006800F0100000285FD094F85C102020CC
:101D20008840A86094F83500052828D1206800680C
:101D300020F01600216808602068406920F08000CB
:101D400021684861206C08B9A06C28B1206800683F
:101D500020F008002168086094F85C103F2088405B
:101D6000A860012084F8350000BF002084F834000A
:101D700000BF206D10B12046216D8847F8BD206856
:101D8000006800F4802080B12068006800F4002022
:101D900028B9606C10B12046616C88471DE0E06B8B
:101DA000D8B12046E16B884717E02068006800F44E
:101DB000807068B92068006820F010002168086011
:101DC000012084F8350000BF002084F8340000BFF3
:101DD000E06B10B12046E16B8847606D38B3606DF1
:101DE00000F00100F0B1052084F83500206800689B
:101DF00020F001002168086000BF0098401C00909E
:101E0000B84200D905E02068006800F00100002811
:101E1000F3D100BF012084F8350000BF002084F812
:101E2000340000BFE06C10B12046E16C884700BF71
:101E3000A4E700003C0000202DE9F0410446002505
:101E400000F0BAF9074614B90120BDE8F081606AD4
:101E500000B100BF022084F8350000BF002084F8E4
:101E6000340000BF2068006820F00100216808608D
:101E70000AE000F0A1F9C01B052805D92020606503
:101E8000032084F83500E0E72068006800F00100D6
:101E90000028EED12068056821480540D4E90101F9
:101EA0000843E16808432169084361690843A1695F
:101EB0000843E1690843216A08430543606A04282E
:101EC00003D1D4E90B01084305432068056020686D
:101ED000456925F00705606A0543606A04280DD14D
:101EE000A06A0543E06A48B12046FEF76DFE28B1BE
:101EF00040206065012084F83500A6E72068456130
:101F00002046FEF747FE064694F85C103F208840C6
:101F1000B06000206065012084F83500002094E75F
:101F20003F8010F02DE9F04704460D4616461F4647
:101F30004FF00008D4F8589000BF94F834000128FE
:101F400002D10220BDE8F087012084F8340000BFF0
:101F500094F83500012825D1022084F835000020AE
:101F600060653B46324629462046FEF782FE94F8DD
:101F70005C103F208840C9F808002068006840F0E5
:101F8000160021680860206C28B12068006840F0C5
:101F90000800216808602068006840F0010021689E
:101FA000086006E000BF002084F8340000BF4FF056
:101FB00002084046C6E70000F8B502460B46002579
:101FC000002400200021D6E0012606FA01F51E6853
:101FD00006EA0504AC4274D11E7906F00306012E10
:101FE00004D01E7906F00306022E13D190684F002C
:101FF0000326BE40B0434F00DE68BE4030439060D1
:10200000506801268E40B0431E79C6F300168E40FC
:10201000304350601E7906F00306032E09D0D068C5
:102020004F000326BE40B0434F009E68BE40304381
:10203000D0601E7906F00306022E13D1CF0802F1FC
:10204000200656F827004E07F70E0F26BE40B04375
:102050004F07FF0E1E69BE403043CF0802F1200635
:1020600046F8270010684F000326BE40B0431E7993
:1020700006F003064F00BE40304310605E6806F471
:102080004036002E76D000BF002600963C4E3668C3
:1020900046F480463A4F3E603E46366806F4804637
:1020A000009600BF00BF374E8F0856F827008E07F6
:1020B000370F0F26BE40B043334EB24202D1002646
:1020C00024E057E0314EB24201D101261EE0304EED
:1020D000B24201D1022619E02E4EB24201D10326AE
:1020E00014E02D4EB24201D104260FE02B4EB24235
:1020F00001D105260AE02A4EB24201D1062605E0AA
:10210000284EB24201D1072600E008268F073F0F74
:10211000BE4030431B4E8F0846F82700224E3068E1
:10212000A0435E6806F4801606B120431E4E306060
:10213000361D3068A0435E6806F4001606B12043E1
:10214000194E361D3060184E361F3068A0435E6849
:1021500006F4003606B12043134E361F3060361F9A
:102160003068A0435E6806F4803606B120430E4E08
:10217000083E3060491C1029FFF426AFF8BD00006E
:102180004438024008380140000002400004024088
:1021900000080240000C02400010024000140240FF
:1021A00000180240001C0240083C01400AB1816155
:1021B00001E00B048361704701480068704700002C
:1021C00030000020034800680349097808440149A9
:1021D00008607047300000203800002010B50D481E
:1021E000006840F400700B4908600846006840F43D
:1021F000806008600846006840F480700860032032
:1022000000F0D6F80F2000F007F800F055F8002095
:1022100010BD0000003C0240F0B587B00446002627
:10222000002700BF002000901E48006840F0010019
:102230001C4908600846006800F00100009000BFDB
:1022400000BF01A902A800F059FA00F08FFA460079
:102250001548B6FBF0F0471E14481549086040F2D7
:10226000E7311348C16047600021016181608161ED
:1022700000F0C8FD054695B90D4800F0F7FD05468C
:102280006DB9192000F042F8102C07D20022214627
:10229000192000F04FF80748046000E001252846A7
:1022A00007B0F0BD4438024040420F00000001403A
:1022B000D40600203400002008B500BF00200090A4
:1022C0001148006840F480400F49086008460068E3
:1022D00000F48040009000BF00BF00BF00200090CD
:1022E000081F006840F08050091F08600846006819
:1022F00000F08050009000BF00BF00220F21901E10
:1023000000F018F808BD00004438024001460846B5
:1023100000280DDB00BF00BF00F01F0301229A4020
:1023200043099B0003F1E023C3F8002100BF00BF75
:1023300000BF70472DE9F05F80460D461646002726
:1023400002F0ACFE074639462A46334601F0070044
:10235000C0F1070ABAF1040F02D94FF0040A01E0F4
:10236000C0F1070AD14600F1040ABAF1070F02D200
:102370004FF0000A01E0A0F1030AD4464FF0010A31
:102380000AFA09FAAAF1010A0AEA020A0AFA0CFA96
:102390004FF0010B0BFA0CFBABF1010B0BEA030B3B
:1023A0004AEA0B042146404602F080FEBDE8F09F59
:1023B00000BF00F00702064B19684FF6FF031940F3
:1023C000044B0B4343EA0221014B196000BF7047E5
:1023D0000CED00E00000FA05F8B5044600250026E3
:1023E000207800F0010020B9207800F004000428D3
:1023F0002FD100205B498866FFF7DEFE054606E028
:10240000FFF7DAFE401B022801D90320F8BD564829
:102410000068C0F3C0600028F2D160688101207AB2
:1024200041EA007050498431086001204D498866B6
:10243000FFF7C2FE054606E0FFF7BEFE401B02287E
:1024400001D90320E2E748480068C0F3C0600028D3
:10245000F2D0207800F0020002287DD100BF0020D9
:10246000009041484030006840F080503E49403183
:1024700008600846006800F08050009000BF00BF70
:102480003A48006840F4807038490860FFF794FECD
:10249000054606E0FFF790FE401B022801D9032005
:1024A000B4E73248006800F480700028F2D02E486B
:1024B0007030006800F440764EB3A08900F440709C
:1024C000B04224D028487030006820F440760120C3
:1024D00027490860002008602348703006600068C3
:1024E00000F0010098B1FFF767FE054608E0FFF72E
:1024F00063FE401B41F28831884201D9032085E701
:10250000194870300068C0F340000028EFD000BFC9
:10251000A08900F44070B0F5407F0CD1124808301B
:10252000006820F4F810134AE168114008430E498E
:102530000831086007E00C480830006820F4F81003
:10254000094908310860084870300068A189C1F362
:102550000B010843044900E002E07031086000BF4D
:10256000002053E70000474200380240007000405E
:10257000400E4742FFFCFF0F70B504460D460CB9F4
:10258000012070BD5848006800F00700A84209D239
:1025900055490D700846006800F00700A84201D0B8
:1025A0000120EEE7207800F0020002281DD12078FB
:1025B00000F00400042805D14C48006840F4E050C5
:1025C0004A490860207800F00800082805D14748EB
:1025D000006840F46040454908604448006820F0C5
:1025E000F000A168084341490860207800F001002C
:1025F000A8B36068012807D13C4808380068C0F3D8
:102600004040B8B90120BCE76068022802D0606889
:10261000032807D1354808380068C0F3406048B93E
:102620000120AEE7314808380068C0F3400008B91F
:102630000120A6E72D48006820F0030061680843E8
:102640002A490860FFF7B8FD064609E0FFF7B4FD28
:10265000801B41F28831884202D9032091E707E0CC
:102660002248006800F00C006168B0EB810FEDD1EA
:102670001D48006800F00700A84209D91A490D70EA
:102680000846006800F00700A84201D0012078E762
:10269000207800F00400042807D11448006820F4D2
:1026A000E050E168084311490860207800F0080014
:1026B000082808D10D48006820F46040216940EAEC
:1026C000C1000A49086000F061F808490968C1F3CF
:1026D0000311074A515CC840064908600648006873
:1026E000FFF79AFD00204CE7003C0240083802400A
:1026F000A48400083C000020340000200F22026067
:102700000D4A126802F0030242600B4A126802F09E
:10271000F0028260084A126802F4E052C260064A7F
:10272000126802F46042D2080261044A126802F0A0
:1027300007020A607047000008380240003C02406F
:1027400001480068704700003C00002000B5FFF71A
:10275000F7FF04490968C1F38221034A515CC8406C
:1027600000BD000008380240B484000800B5FFF73F
:10277000E7FF04490968C1F34231034A515CC8408C
:1027800000BD000008380240B48400082DE9F0477D
:10279000002400250026A1462548006800F00C0012
:1027A00020B1042805D008283AD105E0DFF884904C
:1027B00039E0DFF8849036E01D48001F006800F023
:1027C0003F041B48001F006800F4800078B11A48DD
:1027D0001749091F0968C1F38811A0FB0170014660
:1027E000224600233846FDF79FFD05460EE01148BE
:1027F0000F49091F0968C1F38811A0FB0170014648
:10280000224600233846FDF78FFD05460848001F85
:102810000068C0F30140401C4600B5FBF6F902E039
:10282000DFF8109000BF00BF4846BDE8F087000009
:10283000083802400024F400001BB700F8B5044635
:102840000CB90120F8BD207800F00100002874D0F8
:10285000F948006800F00C0004280DD0F648006824
:1028600000F00C00082813D1F348001F006800F4A2
:102870008000B0F5800F0BD1EF4808380068C0F336
:102880004040002859D06068002856D10120D9E77F
:1028900000BF6068B0F5803F08D1E748083800689D
:1028A00040F48030E449083908601EE06068B0F503
:1028B000A02F0DD1E0480838006840F48020DE49A0
:1028C000083908600846006840F4803008600CE071
:1028D000D9480838006820F48030D74908390860A2
:1028E0000846006820F48020086000BF606890B14E
:1028F000FFF762FC054606E0FFF75EFC401B64281C
:1029000001D903209EE7CC4808380068C0F3404056
:102910000028F1D011E0FFF74FFC054606E0FFF775
:102920004BFC401B642801D903208BE7C2480838C0
:102930000068C0F340400028F1D1207800F0020088
:1029400002285FD1BC48006800F00C0058B1BA48BA
:10295000006800F00C0008281CD1B748001F006870
:1029600000F48000B0B9B44808380068C0F34000F3
:1029700020B1E068012801D0012063E7AE480838A3
:10298000006820F0F800216940EAC100AA4908392E
:10299000086037E0E06800B30120A8490860FFF74D
:1029A0000BFC054606E0FFF707FC401B022801D997
:1029B000032047E7A04808380068C0F3400000281B
:1029C000F1D09D480838006820F0F800216940EAFD
:1029D000C10099490839086014E00020974908604F
:1029E000FFF7EAFB054606E0FFF7E6FB401B02287F
:1029F00001D9032026E7904808380068C0F340005A
:102A00000028F1D1207800F0080008282CD1606956
:102A1000A8B101208A490860FFF7CEFB054606E011
:102A2000FFF7CAFB401B022801D903200AE78248AE
:102A30006C300068C0F340000028F1D014E00020A2
:102A40007F490860FFF7B8FB054606E0FFF7B4FBD7
:102A5000401B022801D90320F4E677486C30006857
:102A6000C0F340000028F1D1207800F004000428D1
:102A700070D1002770483830006800F0805090B95D
:102A800000BF002000906C483830006840F0805053
:102A90006949383108600846006800F080500090AD
:102AA00000BF00BF01276748006800F48070B0B91C
:102AB0006448006840F4807062490860FFF77CFB5E
:102AC000054606E0FFF778FB401B022801D90320EA
:102AD000B8E65C48006800F480700028F2D000BFBF
:102AE000A068012808D154486830006840F001000F
:102AF0005149683108601DE0A06805280DD14E4895
:102B00006830006840F004004B49683108600846AE
:102B1000006840F0010008600CE047486830006839
:102B200020F001004449683108600846006820F040
:102B30000400086000BFA068A8B1FFF73DFB054690
:102B400009E0FFF739FB401B41F28831884202D986
:102B5000032077E626E0384868300068C0F340007C
:102B60000028EED013E0FFF727FB054608E0FFF74B
:102B700023FB401B41F28831884201D9032061E6E2
:102B80002D4868300068C0F340000028EFD1012FC5
:102B900007D129483830006820F080502649383164
:102BA000086000BFA069002845D02348006800F0F5
:102BB0000C0008285DD0A069022845D100201F49DB
:102BC0000866FFF7F9FA054606E0FFF7F5FA401B3D
:102BD000022801D9032035E6174808380068C0F3F9
:102BE00040600028F1D1D4E907010843616A40EA56
:102BF00081110122A06AC2EB500041EA00412C2061
:102C0000005D41EA00600C49091F086001200B4982
:102C10000866FFF7D1FA054606E0FFF7CDFA401B3C
:102C2000022801D903200DE6034808380068C0F3E4
:102C300040600028F1D049E00838024000004742D7
:102C4000800E474200700040002021490866FFF7CF
:102C5000B3FA054606E0FFF7AFFA401B022801D998
:102C60000320EFE51B480068C0F340600028F2D164
:102C70002CE0A069012800D1E4E51648001D066893
:102C8000A069012820D006F48001E06981421BD1AF
:102C900006F03F01206A814216D147F6C0703040ED
:102CA000616AB0EB811F0FD106F440310122A06AA6
:102CB000C2EB5000B1EB004F06D106F070612C2042
:102CC000005DB1EB006F01D00120BBE50020B9E54C
:102CD000000047420038024070B504460CB901209C
:102CE00070BD607F20B900202077204600F04EF8AC
:102CF000022060772068C068C0F3001000283CD133
:102D000000BFCA202168486253202168486200BF82
:102D1000204601F0DBFA0546EDB9206880681A49C3
:102D20000840216888602169606808436169084338
:102D3000216889680843216888602168E068086123
:102D400020680169208941EA004021680861204625
:102D500001F0E1FA05465DB92068006C20F480209E
:102D6000216808642068006CA16908432168086430
:102D700000BFFF202168486200E000250DB9012056
:102D800060772846ACE70000BFFF8FFF1FB5044601
:102D90000020009001900290039009492068884229
:102DA0000CD102200090000203906846FFF714FB4C
:102DB00008B1FEF708F90120024908601FBD0000B4
:102DC000002800403C0E474270B5044600250B48E1
:102DD0002168C860FFF7F0F9054607E0FFF7ECF956
:102DE000401BB0F57A7F01D9032070BD2068C06810
:102DF00000F020000028F1D00020F6E75F7F0100FE
:102E00007047704710B504460CB9012010BD94F806
:102E10003D0028B9002084F83C00204600F025F849
:102E2000022084F83D00211D206801F097FC01205C
:102E300084F8460000BF84F83E0001213F20015580
:102E4000402001554120015500BF00BF012084F8FA
:102E5000420043200155442001554520015500BF43
:102E6000012084F83D000020D0E77047014691F82A
:102E70003D00012801D001207047022081F83D006B
:102E80000868C06840F001000B68D8601A4B0868F9
:102E900098421BD00868B0F1804F17D0174B0868D4
:102EA000984213D0164B086898420FD0154B08680B
:102EB00098420BD0144B0868984207D0134B08680F
:102EC000984203D0124B086898420CD10868806879
:102ED00000F00702062A0CD00868006840F00100E4
:102EE0000B68186005E00868006840F001000B6896
:102EF00018600020C0E7000000000140000400400E
:102F000000080040000C0040000401400040014067
:102F100000180040704770B504462068C5682068F6
:102F2000066906F00200022819D105F00200022805
:102F300015D1401F21680861012020772068806931
:102F400000F0030018B12046FFF7E4FF05E020463B
:102F500000F097F8204600F095F80020207706F062
:102F60000400042819D105F00400042815D1C04339
:102F700021680861022020772068806900F4407091
:102F800018B12046FFF7C6FF05E0204600F079F8AB
:102F9000204600F077F80020207706F00800082887
:102FA00019D105F00800082815D1C043216808612F
:102FB000042020772068C06900F0030018B1204683
:102FC000FFF7A8FF05E0204600F05BF8204600F080
:102FD00059F80020207706F01000102819D105F0CC
:102FE0001000102815D1C0432168086108202077FF
:102FF0002068C06900F4407018B12046FFF78AFFCE
:1030000005E0204600F03DF8204600F03BF80020A7
:10301000207706F0010048B105F0010030B16FF0F3
:10302000010021680861204600F02EF806F08000BB
:10303000802809D105F08000802805D1C04321688F
:1030400008612046FFF7DCFE06F04000402809D169
:1030500005F04000402805D1C043216808612046A2
:1030600000F01EF806F02000202809D105F020000D
:10307000202805D1C043216808612046FFF7C1FE22
:1030800070BD70477047000010B5044603492068C2
:10309000884201D1FFF796F810BD00000000014002
:1030A0007047F8B504460D46164694F842002028AD
:1030B0002DD105B10EB90120F8BD012020630020FB
:1030C000606332462946204601F042FE0746206BE7
:1030D000012819D100BF00200090206800680090EE
:1030E00020684068009000BF00BF00BF00BF21689B
:1030F0000C3151E8001F41F0100021680C3141E80B
:103100000002002AF3D100E001273846D4E702206C
:10311000D2E7000070B504460D460D49206888428C
:1031200007D119220B490C48FDF775F901200B490D
:1031300008700B492068884208D12946094800F0E8
:10314000B3FB402207490848FFF7ABFF70BD000002
:10315000004800401D45002004450020A800002034
:103160000010014038450020BC03002070470000DB
:103170002DE9F84F0446206805682068C668206875
:1031800047694FF00009CA4605F00F09B9F1000F71
:103190000AD105F0200038B106F0200020B1204609
:1031A00001F042FCBDE8F88FB9F1000F7CD007F0C8
:1031B000010018B906F49070002875D005F00100E0
:1031C00030B106F4807018B1606C40F001006064AA
:1031D00005F0040030B107F0010018B1606C40F058
:1031E0000200606405F0020030B107F0010018B180
:1031F000606C40F00400606405F0080048B106F01F
:10320000200010B907F0010018B1606C40F0080010
:103210006064606C002846D005F0200028B106F0FC
:10322000200010B1204601F0FFFB20684069C0F388
:10323000801A606C00F0080010B9BAF1000F2DD0B0
:10324000204601F098FB2068406900F040004028CB
:1032500020D100BF00BF2168143151E8001F21F0C8
:1032600040002168143141E80002002AF3D100BF78
:10327000E06B50B17F48E16B0865E06BFEF7A7FC9F
:1032800088B1E06B016D88470DE02046FFF76EFFC7
:1032900009E009E02046FFF769FF04E02046FFF758
:1032A00065FF002060647DE7206B012878D105F080
:1032B0001000002874D006F010000028FAD000BFDB
:1032C000002000902068006800902068406800900E
:1032D00000BF00BF2068406900F04000402870D166
:1032E000E06B006840681FFA80F8B8F1000F58D012
:1032F000A08D404555DDA4F82E80E06BC069B0F587
:10330000807F43D000BF00BF21680C3151E8001F0F
:1033100021F4807021680C3141E80002002AF3D1C9
:1033200000BF00BF00BF2168143151E8001F21F029
:1033300001002168143141E80002002AF3D100BFE6
:1033400000BF00BF2168143151E8001F21F0400088
:103350002168143141E80002002AF3D100BF202087
:1033600084F842000020206300BF00BF21680C31B8
:1033700051E8001F21F0100021680C3141E80002E3
:10338000002AF3D100BFE06BFEF7CBFB02206063A5
:10339000A08DE28D801A81B22046FFF7BBFE0EE0C1
:1033A00052E0A08D40450AD1E06BC069B0F5807F46
:1033B00005D102206063A18D2046FFF7ABFEF1E648
:1033C000FFE7A08DE18D401A1FFA80F8E08DD0B3A1
:1033D000B8F1000F37D000BF00BF21680C3151E8B1
:1033E000001F21F4907021680C3141E80002002A8E
:1033F000F3D100BF00BF00BF2168143151E8001FA6
:1034000021F001002168143141E80002002AF3D1C3
:1034100000BF202084F842000020206300BF00BFCE
:1034200021680C3151E8001F21F0100021680C3197
:1034300041E80002002AF3D100BF02206063414648
:103440002046FFF767FEADE605F0800030B106F0DC
:10345000800018B1204601F0E7FCA3E605F040002B
:1034600030B106F0400018B1204601F0BAFA99E6F2
:1034700000BF97E63D48000810B504460CB901208E
:1034800010BDA06900B100E000BF94F8410028B968
:10349000002084F84000204600F02AF8242084F818
:1034A00041002068C06820F400502168C8602046B0
:1034B00001F038FB2068006920F490402168086121
:1034C0002068406920F02A00216848612068C068AF
:1034D00040F400502168C86000206064202084F817
:1034E000410084F842000020606300BFC8E700008C
:1034F00010B586B00446142101A8FDF703F8D149A0
:10350000206888427ED100BF00200090CE4800682D
:1035100040F01000CC4908600846006800F0100038
:10352000009000BF00BF00BF00200090C6481438C4
:10353000006840F00200C449143908600846006879
:1035400000F00200009000BF00BF00BF002000900C
:103550000846006840F0010008600846006800F076
:103560000100009000BF00BF802001900220029067
:1035700000200390032004900720059001A9B34880
:10358000FEF71AFD4FF40070019002200290002017
:103590000390032004900720059001A9AC48FEF792
:1035A0000BFDAC48AC4908604FF00060486040211A
:1035B000A94881600021C1604FF480610161002150
:1035C000416181614FF48071C161002101624162FA
:1035D000FEF732FC08B1FDF7F6FC00BF9E48A06381
:1035E000846300BF9B4878389C4908604FF00060B6
:1035F0004860002199488160C1604FF48061016199
:10360000002100E01AE0416181614FF48071C161E5
:10361000002101624162FEF70FFC08B1FDF7D3FC07
:1036200000BF8E48E063846300BF0022052125208F
:10363000FEF780FE2520FEF769FE01E1884920683B
:1036400088427ED100BF002000907F48001F0068A4
:1036500040F480207C49091F08600846006800F497
:103660008020009000BF00BF00BF0020009076487F
:103670001438006840F004007349143908600846A3
:10368000006800F00400009000BF00BF4FF44060ED
:103690000190022002900020039003200490072054
:1036A000059001A96F48FEF787FC6F486F490860D5
:1036B0004FF00060486040216C4881600021C1608B
:1036C0004FF4806101610021416181614FF480719B
:1036D000C161002101624162FEF7AEFB08B1FDF756
:1036E00072FC00BF6148A063846300BF5E4830384D
:1036F0005F4908604FF00060486000215C488160CD
:10370000C1604FF4806101610021416181614FF42A
:103710008071C161002101624162FEF78DFB08B139
:10372000FDF751FC00BF5248E063846300BF0022F4
:1037300005212720FEF7FEFD2720FEF7E7FD7FE0AD
:10374000FFE74C49206888427AD100BF00200090F2
:103750003D48006840F020003B490860084600688A
:1037600000F02000009000BF00BF00BF00200090CC
:1037700035481438006840F0400033491439086077
:103780000846006800F04000009000BF00BF4FF402
:1037900084400190022002900020039003200490B6
:1037A0000820059001A93448FEF706FC2948903806
:1037B0003249086080054860002130488160C1605E
:1037C0004FF4806101610021416181614FF480719A
:1037D000C161002101624162FEF72EFB08B1FDF7D5
:1037E000F2FB00BF2548E063846300BF1948183826
:1037F000234908604FF020604860402120488160E4
:103800000021C1604FF4806101610021416181614B
:103810004FF48071C161002101624162FEF70CFB2F
:1038200008B1FDF7D0FB00BF1548A063846300BF5B
:10383000002205214720FEF77DFD4720FEF766FDAB
:1038400006B010BD001001404438024000040240A0
:1038500000000240B864024094040020F4040020F8
:103860000048004000080240586002405405002013
:10387000B405002000140140001802401406002086
:103880007406002070477047704700BFFEE70000D5
:1038900010B5402202490348FFF703FC10BD0000A9
:1038A00038450020BC0300207CB505460E460024A8
:1038B000B4E0285D552874D10021002005E02218CD
:1038C000AA5C0A44D1B2421CD0B20A28F7DB04F148
:1038D0000A00285C88427CD1A01C2A5CE01C285C81
:1038E00042EA002000B2ADF80000201D2A5C601DF5
:1038F000285C42EA002000B2ADF80200A01D2A5C5C
:10390000E01D285C42EA002000B2ADF80400601C13
:10391000285C512804D0522817D0532874D141E094
:1039200000200FE03DF9102000EE102AB8EEC00A8A
:10393000DFED3F0A20EE200A3E4A02EB800282EDD4
:10394000000A401C0328EDDB5EE0002010E03DF99A
:10395000102000EE102AB8EEC00ADFED370A20EE84
:10396000200A344A0C3202EB800282ED000A401C2D
:103970000328ECDB2F4890ED030A304880ED030A62
:103980002C4890ED040A2D4880ED040A294890ED5A
:10399000050ADFED2B0A20EE200A284880ED050AF3
:1039A00032E039E0002010E03DF9102000EE102A4E
:1039B000B8EEC00ADFED230A20EE200A1D4A1832B5
:1039C00002EB800282ED000A401C0328ECDB194860
:1039D00000E01EE090ED060A184880ED000A154848
:1039E00090ED070A154880ED010A124890ED080A8B
:1039F000DFED150A30EE200ADFED140A30EEC00AC2
:103A00000E4880ED020A00BF00BF04F10B0084B233
:103A100001E0601C84B201E0601C84B2301B0B2802
:103A2000BFF647AF40220A490A48FFF73AFB7CBD80
:103A30000000003A7845002000007A3D9C450020B7
:103A4000000000800000B43B000034430000B44399
:103A500038450020BC0300200FB40099A1F20120DA
:103A60009DF81D109DF81C2041EA02213A4A02EB04
:103A7000401211809DF81F209DF81E1042EA01217E
:103A800009B2354A02EB401251809DF821209DF881
:103A9000201042EA012109B22F4A02EB4012918024
:103AA0009DF822102C4A02EB401291712A4901EB39
:103AB00040110988284A02EB40129289891A274A44
:103AC00091420ADA244901EB4011898A491C09B262
:103AD000214A02EB4012918215E01F4901EB40118F
:103AE00089891D4A02EB40121288891A1B4A9142A9
:103AF00009DA194901EB4011898A491E09B2164AAF
:103B000002EB40129182144901EB40110988124ADC
:103B100002EB4012928A4FF4005313FB02110E4A3B
:103B200002EB401211610C4901EB401109880A4A6D
:103B300002EB40129181084901EB4011498B491C6D
:103B4000054A02EB401251830121034A02EB401265
:103B5000117604B0704700004C44002090E8FFFF4D
:103B600030B5039C050A257060700D0AA570E170E0
:103B7000150A257162711D0AA571E37130BD00003F
:103B800010B50E480E4908600320486000210C481B
:103B90008160C1604FF4102101614FF40011416157
:103BA0000021017641768176C17601770121417746
:103BB000FDF77AFD08B1FDF706FA10BD006400407C
:103BC0004C03002010B50F480F49086003204860DF
:103BD00000210D488160C1604FF4102101614FF454
:103BE0000011416100210176417681760121C17683
:103BF0000021017701214177FDF756FD08B1FDF75E
:103C0000E2F910BD006800407403002008B500BF51
:103C1000002000902648006840F480002449086095
:103C20000846006800F48000009000BF00BF00BF9D
:103C3000002000900846006840F400100860084624
:103C4000006800F40010009000BF00BF00220521B2
:103C50000C20FEF76FFB0C20FEF758FB002205211D
:103C60000E20FEF767FB0E20FEF750FB0022052119
:103C70003920FEF75FFB3920FEF748FB00220521C3
:103C80003A20FEF757FB3A20FEF740FB00220521C1
:103C90004520FEF74FFB4520FEF738FB00220521AB
:103CA0004620FEF747FB4620FEF730FB08BD00002C
:103CB0003038024000B5B9B000222421102003F0B2
:103CC000B5F83849086000222421102003F0AEF82E
:103CD0003549086000222421202003F0A7F8334949
:103CE00008601C22324932A8FCF7DAFB002132A816
:103CF00002F00BF82F4908601C222D491C312BA81B
:103D0000FCF7CEFB00212BA801F0FFFF2A49086039
:103D10001C222749383124A8FCF7C2FB002124A823
:103D200001F0F3FF254908601C22214954311DA8E8
:103D3000FCF7B6FB00211DA801F0E7FF2049086051
:103D40001C221B49703116A8FCF7AAFB002116A8FB
:103D500001F0DBFF1B4908601C2215498C310FA8BC
:103D6000FCF79EFB00210FA801F0CFFF1649086069
:103D70001C220F49A83108A8FCF792FB002108A8D3
:103D800001F0C3FF114908601C220949C43101A890
:103D9000FCF786FB002101A801F0B7FF0C49086081
:103DA00039B000BD00000020040000200800002001
:103DB000BC83000824000020280000200C00002004
:103DC0001000002014000020180000201C0000201B
:103DD0002000002000B587B0142102A8FCF792FB58
:103DE00000BF002001903548006840F002003349D0
:103DF00008600846006800F00200019000BF00BFA4
:103E000000BF002001900846006840F040000860B4
:103E10000846006800F04000019000BF00BF00BFEE
:103E2000002001900846006840F001000860084644
:103E3000006800F00100019000BF00BF00BF00203B
:103E400001900846006840F00800086008460068D5
:103E500000F00800019000BF00BF00BF00200190EB
:103E60000846006840F0040008600846006800F05A
:103E70000400019000BF00BF00BF00200190084671
:103E8000006840F0800008600846006800F080008C
:103E9000019000BF00BF002209150948FEF786F90E
:103EA0004FF4806002900120039000200490059060
:103EB00002A90348FEF780F807B000BD3038024081
:103EC000001C024010B50A480A49086000204860FA
:103ED0007F2108488160FF21C160002101614161AB
:103EE0008161FEF7F9FE08B1FDF76DF810BD000025
:103EF000002800409C03002010B50B480B490860C7
:103F00004FF461204860002108488160C160016170
:103F10000C21416100218161C161FFF7ADFA08B157
:103F2000FDF751F810BD000000100140BC03002057
:103F300010B50C480C4908600C4848604FF480519B
:103F4000094881604900C160C91001610C214161CB
:103F500000218161C161FFF78FFA08B1FDF733F8E5
:103F600010BD00000048004004040020A0860100AD
:103F700010B50B480B4908604FF4612048600021E0
:103F800008488160C16001610C21416100218161AB
:103F9000C161FFF771FA08B1FDF715F810BD000017
:103FA000001401404C04002000BFFEE700BFFEE704
:103FB00010B52DED068B0446B0EE408AF0EE608A17
:103FC000B0EE419AB7EE000A39EE000AB0EE40AA10
:103FD00084ED008AC4ED018A94ED000AD4ED010A53
:103FE00030EE600A84ED020AD4ED020AB0EE600AF7
:103FF000F0EE4A0A01F06FFD84ED020A94ED070A23
:10400000D4ED020A20EE200A84ED0B0A94ED0C0A8E
:10401000D4ED080A94ED021A00EE810A84ED0C0A30
:10402000D4ED120AB0EE600A04F1300001F03CFD5C
:1040300094ED010AD4ED040A30EE600AF0EE409AE5
:10404000F0EE4A0AB0EE690A01F045FDF0EE409A42
:1040500094ED090A20EE290A84ED0D0A94ED020A76
:10406000D4ED030A30EE600AF0EE40AA94ED090A9E
:1040700020EE2A0A84ED0D0A9FED160A84ED0E0A41
:1040800094ED0B0AD4ED0C0A30EE200AD4ED0D0AA3
:1040900030EE200AD4ED0E0A30EE200A84ED100A2C
:1040A000D4ED110AB0EE600A04F1400001F0FCFC0E
:1040B00094ED020A84ED030A94ED010A84ED040AEA
:1040C00094ED000A84ED060A94ED100ABDEC068B0F
:1040D00010BD0000000000009FED1A0A80ED000AEC
:1040E0009FED180A80ED010A9FED160A80ED020A85
:1040F0009FED140A80ED030A9FED120A80ED040A79
:104100009FED100A80ED050A9FED0E0A80ED060A6C
:104110009FED0C0A80ED0B0A9FED0A0A80ED0C0A58
:104120009FED080A80ED0D0A9FED060A80ED0E0A4C
:104130009FED040A80ED0F0A9FED020A80ED100A40
:10414000704700000000000000B50146B0EE403AA4
:1041500081ED073A81ED081AC1ED090AC1ED0A1A8D
:1041600081ED112AC1ED122A0846FFF7B5FF00BD07
:1041700010B52DED028B0446B0EE408AF0EE608A59
:1041800084ED008AC4ED018A94ED000AD4ED010AA1
:1041900030EE600A84ED020A94ED020AD4ED030ABF
:1041A00030EE600A84ED040A94ED000AD4ED050AAD
:1041B00030EE600A84ED060A94ED080AD4ED020A96
:1041C00020EE200A84ED0C0A94ED0D0AD4ED090AC4
:1041D00094ED021A00EE810A84ED0D0A94ED020AB4
:1041E000D4ED030A30EE600AD4ED0A0A20EE200A6C
:1041F00084ED0E0A94ED0B0AD4ED060A20EE200A97
:1042000084ED0F0AD4ED130AB0EE600A04F1340015
:1042100001F04AFC94ED0C0AD4ED0D0A30EE200AB0
:10422000D4ED0E0A30EE200AD4ED0F0A30EE200A4B
:1042300084ED100AD4ED110AB0EE600A04F14000DA
:1042400001F032FC94ED020A84ED030A94ED000AB9
:1042500084ED050A94ED100ABDEC028B10BD000040
:1042600080ED080AC0ED090A80ED0A1AC0ED0B1AAC
:1042700080ED112AC0ED122A80ED133ADFED123ADB
:10428000C0ED0C3ADFED103AC0ED0E3ADFED0E3A1C
:10429000C0ED0D3ADFED0C3AC0ED023ADFED0A3A1F
:1042A000C0ED033ADFED083AC0ED043ADFED063A1F
:1042B000C0ED103ADFED043AC0ED013ADFED023A0D
:1042C000C0ED003A704700000000000070B50446E1
:1042D000002600252068C06800F04000C8B92068AA
:1042E000C06840F080002168C860FDF765FF0646A1
:1042F00008E0FDF761FF801BB0F57A7F02D904204A
:10430000607701252068C06800F0400008B9012DE1
:10431000EFD1284670BD70B5044600252068C068FE
:1043200020F080002168C8602068806800F02000CC
:1043300030B92046FEF748FD10B104206077012512
:10434000284670BD08B503F0D7F8009000BF00BF45
:1043500000F052F80521684602F04EFAF8E7000036
:1043600086B003F0C9F8059000BF00BF002001909F
:104370000290FCF759FEFCF741FB03A8194C009092
:10438000B4F97630B4F95620B4F93610B4F9160001
:10439000FFF7E6FB144890ED0A0AF0EE400A01A888
:1043A0009FED122AF2EE041A9FED101A9FED0F0AEC
:1043B000FCF79EFD03A84FF4007300220C49009007
:1043C0000C480068FCF740FA01A8012300220849C4
:1043D000009008480068FCF737FA022105A802F0AF
:1043E0000BFAC3E74C4400200C44002000000000FE
:1043F0004C0300200800002010B5874800780128F1
:104400007ED1002084490870844800780F28F7D1B5
:104410008248007E0028F3D1804840787F4989781F
:1044200001F0070140EA01207D4948807B488078FF
:10443000C0087A49C97801F03F0140EA4110784943
:1044400088807648C07880097449097940EA8100FB
:104450007249497901F0010140EA81207049C88020
:104460006E48407940086D49897901F00F0140EAB2
:10447000C1106B4908816948807900096749C97989
:1044800001F07F0140EA0110654948816348C07925
:10449000C0096249097A40EA41006049497A01F05D
:1044A000030140EA41205E4988815C48407A8008E7
:1044B0005A49897A01F01F0140EA81105849C881A0
:1044C0005648807A40095549C97A40EAC1005449A2
:1044D00008825248007B5149497B01F0070140EABC
:1044E00001204F4948824D48407BC0084B49897B99
:1044F00001F03F0140EA411049498882474800E005
:1045000087E0807B80094549C97B40EA81004349B7
:10451000097C01F0010140EA81204149C8823F48FD
:10452000007C40083D49497C01F00F0140EAC11080
:104530003B4908833948407C00093849897C01F0AF
:104540007F0140EA0110364948833448807CC00925
:104550003249C97C40EA41003049097D01F003013C
:1045600040EA41202E4988832C48007D80082B4951
:10457000497D01F01F0140EA81102949C88327487D
:10458000407D40092549897D40EAC10024490884CD
:1045900008464088A0F5806000B222490880204883
:1045A0008088A0F5806000B248801D48C088A0F5D2
:1045B000806000B288801A480089A0F5806000B24F
:1045C000C8801749498908B201F022FB15490881C2
:1045D0001349898908B201F01BFB1249488110492F
:1045E000C98908B201F006FB0E4988810C49098A85
:1045F00008B201F0FFFA0B49C8810948408AA0F5CA
:10460000806000B208820648808AA0F5806000B20F
:104610004882FCF727F810BDA800002004450020C0
:10462000CC440020F044002010B519220249034870
:10463000FEF737FD10BD00001D45002004040020DA
:1046400000BF012001F050FBFBE7000010B500BFE8
:10465000502080F31188BFF34F8FBFF36F8F00BFDF
:1046600002F050FF18B14FF080500449086000BFBD
:10467000002080F3118800BF10BD000004ED00E0B1
:1046800000B593B0302107A8FBF73CFF142102A826
:10469000FBF738FF00BF002001902548006840F07C
:1046A0008050234908600846006800F0805001905F
:1046B00000BF00BF00BF002001901E48006840F40A
:1046C00080401C4908600846006800F48040019062
:1046D00000BF00BF092007904FF4803008900120F0
:1046E0000C9002200D9041050E9106210F91A821FA
:1046F0001091022111910421129107A8FEF79EF852
:1047000008B1FCF760FC0F2002900220039000200B
:1047100004904FF4A05005904FF48050069005216E
:1047200002A8FDF729FF08B1FCF74DFC13B000BD4E
:1047300040380240007000400348006840F47000B8
:10474000014908607047000088ED00E010B502489C
:10475000FEF7E1FB10BD0000D406002010B5026892
:104760002B4B98420ED0B0F1804F0BD0294B984282
:1047700008D0294B984205D0284B984202D0284BAC
:10478000984203D122F070024B681A43204B9842A2
:1047900020D0B0F1804F1DD01E4B98421AD01E4B36
:1047A000984217D01D4B984214D01D4B984211D0FF
:1047B0001C4B98420ED01C4B98420BD01B4B98427E
:1047C00008D01B4B984205D01A4B984202D01A4B86
:1047D000984203D122F44072CB681A4322F080033E
:1047E0004C6943EA04028B68C3620B688362084B1E
:1047F000984202D00A4B984201D10B6903630368C7
:1048000043F00403036001234361026010BD000014
:10481000000001400004004000080040000C00407F
:1048200000040140004001400044014000480140B4
:1048300000180040001C00400020004070B50446F5
:10484000A56B0020E8852846FEF790FC70BD70B58A
:1048500006460025B46B20684069C0F3C01594F883
:104860004100212805D125B10020E084204600F038
:10487000C8F820684069C0F3801594F842002228E7
:1048800005D125B10020E085204600F074F8606C69
:1048900040F0100060642046FEF768FC70BD70B503
:1048A0000546AC6B2868006800F48070002842D18F
:1048B000E08500BF00BF21680C3151E8001F21F4E2
:1048C000807021680C3141E80002002AF3D100BF5A
:1048D00000BF00BF2168143151E8001F21F0010022
:1048E0002168143141E80002002AF3D100BF00BF63
:1048F00000BF2168143151E8001F21F040002168F9
:10490000143141E80002002AF3D100BF202084F8CE
:104910004200206B01280ED100BF00BF21680C317E
:1049200051E8001F21F0100021680C3141E800021D
:10493000002AF3D100BF00206063206B012804D15E
:10494000A18D2046FEF7E6FB02E02046FEF79AFF27
:1049500070BD70B50546AC6B01206063206B01280B
:1049600005D1A08D41082046FEF7D4FB02E0204689
:10497000FEF789FF70BD00BF00BF02680C3252E82D
:10498000002F22F4907102680C3242E80013002BD1
:10499000F3D100BF00BF00BF0268143252E8002FFD
:1049A00022F001010268143242E80013002BF3D117
:1049B00000BF016B01290ED100BF00BF02680C329D
:1049C00052E8002F22F0100102680C3242E8001376
:1049D000002BF3D100BF202180F842100021016399
:1049E000704710B504462068C06820F04000216878
:1049F000C860202084F841002046FEF745FF0020D3
:104A000010BD00BF00BF02680C3252E8002F22F038
:104A1000C00102680C3242E80013002BF3D100BF42
:104A2000202180F841107047F8B504460025002683
:104A300094F84200222873D1A068B0F5805F0BD1B2
:104A4000206948B9A66A20684068C0F30800308031
:104A5000A06A801CA06214E0A56AA068B0F5805F1F
:104A600003D0A06828B9206918B920684068287068
:104A700004E02068406800F07F002870A06A401CB5
:104A8000A062E08D401E80B2E085002846D12068FB
:104A9000C06820F020002168C8602068C06820F449
:104AA00080702168C8602068406920F0010021689A
:104AB0004861202084F8420000206063206B0128B8
:104AC00026D10020206300BF00BF21680C3151E8CF
:104AD000001F21F0100021680C3141E80002002A7B
:104AE000F3D100BF2068006800F0100010280AD140
:104AF00000BF002000902068006800902068406897
:104B0000009000BF00BFA18D2046FEF703FB02E02E
:104B10002046FEF7B7FE0020F8BD01E00020FBE7CD
:104B20000220F9E72DE9F84F04462068006920F4D7
:104B30004050E1680843216808612169A068084382
:104B400061690843E169084300902068C06849F240
:104B50000C618843009908432168C8602068406957
:104B600020F44070A16908432168486176492068B3
:104B7000884203D075492068884203D1FDF7F6FDCD
:104B8000814602E0FDF7E2FD8146E069B0F5004FA5
:104B90006CD102206168A0FB015003461920A9FBDB
:104BA000007001462A463846FBF7BEFB6421B0FB85
:104BB000F1F04FEA001A02206168A0FB01510B4698
:104BC0001920A9FB00712A463846FBF7ADFB834646
:104BD00002206168A0FB015003461920A9FB007167
:104BE0002A463846FBF7A0FB6421B0FBF1F000EB4E
:104BF000C00101EB0010ABEB8000322101EBC000E3
:104C00006421B0FBF1F000F0F8000AEB400A02204A
:104C10006168A0FB015003461920A9FB0070014602
:104C20002A463846FBF780FB834602206168A0FBDA
:104C3000015003461920A9FB00712A463846FBF7AC
:104C400073FB6421B0FBF1F000EBC00101EB00103D
:104C5000ABEB8000322101EBC0006421B0FBF1F02E
:104C600000F007005044216888606AE00420616811
:104C7000A0FB015003461920A9FB007001462A46FB
:104C80003846FBF751FB824604206168A0FB0150C7
:104C900003461920A9FB007001462A463846FBF757
:104CA00043FB6421B0FBF1F000EBC00101EB00100D
:104CB000AAEB8000322101EB00106421B0FBF1F07F
:104CC00000F0F00A04206168A0FB0170034619207F
:104CD000A9FB00513A462846FBF726FB6421B0FBAE
:104CE000F1F00AEB001A04206168A0FB01510B46A9
:104CF0001920A9FB00712A463846FBF715FB8346AD
:104D000004206168A0FB015003461920A9FB007034
:104D100001462A463846FBF707FB6421B0FBF1F059
:104D200000EBC00101EB0010ABEB8000322101EB86
:104D300000106421B0FBF1F000F00F005044216836
:104D40008860BDE8F88F00000010014000140140A9
:104D500077B581B0044615460298A062A58500206B
:104D60006064222084F842002C48E16BC8632C4820
:104D7000E16B08642B48E16BC8640020E16B0865B7
:104D800002AE32682368191D2B46E06BFDF7CAF8A6
:104D900038B110206064202084F84200012004B063
:104DA00070BD00BF0020009020680068009020685F
:104DB0004068009000BF00BF206970B100BF00BF15
:104DC00021680C3151E8001F41F4807021680C31DA
:104DD00041E80002002AF3D100BF00BF00BF2168F4
:104DE000143151E8001F41F001002168143141E8FD
:104DF0000002002AF3D100BF00BF00BF21681431B8
:104E000051E8001F41F040002168143141E80002E0
:104E1000002AF3D100BF0020C1E700009F4800082E
:104E2000534900084F480008014691F841002128E5
:104E300028D18868B0F5805F0BD1086948B90A6A43
:104E40001088C0F308000B685860086A801C08626C
:104E500005E00B6A581C086218780B685860C88C0B
:104E6000401E80B2C88458B90868C06820F080002D
:104E70000B68D8600868C06840F040000B68D860D4
:104E8000002070470220FCE710B50248FEF770F9D9
:104E900010BD0000BC03002010B50248FEF768F901
:104EA00010BD00000404002010B50248FEF760F9B0
:104EB00010BD00004C04002000BFFEE710B52DED32
:104EC000028B5D48808F1E2812DC5C4890ED020A40
:104ED0009FED5B1AC0EE010A574890ED060AB8EE46
:104EE000400A9FED581A00EE810A574880ED010AEA
:104EF00008E0554890ED010ADFED520A30EE600AF5
:104F000080ED010A504890ED010ADFED4E0AB4EE43
:104F1000E00AF1EE10FAECDC08E04B4890ED010AF3
:104F2000DFED480A30EE200A80ED010A464890ED98
:104F3000010ADFED460AB4EEE00AF1EE10FAECD316
:104F40003E4890ED020A9FED3E1AC0EE010A9FED29
:104F50003D0A60EE808A384890ED060AB8EE400AB5
:104F600030EE288A9FED370AB4EEC08AF1EE10FACF
:104F700006DD9FED340A38EE400AB0EE408A0CE0C0
:104F80009FED320AB4EEC08AF1EE10FA05D29FED21
:104F90002D0A38EE000AB0EE408ABDEEC80A10EEC7
:104FA000100A00B22A49C881244890ED050ADFEDB5
:104FB000290A20EE200A284880ED000A0846007BD6
:104FC000C8B92148D0ED010AB0EE600A9FED231A5E
:104FD000F0EE480A2248FEF7EBFF224880ED000A77
:104FE00090ED000A1C48D0ED000A30EE600A12482D
:104FF00080ED0A0A1CE01648007B012818D11248EF
:10500000D0ED010AB0EE600A9FED141AF0EE480AE6
:105010001548FEF7CDFF134880ED000A90ED000A19
:105020000D48D0ED000A30EE600A034880ED0A0A10
:10503000BDEC028B10BD00000C4400209C450020FC
:105040000000B44300FF7F477448002000FF7FC783
:10505000B4450020AB0A3643F400002000FE7F4731
:1050600080480020F0000020CC48002003B40198C4
:105070004100009850EAC12018BF04204A0D18BF13
:1050800040F0010040F2FF72B2EB515F08BF40F008
:105090000200012808BF052002B0704702480068DE
:1050A000C0F30220704700000CED00E010B50028AE
:1050B00004DB0A07130E054A135406E00A07140E10
:1050C000034A00F00F031B1FD45410BD00E400E09E
:1050D00018ED00E00000000010B52F499FED2C1BDB
:1050E0002DED020B84B0059820F000408842D8BF17
:1050F0009DED040B2DDD2949884209D1049840B962
:105100004FF00100FBF72DFA00F0AEFC06B010BD29
:1051100005DB9DED040B00F09BFC06B010BD68465E
:105120009DED040B00F0ACF810F0030004BF9DED02
:10513000021B9DED000B0CD001280ED09DED021B33
:105140009DED000B022817D0012000F0E9FB06B00E
:1051500010BD00F0B1FA06B010BD9DED021B9DED33
:10516000000B012000F0DCFB51EC100B02F0A0FB67
:1051700006B041EC100B10BD00F09EFA51EC100B84
:1051800002F096FB06B041EC100B10BD00000000D1
:105190000000000000000000FB21E93F0000F07F5C
:1051A0002DED020B019820F0004001909DED000BC9
:1051B00002B070470000000010B52F499FED2C1B76
:1051C0002DED020B84B0059820F000408842DCBF32
:1051D00000209DED040B32DD2849884209D1049856
:1051E00040B94FF00100FBF7BCF900F03DFC06B000
:1051F00010BD05DB9DED040B00F02AFC06B010BDD0
:1052000068469DED040B00F03BF810F0030011D050
:10521000012818D09DED021B9DED000B02281AD02D
:1052200000F04AFA51EC100B02F042FB06B041ECE0
:10523000100B10BD9DED021B9DED000B012000F039
:105240006FFB06B010BD9DED021B9DED000B00F045
:1052500033FA06B010BD012000F062FB51EC100BD8
:1052600002F026FB06B041EC100B10BD0000000060
:105270000000000000000000FB21E93F0000F07F7B
:105280002DE9F14F04462DED020B2DED088B8AB070
:105290009FEDE70B80ED020B139EE74826F00045DB
:1052A00085420ADC9DED120B002084ED000B0AB054
:1052B000BDEC088B03B0BDE8F08FE0489FEDE0AB9C
:1052C0009FEDE1BBA84247DDE14F9FEDE39B9FEDE2
:1052D000E48B9DED120B53EC1A2B51EC100B002EAE
:1052E0001CDD02F005FF41EC100BBD4208D053EC71
:1052F0001B2B51EC100B02F0FBFEC4E900010BE08C
:1053000053EC192B51EC100B02F0F2FE53EC182B5E
:1053100002F0EEFEC4E900010120C8E702F006FB3E
:1053200041EC100BBD4208D053EC1B2B51EC100B81
:1053300002F0FCFAC4E900010BE053EC192B51EC2C
:10534000100B02F0F3FA53EC182B02F0EFFAC4E959
:1053500000014FF0FF30AAE7C348A84279DB9DED7A
:10536000120B51EC100B00F0FFFB41EC180B9FED02
:10537000C00B53EC102B02F07BFD9FEDBF1B53ECD9
:10538000112B02F0D3FA02F0DDFC074602F009FD12
:1053900041EC190B53EC1A2B02F06AFD53EC182B5D
:1053A00002F09AFE41EC180B53EC1B2B51EC190B3D
:1053B00002F05EFDDFF8C8A241EC100B4FEA155871
:1053C0000125FA4453EC102B51EC180B02F090FE1F
:1053D000032DC4E900013DD0C1F30A5005EB45118E
:1053E000A8EB00001139814234DA0AEB051BB0EE5C
:1053F00048AA9BED000BF0EE68AA53EC102B51EC81
:10540000190B02F035FD41EC1B0B51EC1A0B53EC60
:105410001B2B02F06DFE41EC180B51EC1A0B53ECF8
:10542000182B02F065FE53EC1B2B02F061FE9BED86
:10543000020B41EC1A0B53EC102B51EC190B02F040
:1054400017FD53EC1A2B02F053FE41EC100B6D1CB0
:10545000B8E70EE0002EA8BF3846BFF628AF94ED9F
:10546000000B51EC100B02F023FAC4E90001784262
:105470001DE7C6F3130040F4801EC6F30A50A0F2E5
:10548000F530471100F01F05C5F12000DDF848B0E8
:1054900008900020069007900520EC467949002DE1
:1054A00007EB0002794408BF51F8221009D051F8E7
:1054B000223001EB8201AB404A68089922FA01F1DF
:1054C0001943A1FB0E26A1FB0B131A449A4234BFC9
:1054D0000123002303EB06080CEB8003D3E901A6AC
:1054E0000E448E4234BF0121002192448A4411B1FE
:1054F000924502D903E0924501D2012100E000214A
:10550000C3E901A641444CF82010011EA0F101009E
:10551000C4DC029800F10050850F0298DDE90367B2
:105520008000DDF8148002F03CFC41EC1A0B3046A0
:1055300002F04EFC9FED541B53EC112B02F098FC33
:1055400041EC1B0B384602F043FC9FED511B53EC22
:10555000112B02F08DFC41EC180B404602F038FC98
:105560009FED4D1B53EC112B02F082FC41EC190B0B
:1055700051EC180B53EC192B02F0D8F953EC1B2B00
:1055800002F0D4F953EC1A2B02F0D0F9CDE908015E
:10559000002008909DED080B53EC1A2B51EC100BDA
:1055A00002F0A6FD53EC1B2B02F0A2FD53EC182BCE
:1055B00002F09EFD53EC192B02F08EFD9FED381B7F
:1055C00053EC112B02F054FC9FED370B41EC180B00
:1055D00053EC102B9DED080B51EC100B02F048FC26
:1055E00053EC182B02F0A2F99FED310B41EC180B94
:1055F00053EC102B9DED080B51EC100B02F038FC16
:1056000053EC182B02F092F941EC100B139810F0A8
:10561000004F06D06D4251EC100B02F049F941ECFD
:10562000100B284684ED000B41E60000000000004E
:105630000000000000000000FB21E93F7CD902408F
:1056400000004054FB21F93F3163621A61B4D03D40
:10565000FB21F93F000000000000601A61B4D03D5A
:105660007370032E8A19A33BFB213941000000000F
:1056700083C8C96D305FE43F000000000000E03FD8
:105680002A31000078300000000000000000103EC9
:10569000000000000000103C000000000000103A74
:1056A000182D4454FB21F93D3326A611460B113C1D
:1056B00000000054FB21F93D10B52DED040B2DED3C
:1056C000088B82B0B0EE419AF0EE619A0B9820F010
:1056D00000449FED4BABB4F1795F11DA9DED0A0BFD
:1056E00051EC100B02F02EFB002801BFB0EE4A0A6D
:1056F000F0EE6A0A02B0BDEC088B04BF04B010BD26
:105700009DED0A0B53EC102B51EC100B02F0B0FB8B
:1057100041EC180B3C480621B0EE480AF0EE680A4E
:10572000784400F081F853EC182B51EC100B02F088
:105730009FFB9DED0A0B41EC1B0B53EC192B51EC1D
:10574000100B02F095FB41EC190B53EC1B2B51ECA9
:10575000180B02F08DFB53EC192B02F0C9FC9FEDE6
:105760002C0B41EC190B53EC102B51EC180B02F0E5
:105770007FFB41EC100B2848844210DA53EC192BC4
:1057800051EC100B02F0B4FC53EC1A2B02F0A4FC09
:1057900041EC100B02B0BDEC088B04B010BD1F48EB
:1057A000A042BCBF9FED1E1B8DED001B06DBA4F5C8
:1057B00000100190002000909DED001B51EC100B9B
:1057C00053EC112B02F094FC9DED000B41EC180BF7
:1057D00053EC102B51EC1A0B02F08AFC41EC1A0B23
:1057E00053EC192B51EC180B02F082FC53EC1A2BE2
:1057F00002F072FC41EC100BCCE70000000000004E
:10580000000000000000F03F9C2D000000000000A0
:10581000000000000000E03F3333D33F0000E93FC9
:10582000000000000000D23F70B504462DED028B51
:105830004D1E00EBC500B0EE408AF0EE608A90EDA0
:10584000000B35F0060017D053EC182B51EC100B61
:1058500002F00EFB41EC100B6D1E04EBC50090ED49
:10586000001B51EC100B53EC112B02F05FF841ECD4
:10587000100B35F00600E7D1022D36D0042D1CD0D8
:10588000062D1CBFBDEC028B70BD53EC182B51ECE8
:10589000100B02F0EDFA94ED0A1B53EC112B02F001
:1058A00045F853EC182B02F0E3FA94ED081B53EC87
:1058B000112B02F03BF841EC100B53EC182B51EC80
:1058C000100B02F0D5FA94ED061B53EC112B02F0ED
:1058D0002DF853EC182B02F0CBFA94ED040B53EC9B
:1058E000102B02F023F841EC100B53EC182B51EC69
:1058F000100B02F0BDFA94ED021B53EC112B02F0D9
:1059000015F853EC182B02F0B3FA94ED001B53EC8E
:10591000112B02F00BF8BDEC028B41EC100B70BDAB
:1059200031B504462DED040B2DED0A8BB0EE41BAD6
:10593000F0EE61BA0B989DED0A0B20F00040B0F13B
:10594000795F0DDA51EC100BFFF790FB042808BFCC
:1059500000F09AF89DED0A0BBDEC0A8B05B030BD46
:1059600053EC102B51EC100B02F082FA41EC180BA7
:105970009DED0A0B53EC182B51EC100B02F078FA4A
:1059800041EC190B2C48B0EE480AF0EE680A0521EC
:105990007844FFF749FF9FED2ACBB0EE40AAF0EE26
:1059A00060AA9CB353EC1C2B51EC190B02F060FA6B
:1059B00041EC1C0B53EC1A2B51EC190B02F058FA6A
:1059C0009FED210B41EC190B53EC102B51EC1B0BF1
:1059D00002F04EFA53EC192B02F08AFB53EC182B11
:1059E00002F046FA53EC1B2B02F082FB53EC1C2B0B
:1059F00002F07EFB9DED0A1B53EC112B02F06CFBB9
:105A0000BDEC0A8B05B041EC100B30BDFFE753EC49
:105A10001A2B51EC180B02F02BFA53EC1C2B01F053
:105A200085FF53EC192B02F023FA9DED0A1B53EC72
:105A3000112B01F07BFFE3E7242C000000000000A5
:105A4000495555555555C5BF000000000000E03FC1
:105A500010B553EC102B51EC100B01F067FF41EC2B
:105A6000100B10BD000000009FED050B10B553ECAE
:105A7000102B51EC100B02F00DF841EC100B10BD87
:105A800000000000000000009FED050B10B553EC76
:105A9000102B51EC100B02F0EBF941EC100B10BD88
:105AA0000000000000000010D0ED000AF4EEC00A73
:105AB000F1EE10FA01DD80ED000AD0ED000AB1EE42
:105AC000401AF4EEC10AF1EE10FA03D2F1EE400AE8
:105AD000C0ED000A704710B52DED088BB0EE408A7E
