:020000040800F2
:10000000B85E002049030008AD620008795200087C
:10001000A9620008411C0008E98D000800000000EA
:10002000000000000000000000000000890200083D
:10003000A525000800000000E5020008B1690008DD
:1000400063030008630300086303000863030008F8
:1000500063030008630300086303000863030008E8
:1000600063030008630300086303000863030008D8
:1000700029210008630300083921000863030008F0
:10008000630300086303000863030008551C0008AD
:10009000451C0008630300086303000863030008AD
:1000A00063030008B16A00086303000863030008E3
:1000B0006303000863030008630300086303000888
:1000C0006303000863030008630300086303000878
:1000D00063030008B98D000863030008C98D000898
:1000E0006303000863030008630300086303000858
:1000F0006303000863030008630300086303000848
:100100006303000863030008630300086303000837
:100110006303000863030008630300086303000827
:1001200063030008492100085921000863030008FF
:10013000630300086303000863030008751C0008DC
:10014000651C0008630300086303000863030008DC
:10015000630300086921000879210008D98D00088F
:1001600063030008630300086303000863030008D7
:100170006303000863030008630300080000000035
:10018000630300086303000800F002F800F06CF855
:100190000AA090E8000C82448344AAF10107DA45E2
:1001A00001D100F061F8AFF2090EBAE80F0013F0C8
:1001B000010F18BFFB1A43F00103184780CA000063
:1001C000A0CA00000A444FF0000C10F8013B13F0E5
:1001D000070408BF10F8014B1D1108BF10F8015BA0
:1001E000641E05D010F8016B641E01F8016BF9D193
:1001F00013F0080F1EBF10F8014BAD1C0C1B09D1EA
:100200006D1E58BF01F801CBFAD505E014F8016B5B
:1002100001F8016B6D1EF9D59142D6D370470000ED
:100220000023002400250026103A28BF78C1FBD8FF
:10023000520728BF30C148BF0B60704766290CF0D9
:10024000C281642900F02C81002070471FB50CF09A
:10025000B0F900F0BBFD0400002000210BF01EFBF4
:10026000E0601FBD10B510BD00F0B4FE1146FFF7F1
:10027000EDFF09F0B4FC00F0D2FE03B4FFF7F2FF8B
:1002800003BC00F015FF00002C4B19680868B0E8AB
:10029000F04F80F30988BFF36F8F4FF0000080F3B9
:1002A000118870470000000008480068006880F36B
:1002B00008884FF0000080F3148862B661B6BFF37F
:1002C0004F8FBFF36F8F00DF00BF00BF08ED00E06E
:1002D000DFF80C00016841F470010160704700BF55
:1002E00088ED00E0EFF30980BFF36F8F134B1A68BE
:1002F0001EF0100F08BF20ED108A20E9F04F1060AB
:1003000009B44FF0500080F31188BFF34F8FBFF353
:100310006F8F0AF0D9FB4FF0000080F3118809BC01
:1003200019680868B0E8F04F1EF0100F08BFB0EC75
:10033000108A80F30988BFF36F8F70474400002054
:10034000EFF30580704700000948804709480047DF
:10035000FEE7FEE7FEE7FEE7FEE7FEE7FEE7FEE775
:10036000FEE7FEE704480549054A064B70470000D2
:100370009D6A000889010008B8580020B85E002076
:10038000B85A0020B85A002053EA020C00F06980E5
:100390002DE9F04B4FF00006002B1FBFB3FA83F599
:1003A00003FA05F424FA05F65E4012BF1643B2FACA
:1003B00082F502FA05F4C5F120051EBF22FA05FCFC
:1003C00044EA0C04203556EA044C4FEA144418BFA2
:1003D000641C4FF000084FF00009904271EB030CD1
:1003E00039D3002919BFB1FA81F701FA07F6B0FA3B
:1003F00080F700FA07F6C7F120071EBF20FA07FCB6
:1004000046EA0C062037B6FBF4FCA7EB0507103FC5
:1004100007F01F0BCBF120060CFA0BFB2CFA06F6AB
:1004200044BFB3460026202FA4BF5E464FF0000B0A
:100430005BEA060C08BF4FF0010B19EB0B09ABFB95
:10044000027C48EB0608C01B06FB02CC0BFB03CC6E
:1004500071EB0C01C1E70B46024641464846BDE838
:10046000F08B13B54FF000004FF00001AFF30080A8
:10047000BDE81C40704700000FB41CB5074B06AA2E
:100480007B4469460090059800F04BFC00206946CB
:1004900000F05AFC1CBC5DF814FB0000C50800000D
:1004A0002DE9F0410646002410687529314616A54D
:1004B00010D0AFF30080002802DA404213A507E015
:1004C00031688A0701D512A502E0490704D511A5B4
:1004D000012401E0AFF3008000210A2206F1240785
:1004E00009E0B0FBF2FCB0FBF2F302FB1C00303081
:1004F00078541846491C0028F3D123462A46304632
:10050000BDE8F04100F09FB9000000002D000000A0
:100510002B000000200000002DE9F0474FF0000AFA
:1005200089460446C0F820A02046E1688847002894
:1005300076D0252806D0D4E901219047206A401CB6
:100540002062F1E7E168204600258847C4F81CA036
:1005500006460027C4F818A02A2E09D0304609F014
:10056000B3FA38B304EB8708303EC8F8186019E0D6
:1005700059F8041B204604EB87029161E168884723
:10058000012F064618D1E069002820DA25F0200561
:100590001DE0D8F8180000EB800006EB4000303872
:1005A000C8F818002046E1688847064609F08CFA2A
:1005B0000028EED1012F0AD02E2E08D12046E16866
:1005C00088477F1C0646022F45F02005C4DBA06942
:1005D000002803DA404245F00105A061E80701D098
:1005E00025F01005B6B1A6F14100192802D8203631
:1005F00045F400654A463146204625604D46FFF7E2
:100600001DFE58B1012806D0ED1D25F0070000F1B0
:10061000080989E704E005F1040985E730468AE71F
:10062000206ABDE8F087032A40F2308010F0030C06
:1006300000F0158011F8013BBCF1020F624498BF35
:1006400011F801CB00F8013B38BF11F8013BA2F1D2
:10065000040298BF00F801CB38BF00F8013B11F04D
:10066000030300F06780083AC0F0088051F8043BAB
:10067000083A51F804CBA0E80810F5E7121D5CBF5A
:1006800051F8043B40F8043BAFF30080D20724BF8D
:1006900011F8013B11F801CB48BF11F8012B24BF21
:1006A00000F8013B00F801CB48BF00F8012B704770
:1006B000431A28BF9A427FF6B6AF032A104411446A
:1006C00040F2268010F0030F1EBF11F8013D521EAC
:1006D00000F8013D10F0030F7FF4F6AF11F00303B3
:1006E00000F04A83083AC0F00B8051F8043D083A04
:1006F00051F804CD40F8043D40F804CDFFF7F3BFB6
:10070000121D5CBF51F8043D40F8043DAFF300807A
:10071000D20724BF11F8013D11F801CD48BF11F8EF
:10072000012C24BF00F8013D00F801CD48BF00F8BE
:10073000012C704710B5203AC0F00B80B1E818507A
:10074000203AA0E81850B1E81850A0E81850BFF4BB
:10075000F5AF5FEA027C24BFB1E81850A0E818505A
:1007600044BF18C918C0BDE810405FEA827C24BFAE
:1007700051F8043B40F8043B08BF7047D20728BF3C
:1007800031F8023B48BF11F8012B28BF20F8023B8B
:1007900048BF00F8012B70474FF000020429C0F059
:1007A000128010F0030C00F01B80CCF1040CBCF1A3
:1007B000020F18BF00F8012BA8BF20F8022BA1EBF5
:1007C0000C0100F00DB85FEAC17C24BF00F8012BDA
:1007D00000F8012B48BF00F8012B70474FF00002D2
:1007E00000B5134694469646203922BFA0E80C5027
:1007F000A0E80C50B1F12001BFF4F7AF090728BF02
:10080000A0E80C5048BF0CC05DF804EB890028BF7D
:1008100040F8042B08BF704748BF20F8022B11F0A6
:10082000804F18BF00F8012B704770477047704722
:1008300010B500F0CFFA006810BD10B5044600F006
:10084000C9FA046010BD2DE9F0470D46994692465D
:10085000044600F124080168880604D5E06921F007
:100860001001216000E00120A84201DD471B00E0EB
:100870000027A1697A1902EB0900081AA061207803
:10088000C00602D42046AFF30080002608E0D4E979
:1008900001211AF806009047206A401C761C20624D
:1008A0004E45F4DB2078C0060AD52046AFF3008021
:1008B00006E0D4E9012130209047206A401C2062E4
:1008C000381EA7F10107F4DC07E0D4E9012118F88C
:1008D00005009047206A401C2062281EA5F10105F2
:1008E000F3DC2046AFF300802078000602D502201A
:1008F000BDE8F0870120FBE770472DE9FF4F0C466C
:100900001E464FF0FF378BB0D2E90001DDF8608062
:100910000A908A46C1F30A5505B93D4600210846AA
:100920004FF00000BAF1000F00F4400005DA00EBD0
:1009300080004FF4400101EA50004FEA9059B9F1AC
:10094000010F00DDB9460A9850EA4A000ED044F67D
:100950001050A5F2FF3545432F14B8F1000F1ED0FB
:100960007542291E1EDDC9F100021CE0B8F1010F1D
:100970004FF0000001D0302103E0F24305E02154A4
:10098000401CB042FBDB30460022002121540B9971
:10099000C1F80880C1E900200FB0BDE8F08FBD1B91
:1009A0006D1CDEE74A4600DA694206A800F09CFAB0
:1009B00006AB93E8070003AB83E8070050460A99AB
:1009C00000F07DFB8DE80700A0F500501F38009077
:1009D0000398002D0ADD42F21F014A460844002315
:1009E00003A90390684600F0E6FD09E0A0F5005079
:1009F0004A461F38002303A90390684600F0F0FD23
:100A00008DE807000004000C03D04FF0FF304108D0
:100A100000E01046B8F1000F03D000220092154606
:100A20001EE0751E05D400F0D9F9303262556D1EF6
:100A3000F9D5B3460122084302D000227F1C04E00E
:100A40002078302801D100227F1E002A099784D007
:100A50001DE0112D07DA00F0C1F9303262556D1C2E
:100A600050EA0102F5D1084302D00098C8B10EE067
:100A70000021681E05E0235C625C63542254401E22
:100A8000491C8142F7DBAB46A81B401E09900020A1
:100A900004F80B000B98099AC0F80880C0E9002BF5
:100AA0007AE711264FF0000857E72DE9F04F884606
:100AB0000446D21D22F0070191B0D1E90001CDE931
:100AC0000A0108F0A3FA02460B98C00F01D02D20AE
:100AD00007E02068810701D52B2002E0202101EAF0
:100AE000C000032A099001D0072A05DB03464146CE
:100AF000204600F0B9F90BE12078800601D5E069C5
:100B000000E00620B8F1650F814606D0B8F1660F07
:100B100018D0B8F1670F70D131E00020B9F1110F92
:100B2000009001DB112301E009F101030AAA01A9E8
:100B30000CA8FFF7E2FEDDE90C70002609F10105C3
:100B4000834647E001204B4600904FF000470AAA39
:100B500001A90CA8FFF7D1FEDDE90DB00C995D46A7
:100B6000002610B909F101000D18B9EB050003D4F6
:100B7000C0F1FF3609F10105A5EB09002BE0B9F141
:100B8000010F01DA4FF001090020B9F1110F0090B7
:100B9000484601DD112300E003460AAA01A90CA87A
:100BA000FFF7ABFEDDE90C704D460026834620784A
:100BB00000070AD4AB4500DA5D4601A8012D04DD2B
:100BC000411911F8011C302907D04F4502DA17F1FD
:100BD000040F04DA012082460FE06D1EEEE7002FBD
:100BE00002DCED1B3E4403E0781CA84200DD7D1CC6
:100BF000B81B00F1010A4FF000472078000703D42A
:100C0000AA4501DB4FF0FF3A0021B7F1004F0DF18B
:100C100043088DF8431024D002202B23002F01DA43
:100C20007F422D230A21021EA0F1010000DC5FB1EA
:100C300097FBF1FC97FBF1F201FB1C7C17460CF1D2
:100C4000300C08F801CDEEE7A8F10100037021880F
:100C5000090501D5452100E06521A0F1010800F852
:100C6000011C09980FA9A1EB0807FF1D00B1012085
:100C7000411901EBEA70A1693844081A401EA061CD
:100C80002078C00602D42046AFF30080099828B12E
:100C9000D4E901219047206A401C20622078C006D8
:100CA00022D52046AFF300801EE0002E04DBB345C2
:100CB00002DD01A8805D00E03020D4E901219047E9
:100CC000206A401C2062761CAAF101005FEA000A3B
:100CD0000AD100F07BF8C0680168405CD4E90121CA
:100CE0009047206A401C2062281EA5F10105DCDC2B
:100CF00007E0D4E9012118F8010B9047206A401C55
:100D00002062381EA7F10107F3DC2046AFF3008014
:100D1000032011B041E6000001694A1C0261087815
:100D2000704700B58FB0CDE901310021059105492B
:100D30007944CDE9031011466846FFF7EDFB0FB08B
:100D400000BD0000E5FFFFFF0A6802F8010B0A6022
:100D50007047431A28BF9A427FF6ECAC104410F05B
:100D6000030F11441EBF11F8013D521E00F8013D52
:100D700010F0030F7FF4F6AF103AC0F00A8010B500
:100D800031E91850103A20E91850BFF4F9AFBDE826
:100D90001040530724BF31E9081020E9081044BF70
:100DA00051F8043D40F8043D12F0030F08BF7047AE
:100DB000D20728BF31F8023D48BF11F8012C28BFE7
:100DC00020F8023D48BF00F8012C704700487047EA
:100DD00074580020004870475458002030B5B0F1D6
:100DE0000A024FEA900E71F100034EEA817EB0EBE9
:100DF0000E0061EB91014FEA101E4EEA017E10EBEE
:100E00000E0041EB11114FEA102E4EEA016E10EB6D
:100E10000E0041EB11214FEA104E4EEA014E10EB4D
:100E20000E0041EB1141401841F100014FEAD000A2
:100E300040EA41704FEAD10110EB80054FEA81048E
:100E400044EA907444EB01046D1944EB0404521B12
:100E5000A3414FF0000348BF0A3200D530BD401C0B
:100E600041F1000130BD00002DE9F0411F4604466C
:100E700003260168072A01F4006004DB08B116A507
:100E800005E016A503E008B115A500E015A521F0C1
:100E900010002060A069C01EA0610FB1401EA061BB
:100EA0002046AFF300804FB1D4E901213846904786
:100EB000206A401C2062C01C206206E0206AFAE71B
:100EC000D4E9012115F8010B9047761EF8D220468F
:100ED000AFF30080BDE8F0814E414E006E616E00C0
:100EE000494E4600696E66002DE9F0478146164678
:100EF0008AB0354878440DC88DE80D0032487844F2
:100F0000801C03AC0DC884E80D0041F69B300844FA
:100F1000372190FBF1F290FBF1F5A5F1800501FB83
:100F200012041B3C02D56442012000E00020DFF8DF
:100F300098A080460027FA44AAF1BE0A0EE0E00716
:100F40000AD03246684607EB470101230AEB8101CC
:100F500000F046FB8DE8070064107F1C002CEED1EA
:100F6000194F7F44AE3F19E0E80715D007EB041096
:100F70000DF1180A90E80E008AE80E00C068F042F1
:100F800001D1981908903246012306A903A800F060
:100F900027FB03AB83E807006D10641C002DE3D131
:100FA0004FF0010332466946B8F1000F03A802D0A2
:100FB00000F001FB01E000F013FBC9E90001C9F8F2
:100FC00008200AB0BDE8F08794BC000000487047D4
:100FD000545800207546FFF7F9FFAE4605006946F4
:100FE000534620F00700854618B020B5FFF7BAF940
:100FF000BDE820404FF000064FF000074FF000081A
:101000004FF0000B21F00701AC46ACE8C009ACE89A
:10101000C009ACE8C009ACE8C0098D46704710B5FE
:101020000446AFF300802046BDE81040FFF725B925
:101030004FF0013C50F8042B51F8043B9A4221D167
:10104000A2EB0C03934313EACC1317D150F8042BF3
:1010500051F8043B9A4215D1A2EB0C03934313EAD7
:10106000CC130BD150F8042B51F8043B9A4209D110
:10107000A2EB0C03934313EACC13DBD04FF0000038
:10108000704700BFD01A01BAB1FA81F101F018011E
:1010900022FA01F0CB40C1F12001DBB2C0B2C01A8C
:1010A0002CFA01F3D11A914311EAC311E6D170472A
:1010B00001491820ABBEFEE72600020070475FEA38
:1010C000400C08BF91F0000F4FEA8C234FEAC12279
:1010D00043EA51514FEA1C5018BF00F5F0404FEA67
:1010E000300018BF41F000415FEA6C5C00F02980DD
:1010F000BCF1FF3F08BF40F080407047130C06BFB3
:1011000012044FF0100C4FF0000C130E04BF12022B
:101110000CF1080C130F04BF12010CF1040C930F17
:1011200004BF92000CF1020CD30F04BF52000CF16B
:10113000010C11464FF00002A0F11F00A0EB0C00C3
:10114000704711F0004F08BF704731F000413FF485
:10115000D5AF0B0C06BF09044FF0100C4FF0000C7C
:101160000B0E04BF09020CF1080C0B0F04BF0901A0
:101170000CF1040C8B0F04BF89000CF1020CCB0F97
:1011800004BF49000CF1010CCCF12003A0EB0C00D2
:1011900022FA03F302FA0CF241EA030100F1010022
:1011A000704720F07F4C80EA030023F07F47ACEBD0
:1011B000070303F57C5300F0004003F1FF032DE922
:1011C00080494FEA154B09B44FEA144325EA0B4E08
:1011D00024EA03480FF2042606EB132749083E7859
:1011E0005FEA320203FB0667C7F5000707FB06F656
:1011F0004FEA54374FEAD64606F1020607FB066C63
:10120000CCF1005C4FEA1C472CEA074C07FB06F4C4
:101210000CFB06F504EB15464FEA961634BF00208A
:101220004FF000404FEAD13706FB07FC4FEA1C4C59
:101230000CFB0BF7D21B03FB0CF761EB07010CFB5C
:101240000EF7B0EB074072EB17420CFB08F734BF08
:10125000A2EB0742B2EB074261EB17414FEA0C44A5
:101260004FEA910706FB07FC4FEA1C4C0CFB0BF7FF
:10127000B0EBC74072EB573203FB0CF734BFA2EB65
:10128000C742B2EBC74261EB57310CFB0EF7B0EB34
:10129000C70072EB57720CFB08F734BFA2EBC70212
:1012A000B2EBC70261EB5771039F4FEA816141EADC
:1012B000921104EBCC044FEAD1374FEA826206FB6D
:1012C00007FC42EA90124FEA80604FEA1C4C0CFB8C
:1012D0000BF7D21B03FB0CF761EB07010CFB0EF7BE
:1012E000B0EB074072EB17420CFB08F734BFA2EBE0
:1012F0000742B2EB074261EB17414FEA8C554FEAC8
:10130000910704EB9C2406FB07FC4FEA1C4C0CFBEA
:101310000BF7B0EBC74072EB573203FB0CF734BF4F
:10132000A2EBC742B2EBC74261EB57310CFB0EF7A1
:10133000B0EBC70072EB57720CFB08F734BFA2EB9F
:10134000C702B2EBC70261EB577115EB4C254FEAB0
:10135000816141EA92114FEA82624FEAD13742EA53
:10136000901206FB07FC44F100044FEA80604FEA4C
:101370001C4C0CFB0BF7D21B03FB0CF761EB0701BA
:101380000CFB0EF7B0EB074072EB17420CFB08F7B3
:1013900034BFA2EB0742B2EB074261EB174115EBFA
:1013A0001C154FEA813141EA92414FEA823242EA0A
:1013B00090424FEA80304FEA0C7644F1000448EA4C
:1013C00003434EEA0B484FF0000EB2EB080C71EBF2
:1013D000030724BF624639464EEB0E0E4FF0000B5A
:1013E0000018524149414BEB0B0BB2EB080C71EB6F
:1013F00003077BF1000B24BF624639464EEB0E0E0D
:101400004FF0000B0018524149414BEB0B0BB2EB74
:10141000080C71EB03077BF1000B24BF62463946D1
:101420004EEB0E0E51EA020718BF46F0010616EB0E
:101430000E7655F1000254F1000103D5BDE8890193
:10144000BDE80088BDE88901BDE80048B6195241F1
:1014500041EB0101A3F10103704780807F7E7D7C19
:101460007B7A7978777676757473727171706F6E36
:101470006E6D6C6C6B6A6A696868676666656464E1
:10148000636362616160605F5F5E5E5D5D5C5C5B6B
:101490005B5A5A59595858575756565555555454DA
:1014A000535352525251515050504F4F4F4E4E4D38
:1014B0004D4D4C4C4C4B4B4B4A4A4A494949484884
:1014C00048474747474646464545454444444443C4
:1014D00043434342424242414141002B9C4630D467
:1014E00077002BD01CB54FEA370703B44FF010003C
:1014F0004FF01001BAF1000F06D0BCF1000FDCBFB5
:1015000040F0080040F008014FF000000FBCBDE8BB
:1015100010400BF1010BBBF1010F08BF5FEA170789
:1015200022BF12F1010211F101014FF0004143F11C
:10153000000300F0004043EA00007047F9D3570869
:10154000D0E746EA064613F1400F4FEA16461FDD84
:1015500013F1200FDFBF16430A46002120335B4200
:10156000BED0C3F1200746EA064602FA07F74FEA63
:10157000164646EA0706C3F1200722FA03F201FAEB
:1015800007F721FA03F14FF0000342EA0702A7E749
:1015900046EA020646EA06464FEA164646EA0106CB
:1015A000BCBF46EA0646360C4FF000034FF000027F
:1015B0004FF0000194E72DE9804C9A46934670B4B1
:1015C00091E8380007C831EA400C48BF34EA430CC0
:1015D00003D5FFF7E6FDFFF780FFF0BCBDE8008C08
:1015E0002DE9804C9A46934670B491E8380007C8BC
:1015F00010F0804F08BF13F0804F03D100F005F8C2
:10160000FFF76BFFF0BCBDE8008C20F07F4780EA5D
:10161000030023F07F4C07EB0C03A3F57C5300F091
:101620000040A3F1FE0392F0000F00F0B38095F0AC
:10163000000F00F077802DE901494FEA11404FEA91
:10164000144621EA004800FB06FC24EA064708FB92
:1016500006F607FB08F800FB07F718EB06484CEB0B
:10166000164C4FEA124B18EB07484FEA15464CEB65
:10167000174022EA0B4E0BFB06FC25EA06470EFB41
:1016800006F607FB0EFE0BFB07F71EEB064E4CEBB8
:10169000164C4FF000061EEB074E4CEB174B18EBA9
:1016A0000B0840F1000018EB0E0B58EB000840F15E
:1016B00000008F1A4FF000013CBFC943661B14BFE6
:1016C000B5EB040C00213CBFC943F61B4FEA17449D
:1016D0004EEA8E0E27EA04454FEA1C4704FB0762D8
:1016E0002CEA074C05FB07F70CFB05F604FB0CFC8A
:1016F00016EB074642EB174216EB0C4642EB1C4238
:101700001BEB060658EB0202414146EA9E0601D554
:10171000BDE80189B619524141EB0101A3F1010372
:10172000BDE801894FEA14454FEA114724EA05460E
:1017300021EA074C05FB07F406FB07F70CFB06F153
:1017400005FB0CFC11EB074144EB17444FEA124731
:1017500011EB0C4144EB1C4422EA074C05FB07F259
:1017600006FB07F70CFB06F605FB0CFC16EB074621
:1017700042EB174216EB0C4642EB1C456A1854F13B
:10178000000148BF7047B619524141EB0101A3F176
:101790000103704795F0000F37D04FEA11424FEA2E
:1017A000144721EA024624EA074C02FB07F106FB34
:1017B00007F70CFB06F402FB0CFC14EB074441EBAF
:1017C00017414FEA154714EB0C4441EB1C4125EA45
:1017D000074C02FB07F506FB07F70CFB06F602FBBE
:1017E0000CFC16EB074645EB174516EB0C4645EB94
:1017F0001C42121951F1000148BF7047B6195241FD
:1018000041EB0101A3F1010370474FEA14454FEA90
:10181000114724EA054621EA074C05FB07F106FBC0
:1018200007F70CFB06F24FF0000605FB0CFC12EB71
:10183000074241EB174112EB0C4251EB1C4148BFF0
:101840007047921841EB0101A3F1010370470000BA
:1018500000BF08F0AFFE01229102134802F0D6F853
:101860000121124800F026FA0221114800F022FA64
:1018700003F098FD0121082004F0AEF80121D020EA
:1018800004F09AF805F082F800F05EFF00F004FB27
:1018900005F086F90748006809F00EF808F0B4FE74
:1018A000012008F011FAD4E7001C0240C80600200D
:1018B000F00600202C0000208AB000BF4FF0FF325D
:1018C00069460548006809F073FC09AB07AA01A93D
:1018D000009800F0F2FFF1E7080000202DE9F04F3A
:1018E00009AC94E8F010DDE90E894FF0000A07E03A
:1018F00011F80AB0CAF1020E00F80EB00AF1010A9E
:10190000BAF1030F04DA11F80AB0BBF1000FEFD1FE
:1019100090F803B02BF0380B0BF1200B80F803B0DC
:1019200090F803B062F3020B80F803B0B0F803B094
:1019300063F3891BA0F803B090F804B064F3850B3F
:1019400080F804B0B0F807B067F3090BA0F807B04F
:10195000B0F808B06CF38C0BA0F808B0B0F809B080
:1019600068F34F1BA0F809B0B0F804B065F38E1B04
:10197000A0F804B0B0F805B066F3CF1BA0F805B02E
:10198000B0F80CB069F38C0BA0F80CB0B0F80DE017
:10199000DDF840B06BF34F1EA0F80DE0BDE8F08F0E
:1019A0000EB500200190029017480088000A8DF8BB
:1019B0000400154800788DF8050013484088000A97
:1019C0008DF80600104880788DF807000E48808852
:1019D000000A8DF808000C4800798DF809000A48C3
:1019E000C088000A8DF80A00074880798DF80B003E
:1019F00001A84FF4147300220449009004480068C1
:101A000000F072F90EBD0000D0000020C8060020D2
:101A1000080000200FB49DF81D009DF81C1040EA3E
:101A2000012000B201EE900AF8EEE11AB0EE610A70
:101A30009DF81F109DF81E0041EA002000B201EE43
:101A4000900AF8EEE11AF0EE610A9DF821109DF877
:101A5000200041EA002000B201EE900AF8EEE11AFF
:101A6000B0EE611A9DF823109DF8220041EA002093
:101A700000B20F4908810F4880ED000AC0ED010A4D
:101A800080ED021A0846007B80B90B48D0ED011AA0
:101A90000846B0F9080002EE100AB8EEC22AF6EEC7
:101AA000002A42EE221A0448C0ED011A04B0704721
:101AB000944C0020184F0020584F00200FB49DF880
:101AC0001D009DF81C1040EA012000B200EE900AB3
:101AD000F8EEE00AB0EE600A9DF81E00294988750C
:101AE0009DF81F0000F0010088769DF81F00C0F3EC
:101AF000400008739DF81F00C0F3800048769DF8F1
:101B00001F00C0F3C00008769DF821109DF820004A
:101B100041EA002000B21B49C8849DF823109DF8BB
:101B2000220041EA002000B2164908850846007BE1
:101B3000012820D1B5EEC00AF1EE10FA04D1124806
:101B4000D0ED010AB0EE600A0E48B0F9080040423C
:101B500000EE900AF8EEE00A9FED0C1A60EE810AA2
:101B60000B48C0ED000AD0ED000A70EE200A0648CE
:101B7000C0ED010A04E0DFED070A0548C0ED000AE8
:101B800004B07047944C0020584F00208FC2F53CA1
:101B9000D8000020000000003EB500200190029017
:101BA0002248C089000A8DF804002048807B8DF807
:101BB00005001E48408C00128DF806001B4890F866
:101BC00022008DF807001A48D0F8760000EE100ABF
:101BD000DFED180A20EE200ABDEEC00A10EE100A52
:101BE00004B2200A8DF80800E0B28DF809009DF8D3
:101BF0000A000E49097F01F0010108438DF80A002F
:101C00009DF80B00094991F8241001F0010140EA08
:101C100041008DF80B0001A840F20F130022064985
:101C200000900648006800F05FF83EBD944C00202C
:101C30005C54002000007A44F006002008000020D8
:101C400000BFFEE710B5024801F037F810BD0000F4
:101C5000C806002010B5024801F02FF810BD0000A2
:101C6000C806002010B5024801F027F810BD00009A
:101C7000F006002010B5024801F01FF810BD00006A
:101C8000F006002070B504460D460020206160611A
:101C90006062A0610120E06120620020206060603D
:101CA000A060E0602146284600F0ACFE08B100F0DC
:101CB0007AFC70BD70B504460D46681EC6B206EBD0
:101CC000460101EB0611074A02EB81002146FFF7AE
:101CD000D9FF204601F01FFB0221204600F0D8FD6D
:101CE00070BD0000C04C00202DE9F0418AB00746CD
:101CF0000E4614461D46DDF8408001960CB902954B
:101D000000E003950494002105910821069100212B
:101D10008DF81C10D8F800000890D8F8040009903D
:101D200000231A4601A9384609F0F0F80AB0BDE8C8
:101D3000F08100008EB000BF4FF0FF3205A90A48C5
:101D4000006809F035FA059CB4F5007FF4D9B4F5C4
:101D5000017FF1D8142209A96846FEF7EBFC05A81B
:101D60000FC803F0EDFFE7E7000000208EB000BFD2
:101D70004FF0FF3205A91A48006809F019FA9DF8DA
:101D8000300000F00F0017490880059C40F20F104A
:101D9000844209D1142209A96846FEF7CBFC05A8A4
:101DA0000FC8FFF737FEE3E740F21F10844209D166
:101DB000142209A96846FEF7BDFC05A80FC8FFF765
:101DC0007DFED5E7074800880528D1D1142209A94E
:101DD0006846FEF7AFFC05A80FC800F087FAC7E712
:101DE00004000020B00000202DE9F05F04460E46FC
:101DF00017469846DDE90AABDDF83090002504E08F
:101E0000705DC5F1020160546D1C032D02DA705D36
:101E10000028F5D114F8030F20F038003830207076
:101E2000207867F302002070208868F389102080F2
:101E300060786AF385006070B4F801006BF38E106F
:101E4000A4F80100608869F3CF106080A1880D9824
:101E500060F30901A180B4F805100E9860F38C01BD
:101E6000A4F80510E1880F9860F34F11E180E41E9B
:101E70001E2104F10F00FEF78FFC002508E01098EA
:101E8000017804F10F0041551098401C10906D1C12
:101E90004D45F4D3BDE8F09F10B59FED271ADFED57
:101EA000270A9FED270A274807F006FF9FED263AED
:101EB000DFED262A9FED262ADFED261A9FED251A53
:101EC000DFED240AB3EE090A234804F049FB9FED35
:101ED0001E3ADFED1E2A9FED1E2ADFED1E1A9FED32
:101EE0001D1ADFED1C0AB3EE090A1C4804F038FB8A
:101EF0009FED153ADFED152A9FED152ADFED151A36
:101F00009FED141ADFED130AB3EE090A144804F02A
:101F100027FB9FED0D3ADFED0D2A9FED0D2ADFED3A
:101F20000D1A9FED0C1ADFED0B0AB3EE090A0D48EE
:101F300004F016FB10BD0000B81E453ECDCC4C3E53
:101F40002DB29D3DA04D00200080BB450060EA46BB
:101F50000000804600000000C84D00201C4E0020FC
:101F6000704E0020C44E002010B507F007FE3F4819
:101F700090ED030A3E4880ED000A3C4890ED040ACB
:101F8000B1EE400A3A4880ED010A384890ED050A62
:101F9000B1EE400A364880ED020A364A364907F06B
:101FA0003FFE3648B0F9020001EE100AB8EEC11A41
:101FB000F0EE410A2F4890ED001AB0EE410A304889
:101FC00004F056FABDEEC00A10EE100A00B22B491A
:101FD000C8820846B0F9220001EE100AB8EEC11A14
:101FE000F0EE410A234890ED011AB0EE410A25486F
:101FF00004F03EFABDEEC00A10EE100A01B21F480E
:10200000C186B0F9420001EE100AB8EEC11AF0EE36
:10201000410A184890ED021AB1EE411AB0EE410A99
:10202000194804F025FABDEEC00A10EE100A01B2FC
:102030001248A0F85610B0F9620001EE100AB8EE8E
:10204000C11AF0EE410A0B4890ED031AB1EE411AA5
:10205000B0EE410A0D4804F00BFABDEEC00A10EED6
:10206000100A01B20548A0F8761010BD184F0020E4
:10207000AC4D0020B84D0020A04D0020C8470020E6
:10208000C84D00201C4E0020704E0020C44E002081
:102090002DE9F0470C4608AD95E8E010DDF83080FA
:1020A000002106E014F80190C1F1020A00F80A903C
:1020B000491C032904DA14F80190B9F1000FF1D199
:1020C00090F8039029F0380909F1100980F803907D
:1020D00090F8039062F3020980F80390B0F803903F
:1020E00063F38919A0F8039090F8049065F38509CB
:1020F00080F80490B0F8079066F30909A0F80790FB
:10210000B0F8089067F38C09A0F80890B0F809902F
:102110006CF34F19A0F80990B0F80B9068F3090917
:10212000A0F80B90BDE8F08710B5024801F094F9D3
:1021300010BD00003009002010B5024801F08CF9F4
:1021400010BD0000D008002010B5024801F084F94D
:1021500010BD00009009002010B5024801F07CF984
:1021600010BD00007008002010B5024801F074F99D
:1021700010BD0000F009002010B5024801F06CF914
:1021800010BD000010080020014608781038182300
:10219000B0FBF3F20848805CC865032A05D90868DB
:1021A0006FF30900001D886503E008686FF30900FC
:1021B0008865886D70470000C8C600080146002089
:1021C0008A6A8B69CBB932B1012A0DD0022A03D0B9
:1021D000032A10D10EE000BFCB6A03F08073B3F185
:1021E000807F00D1012007E0CB6AB3F1C07F00D12E
:1021F000012001E000E000BF34E08B69B3F5005F2F
:102200001AD132B1012A07D0022A03D0032A11D1F0
:102210000AE000BF01200EE0CB6A03F08073B3F147
:10222000807F00D1012006E0CB6AB3F1C07F00D1EE
:10223000012000E000BF15E032B1012A05D0022ADA
:1022400004D0032A0CD103E000BF00BF012008E046
:10225000CB6A03F08073B3F1807F00D1012000E0EE
:1022600000BF00BF704730B50468246824F48024A0
:1022700005682C60046863608468402C04D104689D
:10228000A2600468E16003E00468A1600468E260A1
:1022900030BD000030B58BB005460C4603940021DC
:1022A0000591069108210791002102A80176FF20DF
:1022B0008DF82400FF2102A841778177C1778DF83E
:1022C00028108DF829108DF82A10FC218DF82B107C
:1022D00009A8234600222946009003480068FFF71A
:1022E00003FD0BB030BD0000080000200FB470B536
:1022F0009DF82C0000F00F040498441F634800EB85
:1023000084108069614901EB841108629DF82C00FA
:1023100000115E4901EB8411088004A8817F407F91
:1023200041EA0020594901EB8411886104A8C07F6B
:1023300001019DF8300041EA201000EE100AB8EECD
:10234000C00A524800EB841080ED070A9DF8300067
:102350009DF8311000EE101AB8EEC00A4B4800EBA1
:10236000841080ED040A494800EB841080694749D5
:1023700001EB8411096A451A15F5004F0ADA434842
:1023800000EB8410008E401C00B2404901EB841128
:1023900008860CE0B5F5004F09DD3C4800EB8410E1
:1023A000008E401E00B2394901EB8411088637497E
:1023B00001EB841188691021DFED350A9FED350AA4
:1023C00008F088F8314800EB841080ED010A2F49AD
:1023D00001EB841191ED070ABDEEC00A10EE100A60
:1023E0000C21DFED2D0A9FED2D0A08F073F8274828
:1023F00000EB841080ED020A244901EB841191ED79
:10240000040ABDEEC00A10EE100A0C21F2EE040A16
:10241000BAEE040A08F05EF81C4800EB841080ED68
:10242000050A9DF83200194901EB841108739DF8E3
:102430003300164901EB84114873144800EB8410F3
:1024400090ED010A114800EB8410B0F9300000EE65
:10245000900AF8EEE00A9FED121A01EE200A0B48EE
:1024600000EB841080ED0D0A084800EB8410808F8B
:10247000401C064901EB841188870120034901EBC8
:10248000841181F83A0070BC5DF814FB8847002085
:10249000DB0F4940DB0F49C000004843000048C340
:1024A000DB0FC94008B509F01DF8009000BF00BF60
:1024B0000548008818B905210448FFF7EBFE012103
:1024C000684608F08FF9F3E788470020F0060020FF
:1024D0002DE9F0472DED068BB0EE40AAB0EE608AF4
:1024E000F0EE418AB0EE619AF0EE429A0446102076
:1024F0009FED261ADFED260AB0EE4A0A07F056FBDA
:1025000085B20C209FED231ADFED230AB0EE480AB6
:1025100007F04CFB86B20C20B2EE041AFAEE040A65
:10252000B0EE690A07F042FB1FFA80F90C209FED1C
:102530001B1ADFED1B0AB0EE680A07F037FB87B203
:102540000C20B1EE041ADFED160AB0EE490A07F0CE
:102550002DFB1FFA80F8281220706570C6F3071053
:10256000A0703007000E40EA2720E0702771C8F302
:10257000071060714FEA0870000E40EA2920A07130
:1025800084F80790BDEC068BBDE8F087DB0F49406F
:10259000DB0F49C000004843000048C30000FA4375
:1025A00000000000704772B600BFFEE72DE9F04F53
:1025B0000C4609AD95E8E010DDE90D894FF0000A01
:1025C00007E014F80AB0CAF1020E00F80EB00AF1E2
:1025D000010ABAF1030F04DA14F80AB0BBF1000FD4
:1025E000EFD190F803B02BF0380B0BF1280B80F8EB
:1025F00003B090F803B062F3020B80F803B0B0F8B8
:1026000003B063F3891BA0F803B090F804B065F33E
:10261000850B80F804B0B0F807B06CF3090BA0F894
:1026200007B0B0F808B068F38C0BA0F808B0B0F8A9
:1026300009B069F34F1BA0F809B0B0F804B066F315
:102640008E1BA0F804B0B0F805B067F3CF1BA0F85C
:1026500005B0DFED100A60EE200AFDEEE00A10EE94
:10266000901AB0F80BB061F3090BA0F80BB04FEA69
:10267000912EB0F80CB06EF38C0BA0F80CB04FEAB2
:10268000515EB0F80DB06EF34F1BA0F80DB0BDE871
:10269000F08F000000007A4430B5034613B94FF6BE
:1026A000FF7030BD09E013F8014B82EA0400C0B2AC
:1026B000054D35F8100080EA2222081EA1F1010123
:1026C000F1D11046EDE700003402002030B503469A
:1026D00013B94FF6FF7030BD09E013F8014B82EAE1
:1026E0000400C0B2054D35F8100080EA2222081E11
:1026F000A1F10101F1D11046EDE70000EAC70008A1
:1027000030B5034605E013F8010B80EA02040448E3
:10271000025D081EA1F10101F5D1104630BD000097
:102720003101002030B5034605E013F8010B80EAC3
:1027300002040448025D081EA1F10101F5D1104612
:1027400030BD0000E9C6000810B5194890ED020A36
:102750009FED181AC0EE010A174890ED060AB8EE70
:10276000400A9FED161A00EE810A154880ED010A15
:10277000F6EE002AB3EE042ADFED121A9FED121ACC
:10278000DFED120A9FED120A124803F05DFEF6EE2D
:10279000002AB3EE042ADFED0B1A9FED0B1ADFEDD2
:1027A0000B0A9FED0B0A0C4803F04EFE10BD000013
:1027B000184900200000B4438847002000008047EB
:1027C000584F00206F12033BBD378635ACC5273804
:1027D000A69BC43A644F0020B04F002010B52DEDE9
:1027E000028B06F03DFB234890ED060AB8EE400A46
:1027F0002148D0ED000A30EE200A204880ED000A82
:1028000090ED000ADFED1E0AB4EEE00AF1EE10FAD8
:1028100008DD90ED000ADFED1B0A30EE600A80ED66
:10282000000A11E0154890ED000ADFED170AB4EE3A
:10283000E00AF1EE10FA07D290ED000ADFED110A7E
:1028400030EE200A80ED000A0C4890ED000AFFEE01
:10285000000A20EE200A9FED0B1AC0EE010A9FED40
:102860000B0A20EE800AB0EE408A07F02DFEBDEC88
:10287000028B10BD884700201C0100201801002099
:102880000000004700008047000000C70000B4437C
:1028900010B5024692F82030012B01D0022B06D150
:1028A00010684069084314686061002010BD506AD8
:1028B00040F4802050620120F8E7F0B504460D4650
:1028C0001E4694F8207020688368A86800B900E06C
:1028D00000BF012F01D0022F7DD103F0806030B9FD
:1028E00003F0006018B903F0805000287ED0C3F3D5
:1028F0000161012088403060A86860B9B5F800C067
:10290000E86840EA4C5C206800F5C07000EB0110FC
:10291000C0F800C00FE0D5E901C040EACC00D5F80E
:102920000CC040EA0C00D4F800C00CF5C07C0CEBE5
:10293000011CCCF80000D5F810C0206800F5C0706C
:1029400000EB0110C0F804C0287D01280ED12068DA
:1029500000F5C07000EB0110406840F4807C2068F6
:1029600000F5C07000EB0110C0F804C0D07900067B
:1029700092F806C040EA0C4092F805C040EA0C20EC
:1029800092F804C040EA0C00D4F800C00CF5C07CFA
:102990000CEB011CCCF80C00D078000692F802C0B9
:1029A00040EA0C4092F801C040EA0C2092F800C0C6
:1029B00040EA0C00D4F800C00CF5C07C0CEB011C04
:1029C000CCF80800206800F5C07000EB011000682A
:1029D00040F0010C01E00FE008E0206800F5C07055
:1029E00000EB0110C0F800C00020F0BD606A40F4A8
:1029F000001060620120F8E7606A40F480206062A5
:102A00000120F2E7F0B504460A4694F82050012D63
:102A100001D0022D7ED1424901F50071086840F0D5
:102A200001000860086820F47C5008600868566A55
:102A300040EA06200860107D00F01F06012000FA21
:102A400006F3C8699843C861A1F50071D069C8B997
:102A5000D1F80C029843C1F80C02908880B2968994
:102A600040EA064601F51070576940F83760108853
:102A700080B2168940EA064601F51070576900EBEE
:102A8000C7004660D069012819D1D1F80C0218435B
:102A9000C1F80C02908880B2168840EA064601F51B
:102AA0001070576940F83760908980B2168940EA03
:102AB000064601F51070576900EBC7004660906943
:102AC00028B9D1F804029843C1F8040204E0D1F80F
:102AD00004021843C1F80402106928B9D1F814029D
:102AE0009843C1F8140204E0D1F814021843C1F865
:102AF0001402106A012804D1D1F81C021843C1F84D
:102B00001C02D1F8000220F00100C1F800020020F0
:102B1000F0BDFFE7606A40F4802060620120F7E7C3
:102B200000640040704770B5044694F82050012DB1
:102B300001D0022D7DD151B92068C06800F003009A
:102B400080B9606A40F400106062012070BD2068A6
:102B5000006900F0030028B9606A40F40010606268
:102B60000120F3E7206800F5D87000EB0110006841
:102B700000F004009060906840B9206800F5D870BB
:102B800000EB01100068400D106007E0206800F5C0
:102B9000D87000EB01100068C0085060206800F594
:102BA000D87000EB0110006800F00200D0602068CF
:102BB00000F5D87000EB0110406800F00F00082805
:102BC00002D30820106108E0206800F5D87000EBFF
:102BD0000110406800F00F001061206800F5D87007
:102BE00000EB0110406800F47F40000A906120680B
:102BF00000F5D87000EB01104068000C50612068AF
:102C000000F5D87000EB011080681870206800F59E
:102C1000D87000EB0110806800F47F40000A587003
:102C2000206800F5D87000EB0110806800F47F0088
:102C300000E03CE0000C9870206800F5D87000EBD4
:102C400001108068000ED870206800F5D87000EB85
:102C50000110C0681871206800F5D87000EB0110F1
:102C6000C06800F47F40000A5871206800F5D870F1
:102C700000EB0110C06800F47F00000C9871206820
:102C800000F5D87000EB0110C068000ED87131B9A2
:102C90002068C06840F020002668F06005E02068E9
:102CA000006940F020002668306100204EE7606A2D
:102CB00040F480206062012048E72DE9F05F04467F
:102CC0000025206846692068D0F80490206887684D
:102CD0002068D0F80CA02068D0F810B02068D0F898
:102CE000188006F00100002855D007F00100C0B19F
:102CF00001202168886007F0020018B1204600F02A
:102D00003AFB0EE007F0040010B145F4006508E05E
:102D100007F0080010B145F4805502E0204600F0AD
:102D200029FB07F48070C8B14FF480702168886077
:102D300007F4007018B1204600F01FFB0EE007F406
:102D4000806010B145F4005508E007F4006010B150
:102D500045F4804502E0204600F00EFB07F4803089
:102D6000C8B14FF480302168886007F4003018B192
:102D7000204600F004FB0EE007F4802010B145F47B
:102D8000004508E007F4002010B145F4803502E06A
:102D9000204600F0F3FA06F0080038B10AF01000FF
:102DA00020B145F4007510202168C86006F00400C9
:102DB00040B10AF0080028B108202168C860204608
:102DC00000F01CFA06F0020038B12068C06800F07C
:102DD000030010B1204600F013FA06F0400038B1AD
:102DE0000BF0100020B145F48065102021680861C7
:102DF00006F0200040B10BF0080028B1082021683F
:102E00000861204600F084FA06F0100038B120680E
:102E1000006900F0030010B1204600F07AFA06F4D1
:102E2000003040B109F0100028B11020216848603E
:102E3000204600F06FFA06F4803040B109F0080037
:102E400028B1082021684860204600F099FA06F46D
:102E5000004088B309F0040078B306F4807020B114
:102E600008F0010008B145F0010506F4007020B13A
:102E700008F0020008B145F0020506F4806020B1B8
:102E800008F0040008B145F0040506F40060A0B1A4
:102E900008F0700088B108F07000402817D006DCF8
:102EA00010280BD020280CD0302819D10CE0502845
:102EB00010D0602814D110E01DE019E045F008059D
:102EC0000FE045F010050CE045F0200509E045F065
:102ED000400506E045F0800503E045F4807500E01C
:102EE00000BF00BF2068806920F070002168886101
:102EF0000420216848602DB1606A28436062204642
:102F0000FFF710FEBDE8F09F70B504460CB9012034
:102F100070BD94F8200010B9204600F0AFF820688A
:102F2000006840F001002168086000F075FD05466A
:102F30000DE000F071FD401B0A2808D9606A40F4DA
:102F400000306062052084F820000120E0E720685E
:102F5000406800F001000028EBD02068006820F0F5
:102F600002002168086000F057FD05460DE000F002
:102F700053FD401B0A2808D9606A40F400306062A3
:102F8000052084F820000120C2E72068406800F096
:102F900002000028EBD1207E012806D120680068BD
:102FA00040F080002168086005E02068006820F09B
:102FB000800021680860607E012806D120680068D2
:102FC00040F040002168086005E02068006820F0BB
:102FD000400021680860A07E012806D120680068B2
:102FE00040F020002168086005E02068006820F0BB
:102FF000200021680860E07E012806D12068006872
:1030000020F010002168086005E02068006840F0AA
:10301000100021680860207F012806D12068006820
:1030200040F008002168086005E02068006820F092
:10303000080021680860607F012806D120680068C8
:1030400040F004002168086005E02068006820F076
:10305000040021680860D4E902010843216908439B
:10306000616908436168491E08432168C8610020FE
:103070006062012084F82000002049E710B586B086
:103080000446142101A8FDF7A9FB5649206888428F
:1030900049D155480068401C5349086008460068FB
:1030A00001280FD100BF002000905048006840F078
:1030B00000704E4908600846006800F000700090FB
:1030C00000BF00BF00BF00200090484810380068D3
:1030D00040F008004549103908600846006800F0D3
:1030E0000800009000BF00BF032001900220029062
:1030F00000200390032004900920059001A93C487A
:1031000000F08AFB00220521132000F043FD13206C
:1031100000F02CFD00220521142000F03BFD1420BE
:1031200000F024FD5CE033492068884258D100BF9C
:10313000002000902D48006840F080602B49086016
:103140000846006800F08060009000BF00BF26487D
:103150000068401C244908600846006801280FD117
:1031600000BF002000902148006840F000701F4917
:1031700008600846006800F00070009000BF00BFC3
:1031800000BF0020009019481038006840F002008D
:103190001649103908600846006800F002000090E7
:1031A00000BF00BF60200190022002900020039029
:1031B000032004900920059001A90F4800F02CFB82
:1031C000002205213F2000F0E5FC3F2000F0CEFC6E
:1031D00000220521402000F0DDFC402000F0C6FC6C
:1031E00006B010BD006400403000002040380240AE
:1031F000000C0240006800400004024070470000DC
:1032000038B504463B492068884203D100203A493A
:10321000087002E00120384908703748007800EB58
:10322000400101EB0010354901EB800000F144033F
:103230003148007800EB400101EB00102F4901EB11
:10324000800000F1280200212046FFF76CFC2A4A8A
:10325000127802EB420303EB0212284B03EB8202CB
:1032600002F12801244A127802EBC202244B03EB3C
:1032700082001C22FDF75EFA1F48007800EBC000B8
:103280001F4901EB80011C48007800EB400202EB73
:1032900000101A4A02EB8000826C406CC1E9070200
:1032A0001548007868B91448007800EBC000144A4B
:1032B00002EB800100236A461248006807F0FAFE1C
:1032C0000CE00D48007800EBC0000D4A02EB8001D5
:1032D00000236A460C48006807F0ECFE009838B1FD
:1032E0004FF0805009490860BFF34F8FBFF36F8FD5
:1032F00038BD0000006400400C010020C04C0020DC
:10330000584D0020000000200400002004ED00E0E3
:1033100070477047704770B5044694F82000012844
:1033200022D1022084F820002068006820F00100EB
:103330002168086000F070FB05460DE000F06CFBB2
:10334000401B0A2808D9606A40F4003060620520FA
:1033500084F82000012070BD2068406800F0010062
:103360000028EBD16062F6E7606A40F400206062FA
:103370000120F0E77047704770477047704770470B
:10338000704770B50446A56D00F046FB064694F8FC
:103390003500022808D08020606500BF002084F836
:1033A000340000BF012070BD2068006820F01600C6
:1033B000216808602068406920F080002168486129
:1033C000206C08B9A06C28B12068006820F00800C3
:1033D000216808602068006820F00100216808600A
:1033E00010E000F019FB801B05280BD92020606538
:1033F000032084F8350000BF002084F8340000BFAB
:103400000320D0E72068006800F001000028E8D120
:1034100094F85C103F208840A860012084F83500B3
:1034200000BF002084F8340000BF00BFBBE70146A6
:1034300091F83500022803D08020486501207047AC
:10344000052081F835000868006820F001000A684E
:1034500010600020F3E70000F8B50446002000905B
:103460008C4800684FF41651B0FBF1F7A56D2E683B
:1034700094F85C1008208840304098B120680068BB
:1034800000F0040070B12068006820F0040021689A
:10349000086094F85C1008208840A860606D40F0D7
:1034A0000100606594F85C1001208840304068B1EC
:1034B0002068406900F0800040B194F85C10012061
:1034C0008840A860606D40F00200606594F85C1070
:1034D00004208840304068B12068006800F0020095
:1034E00040B194F85C1004208840A860606D40F002
:1034F0000400606594F85C1010208840304078B378
:103500002068006800F0080050B394F85C101020A8
:103510008840A8602068006800F4802080B120689E
:10352000006800F4002028B9206CC8B12046216C46
:10353000884715E0A06C98B12046A16C88470FE041
:103540002068006800F4807028B92068006820F0C6
:10355000080021680860206C10B12046216C884763
:1035600094F85C10202088403040002865D0206806
:10357000006800F0100000285FD094F85C10202054
:103580008840A86094F83500052828D12068006894
:1035900020F01600216808602068406920F0800053
:1035A00021684861206C08B9A06C28B120680068C7
:1035B00020F008002168086094F85C103F208840E3
:1035C000A860012084F8350000BF002084F8340092
:1035D00000BF206D10B12046216D8847F8BD2068DE
:1035E000006800F4802080B12068006800F40020AA
:1035F00028B9606C10B12046616C88471DE0E06B13
:10360000D8B12046E16B884717E02068006800F4D5
:10361000807068B92068006820F010002168086098
:10362000012084F8350000BF002084F8340000BF7A
:10363000E06B10B12046E16B8847606D38B3606D78
:1036400000F00100F0B1052084F835002068006822
:1036500020F001002168086000BF0098401C009025
:10366000B84200D905E02068006800F00100002899
:10367000F3D100BF012084F8350000BF002084F89A
:10368000340000BFE06C10B12046E16C884700BFF9
:10369000A4E70000400000202DE9F0410446002589
:1036A00000F0BAF9074614B90120BDE8F081606A5C
:1036B00000B100BF022084F8350000BF002084F86C
:1036C000340000BF2068006820F001002168086015
:1036D0000AE000F0A1F9C01B052805D9202060658B
:1036E000032084F83500E0E72068006800F001005E
:1036F0000028EED12068056821480540D4E9010181
:103700000843E16808432169084361690843A169E6
:103710000843E1690843216A08430543606A0428B5
:1037200003D1D4E90B0108430543206805602068F4
:10373000456925F00705606A0543606A04280DD1D4
:10374000A06A0543E06A48B12046FEF737FD28B17C
:1037500040206065012084F83500A6E720684561B7
:103760002046FEF711FD064694F85C103F20884085
:10377000B06000206065012084F83500002094E7E7
:103780003F8010F02DE9F04704460D4616461F46CF
:103790004FF00008D4F8589000BF94F83400012886
:1037A00002D10220BDE8F087012084F8340000BF78
:1037B00094F83500012825D1022084F83500002036
:1037C00060653B46324629462046FEF74CFD94F89C
:1037D0005C103F208840C9F808002068006840F06D
:1037E000160021680860206C28B12068006840F04D
:1037F0000800216808602068006840F00100216826
:10380000086006E000BF002084F8340000BF4FF0DD
:1038100002084046C6E70000F8B502460B46002500
:10382000002400200021D6E0012606FA01F51E68DA
:1038300006EA0504AC4274D11E7906F00306012E97
:1038400004D01E7906F00306022E13D190684F00B3
:103850000326BE40B0434F00DE68BE403043906058
:10386000506801268E40B0431E79C6F300168E4084
:10387000304350601E7906F00306032E09D0D0684D
:103880004F000326BE40B0434F009E68BE40304309
:10389000D0601E7906F00306022E13D1CF0802F184
:1038A000200656F827004E07F70E0F26BE40B043FD
:1038B0004F07FF0E1E69BE403043CF0802F12006BD
:1038C00046F8270010684F000326BE40B0431E791B
:1038D00006F003064F00BE40304310605E6806F4F9
:1038E0004036002E76D000BF002600963C4E36684B
:1038F00046F480463A4F3E603E46366806F48046BF
:10390000009600BF00BF374E8F0856F827008E077D
:10391000370F0F26BE40B043334EB24202D10026CD
:1039200024E057E0314EB24201D101261EE0304E74
:10393000B24201D1022619E02E4EB24201D1032635
:1039400014E02D4EB24201D104260FE02B4EB242BC
:1039500001D105260AE02A4EB24201D1062605E031
:10396000284EB24201D1072600E008268F073F0FFC
:10397000BE4030431B4E8F0846F82700224E306869
:10398000A0435E6806F4801606B120431E4E3060E8
:10399000361D3068A0435E6806F4001606B1204369
:1039A000194E361D3060184E361F3068A0435E68D1
:1039B00006F4003606B12043134E361F3060361F22
:1039C0003068A0435E6806F4803606B120430E4E90
:1039D000083E3060491C1029FFF426AFF8BD0000F6
:1039E0004438024008380140000002400004024010
:1039F00000080240000C0240001002400014024087
:103A000000180240001C0240083C01400AB18161DC
:103A100001E00B04836170470148006870470000B3
:103A2000340000200348006803490978084401492C
:103A300008607047340000203C00002010B50D489D
:103A4000006840F400700B4908600846006840F4C4
:103A5000806008600846006840F4807008600320B9
:103A600000F0D6F80F2000F007F800F055F800201D
:103A700010BD0000003C0240F0B587B004460026AF
:103A8000002700BF002000901E48006840F00100A1
:103A90001C4908600846006800F00100009000BF63
:103AA00000BF01A902A800F059FA00F08FFA460001
:103AB0001548B6FBF0F0471E14481549086040F25F
:103AC000E7311348C1604760002101618160816175
:103AD00000F0C8FD054695B90D4800F0F7FD054614
:103AE0006DB9192000F042F8102C07D200222146AF
:103AF000192000F04FF80748046000E0012528462F
:103B000007B0F0BD4438024040420F0000000140C1
:103B1000500A00203800002008B500BF00200090A7
:103B20001148006840F480400F490860084600686A
:103B300000F48040009000BF00BF00BF0020009054
:103B4000081F006840F08050091F086008460068A0
:103B500000F08050009000BF00BF00220F21901E97
:103B600000F018F808BD000044380240014608463D
:103B700000280DDB00BF00BF00F01F0301229A40A8
:103B800043099B0003F1E023C3F8002100BF00BFFD
:103B900000BF70472DE9F05F80460D4616460027AE
:103BA00005F04CFA074639462A46334601F007002D
:103BB000C0F1070ABAF1040F02D94FF0040A01E07C
:103BC000C0F1070AD14600F1040ABAF1070F02D288
:103BD0004FF0000A01E0A0F1030AD4464FF0010AB9
:103BE0000AFA09FAAAF1010A0AEA020A0AFA0CFA1E
:103BF0004FF0010B0BFA0CFBABF1010B0BEA030BC3
:103C00004AEA0B042146404605F020FABDE8F09F41
:103C100000BF00F00702064B19684FF6FF0319407A
:103C2000044B0B4343EA0221014B196000BF70476C
:103C30000CED00E00000FA05F8B50446002500266A
:103C4000207800F0010020B9207800F0040004285A
:103C50002FD100205B498866FFF7DEFE054606E0AF
:103C6000FFF7DAFE401B022801D90320F8BD5648B1
:103C70000068C0F3C0600028F2D160688101207A3A
:103C800041EA007050498431086001204D4988663E
:103C9000FFF7C2FE054606E0FFF7BEFE401B022806
:103CA00001D90320E2E748480068C0F3C06000285B
:103CB000F2D0207800F0020002287DD100BF002061
:103CC000009041484030006840F080503E4940310B
:103CD00008600846006800F08050009000BF00BFF8
:103CE0003A48006840F4807038490860FFF794FE55
:103CF000054606E0FFF790FE401B022801D903208D
:103D0000B4E73248006800F480700028F2D02E48F2
:103D10007030006800F440764EB3A08900F4407023
:103D2000B04224D028487030006820F4407601204A
:103D3000274908600020086023487030066000684A
:103D400000F0010098B1FFF767FE054608E0FFF7B5
:103D500063FE401B41F28831884201D9032085E788
:103D6000194870300068C0F340000028EFD000BF51
:103D7000A08900F44070B0F5407F0CD112480830A3
:103D8000006820F4F810134AE168114008430E4916
:103D90000831086007E00C480830006820F4F8108B
:103DA000094908310860084870300068A189C1F3EA
:103DB0000B010843044900E002E07031086000BFD5
:103DC000002053E7000047420038024000700040E6
:103DD000400E4742FFFCFF0F70B504460D460CB97C
:103DE000012070BD5848006800F00700A84209D2C1
:103DF00055490D700846006800F00700A84201D040
:103E00000120EEE7207800F0020002281DD1207882
:103E100000F00400042805D14C48006840F4E0504C
:103E20004A490860207800F00800082805D1474872
:103E3000006840F46040454908604448006820F04C
:103E4000F000A168084341490860207800F00100B3
:103E5000A8B36068012807D13C4808380068C0F35F
:103E60004040B8B90120BCE76068022802D0606811
:103E7000032807D1354808380068C0F3406048B9C6
:103E80000120AEE7314808380068C0F3400008B9A7
:103E90000120A6E72D48006820F003006168084370
:103EA0002A490860FFF7B8FD064609E0FFF7B4FDB0
:103EB000801B41F28831884202D9032091E707E054
:103EC0002248006800F00C006168B0EB810FEDD172
:103ED0001D48006800F00700A84209D91A490D7072
:103EE0000846006800F00700A84201D0012078E7EA
:103EF000207800F00400042807D11448006820F45A
:103F0000E050E168084311490860207800F008009B
:103F1000082808D10D48006820F46040216940EA73
:103F2000C1000A49086000F061F808490968C1F356
:103F30000311074A515CC8400649086006480068FA
:103F4000FFF79AFD00204CE7003C02400838024091
:103F5000D0C6000840000020380000200F22026078
:103F60000D4A126802F0030242600B4A126802F026
:103F7000F0028260084A126802F4E052C260064A07
:103F8000126802F46042D2080261044A126802F028
:103F900007020A607047000008380240003C0240F7
:103FA00001480068704700004000002000B5FFF79E
:103FB000F7FF04490968C1F38221034A515CC840F4
:103FC00000BD000008380240E0C6000800B5FFF759
:103FD000E7FF04490968C1F34231034A515CC84014
:103FE00000BD000008380240E0C600082DE9F04797
:103FF000002400250026A1462548006800F00C009A
:1040000020B1042805D008283AD105E0DFF88490D3
:1040100039E0DFF8849036E01D48001F006800F0AA
:104020003F041B48001F006800F4800078B11A4864
:104030001749091F0968C1F38811A0FB01700146E7
:10404000224600233846FCF79FF905460EE011484A
:104050000F49091F0968C1F38811A0FB01700146CF
:10406000224600233846FCF78FF905460848001F12
:104070000068C0F30140401C4600B5FBF6F902E0C1
:10408000DFF8109000BF00BF4846BDE8F087000091
:10409000083802400024F400001BB700F8B50446BD
:1040A0000CB90120F8BD207800F00100002874D080
:1040B000F948006800F00C0004280DD0F6480068AC
:1040C00000F00C00082813D1F348001F006800F42A
:1040D0008000B0F5800F0BD1EF4808380068C0F3BE
:1040E0004040002859D06068002856D10120D9E707
:1040F00000BF6068B0F5803F08D1E7480838006825
:1041000040F48030E449083908601EE06068B0F58A
:10411000A02F0DD1E0480838006840F48020DE4927
:10412000083908600846006840F4803008600CE0F8
:10413000D9480838006820F48030D7490839086029
:104140000846006820F48020086000BF606890B1D5
:10415000FFF762FC054606E0FFF75EFC401B6428A3
:1041600001D903209EE7CC4808380068C0F34040DE
:104170000028F1D011E0FFF74FFC054606E0FFF7FD
:104180004BFC401B642801D903208BE7C248083848
:104190000068C0F340400028F1D1207800F0020010
:1041A00002285FD1BC48006800F00C0058B1BA4842
:1041B000006800F00C0008281CD1B748001F0068F8
:1041C00000F48000B0B9B44808380068C0F340007B
:1041D00020B1E068012801D0012063E7AE4808382B
:1041E000006820F0F800216940EAC100AA490839B6
:1041F000086037E0E06800B30120A8490860FFF7D5
:104200000BFC054606E0FFF707FC401B022801D91E
:10421000032047E7A04808380068C0F340000028A2
:10422000F1D09D480838006820F0F800216940EA84
:10423000C10099490839086014E0002097490860D6
:10424000FFF7EAFB054606E0FFF7E6FB401B022806
:1042500001D9032026E7904808380068C0F34000E1
:104260000028F1D1207800F0080008282CD16069DE
:10427000A8B101208A490860FFF7CEFB054606E099
:10428000FFF7CAFB401B022801D903200AE7824836
:104290006C300068C0F340000028F1D014E000202A
:1042A0007F490860FFF7B8FB054606E0FFF7B4FB5F
:1042B000401B022801D90320F4E677486C300068DF
:1042C000C0F340000028F1D1207800F00400042859
:1042D00070D1002770483830006800F0805090B9E5
:1042E00000BF002000906C483830006840F08050DB
:1042F0006949383108600846006800F08050009035
:1043000000BF00BF01276748006800F48070B0B9A3
:104310006448006840F4807062490860FFF77CFBE5
:10432000054606E0FFF778FB401B022801D9032071
:10433000B8E65C48006800F480700028F2D000BF46
:10434000A068012808D154486830006840F0010096
:104350005149683108601DE0A06805280DD14E481C
:104360006830006840F004004B4968310860084636
:10437000006840F0010008600CE0474868300068C1
:1043800020F001004449683108600846006820F0C8
:104390000400086000BFA068A8B1FFF73DFB054618
:1043A00009E0FFF739FB401B41F28831884202D90E
:1043B000032077E626E0384868300068C0F3400004
:1043C0000028EED013E0FFF727FB054608E0FFF7D3
:1043D00023FB401B41F28831884201D9032061E66A
:1043E0002D4868300068C0F340000028EFD1012F4D
:1043F00007D129483830006820F0805026493831EC
:10440000086000BFA069002845D02348006800F07C
:104410000C0008285DD0A069022845D100201F4962
:104420000866FFF7F9FA054606E0FFF7F5FA401BC4
:10443000022801D9032035E6174808380068C0F380
:1044400040600028F1D1D4E907010843616A40EADD
:1044500081110122A06AC2EB500041EA00412C20E8
:10446000005D41EA00600C49091F086001200B490A
:104470000866FFF7D1FA054606E0FFF7CDFA401BC4
:10448000022801D903200DE6034808380068C0F36C
:1044900040600028F1D049E008380240000047425F
:1044A000800E474200700040002021490866FFF757
:1044B000B3FA054606E0FFF7AFFA401B022801D920
:1044C0000320EFE51B480068C0F340600028F2D1EC
:1044D0002CE0A069012800D1E4E51648001D06681B
:1044E000A069012820D006F48001E06981421BD137
:1044F00006F03F01206A814216D147F6C070304075
:10450000616AB0EB811F0FD106F440310122A06A2D
:10451000C2EB5000B1EB004F06D106F070612C20C9
:10452000005DB1EB006F01D00120BBE50020B9E5D3
:10453000000047420038024070B504460CB9012023
:1045400070BD607F20B900202077204600F04EF833
:10455000022060772068C068C0F3001000283CD1BA
:1045600000BFCA202168486253202168486200BF0A
:10457000204602F02BF80546EDB9206880681A49FC
:1045800008402168886021696068084361690843C0
:10459000216889680843216888602168E0680861AB
:1045A00020680169208941EA0040216808612046AD
:1045B00002F031F805465DB92068006C20F48020D7
:1045C000216808642068006CA169084321680864B8
:1045D00000BFFF202168486200E000250DB90120DE
:1045E00060772846ACE70000BFFF8FFF1FB5044689
:1045F00000200090019002900390094920688842B1
:104600000CD102200090000203906846FFF714FBD3
:1046100008B1FDF7C8FF0120024908601FBD000076
:10462000002800403C0E474270B5044600250B4868
:104630002168C860FFF7F0F9054607E0FFF7ECF9DD
:10464000401BB0F57A7F01D9032070BD2068C06897
:1046500000F020000028F1D00020F6E75F7F010085
:104660007047704710B504460CB9012010BD94F88E
:104670003D0028B9002084F83C00204600F025F8D1
:10468000022084F83D00211D206802F019FA012063
:1046900084F8460000BF84F83E0001213F20015508
:1046A000402001554120015500BF00BF012084F882
:1046B000420043200155442001554520015500BFCB
:1046C000012084F83D000020D0E77047014691F8B2
:1046D0003D00012801D001207047022081F83D00F3
:1046E0000868C06840F001000B68D8601A4B086881
:1046F00098421BD00868B0F1804F17D0174B08685C
:10470000984213D0164B086898420FD0154B086892
:1047100098420BD0144B0868984207D0134B086896
:10472000984203D0124B086898420CD10868806800
:1047300000F00702062A0CD00868006840F001006B
:104740000B68186005E00868006840F001000B681D
:1047500018600020C0E70000000001400004004095
:1047600000080040000C00400004014000400140EF
:1047700000180040704770B504462068C56820687E
:10478000066906F00200022819D105F0020002288D
:1047900015D1401F216808610120207720688069B9
:1047A00000F0030018B12046FFF7E4FF05E02046C3
:1047B00000F097F8204600F095F80020207706F0EA
:1047C0000400042819D105F00400042815D1C043C1
:1047D00021680861022020772068806900F4407019
:1047E00018B12046FFF7C6FF05E0204600F079F833
:1047F000204600F077F80020207706F0080008280F
:1048000019D105F00800082815D1C04321680861B6
:10481000042020772068C06900F0030018B120460A
:10482000FFF7A8FF05E0204600F05BF8204600F007
:1048300059F80020207706F01000102819D105F053
:104840001000102815D1C043216808610820207786
:104850002068C06900F4407018B12046FFF78AFF55
:1048600005E0204600F03DF8204600F03BF800202F
:10487000207706F0010048B105F0010030B16FF07B
:10488000010021680861204600F02EF806F0800043
:10489000802809D105F08000802805D1C043216817
:1048A00008612046FFF7DCFE06F04000402809D1F1
:1048B00005F04000402805D1C0432168086120462A
:1048C00000F01EF806F02000202809D105F0200095
:1048D000202805D1C043216808612046FFF7C1FEAA
:1048E00070BD70477047000010B50446034920684A
:1048F000884201D1FFF796F810BD0000000001408A
:104900007047F8B504460D46164694F84200202834
:104910002DD105B10EB90120F8BD01202063002082
:10492000606332462946204602F0F0FC0746206BC1
:10493000012819D100BF0020009020680068009075
:1049400020684068009000BF00BF00BF00BF216822
:104950000C3151E8001F41F0100021680C3141E892
:104960000002002AF3D100E001273846D4E70220F4
:10497000D2E7000070B504460D461749206888420A
:1049800007D1192215491648FBF74DFE012015499C
:10499000087015492068884216D12946134800F04E
:1049A00007FF4FF4807211491148FFF7AAFF104822
:1049B000C06B48B10E48C06B0068006820F008006A
:1049C0000B49C96B096808600A492068884202D10E
:1049D000094801F00BF870BD0048004099480020DC
:1049E00080480020AC0000200010014094490020C5
:1049F0003807002000140140C8070020704700005D
:104A00002DE9F84F0446206805682068C6682068CC
:104A100047694FF00009CA4605F00F09B9F1000FC8
:104A20000AD105F0200038B106F0200020B1204660
:104A300002F0D7FABDE8F88FB9F1000F7CD007F08B
:104A4000010018B906F49070002875D005F0010037
:104A500030B106F4807018B1606C40F00100606401
:104A600005F0040030B107F0010018B1606C40F0AF
:104A70000200606405F0020030B107F0010018B1D7
:104A8000606C40F00400606405F0080048B106F076
:104A9000200010B907F0010018B1606C40F0080068
:104AA0006064606C002846D005F0200028B106F054
:104AB000200010B1204602F094FA20684069C0F34B
:104AC000801A606C00F0080010B9BAF1000F2DD008
:104AD000204602F02DFA2068406900F0400040288E
:104AE00020D100BF00BF2168143151E8001F21F020
:104AF00040002168143141E80002002AF3D100BFD0
:104B0000E06B50B17F48E16B0865E06BFEF78FFC0E
:104B100088B1E06B016D88470DE02046FFF76EFF1E
:104B200009E009E02046FFF769FF04E02046FFF7AF
:104B300065FF002060647DE7206B012878D105F0D7
:104B40001000002874D006F010000028FAD000BF32
:104B50000020009020680068009020684068009065
:104B600000BF00BF2068406900F04000402870D1BD
:104B7000E06B006840681FFA80F8B8F1000F58D069
:104B8000A08D404555DDA4F82E80E06BC069B0F5DE
:104B9000807F43D000BF00BF21680C3151E8001F67
:104BA00021F4807021680C3141E80002002AF3D121
:104BB00000BF00BF00BF2168143151E8001F21F081
:104BC00001002168143141E80002002AF3D100BF3E
:104BD00000BF00BF2168143151E8001F21F04000E0
:104BE0002168143141E80002002AF3D100BF2020DF
:104BF00084F842000020206300BF00BF21680C3110
:104C000051E8001F21F0100021680C3141E800023A
:104C1000002AF3D100BFE06BFEF7B3FB0220606314
:104C2000A08DE28D801A81B22046FFF7A3FE0EE030
:104C300052E0A08D40450AD1E06BC069B0F5807F9D
:104C400005D102206063A18D2046FFF793FEF1E6B7
:104C5000FFE7A08DE18D401A1FFA80F8E08DD0B3F8
:104C6000B8F1000F37D000BF00BF21680C3151E808
:104C7000001F21F4907021680C3141E80002002AE5
:104C8000F3D100BF00BF00BF2168143151E8001FFD
:104C900021F001002168143141E80002002AF3D11B
:104CA00000BF202084F842000020206300BF00BF26
:104CB00021680C3151E8001F21F0100021680C31EF
:104CC00041E80002002AF3D100BF022060634146A0
:104CD0002046FFF74FFEADE605F0800030B106F04C
:104CE000800018B1204602F07DFBA3E605F04000ED
:104CF00030B106F0400018B1204602F04FF999E6B5
:104D000000BF97E6916D000810B504460CB901206C
:104D100010BDA06900B100E000BF94F8410028B9BF
:104D2000002084F84000204600F02AF8242084F86F
:104D300041002068C06820F400502168C860204607
:104D400002F0CEF92068006920F4904021680861E3
:104D50002068406920F02A00216848612068C06806
:104D600040F400502168C86000206064202084F86E
:104D7000410084F842000020606300BFC8E70000E3
:104D800010B586B00446142101A8FBF727FDD149D0
:104D9000206888427ED100BF00200090CE48006885
:104DA00040F01000CC4908600846006800F0100090
:104DB000009000BF00BF00BF00200090C64814381C
:104DC000006840F00200C4491439086008460068D1
:104DD00000F00200009000BF00BF00BF0020009064
:104DE0000846006840F0010008600846006800F0CE
:104DF0000100009000BF00BF8020019002200290BF
:104E000000200390032004900720059001A9B348D7
:104E1000FEF702FD4FF40070019002200290002086
:104E20000390032004900720059001A9AC48FEF7E9
:104E3000F3FCAC48AC4908604FF00060486040218A
:104E4000A94881600021C1604FF4806101610021A7
:104E5000416181614FF48071C16100210162416251
:104E6000FEF71AFC08B1FDF79EFB00BF9E48A06349
:104E7000846300BF9B4878389C4908604FF000600D
:104E80004860002199488160C1604FF480610161F0
:104E9000002100E01AE0416181614FF48071C1613D
:104EA000002101624162FEF7F7FB08B1FDF77BFBD1
:104EB00000BF8E48E063846300BF002205212520E7
:104EC000FEF768FE2520FEF751FE01E188492068C3
:104ED00088427ED100BF002000907F48001F0068FC
:104EE00040F480207C49091F08600846006800F4EF
:104EF0008020009000BF00BF00BF002000907648D7
:104F00001438006840F004007349143908600846FA
:104F1000006800F00400009000BF00BF4FF4406044
:104F200001900220029000200390032004900720AB
:104F3000059001A96F48FEF76FFC6F486F49086044
:104F40004FF00060486040216C4881600021C160E2
:104F50004FF4806101610021416181614FF48071F2
:104F6000C161002101624162FEF796FB08B1FDF7C5
:104F70001AFB00BF6148A063846300BF5E483038FD
:104F80005F4908604FF00060486000215C48816024
:104F9000C1604FF4806101610021416181614FF482
:104FA0008071C161002101624162FEF775FB08B1A9
:104FB000FDF7F9FA00BF5248E063846300BF0022A6
:104FC00005212720FEF7E6FD2720FEF7CFFD7FE035
:104FD000FFE74C49206888427AD100BF002000904A
:104FE0003D48006840F020003B49086008460068E2
:104FF00000F02000009000BF00BF00BF0020009024
:1050000035481438006840F04000334914390860CE
:105010000846006800F04000009000BF00BF4FF459
:10502000844001900220029000200390032004900D
:105030000820059001A93448FEF7EEFB2948903876
:105040003249086080054860002130488160C160B5
:105050004FF4806101610021416181614FF48071F1
:10506000C161002101624162FEF716FB08B1FDF744
:105070009AFA00BF2548E063846300BF19481838D6
:10508000234908604FF0206048604021204881603B
:105090000021C1604FF480610161002141618161A3
:1050A0004FF48071C161002101624162FEF7F4FAA0
:1050B00008B1FDF778FA00BF1548A063846300BF0C
:1050C000002205214720FEF765FD4720FEF74EFD33
:1050D00006B010BD001001404438024000040240F8
:1050E00000000240B8640240100800207008002050
:1050F000004800400008024058600240D0080020EC
:1051000030090020001401400018024090090020DE
:10511000F0090020704770472DE9F84F04460E460D
:10512000174699464FF0000A94F84100202850D1C4
:1051300006B117B90120BDE8F88F00206064212076
:1051400084F84100FEF768FC8246A784E784A068E3
:10515000B0F5805F04D1206910B90025B04602E0A7
:1051600035464FF000081EE05346002280212046BD
:10517000CDF8009002F066F920B1202084F84100BB
:105180000320D8E745B9B8F80000C0F3080021684B
:10519000486008F1020803E02878216848606D1C27
:1051A000E08C401EE084E08C0028DDD153460022D4
:1051B00040212046CDF8009002F044F920B1202093
:1051C00084F841000320B6E7202084F84100002045
:1051D000B1E70220AFE70000F7B50446154694F8A2
:1051E000410020283ED1019800B10DB90120FEBD3B
:1051F00001982062A584E58400206064212084F861
:1052000041001948A16BC8631848A16B086418488D
:10521000A16BC8640020A16B086501AE23681A1D4C
:1052200031682B46A06BFEF7ADFA30B110206064F8
:10523000202084F841000120D9E76FF04000216868
:10524000086000BF00BF2168143151E8001F41F021
:1052500080002168143141E80002002AF3D100BF28
:105260000020C4E70220C2E7CB6E0008236F0008CD
:10527000A36D00087047704700BFFEE7394890F8FB
:105280004200012806D13849088040F20110374910
:10529000088066E0334890F84200652806D132491C
:1052A000088040F26510314908805AE02D4890F896
:1052B0004200032806D12C49088040F203102B49F4
:1052C00008804EE0274890F84200672806D126491A
:1052D000088040F267102549088042E0214890F894
:1052E0004200042806D1204908804FF482701F49EB
:1052F000088036E01B4890F84200682806D11A4919
:1053000008804FF4B470194908802AE0154890F8D5
:105310004200052806D11449088040F205101349BF
:1053200008801EE00F4890F84200692806D10E4917
:10533000088040F269100D49088012E0094890F891
:105340004200072804D1084908800849088008E07D
:10535000044890F842006B2803D1034908800349B0
:10536000088070475C5400203A0400203C04002070
:10537000F0B504460D4600210026002006E0275C1B
:105380000F44F9B27718FEB2471CB8B2A842F6DB58
:1053900011701E70F0BD000000200149C865704703
:1053A0003049002010B564211148FBF717FA4FF47B
:1053B00080711048FBF712FA4FF400710E48FBF7AA
:1053C0000DFA00200D4908804FF4807209490C48FD
:1053D000FFF797FA0A48C06B48B10948C06B0068EC
:1053E000006820F008000649C96B0968086010BD14
:1053F0003049002094490020944A0020AE0000204B
:105400003807002002468A4201DA104670470846F3
:10541000FCE700002DE9F04105460F460024B8E105
:1054200015F80480601C2E5CA01C3044B84200D9E2
:10543000B3E1B8F1310F7DD00CDCB8F1010F16D01B
:10544000B8F1100F2AD0B8F1200F5DD0B8F1300FAD
:1054500071D195E0B8F1400F6ED0B8F1410F6CD02A
:10546000B8F1510F6AD0B8F1520FF1D17EE1022E9E
:1054700013D1A11C681800F03DFA00EE100AB8EE36
:10548000C00ADFEDC70A20EE200AC64880ED000AF8
:10549000C06D40F00100C349C86576E10C2E32D1E1
:1054A000A11C681800F02DFA00EE100AB8EEC00A30
:1054B000DFEDBD0A20EE200ABA4880ED010AA11DE9
:1054C000681800F01EFA00EE100AB8EEC00ADFED10
:1054D000B60A20EE200AB34880ED020A04F10A0160
:1054E000681800F00EFA00EE100AB8EEC00ADFED00
:1054F000AE0A20EE200AAB4880ED030AC06D40F0F2
:105500000200A849C86540E10C2E38D1A11C6818DA
:1055100000F0F7F900EE100AB8EEC00ADFEDA20ABB
:1055200020EE200A9F4880ED040AA11D681800F0B3
:10553000E8F904E05AE027E18EE0C3E008E100EE7C
:10554000100AB8EEC00ADFED980A20EE200A95484E
:1055500080ED050A04F10A01681800F0D2F900EEA6
:10556000100AB8EEC00ADFED900A20EE200A8D483E
:1055700080ED060AC06D40F004008A49C86504E168
:105580000C2E32D1A11C681800F0BBF900EE100AF5
:10559000B8EEC00ADFED840A20EE200A814880EDD3
:1055A000070AA11D681800F0ACF900EE100AB8EE69
:1055B000C00ADFED7D0A20EE200A7A4880ED080A55
:1055C00004F10A01681800F09CF900EE100AB8EE28
:1055D000C00ADFED750A20EE200A724880ED090A44
:1055E000C06D40F008006F49C865CEE00C2E32D186
:1055F000A11C681800F085F900EE100AB8EEC00A88
:10560000DFED6A0A20EE200A664880ED0A0AA11D35
:10561000681800F076F900EE100AB8EEC00ADFED67
:10562000630A20EE200A5F4880ED0B0A04F10A01AC
:10563000681800F066F900EE100AB8EEC00ADFED57
:105640005B0A20EE200A574880ED0C0AC06D40F03E
:1056500010005449C86598E00C2E32D1A11C68187E
:1056600000F04FF900EE100AB8EEC00ADFED4E0A66
:1056700020EE200A4B4880ED0D0AA11D681800F0AD
:1056800040F900EE100AB8EEC00ADFED470A20EE3E
:10569000200A444880ED0E0A04F10A01681800F05F
:1056A00030F900EE100AB8EEC00ADFED3F0A20EE36
:1056B000200A3C4880ED0F0AC06D40F020003949B7
:1056C000C86562E0102E42D1A11C681800F019F9DB
:1056D00000EE100AB8EEC00ADFED330A20EE200A11
:1056E000304880ED100AA11D681800F00AF900EE9C
:1056F000100AB8EEC00ADFED2C0A20EE200A294875
:1057000080ED110A04F10A01681800F0FAF800EEC1
:10571000100AB8EEC00ADFED240A20EE200A214864
:1057200080ED120A04F10E01681800F0EAF800EEAC
:10573000100AB8EEC00ADFED1C0A20EE200A194854
:1057400080ED130AC06D40F040001649C8651CE0AA
:10575000042E0AD1A11C681800F0DFF81149086571
:105760000846C06D40F08000C8650EE0042E0AD1E6
:10577000A11C681800F0D1F80A4948650846C06DB8
:1057800040F48070C86500E000BF00BFA01C30443A
:10579000C4B2A01CB8427FF643AE00BFBDE8F081A2
:1057A0000AD7233C30490020BD3786356F12833A33
:1057B0002DE9FC4106460F4606B10FB9BDE8FC8154
:1057C000484800883844B0F5007F07D90020454993
:1057D00008804FF400714448FBF700F841490988FC
:1057E000C1F5007188B23946FFF70CFE80463E498C
:1057F0003C4A1288881842463146FAF714FF394865
:1058000000884044374908805DE0374800785928CF
:1058100003D13548407853280DD032480088421EC5
:105820003149491C481EFAF743FF2E480088401EA4
:105830002C49088047E02C480479E51D2948008858
:10584000A84200DA43E0E11C6B4601AA2648801C0E
:10585000FFF78EFD601D2449085C9DF80410884206
:1058600023D1A01D2049085C9DF8001088421CD15E
:105870001D48801C00F04BF81C49A1F85800214637
:105880001948401DFFF7C6FDFEF7C6F81749086620
:1058900014480088421B14484119FAF709FF1148BF
:1058A0000088401B0F4908800CE00E480088421E0B
:1058B0000D49491C481EFAF7FBFE0A480088401EA5
:1058C0000849088000BF0748008807289DD200BF0C
:1058D000064890ED0F0A064880ED020AFFF75CFDCE
:1058E00000BF6BE7AE000020944A00203049002042
:1058F00018490020014608784A7840EA022000B2A0
:10590000704710B50446204600F007F810BD014668
:1059100008784A7840EA02207047014608784A78B9
:1059200040EA02208A7840EA0240CA7840EA0260EF
:10593000704700002DE9F0418AB0074688461546B9
:105940001C46182C03D901200AB0BDE8F08159206B
:105950008DF8080053208DF809008DF80A70C4F303
:105960000C00464660F3DF06F0B28DF80B00300AFB
:105970008DF80C0035B12CB1224629460DF10D00F1
:10598000FAF751FEE01C81B26B4601AA901DFFF7A9
:10599000EFFC9DF80410601D02AA11549DF8001040
:1059A000A01D1154E01D82B2642302A90148FFF733
:1059B000B3FBC9E73807002038B504460D46E0B20E
:1059C0008DF80000200A8DF8010002236A4629465E
:1059D0000420FFF7AFFF38BD13B50C4601236A461C
:1059E00021460320FFF7A6FF1CBD000010B50446AA
:1059F000074800F00FF84FF480610548FAF7EEFE13
:105A00004FF4806202492046FEF77BFF10BD000084
:105A10005C5000202DE9F04105462F462EE1287804
:105A2000A5286ED19948296841602979017205211C
:105A3000284603F0FBF90128F3D19448B0F805009B
:105A400000F10906A91907F58060814200D91AE121
:105A50003146284603F0CAF9012872D16879A9793C
:105A600040EA012089494881EC1D0846408940F2FE
:105A70000622811A90427BD01DDC40F20512A0EB79
:105A8000020190425ED00DDC032843D004DC0128E3
:105A900026D002286DD139E0A0F2011080B303288E
:105AA000F8D147E0FC2954D0FD2977D0FE297CD0DD
:105AB000FF29EFD185E005296CD008DC01296AD0E7
:105AC000022969D0032968D00429E3D1A9E0062975
:105AD00074D0072973D0082972D0FE29DAD1BFE02B
