:020000040800F2
:10000000586D0020290300085D5F00088750000834
:10001000E55D0008590A000829A100080000000059
:10002000000000000000000000000000690200085D
:10003000C914000800000000C5020008456E000851
:100040004303000843030008430300084303000878
:100050004303000843030008430300084303000868
:100060004303000843030008430300084303000858
:10007000E50F00084303000843030008430300089A
:100080004303000843030008430300086D0A000807
:100090005D0A000843030008430300084303000807
:1000A00043030008456F00084303000843030008AA
:1000B0004303000843030008430300084303000808
:1000C00043030008430300084303000843030008F8
:1000D0004303000843030008430300088176000837
:1000E00043030008430300084303000843030008D8
:1000F00043030008430300084303000843030008C8
:1001000043030008430300084303000843030008B7
:1001100043030008430300084303000843030008A7
:1001200043030008F50F000805100008430300080A
:100130004303000843030008430300088D0A000836
:100140007D0A0008430300084303000829610008F2
:1001500043030008430300081510000891760008C7
:100160004303000843030008430300084303000857
:100170004303000843030008430300080000000095
:10018000430300084303000800F002F800F05CF8A5
:100190000AA090E8000C82448344AAF10107DA45E2
:1001A00001D100F051F8AFF2090EBAE80F0013F0D8
:1001B000010F18BFFB1A43F00103184784C9000060
:1001C000A4C900000A444FF0000C10F8013B13F0E2
:1001D000070408BF10F8014B1D1108BF10F8015BA0
:1001E000641E05D010F8016B641E01F8016BF9D193
:1001F00013F0080F1EBF10F8014BAD1C0C1B09D1EA
:100200006D1E58BF01F801CBFAD505E014F8016B5B
:1002100001F8016B6D1EF9D59142D6D370470000ED
:100220000023002400250026103A28BF78C1FBD8FF
:10023000520728BF30C148BF0B6070471FB50BF095
:1002400052FF1FBD10B510BD00F0A6F91146FFF713
:10025000F5FF09F0F3FF00F0C4F903B4FFF7F2FF74
:1002600003BC00F0CBF900002C4B19680868B0E81B
:10027000F04F80F30988BFF36F8F4FF0000080F3D9
:10028000118870470000000008480068006880F38B
:1002900008884FF0000080F3148862B661B6BFF39F
:1002A0004F8FBFF36F8F00DF00BF00BF08ED00E08E
:1002B000DFF80C00016841F470010160704700BF75
:1002C00088ED00E0EFF30980BFF36F8F134B1A68DE
:1002D0001EF0100F08BF20ED108A20E9F04F1060CB
:1002E00009B44FF0500080F31188BFF34F8FBFF374
:1002F0006F8F0AF0BFFE4FF0000080F3118809BC39
:1003000019680868B0E8F04F1EF0100F08BFB0EC95
:10031000108A80F30988BFF36F8F7047B000002008
:10032000EFF30580704700000948804709480047FF
:10033000FEE7FEE7FEE7FEE7FEE7FEE7FEE7FEE795
:10034000FEE7FEE704480549054A064B70470000F2
:10035000316F00088901000858670020586D00209F
:10036000586900205869002053EA020C00F06980A7
:100370002DE9F04B4FF00006002B1FBFB3FA83F5B9
:1003800003FA05F424FA05F65E4012BF1643B2FAEA
:1003900082F502FA05F4C5F120051EBF22FA05FC1C
:1003A00044EA0C04203556EA044C4FEA144418BFC2
:1003B000641C4FF000084FF00009904271EB030CF1
:1003C00039D3002919BFB1FA81F701FA07F6B0FA5B
:1003D00080F700FA07F6C7F120071EBF20FA07FCD6
:1003E00046EA0C062037B6FBF4FCA7EB0507103FE6
:1003F00007F01F0BCBF120060CFA0BFB2CFA06F6CC
:1004000044BFB3460026202FA4BF5E464FF0000B2A
:100410005BEA060C08BF4FF0010B19EB0B09ABFBB5
:10042000027C48EB0608C01B06FB02CC0BFB03CC8E
:1004300071EB0C01C1E70B46024641464846BDE858
:10044000F08B13B54FF000004FF00001AFF30080C8
:10045000BDE81C407047032A40F2308010F0030CC6
:1004600000F0158011F8013BBCF1020F624498BF07
:1004700011F801CB00F8013B38BF11F8013BA2F1A4
:10048000040298BF00F801CB38BF00F8013B11F01F
:10049000030300F02580083AC0F0088051F8043BBF
:1004A000083A51F804CBA0E80810F5E7121D5CBF2C
:1004B00051F8043B40F8043BAFF30080D20724BF5F
:1004C00011F8013B11F801CB48BF11F8012B24BFF3
:1004D00000F8013B00F801CB48BF00F8012B704742
:1004E00010B5203AC0F00B80B1E81850203AA0E8CF
:1004F0001850B1E81850A0E81850BFF4F5AF5FEA03
:10050000027C24BFB1E81850A0E8185044BF18C9B5
:1005100018C0BDE810405FEA827C24BF51F8043B5C
:1005200040F8043B08BF7047D20728BF31F8023BB0
:1005300048BF11F8012B28BF20F8023B48BF00F844
:10054000012B70474FF0000200B5134694469646C3
:10055000203922BFA0E80C50A0E80C50B1F12001D6
:10056000BFF4F7AF090728BFA0E80C5048BF0CC084
:100570005DF804EB890028BF40F8042B08BF7047E2
:1005800048BF20F8022B11F0804F18BF00F8012B54
:100590007047704770477047754600F02BF8AE46BD
:1005A00005006946534620F00700854618B020B57F
:1005B000FFF7C8FEBDE820404FF000064FF00007EF
:1005C0004FF000084FF0000B21F00701AC46ACE8FB
:1005D000C009ACE8C009ACE8C009ACE8C0098D4668
:1005E000704710B50446AFF300802046BDE81040C8
:1005F000FFF733BE00487047F86600200149182015
:10060000ABBEFEE7260002007047000000BF0AF004
:10061000A7FA01229102414802F08EFA01214048D6
:1006200000F054FA02213F4800F050FAB2EE042ADA
:10063000DFED3D1AB3EE091ADFED3C0A9FED3C0AEF
:100640003C4809F0E1FDB2EE042ADFED371AB3EEC3
:10065000091ADFED360A9FED360A374809F0D4FD56
:10066000B0EE082ADFED351AB1EE041AFBEE0E0AE1
:10067000B3EE0E0A324809F0C7FDB7EE002ADFEDEF
:100680002F1A9FED291AFAEE040AB2EE040A2D4839
:1006900009F0BAFD41F288329100B3EE0E1ADFED97
:1006A0002A0A9FED2A0A2A4804F0F0FC41F2883217
:1006B0009100B3EE0E1ADFED240A9FED240A2548BF
:1006C00004F0E4FC9FED243ADFED242A9FED242A78
:1006D000F6EE001AB6EE001ADFED180A9FED210AB9
:1006E000214805F08DFF4FF47A7244F62061B0EE98
:1006F000081AF6EE000A9FED1B0A1C4804F0C6FC1F
:1007000000F0FCFA00F0D4FE194800680AF0AAFBD9
:100710000AF050FA012009F0B2FD78E7001C02400F
:100720002005002048050020CDCCCC3D0000C8C2EB
:100730000000C84200610020406100200AD7233C2D
:1007400080610020C0610020000000000000204205
:10075000B46500200466002000002F440000FA4524
:1007600000409C460000484254660020A8660020D5
:10077000340000208AB000BF4FF0FF3269460548C0
:1007800000680AF03DFF09AB07AA01A9009801F033
:1007900016F9F1E70800002070B505460C46002662
:1007A0000DB1022C00D870BD611EFF22284601F059
:1007B000C5F80646601E2E5400BFF4E700B585B0AC
:1007C0000020039004900190029039480088000AAC
:1007D0008DF80C00364800788DF80D0034484088BC
:1007E000000A8DF80E00324880788DF80F003048EE
:1007F0008088000A8DF810002D4800798DF81100CE
:100800002B480089000A8DF812002948007A8DF8DB
:10081000130003A840F20F13002226490090264837
:10082000006800F06DF922484089000A8DF8040044
:100830001F48807A8DF805001D48C07D8DF80600A0
:100840009DF807001A49497E01F0010108438DF81F
:1008500007009DF807001649097B01F0010140EAF5
:1008600041008DF807009DF807001149097E01F04D
:10087000010140EA81008DF807009DF807000C494E
:10088000897E01F0010140EAC1008DF807000848A7
:10089000807D8DF8080001A840F21F130022054951
:1008A00000900548006800F02BF905B000BD00007D
:1008B0006063002048050020080000200FB49DF868
:1008C0001D009DF81C1040EA012000B21649C881A5
:1008D0009DF81F109DF81E0041EA0020124948842F
:1008E0009DF821109DF8200041EA002000B200EEA2
:1008F000100AB8EEC00A0C4880ED040A90ED040A14
:10090000DFED0A0A80EE201A80ED041A9DF822001D
:1009100000F001000449C8769DF82200C0F34000B1
:10092000888404B0704700006063002000007A44AF
:1009300010B54148006941490968401AB0F5C87FBF
:1009400043D33F4909693F4A1268881A002801DBEE
:10095000014600E041420C46322C2DDA3648C06890
:1009600050BB3948007838BB0120374908703248FD
:100970000069364908604FF47A703149C8800846EA
:10098000B0F9020001EE100AB8EEC11AF0EE410A09
:100990000846B0F9060001EE100AB8EEC11AB0EE32
:1009A000410A2B492B4805F08CFDBDEEC00A10EE24
:1009B000100A00B22249C8821F4800691F49086016
:1009C0001F4800691F49086000BF1F48007880B3B6
:1009D000194800691D490968401AC82807D3002032
:1009E00019490870164800691349486122E04FF41C
:1009F0007A701349C8800846B0F9020001EE100A67
:100A0000B8EEC11AF0EE410A0846B0F9060001EE50
:100A1000100AB8EEC11AB0EE410A0D490D4805F0B2
:100A200050FDBDEEC00A10EE100A00B20449C882A3
:100A300010BDFFE700BFFBE708020020D80100203F
:100A4000E0630020DC010020E0010020E401002040
:100A500080610020A866002000BFFEE710B50248B4
:100A600001F0ADF910BD00002005002010B50248CE
:100A700001F0A5F910BD00002005002010B50248C6
:100A800001F09DF910BD00004805002010B5024896
:100A900001F095F910BD00004805002070B504462E
:100AA0000D460020206160616062A0610120E0616C
:100AB0002062002020606060A060E060214628463F
:100AC00001F022F808B100F017FD70BD70B50446C2
:100AD0000D46681EC6B206EB460101EB0611074A39
:100AE00002EB81002146FFF7D9FF204601F095FC7B
:100AF0000221204600F04EFF70BD00008062002001
:100B00002DE9F0418AB007460E4614461D46DDF831
:100B1000408001960CB9029500E0039504940021F1
:100B200005910821069100218DF81C10D8F80000CD
:100B30000890D8F80400099000231A4601A9384605
:100B40000AF00CFC0AB0BDE8F0810346042B15D076
:100B500007DC7BB1012B0ED0022B0DD0032B12D161
:100B60000BE0202B0BD0212B0AD0222B09D0232BDA
:100B700009D107E008E007E006E005E004E003E053
:100B800002E001E000E000BF00BF0020704700204D
:100B90007047000010B500220449054807F031F8FD
:100BA0000449034807F01EF8002010BD0C15002072
:100BB000300800200C0D002038B504460D462146B3
:100BC0000C4807F00FF80B4806F0D8FF00236A46E0
:100BD0002146094800680AF095FC009838B14FF0AA
:100BE000805006490860BFF34F8FBFF36F8F00201E
:100BF00038BD0000300800200C00002004ED00E0AB
:100C000010B503460C460021084610BD2DE9F04101
:100C100004460D4600260A48D0F8BC72D7F81402E4
:100C200010B10120BDE8F0812A462146044806F0B3
:100C3000E8FF034807F098F806463046F2E7000060
:100C4000300800208EB000BF4FF0FF3205A91248D7
:100C500000680AF0D5FC059CB4F5017F0DD940F27F
:100C60000620844209D8142209A96846FFF738FCF7
:100C700005A80FC804F0AAFDE6E740F20720844269
:100C8000E2D1142209A96846FFF72AFC05A80FC87B
:100C900004F016FDD8E70000000000208EB000BF71
:100CA0004FF0FF3205A9134800680AF0A9FC059C23
:100CB0009DF8300000F00F000F49088040F20F103F
:100CC000844209D1142209A96846FFF709FC05A846
:100CD0000FC8FFF7F3FDE3E7074800880128DFD1DD
:100CE000142209A96846FFF7FBFB05A80FC804F00A
:100CF00049FAD5E7040000203A02002010B5134855
:100D000090ED0B0A124880ED030A104890ED0B0A93
:100D10000F4880ED010A9FED0F0A0F4880ED000A91
:100D20009FED0C0A0A4880ED040AF2EE040AB1EEC7
:100D3000080A0A4805F000FA00200949087602204E
:100D4000C87500204876087710BD00009863002021
:100D50007065002000000000AC01002084650020C8
:100D60006063002010B56D48007B01283FD16B48BF
:100D7000B0F9060000EE100AF8EEC00A684890EDDF
:100D8000001A684890ED000A00EE810A80ED000A22
:100D900090ED000AF2EE060AB4EEE00AF1EE10FA67
:100DA00004DDB2EE060A80ED000A0DE05D4890ED2C
:100DB000000AFAEE060AB4EEE00AF1EE10FA03D2E7
:100DC000BAEE060A80ED000A574890ED040ADFEDFE
:100DD000570A30EE200A5348D0ED000A30EE200AC0
:100DE000514880ED030A01205149086048E04B4812
:100DF000B0F9060000EE100AF8EEC00A484890ED7F
:100E0000001A484890ED000A00EE810A80ED000AC1
:100E100090ED000AF2EE060AB4EEE00AF1EE10FAE6
:100E200004DDB2EE060A80ED000A0DE03D4890EDCB
:100E3000000AFAEE060AB4EEE00AF1EE10FA03D266
:100E4000BAEE060A80ED000A3948006850B9354804
:100E500090ED000ADFED350A30EE200A324880EDD1
:100E6000030A0DE032480068012809D12D4890EDB1
:100E7000000ADFED2E0A30EE200A2B4880ED030A2F
:100E8000294890ED030AF2EE060AB4EEE00AF1EE0C
:100E900010FA04DDB2EE060A80ED030A0DE02248E6
:100EA00090ED030AFAEE060AB4EEE00AF1EE10FA4B
:100EB00003D2BAEE060A80ED030A1E4890ED000A3E
:100EC000BDEEC00A10EE100A40B21B4981F8400086
:100ED0001A4890ED000ABDEEC00A10EE100A40B2AA
:100EE00081F84100164890ED000A084680ED0C0A92
:100EF000144890ED000A084680ED0D0A0A48D0ED2E
:100F0000030AB0EE600A104805F036F9064890ED85
:100F1000030A094880ED0B0A10BD00006063002041
:100F2000C0010020CC0100207065002000000000FE
:100F3000C8010020B801002098630020BC010020F7
:100F4000B4010020B00100208465002010B5FFF737
:100F500009FF10BD10B52DED068B044694ED010A76
:100F600010EE101A08460BF04DF841EC1A0BB0EEDB
:100F70004A0AF0EE6A0A09F00DF9B0EE408AF0EE86
:100F8000608A94ED000A10EE101A08460BF03AF849
:100F900041EC1A0BB0EE4A0AF0EE6A0A09F0FAF8D0
:100FA000B0EE409AF0EE609A53EC182B51EC190B0E
:100FB0000AF0EEFE04D29FED090A84ED000A09E072
:100FC00094ED000AD4ED000A9FED051A00EEC10A67
:100FD00084ED000ABDEC068B10BD0000000000008F
:100FE000CDCC4C3E10B5024801F0B8FA10BD00005F
:100FF0002807002010B5024801F0B0FA10BD00002B
:101000008807002010B5024801F0A8FA10BD0000C2
:101010006806002010B5024801F0A0FA10BD0000DB
:10102000C80600200146087810381823B0FBF3F2F8
:101030000848805CC865032A05D908686FF3090071
:10104000001D886503E008686FF309008865886DF6
:101050007047000008C50008014600208A6A8B69B5
:10106000CBB932B1012A0DD0022A03D0032A10D104
:101070000EE000BFCB6A03F08073B3F1807F00D134
:10108000012007E0CB6AB3F1C07F00D1012001E06D
:1010900000E000BF34E08B69B3F5005F1AD132B1D4
:1010A000012A07D0022A03D0032A11D10AE000BF87
:1010B00001200EE0CB6A03F08073B3F1807F00D192
:1010C000012006E0CB6AB3F1C07F00D1012000E02F
:1010D00000BF15E032B1012A05D0022A04D0032A4C
:1010E0000CD103E000BF00BF012008E0CB6A03F091
:1010F0008073B3F1807F00D1012000E000BF00BF0A
:10110000704730B50468246824F4802405682C6096
:10111000046863608468402C04D10468A260046899
:10112000E16003E00468A1600468E26030BD08B5D6
:101130000AF000FC009000BF00BF00F005F8052198
:10114000684609F025FEF8E710B52DED048BCD4873
:10115000007801287ED10020CA490870CA4800786A
:10116000C949497840EA0120C0F30A00C74908800C
:1011700008460088A0F5806000B20880C248407828
:10118000C010C149897840EA4110C0F30A00BF4944
:10119000488008464088A0F5806000B24880BA4880
:1011A00080788011B849C97840EA8100B649097948
:1011B00040EA8120C0F30A00B4498880084680884C
:1011C000A0F5806000B28880AF4800794010AE4939
:1011D000497940EAC110C0F30A00AC49C88008460A
:1011E000C088A0F5806000B2C8800846B0F9000051
:1011F000642807DC0846B0F9000010F1640F01DB39
:1012000000200880A148B0F90200052808DC9F48AA
:10121000B0F9020010F1050F02DB00209B49488065
:101220009A48B0F90400052808DC9848B0F9040091
:1012300010F1050F02DB0020944988809348B0F933
:10124000060005280ADC9148B0F9060010F1050FE8
:1012500004DB00E0A4E000208C49C8808A48407983
:10126000001180088949087287484079C0F301104D
:101270004872854880798449C97940EA012000B2E2
:10128000824948818048007A7F49497A40EA0120B2
:1012900001B27E4881817C48807A7B49C97A40EAE4
:1012A000012001B27948C1817748017B77480174F8
:1012B0007548417B754841747348807B7249C97B8E
:1012C00040EA0120714948826F48007C6E49497CA0
:1012D00040EA0120A0F5806000B26C49888208468F
:1012E000B0F9140010F5257F05DB0846B0F91400AD
:1012F000B0F5257F02DD0020644988826348407A8A
:10130000634948730846407B012804D1614908734A
:101310006149087106E05E48407B032802D1002045
:101320005D4908715948007A03283BD15748407AF3
:10133000B8B35648C088564908805448808840420F
:1013400000B248800020087350484088C8804F4849
:10135000008808814D48808A8880504890ED000AB6
:10136000BDEEC00A10EE100A00B248814748407A2C
:10137000022803D18875002048767EE04348407AF1
:10138000032804D1002042498875487675E03F481B
:10139000407A012871D100203D49887501204876A6
:1013A0006BE0FFE73948007A02284FD13748407A8E
:1013B000C8B33648C08836490880344880884042DF
:1013C00000B248803149B1F902000AF0CAFC41EC90
:1013D000190B9FED330B53EC102B0AF015FD41EC6C
:1013E000180B0AF08FFC00B22949C88027480088F2
:1013F000088101200873294890ED000ABDEEC00A5B
:1014000010EE100A00B24881274890ED000A2748E4
:1014100080ED040A0846407B022805D1002088752B
:101420000120487629E011E01948407B012805D1C8
:10143000002017498875012048761EE01448407B3B
:1014400003281AD100201249487616E00F48007A86
:10145000012808D10D48407A032804D104F070F81F
:1014600005F05EF909E0002009490873088048800A
:1014700088800881C88003204873FFF79FF9BDEC7E
:10148000048B10BD88010020D6640020C0640020B9
:1014900060630020F80100203402002018010020C1
:1014A0009A9999999999C93F1C010020706500206B
:1014B00010B512220249034803F061FA10BD000082
:1014C000D6640020D80500207047000010B50948F8
:1014D000007B01280AD10748407B012806D104F08F
:1014E0003FFDFFF725FA04F08BFE01E005F082FCDA
:1014F00010BD0000F801002072B600BFFEE700003A
:1015000010B500F061F82A4890ED000AFFEE000ADD
:1015100020EE200ABDEEC00A10EE100A01B22548E6
:10152000A0F88810224890ED000ABDEEC00A10EE27
:10153000100A01B21F48A0F8A810B0F9820001EE0D
:10154000100AB8EEC11AF0EE410A1A48B0F9880044
:1015500001EE100AB8EEC11AB0EE410A164917485A
:1015600004F0AFFFBDEEC00A10EE100A01B2114840
:10157000A0F89610B0F9A20001EE100AB8EEC11A58
:10158000F0EE410A0B48B0F9A80001EE100AB8EEDF
:10159000C11AB0EE410A0A490A4804F092FFBDEEB2
:1015A000C00A10EE100A01B20248A0F8B61010BD31
:1015B0002C0200200064002000610020B46500209F
:1015C00040610020046600200C48407E10B10C48A9
:1015D000C06828B19FED0B0A0B4880ED000A7047E8
:1015E0000648407E012807D10548C06820B99FED14
:1015F000070A054880ED000A00BFF0E7606300209D
:1016000008020020000000002C02002000C0C1459C
:101610000EB50346B0EE403AF0EE603A002000907E
:101620000190029003F12001F0EE630AB0EE430A4C
:10163000184603F0EBFFD3ED080AB0EE600A03F1A1
:10164000300103F1280004F0CFFBD3ED090AB0EE1E
:10165000600A03F13C0103F1340004F0C5FB93ED93
:101660000A0AD3ED0D0A60EE200A93F93000C0EBB0
:10167000C0009D4901EB800093F93C1000EB810014
:1016800090ED001A9DED000A00EE810A8DED000A32
:1016900093ED0A0AD3ED0E0A60EE200A93F93000AA
:1016A000C0EBC000904901EB800193F93D0001EBD4
:1016B000800090ED001A9DED000A00EE810A8DED8C
:1016C000000A93ED0B0AD3ED0D0A60EE200A93F9A0
:1016D0003100C0EBC000844901EB800093F93C105D
:1016E00000EB810090ED001A9DED000A00EE810AEA
:1016F0008DED000A93ED0B0AD3ED0E0A60EE200A81
:1017000093F93100C0EBC000774901EB800193F9F8
:101710003D0001EB800090ED001A9DED000A00EE07
:10172000810A8DED000A93ED0A0AD3ED0D0A60EEF1
:10173000200A93F93000C0EBC0006C4901EB800037
:1017400093F93C1000EB810090ED001A9DED010A29
:1017500000EE810A8DED010A93ED0A0AD3ED0E0A1F
:1017600060EE200A93F93000C0EBC0005F4901EB46
:10177000800193F93D0001EB800090ED001A9DED92
:10178000010A00EE810A8DED010A93ED0B0AD3EDFB
:101790000D0A60EE200A93F93100C0EBC0005349F6
:1017A00001EB800093F93C1000EB810090ED001AF2
:1017B0009DED010A00EE810A8DED010A93ED0B0A01
:1017C000D3ED0E0A60EE200A93F93100C0EBC000A1
:1017D000464901EB800193F93D0001EB800090ED5B
:1017E000001A9DED010A00EE810A8DED010A93EDCC
:1017F0000A0AD3ED0D0A60EE200A93F93000C0EB1F
:10180000C0003B4901EB800093F93C1000EB8100E4
:1018100090ED001A9DED020A00EE810A8DED020A9C
:1018200093ED0A0AD3ED0E0A60EE200A93F9300018
:10183000C0EBC0002E4901EB800193F93D0001EBA4
:10184000800090ED001A9DED020A00EE810A8DEDF8
:10185000020A93ED0B0AD3ED0D0A60EE200A93F90C
:101860003100C0EBC000224901EB800093F93C102D
:1018700000EB810090ED001A9DED020A00EE810A56
:101880008DED020A93ED0B0AD3ED0E0A60EE200AED
:1018900093F93100C0EBC000154901EB800193F9C9
:1018A0003D0001EB800090ED001A9DED020A00EE74
:1018B000810A8DED020A9DED000AF0EE080A80EE25
:1018C000201A83ED001A9DED010AF0EE080A80EE61
:1018D000201A83ED011A9DED020AF0EE080A80EE4F
:1018E000201A83ED021A0EBD28C50008ECC50008B9
:1018F000B0C600080246002321B1012908D0022900
:1019000012D10BE00C48C068D04000F001030DE09C
:1019100009488068D04000F0010307E006480069EC
:10192000D04000F0010301E0002300BF00BF0BB175
:10193000012070470020FCE7E864002030B5034632
:1019400005E013F8010B80EA02040448025D081E5A
:10195000A1F10101F5D1104630BD000074C70008A7
:1019600070B50A480468001D0568001D0668344407
:1019700054B108220649204603F0B8FB042204496A
:101980001031284603F0B2FB70BD0000107AFF1F33
:101990007200002010B5024692F82030012B01D0D1
:1019A000022B06D11068406908431468606100206A
:1019B00010BD506A40F4802050620120F8E7F0B575
:1019C00004460D461E4694F8207020688368A86877
:1019D00000B900E000BF012F01D0022F7DD103F03C
:1019E000806030B903F0006018B903F0805000281F
:1019F0007ED0C3F30161012088403060A86860B9DF
:101A0000B5F800C0E86840EA4C5C206800F5C0709A
:101A100000EB0110C0F800C00FE0D5E901C040EABA
:101A2000CC00D5F80CC040EA0C00D4F800C00CF58E
:101A3000C07C0CEB011CCCF80000D5F810C020686D
:101A400000F5C07000EB0110C0F804C0287D01282B
:101A50000ED1206800F5C07000EB0110406840F422
:101A6000807C206800F5C07000EB0110C0F804C055
:101A7000D079000692F806C040EA0C4092F805C002
:101A800040EA0C2092F804C040EA0C00D4F800C0F0
:101A90000CF5C07C0CEB011CCCF80C00D0780006D7
:101AA00092F802C040EA0C4092F801C040EA0C20D3
:101AB00092F800C040EA0C00D4F800C00CF5C07CDD
:101AC0000CEB011CCCF80800206800F5C07000EB9E
:101AD0000110006840F0010C01E00FE008E0206810
:101AE00000F5C07000EB0110C0F800C00020F0BD90
:101AF000606A40F4001060620120F8E7606A40F418
:101B0000802060620120F2E7F0B504460A4694F8AE
:101B10002050012D01D0022D7ED1424901F50071E6
:101B2000086840F001000860086820F47C500860F4
:101B30000868566A40EA06200860107D00F01F061B
:101B4000012000FA06F3C8699843C861A1F5007145
:101B5000D069C8B9D1F80C029843C1F80C0290883A
:101B600080B2968940EA064601F51070576940F840
:101B70003760108880B2168940EA064601F5107079
:101B8000576900EBC7004660D069012819D1D1F828
:101B90000C021843C1F80C02908880B2168840EA03
:101BA000064601F51070576940F83760908980B299
:101BB000168940EA064601F51070576900EBC70028
:101BC0004660906928B9D1F804029843C1F804022C
:101BD00004E0D1F804021843C1F80402106928B9DE
:101BE000D1F814029843C1F8140204E0D1F81402A9
:101BF0001843C1F81402106A012804D1D1F81C025C
:101C00001843C1F81C02D1F8000220F00100C1F80D
:101C100000020020F0BDFFE7606A40F480206062AF
:101C20000120F7E700640040704770B5044694F85F
:101C30002050012D01D0022D7DD151B92068C068FE
:101C400000F0030080B9606A40F400106062012077
:101C500070BD2068006900F0030028B9606A40F494
:101C6000001060620120F3E7206800F5D87000EBF7
:101C70000110006800F004009060906840B920688E
:101C800000F5D87000EB01100068400D106007E00F
:101C9000206800F5D87000EB01100068C0085060A3
:101CA000206800F5D87000EB0110006800F0020019
:101CB000D060206800F5D87000EB0110406800F09B
:101CC0000F00082802D30820106108E0206800F502
:101CD000D87000EB0110406800F00F001061206820
:101CE00000F5D87000EB0110406800F47F40000A56
:101CF0009061206800F5D87000EB01104068000C7E
:101D00005061206800F5D87000EB011080681870F1
:101D1000206800F5D87000EB0110806800F47F4067
:101D2000000A5870206800F5D87000EB0110806838
:101D300000F47F0000E03CE0000C9870206800F5A3
:101D4000D87000EB01108068000ED870206800F594
:101D5000D87000EB0110C0681871206800F5D870C9
:101D600000EB0110C06800F47F40000A5871206841
:101D700000F5D87000EB0110C06800F47F00000C83
:101D80009871206800F5D87000EB0110C068000E53
:101D9000D87131B92068C06840F020002668F06032
:101DA00005E02068006940F02000266830610020CE
:101DB0004EE7606A40F480206062012048E72DE928
:101DC000F05F04460025206846692068D0F804903A
:101DD000206887682068D0F80CA02068D0F810B080
:101DE0002068D0F8188006F00100002855D007F0D0
:101DF0000100C0B101202168886007F0020018B11D
:101E0000204600F03AFB0EE007F0040010B145F464
:101E1000006508E007F0080010B145F4805502E0C5
:101E2000204600F029FB07F48070C8B14FF48070A1
:101E30002168886007F4007018B1204600F01FFB8D
:101E40000EE007F4806010B145F4005508E007F497
:101E5000006010B145F4804502E0204600F00EFB22
:101E600007F48030C8B14FF480302168886007F4EF
:101E7000003018B1204600F004FB0EE007F480208B
:101E800010B145F4004508E007F4002010B145F416
:101E9000803502E0204600F0F3FA06F0080038B181
:101EA0000AF0100020B145F4007510202168C860C8
:101EB00006F0040040B10AF0080028B108202168AB
:101EC000C860204600F01CFA06F0020038B1206815
:101ED000C06800F0030010B1204600F013FA06F0CD
:101EE000400038B10BF0100020B145F4806510209F
:101EF0002168086106F0200040B10BF0080028B10D
:101F0000082021680861204600F084FA06F01000DD
:101F100038B12068006900F0030010B1204600F0DD
:101F20007AFA06F4003040B109F0100028B1102010
:101F300021684860204600F06FFA06F4803040B116
:101F400009F0080028B1082021684860204600F008
:101F500099FA06F4004088B309F0040078B306F457
:101F6000807020B108F0010008B145F0010506F4C9
:101F7000007020B108F0020008B145F0020506F437
:101F8000806020B108F0040008B145F0040506F4B3
:101F90000060A0B108F0700088B108F0700040281F
:101FA00017D006DC10280BD020280CD0302819D1EF
:101FB0000CE0502810D0602814D110E01DE019E08A
:101FC00045F008050FE045F010050CE045F0200550
:101FD00009E045F0400506E045F0800503E045F4E2
:101FE000807500E000BF00BF2068806920F07000AD
:101FF000216888610420216848602DB1606A284307
:1020000060622046FFF710FEBDE8F09F70B5044601
:102010000CB9012070BD94F8200010B9204600F0E2
:10202000AFF82068006840F001002168086000F007
:1020300089FD05460DE000F085FD401B0A2808D902
:10204000606A40F400306062052084F820000120BE
:10205000E0E72068406800F001000028EBD020682D
:10206000006820F002002168086000F06BFD054662
:102070000DE000F067FD401B0A2808D9606A40F4B3
:1020800000306062052084F820000120C2E720684B
:10209000406800F002000028EBD1207E012806D124
:1020A0002068006840F080002168086005E0206832
:1020B000006820F0800021680860607E012806D159
:1020C0002068006840F040002168086005E0206852
:1020D000006820F0400021680860A07E012806D139
:1020E0002068006840F020002168086005E0206852
:1020F000006820F0200021680860E07E012806D1F9
:102100002068006820F010002168086005E0206861
:10211000006840F0100021680860207F012806D187
:102120002068006840F008002168086005E0206829
:10213000006820F0080021680860607F012806D14F
:102140002068006840F004002168086005E020680D
:10215000006820F0040021680860D4E90201084307
:1021600021690843616908436168491E0843216881
:10217000C86100206062012084F82000002049E747
:1021800010B586B00446142101A8FEF7DBF95649C4
:102190002068884249D155480068401C534908606E
:1021A0000846006801280FD100BF00200090504869
:1021B000006840F000704E4908600846006800F072
:1021C0000070009000BF00BF00BF00200090484892
:1021D0001038006840F0080045491039086008468A
:1021E000006800F00800009000BF00BF03200190CD
:1021F0000220029000200390032004900920059003
:1022000001A93C4800F09EFB00220521132000F0AC
:1022100057FD132000F040FD00220521142000F09E
:102220004FFD142000F038FD5CE0334920688842FF
:1022300058D100BF002000902D48006840F0806019
:102240002B4908600846006800F08060009000BFDD
:1022500000BF26480068401C244908600846006802
:1022600001280FD100BF002000902148006840F0F5
:1022700000701F4908600846006800F00070009078
:1022800000BF00BF00BF0020009019481038006850
:1022900040F002001649103908600846006800F056
:1022A0000200009000BF00BF602001900220029059
:1022B00000200390032004900920059001A90F48F5
:1022C00000F040FB002205213F2000F0F9FC3F20F8
:1022D00000F0E2FC00220521402000F0F1FC40204B
:1022E00000F0DAFC06B010BD0064004038000020A9
:1022F00040380240000C02400068004000040240E8
:102300007047000038B504463B492068884203D135
:1023100000203A49087002E0012038490870374827
:10232000007800EB400101EB0010354901EB800023
:1023300000F144033148007800EB400101EB00104C
:102340002F4901EB800000F1280200212046FFF711
:102350006CFC2A4A127802EB420303EB0212284B70
:1023600003EB820202F12801244A127802EBC20236
:10237000244B03EB82001C22FEF7B2F81F480078C2
:1023800000EBC0001F4901EB80011C48007800EB06
:10239000400202EB00101A4A02EB8000826C406C93
:1023A000C1E907021548007868B91448007800EBC5
:1023B000C000144A02EB800100236A4612480068FC
:1023C00009F0A0F80CE00D48007800EBC0000D4AC1
:1023D00002EB800100236A460C48006809F092F87D
:1023E000009838B14FF0805009490860BFF34F8F13
:1023F000BFF36F8F38BD0000006400405E01002015
:1024000080620020186300200000002004000020EB
:1024100004ED00E070477047704770B5044694F8CB
:102420002000012822D1022084F8200020680068C2
:1024300020F001002168086000F084FB05460DE0F3
:1024400000F080FB401B0A2808D9606A40F4003085
:102450006062052084F82000012070BD206840687B
:1024600000F001000028EBD16062F6E7606A40F4FA
:10247000002060620120F0E77047704770477047A6
:1024800070477047704770B50446A56D00F05AFB61
:10249000064694F83500022808D08020606500BF09
:1024A000002084F8340000BF012070BD206800685F
:1024B00020F01600216808602068406920F0800044
:1024C00021684861206C08B9A06C28B120680068B8
:1024D00020F00800216808602068006820F00100F2
:1024E0002168086010E000F02DFB801B05280BD947
:1024F00020206065032084F8350000BF002084F8A8
:10250000340000BF0320D0E72068006800F001001D
:102510000028E8D194F85C103F208840A860012092
:1025200084F8350000BF002084F8340000BF00BFED
:10253000BBE7014691F83500022803D080204865AA
:1025400001207047052081F835000868006820F0F8
:1025500001000A6810600020F3E70000F8B50446A7
:10256000002000908C4800684FF41651B0FBF1F742
:10257000A56D2E6894F85C1008208840304098B112
:102580002068006800F0040070B12068006820F046
:1025900004002168086094F85C1008208840A86056
:1025A000606D40F00100606594F85C100120884087
:1025B000304068B12068406900F0800040B194F874
:1025C0005C1001208840A860606D40F002006065EA
:1025D00094F85C1004208840304068B1206800689E
:1025E00000F0020040B194F85C1004208840A8601C
:1025F000606D40F00400606594F85C101020884025
:10260000304078B32068006800F0080050B394F8B8
:102610005C1010208840A8602068006800F48020CA
:1026200080B12068006800F4002028B9206CC8B18F
:102630002046216C884715E0A06C98B12046A16C1B
:1026400088470FE02068006800F4807028B920688F
:10265000006820F0080021680860206C10B1204656
:10266000216C884794F85C10202088403040002876
:1026700065D02068006800F0100000285FD094F852
:102680005C1020208840A86094F83500052828D1E7
:102690002068006820F01600216808602068406902
:1026A00020F0800021684861206C08B9A06C28B136
:1026B0002068006820F008002168086094F85C1029
:1026C0003F208840A860012084F8350000BF00202A
:1026D00084F8340000BF206D10B12046216D88477A
:1026E000F8BD2068006800F4802080B12068006890
:1026F00000F4002028B9606C10B12046616C884756
:102700001DE0E06BD8B12046E16B884717E02068F8
:10271000006800F4807068B92068006820F010003C
:1027200021680860012084F8350000BF002084F88B
:10273000340000BFE06B10B12046E16B8847606D4C
:1027400038B3606D00F00100F0B1052084F8350069
:102750002068006820F001002168086000BF009830
:10276000401C0090B84200D905E02068006800F0E5
:1027700001000028F3D100BF012084F8350000BF1C
:10278000002084F8340000BFE06C10B12046E16CFA
:10279000884700BFA4E70000AC0000202DE9F0410D
:1027A0000446002500F0CEF9074614B90120BDE823
:1027B000F081606A00B100BF022084F8350000BFDC
:1027C000002084F8340000BF2068006820F0010079
:1027D000216808600AE000F0B5F9C01B052805D99A
:1027E00020206065032084F83500E0E72068006859
:1027F00000F001000028EED120680568214805405E
:10280000D4E901010843E16808432169084361698B
:102810000843A1690843E1690843216A0843054365
:10282000606A042803D1D4E90B01084305432068FA
:1028300005602068456925F00705606A0543606A00
:1028400004280DD1A06A0543E06A48B12046FEF78E
:1028500003FC28B140206065012084F83500A6E71C
:10286000206845612046FEF7DDFB064694F85C10C3
:102870003F208840B06000206065012084F835006A
:10288000002094E73F8010F02DE9F04704460D4604
:1028900016461F464FF00008D4F8589000BF94F831
:1028A0003400012802D10220BDE8F087012084F81D
:1028B000340000BF94F83500012825D1022084F8A7
:1028C0003500002060653B46324629462046FEF72B
:1028D00018FC94F85C103F208840C9F80800206874
:1028E000006840F0160021680860206C28B120685C
:1028F000006840F00800216808602068006840F027
:1029000001002168086006E000BF002084F8340060
:1029100000BF4FF002084046C6E7000070B504460D
:1029200000F010F906462546681C10B104480078EE
:10293000054400BF00F006F9801BA842FAD370BD21
:10294000A8000020F8B502460B4600250024002010
:102950000021D6E0012606FA01F51E6806EA050404
:10296000AC4274D11E7906F00306012E04D01E7904
:1029700006F00306022E13D190684F000326BE40D6
:10298000B0434F00DE68BE4030439060506801267F
:102990008E40B0431E79C6F300168E40304350601F
:1029A0001E7906F00306032E09D0D0684F000326D7
:1029B000BE40B0434F009E68BE403043D0601E7999
:1029C00006F00306022E13D1CF0802F1200656F8B6
:1029D00027004E07F70E0F26BE40B0434F07FF0EED
:1029E0001E69BE403043CF0802F1200646F827009A
:1029F00010684F000326BE40B0431E7906F0030660
:102A00004F00BE40304310605E6806F44036002E32
:102A100076D000BF002600963C4E366846F48046CD
:102A20003A4F3E603E46366806F48046009600BF48
:102A300000BF374E8F0856F827008E07370F0F2636
:102A4000BE40B043334EB24202D1002624E057E0EC
:102A5000314EB24201D101261EE0304EB24201D1C8
:102A6000022619E02E4EB24201D1032614E02D4E6B
:102A7000B24201D104260FE02B4EB24201D105260D
:102A80000AE02A4EB24201D1062605E0284EB242A3
:102A900001D1072600E008268F073F0FBE403043D4
:102AA0001B4E8F0846F82700224E3068A0435E6810
:102AB00006F4801606B120431E4E3060361D306885
:102AC000A0435E6806F4001606B12043194E361D79
:102AD0003060184E361F3068A0435E6806F400363A
:102AE00006B12043134E361F3060361F3068A043B6
:102AF0005E6806F4803606B120430E4E083E306014
:102B0000491C1029FFF426AFF8BD000044380240EC
:102B10000838014000000240000402400008024062
:102B2000000C024000100240001402400018024055
:102B3000001C0240083C01400AB1816101E00B0425
:102B4000836170470148006870470000A0000020C2
:102B50000348006803490978084401490860704740
:102B6000A0000020A800002010B50D48006840F427
:102B700000700B4908600846006840F480600860F7
:102B80000846006840F480700860032000F0D6F822
:102B90000F2000F007F800F055F8002010BD0000ED
:102BA000003C0240F0B587B004460026002700BF75
:102BB000002000901E48006840F001001C49086099
:102BC0000846006800F00100009000BF00BF01A9A6
:102BD00002A801F02BF901F061F946001548B6FB97
:102BE000F0F0471E14481549086040F2E7311348D9
:102BF000C1604760002101618160816101F070FD69
:102C0000054695B90D4801F09FFD05466DB919209F
:102C100000F042F8102C07D200222146192000F0C3
:102C20004FF80748046000E00125284607B0F0BDD2
:102C30004438024040420F0000000140E8070020F5
:102C4000A400002008B500BF0020009011480068D3
:102C500040F480400F4908600846006800F4804056
:102C6000009000BF00BF00BF00200090081F006858
:102C700040F08050091F08600846006800F080504E
:102C8000009000BF00BF00220F21901E00F018F836
:102C900008BD0000443802400146084600280DDB0C
:102CA00000BF00BF00F01F0301229A4043099B00B0
:102CB00003F1E023C3F8002100BF00BF00BF70474D
:102CC0002DE9F05F80460D461646002707F046FACC
:102CD000074639462A46334601F00700C0F1070A85
:102CE000BAF1040F02D94FF0040A01E0C0F1070A5B
:102CF000D14600F1040ABAF1070F02D24FF0000AE0
:102D000001E0A0F1030AD4464FF0010A0AFA09FAD9
:102D1000AAF1010A0AEA020A0AFA0CFA4FF0010BB8
:102D20000BFA0CFBABF1010B0BEA030B4AEA0B04A9
:102D30002146404607F01AFABDE8F09F00BF00F0B8
:102D40000702064B19684FF6FF031940044B0B436B
:102D500043EA0221014B196000BF70470CED00E00F
:102D60000000FA0570470246106841620020704773
:102D7000F0B5034615461868446A21B944EA05408F
:102D80001E68B06219E01868806A04EB10440022E3
:102D900008E0186800F5827050F8220004EB104437
:102DA000501CC2B2481E9042F3D844EA0547186846
:102DB00000F582704E1E40F826700020F0BD10B560
:102DC0000446D4F8E00405F04AFC10BD70B5044692
:102DD0000D4605EBC50304F1140101EB8301CA683C
:102DE0002946D4F8E00405F02DFB70BD70B504460B
:102DF0000D4605EBC50304F5157101EB8301CA68A7
:102E00002946D4F8E00405F0A5FB70BD10B50446D2
:102E1000D4F8E00405F026FC10BD2DE9F04104468D
:102E20000D4605F08000802808D105F00F0000EB6A
:102E3000C00104F1140000EB810607E005F00F006B
:102E400000EBC00104F5157000EB810631462068E7
:102E500006F05EFE07463846BDE8F08170B50446D0
:102E60000E4606F0800080280AD106F00F0000EB25
:102E7000C00104F1140000EB81050120687009E035
:102E800006F00F0000EBC00104F5157000EB8105A2
:102E90000020687006F00F00287000BF94F89404BA
:102EA000012801D1022070BD012084F8940400BFE4
:102EB0002946206806F0BAF900BF002084F894047F
:102EC00000BF00BFEFE770B504460E4606F00F00E6
:102ED0002179884201D9012070BD06F08000802848
:102EE0000AD106F00F0000EBC00104F1140000EB62
:102EF00081050120687009E006F00F0000EBC001B9
:102F000004F5157000EB8105002068700020A870A2
:102F100006F00F00287000BF94F89404012801D136
:102F20000220D9E7012084F8940400BF29462068D4
:102F300006F07AFB00BF002084F8940400BF00BFB5
:102F4000CAE7024601F00F0000EBC00302F515705E
:102F500000EB8300406970472DE9F04705460E46B7
:102F600090461F464FF0000906F0800080280AD1E5
:102F700006F00F0000EBC00105F1140000EB810426
:102F80000120607009E006F00F0000EBC00105F5BC
:102F9000157000EB81040020607006F00F002070B7
:102FA000C8F30A00A0602771607808B120786083B8
:102FB000022F01D10020607100BF95F89404012810
:102FC00002D10220BDE8F087012085F8940400BFFB
:102FD0002146286806F036F800BF002085F89404E2
:102FE00000BF4846EEE72DE9F04105460E4617467C
:102FF000984606F00F0000EBC00105F5157000EBD8
:103000008104E760C4F8108000206061607006F001
:103010000F002070A879012800D1E761AA79214624
:10302000286806F095FB0020BDE8F08170B50446E5
:103030000D4605F00F002179884201D9012070BDAD
:1030400005F0800080280AD105F00F0000EBC001D8
:1030500004F1140000EB81060120707007E005EB1D
:10306000C50104F5157000EB810600207070012089
:10307000B07005F00F00307000BF94F89404012880
:1030800001D10220DBE7012084F8940400BF31461F
:10309000206806F010FB05F00F0028B9A17904F2B2
:1030A0009C42206806F088FA00BF002084F894044F
:1030B00000BF00BFC3E72DE9F04105460E461746A5
:1030C000984606F00F0000EBC00105F1140000EB7C
:1030D0008104E760C4F81080002060610120607006
:1030E00006F00F002070A879012800D1E761AA79C5
:1030F0002146286806F02CFB0020BDE8F0812DE970
:10310000FE4F0446D4F800B05E46206806F0E2FDAB
:10311000002874D1206806F01CFE08B9BDE8FE8FB7
:1031200040F608008059C0F30D20C4F8D40420688C
:1031300006F00FFE00F00200022805D12068406969
:1031400000F0020021684861206806F002FE00F0ED
:103150001000102845D12068806920F010002168F7
:103160008861DBF8209009F00F0000EBC00104F546
:10317000157000EB810AC9F3434002281AD147F6C3
:10318000F07009EA000030B3C9F30A125846DAF8C1
:103190000C1006F0E3FDC9F30A11DAF80C0008443C
:1031A000CAF80C00C9F30A11DAF814000844CAF886
:1031B000140010E0C9F3434006280CD1082204F2A1
:1031C0009C41584606F0CAFDC9F30A11DAF814000A
:1031D0000844CAF814002068806940F01000216893
:1031E0008861206806F0B5FD00F40020B0F5002FDE
:1031F0007BD10025206806F07CFD029072E0E1E2C0
:10320000029800F00100002868D0E9B2206806F0BA
:1032100093FD804608F0010048B1012106F53060B9
:1032200000EB451081602946204603F04DF808F078
:103230000800082809D1082106F5306000EB451088
:1032400081602946204603F00DF808F01000102890
:1032500005D1102106F5306000EB4510816008F0C3
:103260000200022824D1DBF8140000F0800080283E
:1032700007D140F60400805940F4806140F6040014
:10328000815105EBC50104F5157000EB810A9AF830
:103290000300012806D100208AF80300E9B2204685
:1032A00000F09BFA022106F5306000EB45108160CA
:1032B00008F02000202805D1202106F5306000EB21
:1032C0004510816008F40050B0F5005F06D14FF45E
:1032D000005106F5306000EB451081606D1C0298CE
:1032E00040080290029800288AD1206806F031FD3B
:1032F00000F48020B0F5802F7DD1206806F0EFFC2F
:10330000029000259AE0029800F00100002873D096
:10331000E9B2206806F0F7FC804608F00100F0B33F
:1033200005F00F0101208840019040F634008159DA
:10333000019821EA000040F634018851012106F588
:10334000106000EB45108160A079012824D105EBC5
:10335000C50104F1140000EB810005EBC502C16852
:1033600004F1140000EB82008068014405EBC50203
:1033700004F1140000EB8200C1606DB905EBC501DA
:1033800004F1140000EB8100006928B904F29C42AA
:103390000121206806F010F9E9B2204600E001E0C2
:1033A000FFF714FD08F00800082805D1082106F5EC
:1033B000106000EB4510816008F01000102805D166
:1033C000102106F5106000EB4510816008F0400008
:1033D000402805D1402106F5106000EB45108160C2
:1033E00008F0020002281DD12946584606F035FC97
:1033F00005EBC50101E025E01CE004F1140000EB41
:10340000810A9AF80300012806D100208AF80300F7
:10341000E9B2204600F0D8F9022106F5106000EB71
:103420004510816008F08000802803D1294620469D
:1034300002F0ECFF6D1C02984008029002980028F0
:103440007FF461AF206806F084FC00F00040B0F12A
:10345000004F1CD140F60400805920F0010140F6D5
:103460000400815194F8CC04012807D1002084F88D
:10347000CC0400212046FFF775FC02E0204600F056
:10348000D1FA2068406900F0004021684861206856
:1034900006F05FFC00F40060B0F5006F0ED140F65E
:1034A0000800805900F0010010B1204600F012FB26
:1034B0002068406900F4006021684861206806F0D7
:1034C00048FC00F48050B0F5805F7ED140F60400E7
:1034D000805920F0010140F604008151102120683C
:1034E00006F0BBFB002732E04FF67F3106F5106097
:1034F00000EB4710816006F5106000EB4710006894
:1035000020F4001106F5106000EB471001604FF643
:103510007F3106F5306000EB4710816006F53060C2
:1035200000EB4710006820F4001106F5306000EB56
:103530004710016006F5306000EB4710006840F06E
:10354000006106F5306000EB471001607F1C2079B8
:10355000B842C9D840F61C00805940F0011140F62D
:103560001C008151E07B70B1D6F8840840F00B015B
:10357000C6F8841840F64400805940F00B0140F62C
:10358000440081510FE040F61400805942F22B01B3
:10359000084340F614018851081F805940F00B0180
:1035A0004FF401608151D6F8000820F4FE60C6F89F
:1035B0000008A17904F29C42206805F0FDFF206814
:1035C000406900F48050216800E000E04861206814
:1035D00006F0BFFB00F40050B0F5005F17D1206883
:1035E00005F098FD206806F062FBE07100F040FCF9
:1035F0000090E2792068009906F032FC204600F045
:10360000F9F92068406900F4005021684861206899
:1036100006F09FFB00F00800082808D1204600F0C3
:1036200008FA2068406900F00800216848612068B5
:1036300006F08FFB00F08000802818D1DBF818001E
:1036400020F08000CBF8180001250DE005EBC50146
:1036500004F5157000EB8100C078012803D1E9B2B0
:103660002046FFF7DAFB6D1C2079A842EED82068CF
:1036700006F06FFB00F48010B0F5801F2DD10125FE
:1036800022E006F5106000EB4510D0F8009005EB45
:10369000C50104F1140000EB81000079012812D16A
:1036A00009F00040B0F1004F0DD1012105EBC5023A
:1036B00004F1140000EB8200C170E8B240F0800118
:1036C0002046FFF7AAFB6D1C2079A842D9D82068B4
:1036D000406900F4801021684861206806F039FBD9
:1036E00000F40010B0F5001F44D1012538E006F5C4
:1036F000306000EB4510D0F8009005EBC50104F5F3
:10370000157000EB81000079012828D109F00040F4
:10371000B0F1004F23D194F8D40400F00100C9F3B4
:10372000004188421BD1012105EBC50204F515704B
:1037300000EB8200C170DBF8180040F08000CBF88D
:103740001800DBF8140000F0800040B940F60400D7
:10375000805940F4007140F60400815103E06D1C73
:103760002079A842C3D800BF2068406900F4001047
:1037700021684861206806F0ECFA00F08040B0F162
:10378000804F08D12046FFF71AFB2068406900F0FF
:10379000804021684861206806F0DBFA00F00400F0
:1037A00004280FD12068D0F8049009F00400042800
:1037B00002D12046FFF72AFB2068406840EA090052
:1037C0002168486000BFA9E470B504460D4629464B
:1037D000D4F8E00404F0B2FF70BD70B504460D46A5
:1037E0002946D4F8E00404F0CDFF70BDF8B50446D6
:1037F0000CB90120F8BD266894F8950428B900207A
:1038000084F89404204600F0A1F8032084F895047D
:10381000B6F1A04F01D10021A171206805F0C4FECE
:10382000207C8DF8000094E80F0005F087FC20B1A3
:10383000022084F895040120DCE70021206806F0CE
:10384000BDFA20B1022084F895040120D2E70025BA
:1038500031E0012105EBC50204F1140000EB820008
:10386000417005EBC50104F1140000F8215005EB8F
:10387000C50100EB81004583002105EBC50204F181
:10388000140000EB8200017105EBC50204F1140085
:1038900000EB8200816005EBC50204F1140000EB2F
:1038A0008200C16005EBC50204F1140000EB820048
:1038B0000161681CC5B22079A842CADC00252AE053
:1038C000002105EBC50204F5157000EB8200417084
:1038D00005EBC50104F5157000F82150002105EB3A
:1038E000C50200EB8200017105EBC50204F51570FD
:1038F00000EB8200816005EBC50204F5157000EB5A
:103900008200C16005EBC50204F5157000EB820072
:103910000161681CC5B22079A842D1DC207C8DF8F9
:10392000000094E80F0005F04BFD20B1022084F860
:10393000950401205EE700206074012084F895045E
:10394000206805F02BFD002054E7000010B586B07C
:103950000446142101A8FCF7F5FD2068B0F1A04F42
:1039600042D100BF002000902048006840F00100D4
:103970001E4908600846006800F00100009000BF82
:1039800000BF4FF4C050019002200290002003902D
:10399000032004900A20059001A91548FEF7D2FFE4
:1039A00000BF1248001D006840F080000F49091D4B
:1039B000086000BF002000900C481430006840F4FC
:1039C00080400A49143108600846006800F48040CD
:1039D000009000BF00BF00BF002205214320FFF779
:1039E0006FF94320FFF758F906B010BD3038024098
:1039F0000000024070B504460125E07908B90025B1
:103A000006E0E079022801D1012501E0FDF774FD0F
:103A10002946D4F8E00404F05FFFD4F8E00404F091
:103A200005FF70BD10B50446D4F8E00404F035FF7E
:103A300010BD10B50446D4F8E00404F039FF10BD01
:103A400070B504460D4600BF94F89404012801D1D6
:103A5000022070BD012084F8940400BF65742946DB
:103A6000206806F0DFF900BF002084F8940400BF4E
:103A700000BFEEE710B5044604F29C41D4F8E00420
:103A800004F041FF10BD70B50446256800BF94F8EE
:103A90009404012801D1022070BD012084F894040F
:103AA00000BFE86800F0400030B1607B012803D11E
:103AB000A86B40F48030A863206806F09FF8206867
:103AC00005F05AFC00BF002084F8940400BF00BF3A
:103AD000E2E7000010B50446D4F8E00404F070FFFB
:103AE0002068D0F8000E40F001002168C1F8000EF7
:103AF000E07A28B10348006840F0060001490860F8
:103B000010BD000010ED00E0F8B5044600250026C9
:103B1000207800F0010020B9207800F0040004288B
:103B20002FD100205B498866FFF70CF8054606E0B8
:103B3000FFF708F8401B022801D90320F8BD5648BA
:103B40000068C0F3C0600028F2D160688101207A6B
:103B500041EA007050498431086001204D4988666F
:103B6000FEF7F0FF054606E0FEF7ECFF401B0228DB
:103B700001D90320E2E748480068C0F3C06000288C
:103B8000F2D0207800F0020002287DD100BF002092
:103B9000009041484030006840F080503E4940313C
:103BA00008600846006800F08050009000BF00BF29
:103BB0003A48006840F4807038490860FEF7C2FF58
:103BC000054606E0FEF7BEFF401B022801D9032090
:103BD000B4E73248006800F480700028F2D02E4824
:103BE0007030006800F440764EB3A08900F4407055
:103BF000B04224D028487030006820F4407601207C
:103C0000274908600020086023487030066000687B
:103C100000F0010098B1FEF795FF054608E0FEF7B9
:103C200091FF401B41F28831884201D9032085E78A
:103C3000194870300068C0F340000028EFD000BF82
:103C4000A08900F44070B0F5407F0CD112480830D4
:103C5000006820F4F810134AE168114008430E4947
:103C60000831086007E00C480830006820F4F810BC
:103C7000094908310860084870300068A189C1F31B
:103C80000B010843044900E002E07031086000BF06
:103C9000002053E700004742003802400070004017
:103CA000400E4742FFFCFF0F70B504460D460CB9AD
:103CB000012070BD5848006800F00700A84209D2F2
:103CC00055490D700846006800F00700A84201D071
:103CD0000120EEE7207800F0020002281DD12078B4
:103CE00000F00400042805D14C48006840F4E0507E
:103CF0004A490860207800F00800082805D14748A4
:103D0000006840F46040454908604448006820F07D
:103D1000F000A168084341490860207800F00100E4
:103D2000A8B36068012807D13C4808380068C0F390
:103D30004040B8B90120BCE76068022802D0606842
:103D4000032807D1354808380068C0F3406048B9F7
:103D50000120AEE7314808380068C0F3400008B9D8
:103D60000120A6E72D48006820F0030061680843A1
:103D70002A490860FEF7E6FE064609E0FEF7E2FE85
:103D8000801B41F28831884202D9032091E707E085
:103D90002248006800F00C006168B0EB810FEDD1A3
:103DA0001D48006800F00700A84209D91A490D70A3
:103DB0000846006800F00700A84201D0012078E71B
:103DC000207800F00400042807D11448006820F48B
:103DD000E050E168084311490860207800F00800CD
:103DE000082808D10D48006820F46040216940EAA5
:103DF000C1000A49086000F061F808490968C1F388
:103E00000311074A515CC84006490860064800682B
:103E1000FEF7C8FE00204CE7003C02400838024094
:103E200010C50008AC000020A40000200F22026092
:103E30000D4A126802F0030242600B4A126802F057
:103E4000F0028260084A126802F4E052C260064A38
:103E5000126802F46042D2080261044A126802F059
:103E600007020A607047000008380240003C024028
:103E70000148006870470000AC00002000B5FFF763
:103E8000F7FF04490968C1F38221034A515CC84025
:103E900000BD00000838024020C5000800B5FFF74B
:103EA000E7FF04490968C1F34231034A515CC84045
:103EB00000BD00000838024020C500082DE9F04789
:103EC000002400250026A1462548006800F00C00CB
:103ED00020B1042805D008283AD105E0DFF8849005
:103EE00039E0DFF8849036E01D48001F006800F0DC
:103EF0003F041B48001F006800F4800078B11A4896
:103F00001749091F0968C1F38811A0FB0170014618
:103F1000224600233846FCF727FA05460EE01148F2
:103F20000F49091F0968C1F38811A0FB0170014600
:103F3000224600233846FCF717FA05460848001FBA
:103F40000068C0F30140401C4600B5FBF6F902E0F2
:103F5000DFF8109000BF00BF4846BDE8F0870000C2
:103F6000083802400024F400001BB700F8B50446EE
:103F70000CB90120F8BD207800F00100002874D0B1
:103F8000F948006800F00C0004280DD0F6480068DD
:103F900000F00C00082813D1F348001F006800F45B
:103FA0008000B0F5800F0BD1EF4808380068C0F3EF
:103FB0004040002859D06068002856D10120D9E738
:103FC00000BF6068B0F5803F08D1E7480838006856
:103FD00040F48030E449083908601EE06068B0F5BC
:103FE000A02F0DD1E0480838006840F48020DE4959
:103FF000083908600846006840F4803008600CE02A
:10400000D9480838006820F48030D749083908605A
:104010000846006820F48020086000BF606890B106
:10402000FEF790FD054606E0FEF78CFD401B642878
:1040300001D903209EE7CC4808380068C0F340400F
:104040000028F1D011E0FEF77DFD054606E0FEF701
:1040500079FD401B642801D903208BE7C24808384A
:104060000068C0F340400028F1D1207800F0020041
:1040700002285FD1BC48006800F00C0058B1BA4873
:10408000006800F00C0008281CD1B748001F006829
:1040900000F48000B0B9B44808380068C0F34000AC
:1040A00020B1E068012801D0012063E7AE4808385C
:1040B000006820F0F800216940EAC100AA490839E7
:1040C000086037E0E06800B30120A8490860FEF707
:1040D00039FD054606E0FEF735FD401B022801D9F3
:1040E000032047E7A04808380068C0F340000028D4
:1040F000F1D09D480838006820F0F800216940EAB6
:10410000C10099490839086014E000209749086007
:10411000FEF718FD054606E0FEF714FD401B0228D9
:1041200001D9032026E7904808380068C0F3400012
:104130000028F1D1207800F0080008282CD160690F
:10414000A8B101208A490860FEF7FCFC054606E09C
:10415000FEF7F8FC401B022801D903200AE7824839
:104160006C300068C0F340000028F1D014E000205B
:104170007F490860FEF7E6FC054606E0FEF7E2FC34
:10418000401B022801D90320F4E677486C30006810
:10419000C0F340000028F1D1207800F0040004288A
:1041A00070D1002770483830006800F0805090B916
:1041B00000BF002000906C483830006840F080500C
:1041C0006949383108600846006800F08050009066
:1041D00000BF00BF01276748006800F48070B0B9D5
:1041E0006448006840F4807062490860FEF7AAFCE9
:1041F000054606E0FEF7A6FC401B022801D9032075
:10420000B8E65C48006800F480700028F2D000BF77
:10421000A068012808D154486830006840F00100C7
:104220005149683108601DE0A06805280DD14E484D
:104230006830006840F004004B4968310860084667
:10424000006840F0010008600CE0474868300068F2
:1042500020F001004449683108600846006820F0F9
:104260000400086000BFA068A8B1FEF76BFC05461B
:1042700009E0FEF767FC401B41F28831884202D911
:10428000032077E626E0384868300068C0F3400035
:104290000028EED013E0FEF755FC054608E0FEF7D7
:1042A00051FC401B41F28831884201D9032061E66C
:1042B0002D4868300068C0F340000028EFD1012F7E
:1042C00007D129483830006820F08050264938311D
:1042D000086000BFA069002845D02348006800F0AE
:1042E0000C0008285DD0A069022845D100201F4994
:1042F0000866FEF727FC054606E0FEF723FC401B98
:10430000022801D9032035E6174808380068C0F3B1
:1043100040600028F1D1D4E907010843616A40EA0E
:1043200081110122A06AC2EB500041EA00412C2019
:10433000005D41EA00600C49091F086001200B493B
:104340000866FEF7FFFB054606E0FEF7FBFB401B99
:10435000022801D903200DE6034808380068C0F39D
:1043600040600028F1D049E0083802400000474290
:10437000800E474200700040002021490866FEF789
:10438000E1FB054606E0FEF7DDFB401B022801D9F4
:104390000320EFE51B480068C0F340600028F2D11D
:1043A0002CE0A069012800D1E4E51648001D06684C
:1043B000A069012820D006F48001E06981421BD168
:1043C00006F03F01206A814216D147F6C0703040A6
:1043D000616AB0EB811F0FD106F440310122A06A5F
:1043E000C2EB5000B1EB004F06D106F070612C20FB
:1043F000005DB1EB006F01D00120BBE50020B9E505
:10440000000047420038024070B504460CB9012054
:1044100070BD607F20B900202077204600F04EF864
:10442000022060772068C068C0F3001000283CD1EB
:1044300000BFCA202168486253202168486200BF3B
:10444000204602F030F90546EDB9206880681A4927
:1044500008402168886021696068084361690843F1
:10446000216889680843216888602168E0680861DC
:1044700020680169208941EA0040216808612046DE
:1044800002F036F905465DB92068006C20F4802002
:10449000216808642068006CA169084321680864E9
:1044A00000BFFF202168486200E000250DB901200F
:1044B00060772846ACE70000BFFF8FFF1FB50446BA
:1044C00000200090019002900390094920688842E2
:1044D0000CD102200090000203906846FFF714FB05
:1044E00008B1FDF709F80120024908601FBD00006E
:1044F000002800403C0E47422DE9F04105460C469D
:1045000017464FF0000800BF287F012802D1022083
:10451000BDE8F0810120287700BF022068774FB9FD
:10452000607800F01000102804D1607800F0EF00EF
:104530000A30607087B9E07802F0A8F80304607868
:1045400002F0A4F843EA0023A07802F09FF80343A6
:10455000207843EA403809E0E0780004617840EAD6
:104560000120A1780843217840EA413800BFCA20E1
:104570002968486253202968486200BF284602F033
:1045800092F8064646B90B4808EA000029684860D8
:10459000284602F0ADF806460EB90120687700BF44
:1045A000FF202968486200BF00BF0020287700BFB5
:1045B0003046ADE73FFFFF002DE9F04104460D46D0
:1045C00017464FF0000800BF207F012802D10220CB
:1045D000BDE8F0810120207700BF02206077CFB9CD
:1045E0002068806800F0400000B102E00020E87020
:1045F00000BF287802F04AF80304687802F046F811
:1046000043EA0023A87802F041F80343E87843EA3C
:10461000805812E02068806800F0400000B102E09D
:104620000020E87000BF28780004697840EA012083
:10463000A9780843E97840EA815800BFCA20216878
:10464000486253202168486200BF204602F02BF8E0
:104650000646B6B9124808EA0000216808602068DA
:10466000806820F4802021688860D5E90301084330
:1046700021688968084321688860204602F038F87C
:1046800006460EB90120607700BFFF20216848620E
:1046900000BF00BF0020207700BF304698E7000031
:1046A0007F7F7F0070B5044600250B482168C860F5
:1046B000FEF748FA054607E0FEF744FA401BB0F55E
:1046C0007A7F01D9032070BD2068C06800F0200007
:1046D0000028F1D00020F6E75F7F010070477047A7
:1046E00010B504460CB9012010BD94F83D0028B95E
:1046F000002084F83C00204600F025F8022084F8D1
:104700003D00211D206802F025FC012084F84600B0
:1047100000BF84F83E0001213F2001554020015593
:104720004120015500BF00BF012084F84200432012
:104730000155442001554520015500BF012084F852
:104740003D000020D0E77047014691F83D00012868
:1047500001D001207047022081F83D000868C06840
:1047600040F001000B68D8601A4B086898421BD0D3
:104770000868B0F1804F17D0174B0868984213D0E3
:10478000164B086898420FD0154B086898420BD01A
:10479000144B0868984207D0134B0868984203D01E
:1047A000124B086898420CD10868806800F0070234
:1047B000062A0CD00868006840F001000B681860F9
:1047C00005E00868006840F001000B6818600020F0
:1047D000C0E7000000000140000400400008004065
:1047E000000C00400004014000400140001800405F
:1047F000704770B504462068C5682068066906F0F1
:104800000200022819D105F00200022815D1401F2C
:1048100021680861012020772068806900F003008A
:1048200018B12046FFF7E4FF05E0204600F097F8B6
:10483000204600F095F80020207706F004000428B8
:1048400019D105F00400042815D1C043216808617E
:10485000022020772068806900F4407018B120465B
:10486000FFF7C6FF05E0204600F079F8204600F08B
:1048700077F80020207706F00800082819D105F005
:104880000800082815D1C04321680861042020775A
:104890002068C06900F0030018B12046FFF7A8FFA8
:1048A00005E0204600F05BF8204600F059F80020B3
:1048B000207706F01000102819D105F010001028FC
:1048C00015D1C04321680861082020772068C0699D
:1048D00000F4407018B12046FFF78AFF05E020463B
:1048E00000F03DF8204600F03BF80020207706F06D
:1048F000010048B105F0010030B16FF001002168FE
:104900000861204600F02EF806F08000802809D1CA
:1049100005F08000802805D1C04321680861204649
:10492000FFF7DCFE06F04000402809D105F040000A
:10493000402805D1C04321680861204600F01EF8D8
:1049400006F02000202809D105F02000202805D1FC
:10495000C043216808612046FFF7C1FE70BD704763
:104960007047000010B5044603492068884201D111
:10497000FEF7EEF810BD0000000001407047F8B5EA
:1049800004460D46164694F8420020282DD105B164
:104990000EB90120F8BD012020630020606332467B
:1049A0002946204602F0D0FD0746206B012819D188
:1049B00000BF0020009020680068009020684068D8
:1049C000009000BF00BF00BF00BF21680C3151E85C
:1049D000001F41F0100021680C3141E80002002A5C
:1049E000F3D100E001273846D4E70220D2E70000E7
:1049F000034B02689A4202D10122024B1A7070479F
:104A00000048004088010020704700002DE9F84F61
:104A10000446206805682068C668206847694FF02A
:104A20000009CA4605F00F09B9F1000F0AD105F0D7
:104A3000200038B106F0200020B1204602F0F0FB43
:104A4000BDE8F88FB9F1000F7CD007F0010018B96C
:104A500006F49070002875D005F0010030B106F41E
:104A6000807018B1606C40F00100606405F00400D3
:104A700030B107F0010018B1606C40F002006064D2
:104A800005F0020030B107F0010018B1606C40F091
:104A90000400606405F0080048B106F0200010B979
:104AA00007F0010018B1606C40F008006064606CB1
:104AB000002846D005F0200028B106F0200010B1F3
:104AC000204602F0ADFB20684069C0F3801A606C9C
:104AD00000F0080010B9BAF1000F2DD0204602F006
:104AE00046FB2068406900F04000402820D100BF0C
:104AF00000BF2168143151E8001F21F040002168F7
:104B0000143141E80002002AF3D100BFE06B50B13C
:104B10007F48E16B0865E06BFDF70BFD88B1E06B4A
:104B2000016D88470DE02046FFF76EFF09E009E0C0
:104B30002046FFF769FF04E02046FFF765FF0020ED
:104B400060647DE7206B012878D105F01000002813
:104B500074D006F010000028FAD000BF00200090AA
:104B600020680068009020684068009000BF00BF87
:104B70002068406900F04000402870D1E06B006878
:104B800040681FFA80F8B8F1000F58D0A08D40455A
:104B900055DDA4F82E80E06BC069B0F5807F43D06E
:104BA00000BF00BF21680C3151E8001F21F4807064
:104BB00021680C3141E80002002AF3D100BF00BF98
:104BC00000BF2168143151E8001F21F00100216865
:104BD000143141E80002002AF3D100BF00BF00BF3A
:104BE0002168143151E8001F21F040002168143180
:104BF00041E80002002AF3D100BF202084F84200DF
:104C00000020206300BF00BF21680C3151E8001F65
:104C100021F0100021680C3141E80002002AF3D194
:104C200000BFE06BFDF72FFC02206063A08DE28DDA
:104C3000801A81B22046FFF7DBFE0EE052E0A08D25
:104C400040450AD1E06BC069B0F5807F05D10220F4
:104C50006063A18D2046FFF7CBFEF1E6FFE7A08D54
:104C6000E18D401A1FFA80F8E08DD0B3B8F1000F43
:104C700037D000BF00BF21680C3151E8001F21F47C
:104C8000907021680C3141E80002002AF3D100BF86
:104C900000BF00BF2168143151E8001F21F001005E
:104CA0002168143141E80002002AF3D100BF20201E
:104CB00084F842000020206300BF00BF21680C314F
:104CC00051E8001F21F0100021680C3141E800027A
:104CD000002AF3D100BF0220606341462046FFF75F
:104CE00087FEADE605F0800030B106F0800018B117
:104CF000204602F095FCA3E605F0400030B106F036
:104D0000400018B1204602F068FA99E600BF97E625
:104D10003570000810B504460CB9012010BDA0691B
:104D200000B100E000BF94F8410028B9002084F8E9
:104D30004000204600F02AF8242084F84100206832
:104D4000C06820F400502168C860204602F0E6FAEE
:104D50002068006920F4904021680861206840695B
:104D600020F02A00216848612068C06840F40050A3
:104D70002168C86000206064202084F8410084F825
:104D800042000020606300BFC8E7000010B586B095
:104D90000446142101A8FBF7D5FBAB4920688842E3
:104DA0007ED100BF00200090A848006840F01000AD
:104DB000A64908600846006800F01000009000BF97
:104DC00000BF00BF00200090A0481438006840F0E9
:104DD00002009E49143908600846006800F002008D
:104DE000009000BF00BF00BF002000900846006890
:104DF00040F0010008600846006800F001000090E3
:104E000000BF00BF8020019002200290002003908C
:104E1000032004900720059001A98D48FDF792FD1D
:104E20004FF40070019002200290002003900320B4
:104E300004900720059001A98648FDF783FD864868
:104E4000864908604FF00060486000218348816017
:104E5000C1604FF4806101610021416181614FF4C3
:104E60008071C161002101624162FDF797FC08B1C8
:104E7000FCF742FB00BF7948E063846300BF7648DB
:104E80007830774908604FF00060486040217448EE
:104E900081600021C1604FF480610161002100E068
:104EA00011E0416181614FF48071C16100210162B3
:104EB0004162FDF773FC08B1FCF71EFB00BF6848B8
:104EC000A0638463BEE06749206888425DD100BF6B
:104ED000002000905D48001F006840F480205B497E
:104EE000091F08600846006800F48020009000BF99
:104EF00000BF00BF0020009054481438006840F004
:104F000004005249143908600846006800F00400A3
:104F1000009000BF00BF4FF440600190022002905B
:104F200000200390032004900720059001A94E481B
:104F3000FDF708FD4D484E4908604FF0006048609D
:104F400000214B488160C1604FF480610161002104
:104F5000416181614FF48071C1614FF44031016260
:104F600000214162FDF71AFC08B1FCF7C5FA00BF49
:104F70003F48E063846300BF002205212720FDF73E
:104F80009FFE2720FDF788FE5CE03A4920688842B2
:104F900058D100BF002000902C48006840F020004D
:104FA0002A4908600846006800F02000009000BF11
:104FB00000BF00BF0020009024481438006840F073
:104FC00040002249143908600846006800F040009B
:104FD000009000BF00BF4FF4844001900220029077
:104FE00000200390032004900820059001A9224886
:104FF000FDF7A8FC1848183820490860800548606B
:1050000000211E488160C1604FF480610161002170
:10501000416181614FF48071C1610021016241628F
:10502000FDF7BCFB08B1FCF767FA00BF1348E0636B
:10503000846300BF002205214720FDF741FE472081
:10504000FDF72AFE06B010BD0010014044380240B2
:105050000004024000000240406402406806002054
:10506000C8060020004800400008024028600240B6
:105070002807002000140140001802408807002083
:1050800070477047704700BFFEE7000080ED080AD8
:10509000C0ED090A80ED0A1A41648264DFED121A3C
:1050A000C0ED0C1ADFED101AC0ED0E1ADFED0E1A6E
:1050B000C0ED0D1ADFED0C1AC0ED021ADFED0A1A71
:1050C000C0ED031ADFED081AC0ED041ADFED061A71
:1050D000C0ED101ADFED041AC0ED011ADFED021A5F
:1050E000C0ED001A704700000000000030B50B460C
:1050F000002100BF16E00A24B4EB107F05D930244C
:1051000004EB107403F8114005E0412404EB107423
:105110000A3C03F81140000100254C00641C1D5599
:105120004C1CE1B29142E6DB30BD000000B58BB013
:10513000012003900021059106910821079100218B
:1051400002A80176FF208DF82400FF2102A84177F4
:105150008177C1778DF828108DF829108DF82A10E5
:10516000FC218DF82B1009A801230022034900908F
:1051700003480068FBF7C4FC0BB000BD48050020E5
:10518000080000200FB410B52DED048B9DF83400FD
:1051900000F00F040698441EB2EE090AB0EE408AF1
:1051A0009FED910AF0EE408AB1EE0C0AB0EE409A03
:1051B0008E4850F8240090ED010ABCEEC00A10EEB3
:1051C000100A8A4951F8241008849DF8340000110F
:1051D000864951F82410088006A8817F407F41EA63
:1051E000002000EE100AB8EE400A804850F8240073
:1051F00080ED060A06A8C07F01019DF8380041EA4B
:10520000201000EE100AB8EE400A784850F824004A
:1052100080ED070A9DF838009DF8391000EE101A4D
:10522000B8EE400A714850F8240080ED040A6F4936
:1052300051F8241091ED060ABDEEC00A10EE100AD6
:105240001021F0EE480AB1EE480A05F019FC674853
:1052500050F8240080ED010A644850F82400D0ED95
:10526000010AB0EE001A80EE810ADFED610A20EE3D
:10527000200ADFED600A20EE200A5C4850F8240086
:1052800080ED010A594951F8241091ED070ABDEE4D
:10529000C00A10EE100A0C21F0EE680AB1EE680A9E
:1052A00005F0EEFB514850F8240080ED020A4F490A
:1052B00051F8241091ED040ABDEEC00A10EE100A58
:1052C0000C21F0EE490AB1EE490A05F0D9FB474836
:1052D00050F8240080ED050A9DF83A0000EE100A0F
:1052E000B8EE400ABCEEC00A10EE100A3F4951F871
:1052F000241008739DF83B0000EE100AB8EE400A37
:10530000BCEEC00A10EE100A384951F82410487358
:10531000364850F82400D0ED010A344850F82400F3
:10532000008C00EE100AB8EE400A30EEC00ADFED45
:10533000320AB4EEE00AF1EE10FA09D22B4850F826
:105340002400008F401C00B2284951F8241008871F
:10535000264850F82400008C00EE100AB8EE400AEF
:10536000224850F82400D0ED010A30EE600ADFED4B
:10537000220AB4EEE00AF1EE10FA09D21B4850F806
:105380002400008F401E00B2184951F824100887ED
:10539000164850F82400D0ED010A144850F82400B3
:1053A000B0F93800400300EE100AB8EEC00A30EE43
:1053B000800A0E4850F8240080ED0F0A0B4850F880
:1053C0002400B0F84400401C084951F82410A1F80A
:1053D00044000120054951F8241081F84200BDEC39
:1053E000048B10BC5DF814FB0000484360010020F2
:1053F000DB0F4940000010420020CBC508B506F085
:1054000099FA009000BF00BF0948B0F8440009496C
:105410000988884201D1FFF789FE0548B0F84400A9
:10542000044908800121684605F0B2FCECE7000061
:10543000986300203C0200202DE9F0472DED0A8BF7
:10544000B0EE408AF0EE608AB0EE419AF0EE619ADA
:10545000B0EE42AA0446DFED340A88EE200AF0EEF0
:10546000000A20EE200ADFED310A20EE200AB0EE1D
:1054700040CA9FED2F0AF0EE40AA9FED2E0AB0EE33
:1054800040BAB1EE0C0AF0EE40BA1020B0EE6A1A43
:10549000F1EE6A0AB0EE4C0A04F09DFE85B20C20D3
:1054A000B0EE4B1AF1EE4B0AB0EE680A04F093FE30
:1054B00086B20C20B0EE6B1AF1EE6B0AB0EE4A0A1F
:1054C00004F089FE87B20C209FED1B1ADFED1B0A4A
:1054D000B0EE490A04F07FFE1FFA80F80C20B1EE0E
:1054E000041ADFED160AB0EE690A04F074FE1FFA22
:1054F00080F9281220706570C6F30710A07030077D
:10550000000E40EA2820E07084F80480C9F30710F8
:1055100060714FEA0970000E40EA2720A071E77120
:10552000BDEC0A8BBDE8F08700000046DB0F494068
:10553000DC0F4940000048430000FA43000000002F
:105540003048428A007C42EA00422E48407C42EACF
:105550004041002052E0012282400A40FAB12A4A2A
:10556000125C521CD3B2284A1354125C032A08DD81
:10557000254A143A9268012383401A43224B143B74
:105580009A60214A125C3C2A37DD1F4A143A13699B
:105590000122824013431C4A143A13612DE01A4A37
:1055A000125C032A0DDD184A125C3C2A09DA164AFD
:1055B000143AD268012383401A43134B143BDA6038
:1055C00008E0114A143AD268012383409A430E4BF3
:1055D000143BDA600C4A143A9368012282409343E8
:1055E000094A143A93601269012383409A43064B97
:1055F000143B1A610023044A1354401C1228AADBEE
:1056000070470000C0640020FC64002070EE601A47
:10561000B0EE611AD0ED031A90ED042A71EEC21AB1
:10562000B0EE082A20EE022AF0EE002A22EE222A0C
:10563000C2EE212AC1ED002AD0ED031A90ED042A12
:1056400071EEC21AB0EE082A21EE022AC2EE212A19
:10565000C1ED012AD1ED001AB1EE042AF4EEC21A0E
:10566000F1EE10FA03DBF1EE041AC1ED001AD1EDF0
:10567000001AB9EE042AF4EEC21AF1EE10FA03D8B9
:10568000F9EE041AC1ED001AD1ED011AB1EE042AA7
:10569000F4EEC21AF1EE10FA03DBF1EE041AC1EDDA
:1056A000011AD1ED011AB9EE042AF4EEC21AF1EE94
:1056B00010FA03D8F9EE041AC1ED011A7047000080
:1056C0000FB40099A1F207203E4901EB401109886F
:1056D0003C4A02EB401291819DF81D109DF81C2060
:1056E00041EA0221374A02EB401211809DF81F2047
:1056F0009DF81E1042EA012109B2324A02EB401223
:1057000051809DF821209DF8201042EA012109B224
:105710002C4A02EB401291802A4901EB4011098882
:10572000284A02EB40129289891A274A91420ADAE2
:10573000244901EB4011898A491C09B2214A02EB34
:105740004012918215E01F4901EB401189891D4AE1
:1057500002EB40121288891A1B4A914209DA194950
:1057600001EB4011898A491E09B2164A02EB401228
:105770009182144901EB40110988124A02EB401250
:10578000928A4FF4005313FB02110E4A02EB4012AF
:1057900011610C4901EB401109880A4A02EB4012E1
:1057A0009181084901EB4011898B491C054A02EBA4
:1057B000401291830121034A02EB4012917604B01A
:1057C00070470000E063002090E8FFFF0FB40099ED
:1057D000A1F201209DF81D109DF81C2041EA022134
:1057E0003A4A02EB401211809DF81F209DF81E10CE
:1057F00042EA012109B2354A02EB401251809DF87C
:1058000021209DF8201042EA012109B22F4A02EB23
:10581000401291809DF822102C4A02EB40129171A7
:105820002A4901EB40110988284A02EB401292896B
:10583000891A274A91420ADA244901EB4011898AE0
:10584000491C09B2214A02EB4012918215E01F491E
:1058500001EB401189891D4A02EB40121288891A16
:105860001B4A914209DA194901EB4011898A491E04
:1058700009B2164A02EB40129182144901EB401121
:105880000988124A02EB4012928A4FF4005313FB2C
:1058900002110E4A02EB401211610C4901EB40115A
:1058A00009880A4A02EB40129181084901EB401134
:1058B000498B491C054A02EB401251830121034ADE
:1058C00002EB4012117604B0704700000064002023
:1058D00090E8FFFF30B5039C050A257060700D0A43
:1058E000A570E170150A257162711D0AA571E37139
:1058F00030BD000010B50E480E4908600320486016
:1059000000210C488160C1604FF4102101614FF407
:10591000001141610021017641768176C1760177DF
:1059200001214177FCF772FB08B1FBF7E5FD10BDE3
:10593000006400402005002010B50E480E490860A4
:105940000320486000210C488160C1604FF41021A1
:1059500001614FF4001141610021017641768176A9
:10596000C176017701214177FCF750FB08B1FBF7C5
:10597000C3FD10BD006800404805002008B500BF09
:10598000002000901E48006840F400101C49086088
:105990000846006800F40010009000BF00BF00BF80
:1059A000002000900846006840F480000860084627
:1059B000006800F48000009000BF00BF00220521B5
:1059C0000C20FDF77DF90C20FDF766F9002205217A
:1059D0003920FDF775F93920FDF75EF90022052120
:1059E0003A20FDF76DF93A20FDF756F9002205211E
:1059F0004620FDF765F94620FDF74EF908BD000089
:105A00003038024000B5C7B000222421202005F024
:105A10002BFC4849086000222421202005F024FCAA
:105A20004549086000222421102005F01DFC43494F
:105A3000086000221921102005F016FC404908607A
:105A40001C22404940A8FAF74BFD002140A804F071
:105A500027FC3D4908601C223A491C3139A8FAF755
:105A60003FFD002139A804F01BFC384908601C22C6
:105A70003449383132A8FAF733FD002132A804F056
:105A80000FFC334908601C222E4954312BA8FAF729
:105A900027FD00212BA804F003FC2E4908601C22DE
:105AA0002849703124A8FAF71BFD002124A804F02E
:105AB000F7FB294908601C2222498C311DA8FAF7FE
:105AC0000FFD00211DA804F0EBFB244908601C22F7
:105AD0001C49A83116A8FAF703FD002116A804F006
